:020000040800F2
:10000000A062002015020008A9480008A9480008BD
:10001000A9480008A9480008A948000800000000F5
:10002000000000000000000000000000A9480008D7
:10003000A948000800000000A9480008ED90000849
:100040002F0200082F0200082F0200082F020008CC
:100050002F0200082F0200082F0200082F020008BC
:100060002F0200082F0200082F020008BD210008FF
:10007000DD210008FD2100081D2200083D220008A6
:1000800069220008952200082F0200085FC30008BB
:1000900055C400082F0200082F0200082F02000894
:1000A0002F0200082F0200082F0200082F0200086C
:1000B0002F0200082F0200082F0200082F0200085C
:1000C0002F0200082F0200082F0200082F0200084C
:1000D0002F0200083D940008FD9400082F0200083C
:1000E0002F0200082F02000851C300082F02000849
:1000F0002F0200082F0200082F0200082F0200081C
:100100002F0200082F0200082F0200082F0200080B
:100110002F0200082F0200082F0200082F020008FB
:10012000B5220008D5220008F9220008192300088A
:1001300000F002F800F05FF80AA090E8000C82449A
:100140008344AAF10107DA4501D100F054F8AFF277
:10015000090EBAE80F0013F0010F18BFFB1A43F0A5
:100160000103184798080100B80801000A444FF03D
:10017000000C10F8013B13F0070408BF10F8014B06
:100180001D1108BF10F8015B641E05D010F8016B4B
:10019000641E01F8016BF9D113F0080F1EBF10F8AF
:1001A000014BAD1C0C1B09D16D1E58BF01F801CBD2
:1001B000FAD505E014F8016B01F8016B6D1EF9D555
:1001C0009142D6D37047000000230024002500266A
:1001D000103A28BF78C1FBD8520728BF30C148BFAA
:1001E0000B607047782900F07780002070471FB5BA
:1001F0001FBD10B510BD00F017FA1146FFF7F7FF4D
:100200000DF0FAFF00F035FA03B4FFF7F2FF03BC7C
:100210000CF06CFC0948804709480047FEE7FEE700
:10022000FEE7FEE7FEE7FEE7FEE7FEE7FEE7FEE7A6
:1002300004480549054A064B7047000061910008D3
:1002400031010008A05C0020A0620020A05E002018
:10025000A05E0020704700000FB4044910B503AA47
:10026000029800F081F910BC5DF814FB0802002030
:100270002DE9F0410E460446002020622046E16848
:10028000884730B3252805D0D4E901219047206A5A
:10029000401CF2E7E168204600278847050018D097
:1002A000A5F14100192802D820354FF400673246E5
:1002B000294620462760FFF795FF40B1012804D06A
:1002C000F61D26F007060836D8E7361DD6E728467D
:1002D000DAE7206ABDE8F08170B504460D46214694
:1002E0001068AFF300802188090502D50F4A7A44CF
:1002F00002E00E4A7A440E32002104F1240305E0A4
:1003000000F00F060009965D5E54491C0028F7D1E5
:1003100020780023000704D5702D02D009B10223F4
:1003200011322046BDE8704000F0C5B8E206010079
:1003300030B505460B462A4613F8014B12F8010B5F
:1003400008B1A042F8D01CB1002802D06D1CF1E722
:10035000284630BD10B5431C02E010F8011B71B1F6
:100360008107FAD14FF0013202C88C1A8C4314EA8B
:10037000C211F9D0C01A0A0603D0C01E10BDC01A9F
:1003800010BD0A0401D0801E10BD0902FCD0401E21
:1003900010BD032A40F2308010F0030C00F01580ED
:1003A00011F8013BBCF1020F624498BF11F801CB78
:1003B00000F8013B38BF11F8013BA2F1040298BFDD
:1003C00000F801CB38BF00F8013B11F0030300F047
:1003D000DD80083AC0F0088051F8043B083A51F833
:1003E00004CBA0E80810F5E7121D5CBF51F8043BF0
:1003F00040F8043BAFF30080D20724BF11F8013B63
:1004000011F801CB48BF11F8012B24BF00F8013BC4
:1004100000F801CB48BF00F8012B70474FF00002F5
:100420000429C0F0128010F0030C00F01B80CCF106
:10043000040CBCF1020F18BF00F8012BA8BF20F874
:10044000022BA1EB0C0100F00DB85FEAC17C24BFC8
:1004500000F8012B00F8012B48BF00F8012B704772
:100460004FF0000200B5134694469646203922BF4D
:10047000A0E80C50A0E80C50B1F12001BFF4F7AF98
:10048000090728BFA0E80C5048BF0CC05DF804EB7A
:10049000890028BF40F8042B08BF704748BF20F8E8
:1004A000022B11F0804F18BF00F8012B70477047E6
:1004B0007047704770472DE9F0470D4699469246C0
:1004C000044600F124080168880604D5E06921F09B
:1004D0001001216000E00120A84201DD471B00E07F
:1004E0000027A1697A1902EB0900081AA061207897
:1004F000C00602D42046AFF30080002608E0D4E90D
:1005000001211AF806009047206A401C761C2062E0
:100510004E45F4DB2078C0060AD52046AFF30080B4
:1005200006E0D4E9012130209047206A401C206277
:10053000381EA7F10107F4DC07E0D4E9012118F81F
:1005400005009047206A401C2062281EA5F1010585
:10055000F3DC2046AFF300802078000602D50220AD
:10056000BDE8F0870120FBE7074B70B50D467B44E3
:1005700000F043F80446284600F052F810B14FF05E
:10058000FF3070BD204670BDCFDA000010B5203AB4
:10059000C0F00B80B1E81850203AA0E81850B1E83C
:1005A0001850A0E81850BFF4F5AF5FEA027C24BFF2
:1005B000B1E81850A0E8185044BF18C918C0BDE8E9
:1005C00010405FEA827C24BF51F8043B40F8043BB2
:1005D00008BF7047D20728BF31F8023B48BF11F867
:1005E000012B28BF20F8023B48BF00F8012B7047C1
:1005F00001694A1C02610878704700B58FB0CDE9E7
:1006000001310021059105497944CDE903101146D6
:100610006846FFF72DFE0FB000BD0000E5FFFFFFAD
:10062000007B00F080007047754600F02BF8AE4666
:1006300005006946534620F00700854618B020B5EE
:10064000FFF7F6FDBDE820404FF000064FF0000731
:100650004FF000084FF0000B21F00701AC46ACE86A
:10066000C009ACE8C009ACE8C009ACE8C0098D46D7
:10067000704710B50446AFF300802046BDE8104037
:10068000FFF7C2BD004870473C5C002010B504462F
:1006900024B1012C07D0022C15D10AE01021012031
:1006A00008F060F910E04FF48051022008F002F9E0
:1006B0000AE01021012008F055F94FF48051022082
:1006C00008F0F8F800E000BF00BF10BD0146CAB254
:1006D0000B1243EA0220704710B5002404E0A7483B
:1006E000005DA7490855641CA64800888442F6D3DB
:1006F000A3484068A4494860A14880688860A14830
:1007000000881F280FD00220FFF7C0FF00209C495F
:100710000860487B1A22052108F010FA0021012008
:1007200008F0EEF910BD9648C07B282803D0944805
:10073000C07B2A2816D19248407C01069048807CD4
:1007400041EA00418E48C07C41EA00208C49097D85
:1007500008438E4908608A48C17D807D41EA0020B7
:100760008B490860864800688A4988426FD184486E
:10077000407B89490968884207D88148807B0128E5
:1007800003DB7F48807B10280DDD0220FFF77EFF12
:100790007B49487B2422052108F0D0F90021012063
:1007A00008F0AEF9E8E07648C07B25285FD01BDC76
:1007B00015286FD00EDC08286DD006DC00285BD031
:1007C000032830D0042867D176E00A2873D0122895
:1007D000F9D12DE01A380A285ED2DFE800F0392E70
:1007E000B17D33B1B1B1B1438A286FD00EDC552849
:1007F00067D006DC282844D02A284ED02F28E2D102
:1008000054E05A2829D08828DDD176E0A8286DD078
:1008100004DC8F286FD09E28D5D173E0AA287BD026
:10082000AF28D0D182E05649487B06F01BFF95E007
:100830005349487B06F0EEFD90E05149487B06F0B5
:1008400025FF8BE04E49487B06F020FF86E086E0DE
:100850004B49487B06F02EFE80E04949487B06F074
:100860001FFE7BE04649487B06F0B8FE76E044492F
:10087000487B06F065FE71E04149487B06F00EFFBB
:100880006CE03F49487B42490A684049096806F0E4
:100890001BFE63E01BE024E052E03949487B3C4901
:1008A0000A683A49096806F035FF57E03449487B41
:1008B00006F010FF52E02AE03149487B06F092FD35
:1008C0004CE02F49487B06F0C9FD47E029E02C4960
:1008D000487B06F0C3FD41E02949487B06F0BEFD98
:1008E0003CE02749487B06F0B9FD37E02449487BC6
:1008F00006F0B4FD32E01EE00EE02149487B06F030
:10090000ADFD2BE01E49487B06F0A8FD26E01C4902
:10091000487B06F0A3FD21E01949487B06F09EFDC7
:100920001CE01749487B06F099FD17E01449487B05
:1009300006F094FD12E01249487B06F08FFD0DE0B1
:100940000220FFF7A3FE0E49487B2022052108F074
:10095000F5F80021012008F0D3F800BF0CE00220D8
:10096000FFF794FE0649487B2022052108F0E6F8AF
:100970000021012008F0C4F800BFD3E67011002068
:10098000B0110020EE020020D0110020F002002063
:10099000F4020020555342435C03002010B50024AC
:1009A00049E047F6FF70294908602948008800F0AF
:1009B0000F002849087008460078274901EB80009D
:1009C000D0F8000C84B204F40040C8B1214800788B
:1009D00001EB8000D0F8000CC0F30E0048F68F71D8
:1009E00008401C4909781C4A02EB8101C1F8000C3F
:1009F00018490978491E194A52F8210080471AE01F
:100A000004F08000B8B113480078134901EB80006E
:100A1000D0F8000C48F60F7108400E4909780E4ACC
:100A200002EB8101C1F8000C0A490978491E0C4A01
:100A300052F8210080470548006880B204490880C8
:100A400000F400400028ACD110BD0000445C004020
:100A50002003002008040020005000404003002034
:100A60002403002008B50020009022E19748008868
:100A700000F00F00964908700846007800287CD1E5
:100A800094480068944908800846008800F03000C7
:100A9000924908809048008800F440508E490880B0
:100AA0008C4909684BF6BF7201EA020080F40050DD
:100AB00080F0200040F4004141F08001854A11603F
:100AC0008248008800F0100090BB1046006848F68D
:100AD0000F7108401146086003F0D6FF7D49096890
:100AE0004BF6BF7201EA02007B49098801F480518C
:100AF00009B180F480507849098801F4005109B1A6
:100B000080F400507549098801F0100109B180F0A6
:100B100010007249098801F0200109B180F020001D
:100B200081B241F4004141F080016A4A116008BD80
:100B3000FFE76848006880B20090BDF8000000F44C
:100B40000060B0B363480068C0F30E0048F68F71D0
:100B500008406049086008F00FF85E4909684BF6E4
:100B6000BF7201EA02005C49098801F4805109B1B1
:100B700080F480505849098800E056E001F40051A3
:100B800009B180F400505549098801F0100109B1FC
:100B900080F010005149098801F0200109B180F06E
:100BA000200081B241F4004141F08001494A1160C6
:100BB000BDE7FFE7BDF8000000F40040002878D052
:100BC00044480068C0F30E0048F68F710840414960
:100BD000086005F02DFE3F4909684BF6BF7201EA37
:100BE00002003D49098801F4805109B180F4805028
:100BF0003949098801F4005109B180F4005037499E
:100C0000098801F0100109B180F01000334909880A
:100C100001F0200109B180F0200081B241F40041CF
:100C200041F080012B4A116081E7294800782C4966
:100C300001EB8000D0F8000C80B20090BDF80000FD
:100C400000F40040C0B12248007801EB8000D0F8E9
:100C5000000CC0F30E0048F68F7108401C4909785B
:100C60001F4A02EB8101C1F8000C19490978491E9D
:100C70001C4A52F821008047BDF8000000F08000B7
:100C8000B8B113480078164901EB8000D0F8000C89
:100C900048F60F7108400E490978114A02EB8101AC
:100CA000C1F8000C0A490978491E0F4A52F8210080
:100CB000804708484430006880B20449088000F446
:100CC000004000287FF4D2AE00BF30E720030020B0
:100CD00008040020005C00401C0400201E040020CA
:100CE00000500040400300202403002000B50246CD
:100CF000507800F008F80346107800F004F803EB91
:100D00000010C0B200BD0146A1F16100002802D46C
:100D10000A30C0B27047A1F14100002802D40A3065
:100D2000C0B2F7E7A1F13000C0B2F3E70B4A02EB23
:100D30008001D1F8001C01F4804171B102EB800107
:100D4000D1F8001C48F68F7211404CF2800211431A
:100D5000024B03EB8002C2F8001C704700500040B9
:100D60000B4A02EB8001D1F8001C01F0400171B187
:100D700002EB8001D1F8001C48F68F72114048F256
:100D8000C0021143024B03EB8002C2F8001C704703
:100D9000005000400020064908704870054908705E
:100DA000054908600549086005490860704700006A
:100DB000280400202A0400202C04002030040020F5
:100DC00034040020084A02EB8001D1F8001C48F6E8
:100DD0008F62114048F280021143034B03EB800203
:100DE000C2F8001C704700000050004070B5054676
:100DF0000E46287808B9012400E02C78012C02D096
:100E0000022C0CD105E001200849087005F02CFFE8
:100E100007E002200549087005F0C6FE01E0002445
:100E200000BF00BF34704FF0011070BD7812002079
:100E300030B502460B461078547840EA04210B483E
:100E400000680B4CB0FBF4F0801C0324B0FBF4F002
:100E500041430846044600BF00BF651E2C1EFCD15E
:100E600000BF00201870034830BD000014020020AD
:100E700040420F000100020010B504460020044962
:100E8000087005F0C5FE00202070012010BD000094
:100E90007812002030B502461546521C12F8014B5C
:100EA0000BE012F8013B03F0020020B103F0100048
:100EB00010B1121D00E0121D641E002CF1D10020A3
:100EC00008704870501B0004801C30BD70B504468B
:100ED0000D46207810B1012810D107E0627802F0A9
:100EE00001000B4A1268116888470BE0627802F033
:100EF0000100074A12685168884703E0FF20287004
:100F0000044870BD00BF002028700248F9E70000C7
:100F1000000200200100020010B502460020062A4F
:100F20001BD006DC062A30D2DFE802F02F0C0D0EB3
:100F30000F16F02A12D0FD2A14D0FE2A21D0FF2A43
:100F400023D118E022E021E020E0114B1C680C6066
:100F50001B790B71052019E018E017E017230B70BF
:100F6000012013E000230B7010234B7000238B70C3
:100F7000CB7004200AE040230B7000234B7002204A
:100F800004E040230B70012000E000BF00BF10BD53
:100F9000E3FB0008F0B502460E4612F8013B12488A
:100FA00083750025002109E012F8014B0E48183026
:100FB0004454083020F811502544491C9942F3D379
:100FC000002108E008481830405C2D1A06483030EF
:100FD00020F81150491C9942F4D300203070581C5D
:100FE0000004401CF0BD00007812002070B50646D9
:100FF0000C4612480078022800D019E031780F48DA
:10100000C175C07D0D49897D884200DB10E00E204E
:1010100003F0F0FD03F0E8FF054600202070657046
:10102000280AA070280CE070280E2071044870BDBA
:10103000FF2020704FF00110F9E700007812002027
:10104000050001002DE9F04704460E46002006F891
:10105000010B4FF001084FF0010914F801AB14E047
:1010600014F8017B32462146384604F091F807F027
:101070003F0505B94025E81DC5082C44681C80447F
:1010800007F0800008B12E44A944BAF10000AAF18B
:10109000010AE5D1484668F31F40BDE8F08700002B
:1010A0002DE9F04F87B005460C46069500200490C8
:1010B00000260594A41CE44908708146039015F8A5
:1010C000011BE248C175C07DE049897D884200DB93
:1010D000ABE115F801BB4AE115F8017B07F001000F
:1010E00008B10B2000E00A20824607F00200002829
:1010F00079D00398002846D0D448B0F80A80D1456A
:1011000014D107F0100088B900BF6946384604F0D2
:101110008FF80646022E24D1B8F10000A8F101088C
:101120001FD0C94800780028EFD01AE0B9F10A0FA3
:1011300004D04FF00A09484603F05CFD00BF694641
:101140000E2004F075F80646022E08D1B8F1000012
:10115000A8F1010803D0BC4800780028EFD0002097
:101160000390012E00D006E1009804F8010B0098CE
:10117000000A04F8010B0098000C04F8010B009819
:10118000000E04F8010B07F01000002860D028784A
:10119000697840EA0120A97840EA0140E97840EA0C
:1011A000016002902D1DA94880890190D14503D08E
:1011B000D146484603F01EFDA448B0F80A8000BF9F
:1011C0000021384604F034F80646022E08D1B8F162
:1011D0000000A8F1010803D09B4800780028EFD058
:1011E000012E01D0C7E056E000BF9848B0F80A8051
:1011F00000BF6946384604F01BF80646022E08D1A7
:10120000B8F10000A8F1010803D08F480078002849
:10121000EFD0012E00D00EE08C4800690099084004
:101220000299884207D00198411E019118B1864861
:1012300000780028D9D000BF844800690099084090
:101240000299884201D046F01006012E22D092E089
:10125000039800281ED1D14503D0D146484603F05B
:10126000C9FC7A48B0F80A8000BF0021384603F074
:10127000DFFF0646022E08D1B8F10000A8F10108F0
:1012800003D0714800780028EFD0012E00D072E022
:101290000120039062E0039878B3B9F10A0F04D0FB
:1012A0004FF00A09484603F0A5FC6848B0F80A80E8
:1012B00000BF69460E2003F0BBFF0646022E08D190
:1012C000B8F10000A8F1010803D05F4800780028B9
:1012D000EFD0012E00D04EE0009804F8010B0098EA
:1012E000000A04F8010B0098000C04F8010B0098A8
:1012F000000E04F8010B002003902878697840EA7A
:101300000120A97840EA0140E97840EA01600090B4
:101310002D1D07F0200020B14C48009901610126E5
:101320001CE0D14503D0D146484603F063FC474852
:10133000B0F80A8000BF6946384603F079FF0646D8
:10134000022E08D1B8F10000A8F1010803D03E48F0
:1013500000780028EFD0012E00D00CE00498401C4B
:1013600004903948007800B105E0ABF1010BBBF106
:10137000000F7FF4B1AE00BF0CE015F8017B07F061
:10138000020020B107F0100010B12D1D00E02D1D4E
:10139000ABF1010BBBF1000FEFD1012E44D1B9F13C
:1013A0000A0F04D04FF00A09484603F023FC0398C3
:1013B00030B32648B0F80A8000BF69460E2003F01B
:1013C00037FF0646022E08D1B8F10000A8F1010847
:1013D00003D01D4800780028EFD0012E00D024E073
:1013E000009804F8010B0098000A04F8010B00981B
:1013F000000C04F8010B0098000E04F8010B13E038
:101400001248B0F80A8000BF00210E2003F010FF40
:101410000646022E08D1B8F10000A8F1010803D059
:10142000094800780028EFD000BF0498C1B20598A1
:101430000170059846700598211A0698281A41EA05
:10144000004007B0BDE8F08F200400207812002093
:101450002DE9FC5F04460D464FF0000B0026A84620
:10146000ED1C00206049087014F8011B5F48C1752D
:10147000C07D5E49897D884200DBA9E020786178E3
:1014800040EA0127A41C07B9A2E014F801AB0AF056
:10149000010008B10B2000E00A200090009803F042
:1014A000A9FB0AF0020000284DD05048B0F80A907D
:1014B00000BF0021504603F0BBFE0646022E08D1B5
:1014C000B9F10000A9F1010903D0474800780028CC
:1014D000EFD0012E00D07BE030E03FB900980A2821
:1014E00002D00A2003F086FB4FF00E0A3F48B0F806
:1014F0000A9000BF01A9504603F09AFE0646022E4C
:1015000008D1B9F10000A9F1010903D036480078EB
:101510000028EFD0012E00D05AE0019805F8010B09
:101520000198000A05F8010B0198000C05F8010B61
:101530000198000E05F8010B0BF1010B381EA7F105
:101540000107CAD143E024E02078617840EA012015
:10155000A17840EA0140E17840EA01600190241D51
:101560002248B0F80A9000BF01A9504603F060FE7F
:101570000646022E08D1B9F10000A9F1010903D0F5
:10158000194800780028EFD0012E00D020E00BF1A0
:10159000010B381EA7F10107D6D100980A2802D006
:1015A0000A2003F027FB1148B0F80A9000BF002181
:1015B0000E2003F03DFE0646022E08D1B9F10000D0
:1015C000A9F1010903D0084800780028EFD000BF36
:1015D00088F800B04FEA1B2088F8010088F8026004
:1015E000A5EB0800BDE8FC9F200400207812002035
:1015F00070B504460D4621780F48C175C07D0E496F
:10160000897D884203DBFF202870012070BD0820FF
:1016100003F0F0FA6078A17840EA0120E17840EA2E
:101620000140217940EA0166304604F0B3F9002018
:1016300028700120EAE700007812002070B5054606
:101640000E462878802807D328789F2804D831466A
:10165000284600F0AEF870BD287806F8010B15F8A2
:10166000010B1D2871D2DFE800F00F181E245E6404
:101670006A9A71292F9A9A9A9A9A343A40464C5209
:1016800058777D83898F94002878711CFFF744FC7C
:101690000446347004F10210DDE731462846FFF7B6
:1016A00015FC044681E031462846FFF79FFB0446BF
:1016B0007BE03046FFF7E0FB044676E03146284603
:1016C000FFF7B6FB044670E0304600F0B2F804467F
:1016D0006BE03146284600F0A7FB044665E0314642
:1016E000284600F065FB04465FE03146284600F0DE
:1016F0009BFC044659E03146284600F0A3F8044616
:1017000053E031462846FFF79DFC04464DE0314644
:101710002846FFF73FFC044647E031462846FFF7DE
:1017200065FC044641E03146284600F00DFD0446C4
:101730003BE03146284600F0B3FC044635E0314634
:10174000284600F0CFFC04462FE028E0314628462A
:1017500000F012FD044628E03146284606F0DEFF80
:10176000044622E03146284606F078FF04461CE095
:101770003146284606F0ACFE044616E031462846BF
:1017800006F0D4FE044610E0304606F09FFF044603
:101790000BE03146284606F0F9FE044605E0FF203E
:1017A00006F8010C4FF0011055E700BF04F10110DD
:1017B00051E710B502464FF00110137801F8013BD4
:1017C00012F8013B803B202B31D2DFE803F01011EF
:1017D00012131415161718191A1B1C1D1E1F202171
:1017E00022232425262728292A2B2C2D2E2F1EE0C4
:1017F0001DE01CE01BE01AE019E018E017E016E01D
:1018000015E014E013E012E011E010E00FE00EE04C
:101810000DE00CE00BE00AE009E008E007E006E07C
:1018200005E004E003E002E001E000E000BF00BFEB
:1018300010BD014600BF0120487000200870022042
:101840007047000010B50246137803F00300401CF7
:10185000054C2075C3F380040348447500200870CC
:101860004FF0011010BD0000781200202DE9F04F5C
:1018700087B005460C460695002005900026A24636
:10188000A41CE0490870834604906D1C15F8019B68
:1018900050E115F8017B07F0020000287ED0BBF173
:1018A000000F3DD0D848B0F80A8007F01100012899
:1018B00011D100BF01A9384606F028F80646022ECD
:1018C0001CD1B8F10000A8F1010817D0CD4800786C
:1018D0000028EFD012E000BF01A90E2006F016F894
:1018E0000646022E08D1B8F10000A8F1010803D085
:1018F000C44800780028EFD04FF0000B012E00D034
:101900001CE1019804F8010B0198000A04F8010B8E
:101910000198000C04F8010B0198000E04F8010B6B
:1019200007F0100000285ED02878697840EA01208E
:10193000A97840EA0140E97840EA016003902D1D52
:10194000B1488089029007F00100B0B1AE48B0F80C
:101950000A8000BF0021384605F0D8FF0646022E57
:1019600008D1B8F10000A8F1010803D0A54800781B
:101970000028EFD0012E00D0E0E000BFA248B0F870
:101980000A8000BF01A9384605F0C0FF0646022EB6
:101990000AD1B8F10000A8F1010800E069E003D025
:1019A000984800780028EDD0012E00D00EE096482F
:1019B0000069019908400399884207D00298411EA6
:1019C000029118B18F4800780028D7D000BF8E4808
:1019D0000069019908400399884201D046F0100639
:1019E000012E43D0AAE08848B0F80A8007F0010031
:1019F000C8B1BBF1000F39D100BF0021384605F056
:101A000085FF0646022E08D1B8F10000A8F10108B2
:101A100003D07C4800780028EFD0012E00D08DE064
:101A20004FF0010B22E000BF01A9384605F06EFF20
:101A30000646022E08D1B8F10000A8F1010803D033
:101A4000704800780028EFD0012E00D076E0019891
:101A500004F8010B0198000A04F8010B0198000C2E
:101A600004F8010B0198000E04F8010B002004900B
:101A700057E0BBF1000F27D06348B0F80A8000BFE1
:101A800001A90E2005F042FF0646022E08D1B8F14A
:101A90000000A8F1010803D05A4800780028EFD0D0
:101AA000012E00D04AE0019804F8010B0198000AC9
:101AB00004F8010B0198000C04F8010B0198000ECA
:101AC00004F8010B4FF0000B2878697840EA0120F8
:101AD000A97840EA0140E97840EA016001902D1DB3
:101AE00007F0200020B1484801990161012618E063
:101AF0004548B0F80A8000BF01A9384605F006FF46
:101B00000646022E08D1B8F10000A8F1010803D062
:101B10003C4800780028EFD0012E00D00EE00120D4
:101B200004900598401C05903648007800B105E007
:101B3000A9F10109B9F1000F7FF4ABAE00BF0CE0D1
:101B400015F8017B07F0020020B107F0100010B17A
:101B50002D1D00E02D1DA9F10109B9F1000FEFD1F4
:101B6000012E3FD1BBF1000F26D02748B0F80A80E4
:101B700000BF01A90E2005F0C9FE0646022E08D1BD
:101B8000B8F10000A8F1010803D01E480078002831
:101B9000EFD0012E00D026E0019804F8010B019847
:101BA000000A04F8010B0198000C04F8010B0198DD
:101BB000000E04F8010B15E0049898B11248B0F833
:101BC0000A8000BF00210E2005F0A0FE0646022E6E
:101BD00008D1B8F10000A8F1010803D00948007845
:101BE0000028EFD000BF05988AF800008AF801604D
:101BF000A4EB0A010698281A41EA004007B0BDE8A4
:101C0000F08F000020040020781200202DE9F84F0A
:101C100004460D464FF0000B0026A846ED1C0020A0
:101C200056490870641C2078617840EA012AA41C97
:101C3000BAF1000F00D195E014F8017B07F0020023
:101C400000284FD007F00100B0B14D48B0F80A901D
:101C500000BF0021384605F059FE0646022E08D185
:101C6000B9F10000A9F1010903D044480078002827
:101C7000EFD0012E00D075E02EE0BAF1000F03D1B5
:101C800007F0010000B10E273D48B0F80A9000BFF0
:101C90006946384605F03AFE0646022E08D1B9F1EB
:101CA0000000A9F1010903D0344800780028EFD0E2
:101CB000012E00D056E0009805F8010B0098000AAC
:101CC00005F8010B0098000C05F8010B0098000EB8
:101CD00005F8010B0BF1010BBAF10000AAF1010AA2
:101CE000CBD13EE024E02078617840EA0120A17861
:101CF00040EA0140E17840EA01600090241D20485C
:101D0000B0F80A9000BF6946384605F0FFFD064668
:101D1000022E08D1B9F10000A9F1010903D017483A
:101D200000780028EFD0012E00D01BE00BF1010B52
:101D3000BAF10000AAF1010AD5D11148B0F80A9011
:101D400000BF00210E2005F0E1FD0646022E08D15D
:101D5000B9F10000A9F1010903D008480078002872
:101D6000EFD000BF88F800B04FEA1B2088F80100D0
:101D700088F80260A5EB0800BDE8F88F2004002079
:101D80007812002038B504460D466078A17840EA04
:101D90000120E17840EA0140217940EA01600090A9
:101DA0006946002005F0B2FD00202870012038BDF2
:101DB00030B502460C461078557840EA05209578F3
:101DC00040EA0540D57840EA05631BB9FF20207042
:101DD000124830BD12480068B3EB900F04D30120C5
:101DE000104D6870686014E000200E4D6870581E39
:101DF0000B4D2D6800EB5500B0FBF3F1022905D91E
:101E0000891E881C0325B0FBF5F100E0012105487F
:101E10004160002020700148DBE700000100040061
:101E200014020020781200202DE9F047064688466B
:101E300034787578B078F17840EA0120317940EA59
:101E40000140717940EA016705F00100D8B104F062
:101E5000010058B100BF6D48406840F000706B4908
:101E6000486008156A49086000BF0CE000BF674879
:101E7000406840F000706549486008156449091DD4
:101E8000086000BF00BF05F0020028B304F00200A4
:101E900080B100BF5D48406840F000705B49486019
:101EA0000846406840F0007048604815584908608E
:101EB00000BF11E000BF5548406840F00070534932
:101EC00048600846406840F0007048604815504936
:101ED000091D086000BF00BF05F0040070B1C4F325
:101EE000870000F0010119B140214A4A116003E066
:101EF0004021484A121D116000BF00BF05F02000BC
:101F000018B1C4F3471000BF00BF05F0800018B13E
:101F1000C4F3C7100DF0E0FA002F56D03E488742B8
:101F200000D9074600BF00204FF0E02188613B4800
:101F300000683B49B0FBF1F078434FF0E021486185
:101F40000520086100BF00BF05F0010020B104F0CA
:101F5000C1FC604000B128E005F0020028B104F0A7
:101F6000C9FD80EA540000B11FE005F0040028B16B
:101F700004F0E8FD80EA940000B116E005F02000CE
:101F800028B100BF002080EA541000B10DE005F038
:101F9000800048B100BF1E480838006800F001000A
:101FA00080EAD41000B100E007E000BF4FF0E0206D
:101FB0000069C0F300400028C6D000BF00BF002069
:101FC0004FF0E021086100BF00BF04F083FC8146B0
:101FD00004F090FD49EA400904F0B4FD49EA8001AB
:101FE0000C4808380068C0F3C01041EAC000002166
:101FF00040EA411106480838006800F0010041EA53
:10200000C01488F800400748BDE8F0870000014090
:1020100010080140100C0140C0C62D001402002021
:1020200040420F000100060070B504460E4614F849
:10203000015B0DB94FF480752146284606F0F2F990
:1020400000203070E81DC508681C0004401C70BDED
:1020500010B500200F49087048700F48006840080C
:102060000E49B0FBF1F0801E0A494860002008725A
:1020700064210848418100218181016101200549D5
:10208000087500210348417500200249887504F055
:10209000BFFD10BD78120020140200208096980029
:1020A00070B505460E460E480078012802D0022879
:1020B0000CD105E031462846FFF7D8FB04460BE07B
:1020C00031462846FEF7ECFF044605E03146284637
:1020D000FEF7E0FE044600BF00BF204670BD0000D2
:1020E0007812002070B505460E4616480078012883
:1020F00002D002280CD105E031462846FFF786FDC4
:1021000004460BE031462846FFF7A2F9044605E0F5
:10211000002030707070B070032400BF00BFE878FA
:1021200000F0020010B144F4802408E06878A97837
:1021300040EA0120042101EB800044EA00442046EB
:1021400070BD00007812002002461078084B18720B
:102150005078937840EA032305484381D078137977
:1021600040EA032302488381002008700148704739
:10217000781200200100050070B506460D460D4896
:102180000078012802D002280CD105E0294630460B
:10219000FFF7F8FD044609E029463046FFF728FA24
:1021A000044603E0FF202870012400BF00BF44F470
:1021B000A02070BD781200207047000010B50548BF
:1021C000006800F00F04034844602046FFF7F4FF66
:1021D00010BD0000000002407047000010B5054827
:1021E0000068C0F303142001024948602046FFF74D
:1021F000F3FF10BD000002407047000010B5054815
:102200000068C0F303242002024948602046FFF71B
:10221000F3FF10BD000002407047000010B50548F4
:102220000068C0F303342003024948602046FFF7EA
:10223000F3FF10BD000002407047000010B50548D4
:102240000068C0F303442004024948602046FFF7B9
:10225000F3FF10BD0000024010B50446014808F02D
:10226000ABFA10BDE0FD000810B505480068C0F3EA
:1022700003542005024948602046FFF7EDFF10BDDA
:102280000000024010B50446014808F035FC10BDBE
:10229000E0FD000810B505480068C0F3036420069F
:1022A000024948602046FFF7EDFF10BD00000240E4
:1022B0007047000010B50548006800F00F0403489F
:1022C000001D04602046FFF7F3FF10BD000402402C
:1022D0007047000010B506480068C0F303142001E1
:1022E0000349091D08602046FFF7F2FF10BD0000FA
:1022F000000402407047000010B506480068C0F3B3
:10230000032420020349091D08602046FFF7F2FF5D
:1023100010BD00000004024010B50C480068C0F376
:10232000033434B120030949091D0860204600F038
:102330000FF806480068C0F3034434B12004034991
:10234000091D0860204600F004F810BD000402409A
:102350007047704770B505460C46012D02D0022D1E
:1023600071D171E06A48406940F0010068494861F4
:10237000082C60D2DFE804F05F04101C29364350BB
:102380000020644988600F2048600B2003F094FF10
:102390000B2003F0A9FF4EE000205E49C861F02049
:1023A00048600C2003F088FF0C2003F09DFF42E002
:1023B0000020584908634FF4706048600D2003F016
:1023C0007BFF0D2003F090FF35E000205149486469
:1023D0004FF4704048600E2003F06EFF0E2003F0B3
:1023E00083FF28E000204B4988654FF47020486047
:1023F0000F2003F061FF0F2003F076FF1BE00020A9
:102400004449C8664FF470004860102003F054FF40
:10241000102003F069FF0EE000203E498031086083
:102420004FF070603B494860112003F045FF1120D8
:1024300003F05AFF00BF00BF0120A04036490978D1
:1024400008433549087061E03148406940F00200B6
:102450002F494861062C50D2DFE804F04F03101FCB
:102460002F3F00202D4908600F20091F08603820E9
:1024700003F022FF382003F037FF3EE00020274919
:1024800014310860F0202549091F0860392003F045
:1024900013FF392003F028FF2FE000201F492831C7
:1024A00008604FF470601D49091F08603A2003F06E
:1024B00003FF3A2003F018FF1FE0002017493C31CA
:1024C00008604FF470401549091F08603B2003F075
:1024D000F3FE3B2003F008FF0FE000200F495031CE
:1024E00008604FF470200D49091F08603B2003F07D
:1024F000E3FE3B2003F0F8FE00BF00BF0120A04038
:102500000749097808430649087000BF00BF70BD3D
:102510000010024000000240730400200804024042
:102520007404002070B505460C46012D02D0022D22
:102530004ED14EE04F48007800B970BD082C37D21C
:10254000DFE804F036040B121920272E0B2003F0CD
:10255000BFFE0020484988602AE00C2003F0B8FE46
:1025600000204549C86123E00D2003F0B1FE0020A2
:10257000414908631CE00E2003F0AAFE00203E49FA
:10258000486415E00F2003F0A3FE00203A49886557
:102590000EE0102003F09CFE00203749C86607E0DB
:1025A000112003F095FE002033498031086000BF00
:1025B00000BF0120A0402F49097881432D480170B8
:1025C000007828B92D48406920F001002B49486166
:1025D0004CE02B48007800B9AFE7062C35D2DFE895
:1025E00004F034030A121A27382003F071FE002089
:1025F0002449086029E0392003F06AFE00202149BF
:102600001431086021E03A2003F062FE00201D49E9
:102610002831086019E01A48007800F0200010B94D
:102620003B2003F055FE002016493C3108600CE0C9
:102630001348007800F0100010B93B2003F048FE6A
:10264000002010495031086000BF00BF0120A040A9
:102650000B49097881430A480170007828B9074876
:10266000406920F002000549486100BF00BF00BF7B
:1026700063E70000730400200000024000100240E5
:10268000740400200804024000F0805111B1034995
:10269000086001E0024948607047000004040240FD
:1026A0000000024021B1026842F00102026004E031
:1026B00002684FF6FE731A400260704701684FF6D9
:1026C000FE72114001600021016041608160C160C3
:1026D0004B49884208D14A490839496841F00F01FD
:1026E000474A083A51608AE045491431884208D186
:1026F00043490839496841F0F001414A083A5160BC
:102700007DE03F492831884208D13D490839496870
:1027100041F470613A4A083A516070E038493C31FE
:10272000884208D136490839496841F47041344A31
:10273000083A516063E032495031884208D130494B
:102740000839496841F470212D4A083A516056E031
:102750002B496431884208D129490839496841F434
:102760007001274A083A516049E02549783188428A
:1027700008D123490839496841F07061204A083A74
:1027800051603CE01F49884206D1011F096841F0B1
:102790000F01021F116032E01A491431884208D13A
:1027A0001849091F096841F0F001164A121F11600B
:1027B00025E014492831884208D11249091F0968C7
:1027C00041F470610F4A121F116018E00D493C314D
:1027D000884208D10B49091F096841F47041094A30
:1027E000121F11600BE007495031884207D105499B
:1027F000091F096841F47021024A121F11607047D5
:1028000008000240080402400146486880B2704750
:102810001AB103680B43036002E003688B43036053
:10282000704710B50022026847F6F0739A430C6AAD
:102830008B6823430C6923434C6923438C692343EE
:10284000CC6923434C6A23438C6A23431A430260B6
:10285000CB6843600B6883604B68C36010BD416008
:10286000704700002DE9F0472848006800F1100586
:102870002E8826480068077AD6B9042F18D1244834
:10288000007801280FD100212248006880B2801C06
:10289000214A42F8101030202049088000BF002053
:1028A0001B49087003E0072710201C49088027E017
:1028B000AC88A64201D8042000E002200746B442BA
:1028C00000D93446A0B2A96888478046002001F0AC
:1028D0008DFE8146A2B24946404609F0BFFEA1B234
:1028E000002006F031F82888001B288068882044E2
:1028F000688030200949088000020949088000BF2B
:10290000024909680F72BDE8F08700000C0400203E
:1029100006040020505C0040006000401E040020BF
:102920001C0400202DE9F0412848006800F1100443
:102930002688A068C0B1BEB1A588B54200D9354689
:10294000A8B2A168884707462088401B208060887D
:1029500028446080002001F027FE8046AAB241464C
:10296000384604F00DF900BF208850B14FF44050B4
:10297000174908800021084605F0E6FF3020154978
:1029800008802088A188884204DB03200F49096859
:10299000087218E02088002804DD05200B4909682A
:1029A000087210E0208870B906200849096808728A
:1029B00000210948006880B2801C084A42F81010C3
:1029C000302004490880BDE8F08100000C0400209C
:1029D0001C0400201E040020505C004000600040E9
:1029E0002DE9F84F9B48006845780027BA46062D28
:1029F0001BD198480068007800F07F00002813D1B0
:102A0000944909688878012803D193490968CF69F6
:102A10000AE0022803D1904909680F6A04E00328FC
:102A200002D18D4909684F6A94E0002D64D189482C
:102A30000068408800285FD186480068C088022866
:102A40005AD1844800680079002855D1814800682F
:102A5000007800F07F0028B97E480068808808B9B7
:102A60007E4F77E07B480068007800F07F00012807
:102A700010D1784909684879774909688A6900213D
:102A80009047002866D173480068807A002861D09A
:102A9000724F5FE06F480068007800F07F00022806
:102AA00058D16C480068407900F00F06694800680A
:102AB000407900F0700967480068407900F08000B4
:102AC00038B1674901EB8600D0F8000C00F03008FF
:102AD00006E0634901EB8600D0F8000C00F4405892
:102AE00060480078B04235D9B9F1000F32D1B8F161
:102AF000000F2FD0594F2DE0082D07D15548006801
:102B0000007800F07F0028BB574F23E00A2D21D129
:102B100050480068007800F07F0001281AD14D4825
:102B20000068807AB0B14B480068408890B9494845
:102B30000068007970B947480068C088012809D149
:102B4000444909684879444909688A6900219047DD
:102B500000B9464F57B13F480068A0F812A03D4861
:102B6000006887610020B84700240FE0394A1268E6
:102B70005078394A1268116988470446032C05D1F8
:102B80000920344909680872BDE8F88F31480068A7
:102B9000008A4FF6FF71884204D109202D49096847
:102BA0000872F1E7022C03D02A480068008A20B995
:102BB0000820284909680872E6E726480068007876
:102BC00000F08000E0B323480068C08800902148EE
:102BD0000068008A0099884204D91E490098096853
:102BE000088223E01B480068008A1A490968C988DE
:102BF00088421BDA17480068008A1749096891F86B
:102C00002C10884203DA0020194908700EE01148A0
:102C10000068008A1049096891F82C1090FBF1F2C5
:102C200001FB120010B90120114908700A48006820
:102C300090F82C10074800688182FFF713FE07E028
:102C4000FFE7032003490968087200030949088067
:102C500000BF99E70C04002010040020198E000822
:102C6000005000406C0300209D8D0008ED8D000891
:102C7000060400201C040020094909684FF47A72F8
:102C8000B1FBF2F1891C0322B1FBF2F1484301468A
:102C90000A4600BF00BF531E1A1EFCD100BF70477A
:102CA0001402002001E00CF045FBFCE710B5002405
:102CB0000EE00C490A5D222101EBC401C8B20123D8
:102CC000194603F00FFD0F200AF06EFA601CC4B223
:102CD000072CEEDB4FF47A700AF066FA03F0EEFB95
:102CE00010BD0000F40100200EB5FAA00AF0F9FFB3
:102CF000FCA1FD480AF03CFE88B9FC49FA480AF0FC
:102D000068FF60B9F949F8480AF063FF01200346FB
:102D1000F64A0932014600902D2003F01DFD0020E7
:102D20000123F3A2FF2100902D2003F015FD0020C8
:102D30000123F2A2014600902D2003F00DFD012099
:102D40000346F1A2014600906E2003F005FD01202C
:102D50000346EEA2022100905C2003F0FDFC00205F
:102D6000EC49086002E105F0FDFC01287DD1E9484D
:102D70000068401CE749086008460068042801D143
:102D800000200860E348006830B101281ED0022806
:102D900036D0032868D14DE001200346D34A0932DA
:102DA000014600902D2003F0D7FC01200346D6A257
:102DB000014600906E2003F0CFFC01200346D3A211
:102DC000022100905C2003F0C7FC4DE001200023AD
:102DD000C64A0932014600902D2003F0BDFC0120B7
:102DE0000346C9A2014600906E2003F0B5FC012005
:102DF0000346C6A2022100905C2003F0ADFC33E044
:102E000001200346B94A0932014600902D2003F003
:102E1000A3FC01200023BCA2014600906E2003F019
:102E20009BFC01200346B9A2022100905C2003F024
:102E300093FC19E001200346AC4A09320146009098
:102E40002D2003F089FC01200346AFA2014600902B
:102E50006E2003F081FC01200023ACA2022100902F
:102E60005C2003F079FC00BF00BF05F07BFC02286A
:102E70007CD1A8480068012804D0022848D0032843
:102E800045D1E7E1994998480AF0A3FE012003469D
:102E9000A1A2014600902D2003F05EFC012000233A
:102EA000924A0932014600902D2003F055FC012082
:102EB000034695A2014600906E2003F04DFC8B481E
:102EC000407A20BB87A188480AF052FD874986488E
:102ED0000AF07FFE854984480AF07BFE0120034604
:102EE0008DA2014600902D2003F036FC0120002326
:102EF0007E4A0932014600902D2003F02DFC01206E
:102F0000034681A2014600906E2003F025FCFCE3FD
:102F100000208049086003F0D1FA824820231A4635
:102F200000210090084603F0E9FA002001237EA268
:102F3000FF2100902D2003F00FFC002001236FA241
:102F4000014600902D2003F007FC0120034679A2E2
:102F5000022100902D2003F0FFFB0120034676A202
:102F6000022100905C2003F0F7FB70E1F3E305F031
:102F7000F9FB012849D167480068401C6549086091
:102F800008460068032801D10020086061480068F5
:102F900020B1012813D0022833D121E001200346BB
:102FA00064A2022100902D2003F0D6FB01200346ED
:102FB00061A2022100905C2003F0CEFB21E0012001
:102FC00000235CA2022100902D2003F0C5FB01200C
:102FD000034659A2022100905C2003F0BDFB10E0E3
:102FE0000120034653A2022100902D2003F0B4FBE0
:102FF0000120002350A2022100905C2003F0ACFBD2
:1030000000BF00BF64200AF0CFF805F0ABFB022838
:103010005FD140480068012802D0022847D147E02C
:1030200003F04CFA464821231A4600210090084636
:1030300003F064FA2BA12C480AF09AFC88B92B49BA
:1030400029480AF0C6FD60B9284927480AF0C1FDA1
:1030500001200346254A0932014600902D2003F045
:103060007BFB0020012322A2FF2100902D2003F0F2
:1030700073FB0020012321A2014600902D2003F0C4
:103080006BFB0120034620A2014600906E2003F056
:1030900063FB012003461DA2022100905C2003F087
:1030A0005BFB00201B490860012026490870C6E030
:1030B00000201849086001202349087003F0FEF938
:1030C0000120034621A202210090622003F044FB6C
:1030D0007FE0B5E0303A2F77726974652E62696ED1
:1030E00000000000303A0000580700204007002090
:1030F00053454C4543542048455800002D2D2D2D57
:103100002D2D2D2D2D2D00003E3E0000464C41530F
:1031100048000000EC01002020202020202020205A
:10312000202000004F0100204445425547204D4FCC
:10313000444500003C3C0000454E54455200000010
:10314000AA000020F0010020F10100204241434B81
:103150000000000005F006FB012831D1F7480068A7
:10316000401CF649086008460068012810D1034653
:10317000F3A202210090622003F0EEFA0120002366
:10318000AFF2380202210090622003F0E5FA10E06D
:1031900001200346EAA202210090622003F0DCFA3B
:1031A00001200346AFF25C0202210090622003F08E
:1031B000D3FAE2480068022802D10020DF49086003
:1031C00005F0D0FA022804D1DC480068012800D1BB
:1031D00000E0BFE700BF0020D8490860DA49087066
:1031E00003F06CF9D94820231A46002100900846C4
:1031F00003F084F900200123AFF2D402FF210090F4
:103200002D2003F0A9FA00200123AFF2101201468D
:1032100000902D2003F0A0FA01200346AFF2EC024B
:10322000022100902D2003F097FA01200346AFF20F
:10323000F802022100905C2003F08EFA00BF00BF6C
:10324000C348007818B10020C149087000E08EE63C
:1032500000BFEFE2BFA1C048FDF76AF8002870D0B8
:1032600003F02CF9BD4821231A460021009008469E
:1032700003F044F90122B849B9480AF0C3FA00281A
:103280007ED10123B7A2FF2100902D2003F064FA24
:10329000B14801F04DFB012873D000200123AFF2AB
:1032A0008812022100902D2003F056FA00200123FD
:1032B000AFA2022100902D2003F04EFA00209F497A
:1032C00008603FE005F04EFA012831D19B480068C4
:1032D000401C9A49086008460068012810D103463E
:1032E00097A202210090622003F036FA0120002309
:1032F000AFF2A81202210090622003F02DFA10E034
:10330000012003468EA202210090622003F024FADD
:1033100001200346AFF2CC1202210090622003F09C
:103320001BFA86480068022802D100208349086001
:1033300005F018FA022805D180480068012801D15B
:1033400001E077E1BEE700BF03F0B8F8834821232E
:103350001A4600210090084603F0D0F8AFF27C2115
:1033600084480AF005FBA8B97B49093981480AF06D
:1033700030FC78B9784909397E480AF02AFC01E026
:1033800057E22FE001200346734A014600902D20AA
:1033900003F0E2F900200123AFF2AC22FF210090FC
:1033A0002D2003F0D9F900200123AFF2B02201460D
:1033B00000902D2003F0D0F901200346AFF2B8228F
:1033C000014600906E2003F0C7F901200346AFF2DA
:1033D000C422022100905C2003F0BEF9002057496E
:1033E000086026E2642009F0DFFE00200123AFF22E
:1033F000D822194600902D2003F0AEF900200123B9
:10340000AFF2EC22022100902D2003F0A5F93FE05D
:1034100059A00068029000200123AFF2043219463F
:1034200000902D2003F098F90120034653A20221B9
:1034300000902D2003F090F90020524908601AE016
:1034400002A850490968405C01904E48007800EBA2
:103450004000452101EB4000C0B201230090022151
:10346000019A03F03FF9C82009F09EFE4548006824
:10347000401C44490860434800680328E0D3012009
:10348000034641A2022100902D2003F065F900BF00
:103490003FA000F01BFC0028BAD0AFF2C8300AF001
:1034A00020FC01200346AFF25C3202210090622032
:1034B00003F052F90020214908606FE005F052F94D
:1034C000012831D11D480068401C1C49086008468D
:1034D0000068012810D1034619A202210090622041
:1034E00003F03AF901200023AFF2A032022100904C
:1034F000622003F031F910E00120034610A20221FE
:103500000090622003F028F901200346AFF2C43294
:1035100002210090622003F01FF908480068022889
:1035200002D100200549086005F01CF9022835D1B8
:1035300002480068012831D131E00000EC01002090
:103540002020202000000000F10100204F01002079
:10355000F00100204845580049070020AA0000203B
:103560001C0500204845582020464C415348000087
:1035700045525200580700202E2E2E005741495424
:1035800000000000E8010020202020202020200052
:1035900077726974652E62696E0000008EE700BF65
:1035A00002F08CFFA54821231A460021009008460E
:1035B00002F0A4FFAFF2D441A1480AF0D9F988B9CA
:1035C000A0499F480AF005FB60B99E499C480AF053
:1035D00000FB012003469B4A0932014600902D2042
:1035E00003F0BAF800200123AFF2FC42FF21009063
:1035F0002D2003F0B1F800200123AFF20052014664
:1036000000902D2003F0A8F801200346AFF20852E5
:10361000014600906E2003F09FF801200346AFF2B0
:103620001452022100905C2003F096F80020864995
:103630000860FEE002F042FF804821231A46002184
:103640000090084602F05AFF01227E4909317F4866
:103650000AF0D8F80028ECD101237DA2FF210090C8
:103660002D2003F079F842E0AFF2F40000680290F8
:1036700000200123AFF26052194600902D2003F084
:103680006BF801200346AFF20C12022100902D20AE
:1036900003F062F80020714908601AE002A86F493F
:1036A0000968405C01906D48007800EB40004521BE
:1036B00001EB4000C0B2012300900221019A03F007
:1036C00011F8C82009F070FD64480068401C634987
:1036D0000860624800680328E0D301200346AFF287
:1036E0005812022100902D2003F036F800BF5548F3
:1036F000093000F0EBFA0028B6D001200346AFF203
:10370000B45202210090622000E093E003F024F81C
:1037100000204D49086041E005F024F8012834D12B
:1037200049480068401C484908600846006801286C
:1037300012D10346AFF2F81202210090622003F08A
:103740000BF801200023AFF2FC520221009062200E
:1037500003F002F812E06EE001200346AFF22022EF
:1037600002210090622002F0F7FF01200346AFF231
:10377000246202210090622002F0EEFF32480068CD
:10378000022802D100203049086004F0EBFF022833
:1037900004D12D480068012800D100E0BCE700BF3B
:1037A00002F08CFE254821231A460021009008468D
:1037B00002F0A4FEAFF2D46121480AF0D9F888B92A
:1037C00020491F480AF005FA60B91E491C480AF052
:1037D00000FA012003461B4A0932014600902D20C1
:1037E00002F0BAFF00200123AFF2FC62FF2100903B
:1037F0002D2002F0B1FF00200123AFF2007201463C
:1038000000902D2002F0A8FF01200346AFF20872BD
:10381000014600906E2002F09FFF01200346AFF2A8
:103820001472022100905C2002F096FF00200649ED
:10383000086000BF00BFFFF796BA0000AA00002092
:103840005807002040070020EC0100201C05002044
:1038500042494E2020464C4153480000E8010020D8
:103860001CB56248006880B1614822231A460021D5
:103870000090084602F042FE002001235DA2194696
:103880000090262002F068FFAFE05D4821231A4631
:1038900000210090084602F031FE012259A15C4847
:1038A00009F0B0FF002871D101235AA2FF21009036
:1038B0002D2002F051FF3BE059A00068019000204C
:1038C000012358A2194600902D2002F045FF012047
:1038D000034657A2022100902D2002F03DFF002058
:1038E0005549086017E001A9534B1B68CA5C52494F
:1038F000097801EB4101452303EB4101C8B20123E3
:10390000022102F0EFFEC82009F04EFC4A48006890
:10391000401C49490860484800680328E3D3012057
:10392000034646A2022100902D2002F015FF00BFA1
:1039300034A000F0CBF90028BED00120034641A2FC
:1039400002210090622002F007FF00203F4908603A
:103950003DE004F007FF012830D13C480068401CDE
:103960003A49086008460068012810D1034638A289
:1039700002210090622002F0EFFE0120002331A21C
:1039800002210090622002F0E7FE10E02BE001200F
:1039900003462FA202210090622002F0DDFE0120EA
:1039A000034628A202210090622002F0D5FE27489B
:1039B0000068022802D100202449086004F0D2FEE9
:1039C000022804D121480068012800D100E0C0E7A6
:1039D00000BF02F073FD0A4821231A46002100901F
:1039E000084602F08BFDFFF77FF91CBDFC030020A9
:1039F0000000002055534220436F6E6E65637400D3
:103A0000AA0000204155544F2E62696E000000004C
:103A10001C0500204155544F20464C41534800009E
:103A20002E2E2E00202020202020202020200000CC
:103A30005741495400000000E801002020202020C8
:103A4000202020004241434B00000000EC010020F8
:103A5000202020200000000010B502F08BFB10BDDC
:103A600010B502F0C1FB10BD00200149086070478D
:103A70001803002010B5002400BF03E00020104907
:103A80000855641C0F4800788442F7DB062000F0DC
:103A90009BFD0D4908600846006882B24FF4E8714A
:103AA000074803F06DF8062004F024FF064800687C
:103AB000044908700846017801480BF04BFB10BD23
:103AC000E01100201C0300201403002030B500F09A
:103AD0000F010D4C04EB8103D3F8002C00F08003A0
:103AE00043B148F6CF731340254605EB8104C4F873
:103AF000003C07E04CF68F731340034D05EB810447
:103B0000C4F8003C30BD00000050004070B500F02B
:103B10000F02104D05EB8204D4F8003C00F0800445
:103B20005CB101F030045C4048F6BF752C40094E92
:103B300006EB8205C5F8004C0AE001F440545C40F5
:103B40004BF68F752C40034E06EB8205C5F8004CF2
:103B500070BD00000050004001490860704700003F
:103B600014040140002123498279002A3AD00A46F0
:103B7000126803689A430B461A600A1D12680368AC
:103B80009A430B1D1A60027911440A6803681A43AC
:103B90000A60184A0832126803689A43154B0833C2
:103BA0001A601A1D126803689A43124B0C331A608C
:103BB0004279102A0ED11A1F126803681A430D4B5E
:103BC00008331A601A1D126803681A43094B0C3334
:103BD0001A600DE00749427911440A6803681A43E4
:103BE0000A6005E0027911440A6803689A430A6092
:103BF000704700000004014030B5044604254FF42E
:103C0000302000F071FA0546042D17D10C480069E8
:103C100040F002000A49086108464461006940F02A
:103C2000400008614FF4302000F05EFA0546044879
:103C3000006941F6FD71084001490861284630BD20
:103C40000020024004200B49C96801F0010109B1BC
:103C500001200EE00749C96801F0040109B1022002
:103C600007E00449C96801F0100109B1032000E030
:103C700004207047002002400348006940F08000A3
:103C800001490861704700000020024070B50446F9
:103C90000D460426F00200F027FA0646042E11D144
:103CA0000948006940F00100074908612580F002D9
:103CB00000F01AFA06460448006941F6FE71084011
:103CC00001490861304670BD002002402DE9FC5FCB
:103CD000834601225946DA4809F094FDD949087013
:103CE0000846007800287DD10120D74908700020BF
:103CF000D64908600AF0F8FB002874D00BF0EEF803
:103D000028B90BF0D7F820B10020BDE8FC9F0020B7
:103D1000FBE70BF005F90AF0E7FB00287DD04FF038
:103D200000600BF06BF8002878D10BF053F80028F6
:103D300075D152E1C64B4FF48062C649C04809F0C4
:103D400061FEC3480088B0F5806F02DA0020BE49EA
:103D50000870BE49096801F100604FF48062BD49F6
:103D60000BF06EF800287DD1B549C8680BF09DFDB9
:103D700004460D46B54800680BF097FD06462246FE
:103D80002B460BF00DFC80460022B34B0BF0A0FD40
:103D9000CDE900010BF05CFD8246BAF10A0F1AD39F
:103DA000BAF1140F17D2AD48006808B9012000E03D
:103DB0000020AA49086000200123A9A2194600900A
:103DC0002D2002F0C9FC00200123A6A202210090B0
:103DD0002D2002F0C1FCBAF1140F1DD3BAF11E0F51
:103DE0001AD201E027E124E19C48006808B90120CB
:103DF00000E0002099490860002001239AA219469A
:103E000000902D2002F0A8FC0020012397A202219F
:103E100000902D2002F0A0FC02E008E104E101E1A5
:103E2000BAF11E0F1AD3BAF1280F17D28B480068C7
:103E300008B9012000E00020884908600020012323
:103E40008BA2194600902D2002F086FC0020012351
:103E500088A2022100902D2002F07EFCBAF1280FEA
:103E60001CD300E0B1E0BAF1320F17D27B480068F2
:103E700008B9012000E000207849086000200123F3
:103E80007DA2194600902D2002F066FC002001233F
:103E90007BA2022100902D2002F05EFCBAF1320FCD
:103EA0001AD3BAF13C0F17D26C48006808B9012048
:103EB00000E00020694908600020012371A2194632
:103EC00000902D2002F048FC002001236FA2022167
:103ED00000902D2002F040FCBAF13C0F1AD3BAF149
:103EE000460F17D25D48006808B9012000E00020A5
:103EF0005A4908600020012365A2194600902D2030
:103F000002F02AFC0020012363A2022100902D2050
:103F100002F022FCBAF1460F1AD3BAF1500F17D2B1
:103F20004E48006808B9012000E000204B490860B5
:103F30000020012359A2194600902D2002F00CFC0C
:103F40000020012357A2022100902D2002F004FC42
:103F5000BAF1500F1AD3BAF15A0F17D23F4800687E
:103F600008B9012000E000203C490860002001233E
:103F70004AA2194600902D2002F0EEFB00200123FA
:103F800049A2022100902D2002F0E6FBBAF15A0F5F
:103F90001AD3BAF1640F17D23048006808B901206B
:103FA00000E000202D490860002001233FA21946AF
:103FB00000902D2002F0D0FB002001233EA2022120
:103FC00000902D2002F0C8FB01E000209DE61F4874
:103FD000006800F580601D4908601B4800780028D3
:103FE0007FF4A8AE0AF080FAD0B101201B49086026
:103FF00000200AF0BFFB642009F0D6F8002001235E
:104000002EA2194600902D2002F0A6FB00200123CD
:104010002DA2022100902D2002F09EFB012074E6CB
:10402000002072E6002070E60AF03CFF05E0002068
:104030006BE6002069E6002067E600BF65E6000049
:104040001C050020D4010020E0010020E401002034
:10405000F2010020A4090020000059409081214273
:104060003D000000313025003D3D0000323025008C
:104070003D3D3D00333025003D3D3D3D000000000D
:10408000343025003D3D3D3D3D00000035302500EC
:104090003D3D3D3D3D3D0000363025003D3D3D3D33
:1040A0003D3D3D0037302500383025003D3D3D3D4C
:1040B0003D3D3D3D3D000000393025003D3D3D3D4D
:1040C0003D3D3D3D3D3D0000444F4E45000000005C
:1040D0000248034948600348486070472301674528
:1040E00000200240AB89EFCD00B502460423FFF764
:1040F000A9FD034603E0FFF7A5FD0346521E012B71
:1041000001D1002AF7D102B90523184600BD0000ED
:1041100018B5002844D0C0F34211C0F30322214B4C
:104120009B6903F001032BB91E4B9B6943F001030C
:104130001C4CA36100F48053A3B11B4BDB690093BB
:1041400000F01F0301FA03F3009C9C43009400F06D
:104150001F0302FA03F3009C23430093124C009BBD
:10416000E3611DE0104B5B68009300F01F0301FA50
:1041700003F3009C9C43009400F01F0302FA03F336
:10418000009C2343009307210022009B23EA016344
:104190000093009B43EA02630093034C009B63601F
:1041A00018BD0000001002400000014001461D48FB
:1041B000814204D11C488069C0F3800070471B48CD
:1041C000814204D118488069C0F3C000F6E718485E
:1041D000814204D114488069C0F30010EEE715480D
:1041E000814204D110488069C0F34010E6E71248CC
:1041F000814204D10C488069C0F38010DEE70F488B
:10420000814204D108488069C0F3C010D6E70C4849
:10421000814204D104488069C0F30020CEE7002029
:10422000CCE700000008014000100240000C0140F3
:10423000001001400014014000180140001C014022
:10424000002001402DE9F041024600250026002013
:1042500000230024002791F803C00CF00F0591F80B
:1042600003C00CF0100CBCF1000F03D091F802C099
:104270004CEA050591F800C0BCF1000F31D014687C
:1042800000202BE04FF0010C0CFA00F3B1F800C055
:104290000CEA03069E4220D183004FF00F0C0CFA6B
:1042A00003F7BC4305FA03FC4CEA040491F803C08D
:1042B000BCF1280F06D14FF0010C0CFA00FCC2F83B
:1042C00014C00AE091F803C0BCF1480F05D14FF0CB
:1042D000010C0CFA00FCC2F810C0401C0828D1D315
:1042E0001460B1F800C0BCF1FF0F34DD5468002049
:1042F0002EE000F1080C4FF0010808FA0CF3B1F8B9
:1043000000C00CEA03069E4221D183004FF00F0C3F
:104310000CFA03F7BC4305FA03FC4CEA040491F8D9
:1043200003C0BCF1280F05D100F1080C08FA0CF805
:10433000C2F8148091F803C0BCF1480F07D100F116
:10434000080C4FF0010808FA0CF8C2F81080401C65
:104350000828CED35460BDE8F0812DE9F041054630
:104360000C46174698460F2C02D90020BDE8F08174
:104370002846FFF71BFF18B90121284600F072F804
:10438000B8F1000F10D1022F05D1E8680121A1403A
:104390008843E86008E0032F06D127F00107E868AA
:1043A0000121A1400843E860082C01D22E4601E01B
:1043B000083C2E1D3068A2000F21914088433060D8
:1043C00048EA8700A1008840316808433060012036
:1043D000CCE70000F0B50A460023002400210025A8
:1043E00000F00046B6F1004F02D11D4EF16901E028
:1043F0001B4E7168C0F3034583B200F44016B6F556
:10440000401F08D121F07061154E766826F0706665
:10441000134F7E6012E000F48016B6F5801F06D1BF
:10442000032606FA05F4A14341F0706106E0460D4B
:10443000360103FA06F6B14341F0706122B1460D30
:10444000360103FA06F6314300F00046B6F1004F9C
:1044500002D1034EF16101E0014E7160F0BD000038
:1044600000000140002945D0454A904206D1454A06
:10447000926942F00402434B9A6180E0424A9042C2
:1044800006D1404A926942F008023E4B9A6176E0BA
:104490003E4A904206D13B4A926942F01002394BA3
:1044A0009A616CE03A4A904206D1364A926942F0EB
:1044B0002002344B9A6162E0364A904206D1314A7A
:1044C000926942F040022F4B9A6158E0324A904282
:1044D00006D12C4A926942F080022A4B9A614EE042
:1044E0002E4A90424BD1274A926942F48072254B62
:1044F0009A6144E0224A904206D1224A926922F00F
:104500000402204B9A613AE01F4A904206D11D4AAC
:10451000926922F008021B4B9A6130E01B4A9042DC
:1045200006D1184A926922F01002164B9A6126E0D1
:10453000174A904206D1134A926922F02002114B89
:104540009A611CE0134A904206D10E4A926922F009
:1045500040020C4B9A6112E00F4A904206D1094A80
:10456000926922F08002074B9A6108E00B4A904260
:1045700005D1044A926922F48072024B9A61704715
:104580000008014000100240000C014000100140F2
:104590000014014000180140001C014000200140AF
:1045A000416170470161704701460548006880B26B
:1045B00000EBC100001D034A32F8100080B27047C2
:1045C000505C00400060004001460648006880B230
:1045D00000EBC100801D044A32F81000C0F309004E
:1045E00070470000505C00400060004001460548F4
:1045F000006880B200EBC100034A32F8100080B2BC
:1046000070470000505C0040006000400D49097890
:10461000012910D10C4909680C4A1268891A0C4A00
:10462000126888180A49096851B907490968074A90
:104630001268881A04E004490968044A1268881A52
:1046400070470000270400202C04002030040020C4
:104650003404002010B5084B1B68C3F30B02C2F5ED
:104660008051054B1B68054C24681B1BC3F580500B
:10467000884200D9084610BD2C04002030040020D8
:10468000084A1178127882F00102064B1A70064A25
:10469000525C064B1B7842EA03000022024B5A543C
:1046A000704700002A04002028040020270400206E
:1046B00010B50F4B18681B1D19681B1D1A68A8B18F
:1046C0000C4CA070030A2371030CA371030E237218
:1046D000A1720B0A23730B0CA3730B0E2374A27429
:1046E000130A2375130CA375130E237610BD000057
:1046F000E8F7FF1FF80200202DE9F04704460D46B9
:104700004FF0FF0A2078D02872DB2078D7286FDCA2
:10471000207805F8010B14F8010BD038082868D26E
:10472000DFE800F004121518213356725648076866
:1047300005F8017B380A05F8010B380C05F8010B68
:10474000380E05F8010B81E0FFF7C2FC7EE0FFF7B1
:1047500093FA7BE027683846FFF74EFA042801D029
:104760004FF0FF0A72E0D4F80080A68806E018F83F
:10477000011BFF2902D04FF0FF0A04E0301EA6F112
:1047800001018EB2F3D100BF60E02768A688382E01
:1047900002DD4FF0FF0A1AE0A41D12E014F8019B9D
:1047A0002EB114F8011B49EA0129701E86B2494650
:1047B0003846FFF76BFA042802D04FF0FF0A05E0F5
:1047C000BF1C301EA6F101018EB2E7D100BF3DE053
:1047D000D4F80080A6883E2E02DD4FF0FF0A12E0DA
:1047E000002005F8010B09E026B998F800A005E0C3
:1047F00030E027E018F8010B05F8010B301EA6F198
:1048000001018EB2F0D121E000BF00BF00BF00BFA8
:1048100000BFBFF34F8F00BF00BF00BF1B48006841
:1048200000F4E0601A490843001D1849086000BF01
:1048300000BF00BFBFF34F8F00BF00BF00BF00E04D
:1048400000BFFDE76D1E4FF0FF0A00BF00BF85F8F7
:1048500000A017E00F48006890B10F4BDFF83CC094
:10486000DCF800C003EB8C110D4BDFF838C0DCF82E
:1048700000C003EB8C10074B1B685A68904701E09F
:10488000FF202870BDE8F087002004E00CED00E078
:104890000000FA0504020020043400205C0400201B
:1048A000042400205404002072B61E49086880F3D6
:1048B000088800BF01F0FEF9002412E001F06AFA56
:1048C0006420FEF7D9F901F05DFA01F03DFA6420A9
:1048D000FEF7D2F901F030FA4FF47A70FEF7CCF916
:1048E000641C052CEADB00BF00BF00BF00BF00BF97
:1048F000BFF34F8F00BF00BF00BF0B48006800F43C
:10490000E0600A490843001D0749086000BF00BF76
:1049100000BFBFF34F8F00BF00BF00BF00E000BF6C
:10492000FDE70000000000080CED00E00000FA05C3
:104930002DE9F04FADF2944D06460024402103A826
:10494000FBF78EFDA246A046A1460020029000255E
:10495000012231469CA808F055FF13223FA113A85D
:1049600008F050FF40A000680190012003463FA2DC
:10497000022100902D2001F0EFFE57E0781CC7B215
:10498000642F19D101A90A5D04EB44014B2303EB09
:104990004101C8B20123022101F0A4FE601CC4B28F
:1049A000032C08DD00240120034632A202210090DE
:1049B0004B2001F0D1FE00279DF80C003A2804D0CE
:1049C00000200DF2944DBDE8F08F0DF10D00FCF7C5
:1049D0008DF982460DF11100FCF788F983460DF13F
:1049E0000F00FCF783F90BEB00201FFA80F80DF1A4
:1049F0001300FCF77BF98146B9F1000F16D141464F
:104A000013A808F010FE00250BE06900093103AA85
:104A10008818FCF76BF9834613A908F0E0FF681CBF
:104A2000C5B203A8FBF796FCA842EED89CAA402189
:104A300003A808F0D1FD0028A0D1012003460FA251
:104A4000022100902D2001F087FE13A808F0B9FD87
:104A50009CA808F0B6FD0120B3E7000077726974E6
:104A6000652E62696E0000002E2E2E00494E5645BE
:104A700052000000202020202000000020202020C4
:104A8000202020202020000010B518480068047A5B
:104A9000022C01D0042C05D1FDF7E4FE1348006878
:104AA000047A1CE0062C19D11048006840780528CB
:104AB0000ED10E480068007800F07F0040B90B4925
:104AC0000968C87803F096FE09490968086A8047B2
:104AD0000849096888688047082400E008240349D9
:104AE00009680C7202F00AF910BD00000C040020E5
:104AF000180400201004002010B50B48006838B1DD
:104B000009480A490860084600680168084888475B
:104B10000AF0C0FC01200AF04BFB00BF0AF040FB8A
:104B20000028FBD010BD0000DCFA000804020020C1
:104B3000D4FA000808B54FF4A06001F019FC08F0A1
:104B400011FB01F091F807F0EDFD1749002008F086
:104B500043FE01F00FFD01F0B1FC01F0D3F803F0CA
:104B600001FE012816D1FEF7A1F8104822231A46AB
:104B700000210090084601F0C1FC002001230CA296
:104B800019460090262001F0E7FDFFF7B5FFFEF77C
:104B900089F807E003F0D8FF03F0E4FF07F002FC18
:104BA00007F0E2FB08BD00007407002000000020B1
:104BB00044415020436F6E6E6563740008B5002059
:104BC000009009F0C5FD08B9002008BD4EF29E70A6
:104BD00009F0A8FE08B90020F7E709F0B9FD08B907
:104BE0000020F2E7684609F07BFD08B90020ECE7F9
:104BF0000120EAE710B504460548407818B1204680
:104C000000F008F802E0204600F0A6F810BD000011
:104C10007812002070B5054601F080FF01F04CFECF
:104C200000BF00BF01F082FE00BF00BF01F044FEE4
:104C300000BF00BF01F07AFE00BF00BF01F046FFD9
:104C400001F03AFE00BF00BF01F070FE00BF00BFE0
:104C500001F032FE00BF00BF01F068FE00BF00BFE0
:104C6000012001F077FF3B48C17D203030F8114032
:104C700008E001F021FE00BF00BF01F057FE00BFB9
:104C800000BF641E002CF4D13248C17D1830405C56
:104C9000441E0CE0E8B201F05DFF01F00DFE00BF24
:104CA00000BF01F043FE00BF00BF6D08641E002C72
:104CB000F0D12848C17D303030F811402CB3E8B233
:104CC00001F048FF01F0F8FD00BF00BF01F02EFE2B
:104CD00000BF00BF012001F03DFF641E08E001F0AD
:104CE000EBFD00BF00BF01F021FE00BF00BF641E4E
:104CF000002CF4D101F012FF01F0DEFD00BF00BF77
:104D000001F014FE00BF00BF0DE001F007FFE8B2A4
:104D100001F020FF01F0D0FD00BF00BF01F006FE52
:104D200000BF00BF00BF01F0C7FD00BF00BF01F022
:104D3000FDFD00BF00BF01F0C9FE01F0BDFD00BFD9
:104D400000BF01F0F3FD00BF00BF012001F002FF32
:104D500070BD00007812002070B5054601F0DEFE3F
:104D600001F0AAFD9F494868014600BF00BF4A1EE6
:104D7000111EFCD100BF01F0D9FD9A4948680146D7
:104D800000BF00BF4A1E111EFCD100BF01F094FD00
:104D900094494868014600BF00BF4A1E111EFCD15D
:104DA00000BF01F0C3FD8F494868014600BF00BF46
:104DB0004A1E111EFCD100BF01F088FE01F07CFDEF
:104DC00088494868014600BF00BF4A1E111EFCD139
:104DD00000BF01F0ABFD83494868014600BF00BF3A
:104DE0004A1E111EFCD100BF01F066FD7D494868D6
:104DF000014600BF00BF4A1E111EFCD100BF01F0DA
:104E000095FD78494868014600BF00BF4A1E111E43
:104E1000FCD100BF012001F09DFE7248C17D203011
:104E200030F8114016E001F047FD6E494868014630
:104E300000BF00BF4A1E111EFCD100BF01F076FD6D
:104E400068494868014600BF00BF4A1E111EFCD1D8
:104E500000BF641E002CE6D16248C17D1830405C62
:104E6000441E1AE0E8B201F075FE01F025FD5D492F
:104E70004868014600BF00BF4A1E111EFCD100BF9A
:104E800001F054FD57494868014600BF00BF4A1E63
:104E9000111EFCD100BF6D08641E002CE2D15148E8
:104EA000C17D303030F81140002C4ED0E8B201F016
:104EB00051FE01F001FD4B494868014600BF00BFAB
:104EC0004A1E111EFCD100BF01F030FD4549486863
:104ED000014600BF00BF4A1E111EFCD100BF0120C9
:104EE00001F038FE641E16E001F0E6FC3D4948681A
:104EF000014600BF00BF4A1E111EFCD100BF01F0D9
:104F000015FD38494868014600BF00BF4A1E111E02
:104F1000FCD100BF641E002CE6D101F0FFFD01F0C2
:104F2000CBFC30494868014600BF00BF4A1E111E35
:104F3000FCD100BF01F0FAFC2A494868014600BFD5
:104F400000BF4A1E111EFCD11AE001F0E7FDE8B2D5
:104F500001F000FE01F0B0FC22494868014600BFA4
:104F600000BF4A1E111EFCD100BF01F0DFFC1D492D
:104F70004868014600BF00BF4A1E111EFCD100BF99
:104F800001F09AFC17494868014600BF00BF4A1E5D
:104F9000111EFCD100BF01F0C9FC1249486801464E
:104FA00000BF00BF4A1E111EFCD100BF01F08EFDE4
:104FB00001F082FC0B494868014600BF00BF4A1E51
:104FC000111EFCD100BF01F0B1FC06494868014642
:104FD00000BF00BF4A1E111EFCD100BF012001F01E
:104FE000B9FD70BD7812002070B501F097FD01F099
:104FF00063FC66494868014600BF00BF4A1E111E97
:10500000FCD100BF01F092FC60494868014600BF36
:1050100000BF4A1E111EFCD100BF01F057FD01F078
:105020004BFC5A494868014600BF00BF4A1E111E8A
:10503000FCD100BF01F07AFC54494868014600BF2A
:1050400000BF4A1E111EFCD100BF01F035FC4F49C4
:105050004868014600BF00BF4A1E111EFCD100BFB8
:1050600001F064FC49494868014600BF00BF4A1E80
:10507000111EFCD100BF4548C57D16E001F01CFCA7
:1050800042494868014600BF00BF4A1E111EFCD1BC
:1050900000BF01F04BFC3D494868014600BF00BF1E
:1050A0004A1E111EFCD100BF6D1E002DE6D100244A
:1050B0001F251CE001F000FC34494868014600BF90
:1050C00000BF4A1E111EFCD100BF01F051FD064673
:1050D00001F02CFC2D494868014600BF00BF4A1E64
:1050E000111EFCD100BF44EAC67464086D1E002D79
:1050F000E0D101F013FD01F0DFFB244948680146CF
:1051000000BF00BF4A1E111EFCD100BF01F030FDE0
:10511000064601F00BFC1D494868014600BF00BF70
:105120004A1E111EFCD100BF44EAC67401F0C4FB44
:1051300016494868014600BF00BF4A1E111EFCD137
:1051400000BF01F0F3FB11494868014600BF00BFF2
:105150004A1E111EFCD100BF01F0B8FC01F0ACFBEF
:105160000A494868014600BF00BF4A1E111EFCD113
:1051700000BF01F0DBFB05494868014600BF00BFE6
:105180004A1E111EFCD100BF204670BD78120020BF
:105190002DE9F05F04460F46904604F03F0606B93D
:1051A000402604F0400010B101F0B8FC01E001F02D
:1051B0008DFC36E017F801AB00254FF0080924E01C
:1051C0000AF0FF0001F0C6FC01F076FB17494868C1
:1051D000014600BF00BF4A1E111EFCD100BF01F0F6
:1051E000C7FC834601F0A2FB10494868014600BF96
:1051F00000BF4A1E111EFCD100BF4FEA5A0A6D08BB
:1052000045EACB15A9F10109761EB9F1000F01D0CD
:10521000002ED5D125FA09F504F0800008B108F870
:10522000015B002EC6D1BDE8F09F0000781200207F
:1052300070B504460D460648407820B12946204600
:1052400000F008F870BD2946204600F03FF9F9E764
:10525000781200202DE9F0470646884601F05EFCF2
:1052600001F02AFB00BF00BF01F060FB00BF00BFE0
:1052700001F02CFC01F020FB00BF00BF01F056FB49
:1052800000BF00BF01F018FB00BF00BF01F04EFBE4
:1052900000BF00BF8C48C47D08E001F00DFB00BFDB
:1052A00000BF01F043FB00BF00BF641E002CF4D11F
:1052B000C6F3470001F04EFC01F0FEFA00BF00BF4C
:1052C00001F056FC074601F031FB00BF00BF4FEA7A
:1052D0004709C6F3870001F03DFC01F0EDFA00BF7D
:1052E00000BF01F045FC074601F020FB00BF00BFF6
:1052F00049EA0709C6F3C70001F02CFC01F0DCFA0B
:1053000000BF00BF01F034FC074601F00FFB00BFF7
:1053100000BF49EA8709B9F1010F0AD001F0FEFB8D
:1053200001F0CAFA00BF00BF01F000FB00BF00BFE0
:10533000A1E006F00200002852D000251F240EE054
:1053400001F0BAFA00BF00BF01F012FC074601F0FD
:10535000EDFA00BF00BF45EAC7756D08641E002C5A
:10536000EED15948817DC07D081A441E14B301F066
:10537000A3FA00BF00BF01F0FBFB074601F0D6FA1D
:1053800000BF00BF641E08E001F096FA00BF00BF36
:1053900001F0CCFA00BF00BF641E002CF4D101F074
:1053A000BDFB01F089FA00BF00BF01F0BFFA00BFEA
:1053B00000BF0DE001F0B2FB01F07EFA00BF00BFBC
:1053C00001F0D6FB074601F0B1FA00BF00BF00BFF5
:1053D00045EAC775B8F1000F4CD0C8F8005049E055
:1053E000D8F800501F240CE0E8B201F0B3FB01F044
:1053F00063FA00BF00BF01F099FA00BF00BF6D085B
:10540000641E002CF0D13048817DC07D081A441EF6
:1054100014B3E8B201F09EFB01F04EFA00BF00BFEA
:1054200001F084FA00BF00BF641E08E001F044FAF6
:1054300000BF00BF01F07AFA00BF00BF641E002C5D
:10544000F4D101F06BFB01F037FA00BF00BF01F0AF
:105450006DFA00BF00BF0DE001F060FBE8B201F0A3
:1054600079FB01F029FA00BF00BF01F05FFA00BF2D
:1054700000BF00BF00BF01F01FFA00BF00BF01F076
:1054800055FA00BF00BF01F021FB01F015FA00BF83
:1054900000BF01F04BFA00BF00BF012001F05AFB32
:1054A0000948047A08E001F007FA00BF00BF01F0E4
:1054B0003DFA00BF00BF00BF201EA4F10104F2D1DD
:1054C00009F0FF00BDE8F087781200202DE9F047D1
:1054D0000746894601F022FB01F0EEF9FE494868D3
:1054E000014600BF00BF4A1E111EFCD100BF01F0E3
:1054F0001DFAF9494868014600BF00BF4A1E111E47
:10550000FCD100BF01F0E2FA01F0D6F9F249486897
:10551000014600BF00BF4A1E111EFCD100BF01F0B2
:1055200005FAED494868014600BF00BF4A1E111E3A
:10553000FCD100BF01F0C0F9E7494868014600BF4F
:1055400000BF4A1E111EFCD100BF01F0EFF9E24975
:105550004868014600BF00BF4A1E111EFCD100BFB3
:10556000DD48C47D16E001F0A7F9DB494868014633
:1055700000BF00BF4A1E111EFCD100BF01F0D6F9CA
:10558000D5494868014600BF00BF4A1E111EFCD124
:1055900000BF641E002CE6D1C7F3470001F0DAFA21
:1055A00001F08AF9CC494868014600BF00BF4A1E95
:1055B000111EFCD100BF01F0DBFA064601F0B6F97E
:1055C000C5494868014600BF00BF4A1E111EFCD1F4
:1055D00000BF4FEA4608C7F3870001F0BBFA01F0AD
:1055E0006BF9BD494868014600BF00BF4A1E111E45
:1055F000FCD100BF01F0BCFA064601F097F9B649AC
:105600004868014600BF00BF4A1E111EFCD100BF02
:1056100048EA0608C7F3C70001F09CFA01F04CF90C
:10562000AD494868014600BF00BF4A1E111EFCD1AB
:1056300000BF01F09DFA064601F078F9A6494868D6
:10564000014600BF00BF4A1E111EFCD100BF48EA40
:105650008608B8F1010F18D001F060FA01F02CF9BA
:105660009D494868014600BF00BF4A1E111EFCD17B
:1056700000BF01F05BF998494868014600BF00BFD0
:105680004A1E111EFCD100BF2FE107F002000028C6
:1056900074D000251F241CE001F00EF98E494868E3
:1056A000014600BF00BF4A1E111EFCD100BF01F021
:1056B0005FFA064601F03AF987494868014600BF9B
:1056C00000BF4A1E111EFCD100BF45EAC6756D0819
:1056D000641E002CE0D18048817DC07D081A441EE4
:1056E000002C4CD001F0E8F87B494868014600BF27
:1056F00000BF4A1E111EFCD100BF01F039FA064658
:1057000001F014F974494868014600BF00BF4A1E01
:10571000111EFCD100BF641E16E001F0CDF86E49E9
:105720004868014600BF00BF4A1E111EFCD100BFE1
:1057300001F0FCF868494868014600BF00BF4A1EF6
:10574000111EFCD100BF641E002CE6D101F0E6F969
:1057500001F0B2F860494868014600BF00BF4A1E28
:10576000111EFCD100BF01F0E1F85B494868014619
:1057700000BF00BF4A1E111EFCD11BE022E001F059
:10578000CDF901F099F854494868014600BF00BFBF
:105790004A1E111EFCD100BF01F0EAF9064601F0D5
:1057A000C5F84D494868014600BF00BF4A1E111E9A
:1057B000FCD100BF45EAC675B9F1000F01D0C9F8A8
:1057C000005091E0D9F800501F241AE0E8B201F02F
:1057D000C1F901F071F840494868014600BF00BFB7
:1057E0004A1E111EFCD100BF01F0A0F83A494868DA
:1057F000014600BF00BF4A1E111EFCD100BF6D084C
:10580000641E002CE2D13448817DC07D081A441EFC
:10581000002C4BD0E8B201F09DF901F04DF82E4973
:105820004868014600BF00BF4A1E111EFCD100BFE0
:1058300001F07CF828494868014600BF00BF4A1EB5
:10584000111EFCD100BF641E16E001F035F822499C
:105850004868014600BF00BF4A1E111EFCD100BFB0
:1058600001F064F81C494868014600BF00BF4A1EA9
:10587000111EFCD100BF641E002CE6D101F04EF9D0
:1058800001F01AF814494868014600BF00BF4A1EDB
:10589000111EFCD100BF01F049F80F4948680146CC
:1058A00000BF00BF4A1E111EFCD11DE001F036F9F9
:1058B000E8B201F04FF900F0FFFF074948680146E0
:1058C00000BF00BF4A1E111EFCD100BF01F02EF820
:1058D00001494868014601E07812002000BF00BF7E
:1058E0004A1E111EFCD100BF00BF00F0E5FF284991
:1058F0004868014600BF00BF4A1E111EFCD100BF10
:1059000001F014F822494868014600BF00BF4A1E52
:10591000111EFCD100BF01F0D9F800F0CDFF1C49E9
:105920004868014600BF00BF4A1E111EFCD100BFDF
:1059300000F0FCFF16494868014600BF00BF4A1E40
:10594000111EFCD100BF012001F004F91048047AB7
:1059500015E000F0B1FF0E494868014600BF00BFE6
:105960004A1E111EFCD100BF00F0E0FF0849486844
:10597000014600BF00BF4A1E111EFCD100BF201E01
:10598000A4F10104E5D108F0FF00BDE8F0870000B4
:105990007812002070B5054601F0C0F800F08CFFC9
:1059A000B0494868014600BF00BF4A1E111EFCD125
:1059B00000BF00F0BBFFAB494868014600BF00BF15
:1059C0004A1E111EFCD100BF01F080F800F074FFE8
:1059D000A4494868014600BF00BF4A1E111EFCD101
:1059E00000BF00F0A3FF9F494868014600BF00BF09
:1059F0004A1E111EFCD100BF00F05EFF99494868A5
:105A0000014600BF00BF4A1E111EFCD100BF00F0BE
:105A10008DFF94494868014600BF00BF4A1E111E11
:105A2000FCD100BF8F48C47D16E000F045FF8D49D2
:105A30004868014600BF00BF4A1E111EFCD100BFCE
:105A400000F074FF87494868014600BF00BF4A1E46
:105A5000111EFCD100BF641E002CE6D1002001F015
:105A600079F800F029FF7F494868014600BF00BF70
:105A70004A1E111EFCD100BF00F058FF794948684A
:105A8000014600BF00BF4A1E111EFCD100BF00F03E
:105A900013FF74494868014600BF00BF4A1E111E2B
:105AA000FCD100BF00F042FF6E494868014600BFCC
:105AB00000BF4A1E111EFCD100BF00F0FDFE694967
:105AC0004868014600BF00BF4A1E111EFCD100BF3E
:105AD00000F02CFF63494868014600BF00BF4A1E22
:105AE000111EFCD100BF1F241AE0E8B201F032F809
:105AF00000F0E2FE5B494868014600BF00BF4A1E55
:105B0000111EFCD100BF00F011FF56494868014644
:105B100000BF00BF4A1E111EFCD100BF6D08641EED
:105B2000002CE2D14F48817DC07D081A441E002C14
:105B30004BD0E8B201F00EF800F0BEFE49494868CB
:105B4000014600BF00BF4A1E111EFCD100BF00F07D
:105B5000EDFE44494868014600BF00BF4A1E111EC1
:105B6000FCD100BF641E16E000F0A6FE3D49486867
:105B7000014600BF00BF4A1E111EFCD100BF00F04D
:105B8000D5FE38494868014600BF00BF4A1E111EB5
:105B9000FCD100BF641E002CE6D100F0BFFF00F076
:105BA0008BFE30494868014600BF00BF4A1E111EE7
:105BB000FCD100BF00F0BAFE2A494868014600BF88
:105BC00000BF4A1E111EFCD11AE000F0A7FFE8B288
:105BD00000F0C0FF00F070FE22494868014600BF97
:105BE00000BF4A1E111EFCD100BF00F09FFE1D49E0
:105BF0004868014600BF00BF4A1E111EFCD100BF0D
:105C000000F05AFE17494868014600BF00BF4A1E0F
:105C1000111EFCD100BF00F089FE12494868014600
:105C200000BF00BF4A1E111EFCD100BF00F04EFF96
:105C300000F042FE0B494868014600BF00BF4A1E03
:105C4000111EFCD100BF00F071FE064948680146F4
:105C500000BF00BF4A1E111EFCD100BF012000F092
:105C600079FF70BD7812002008B50121182001F0DD
:105C7000A9F84FF40060ADF8000003208DF8020091
:105C800048208DF8030069460848FEF7DBFA01203A
:105C9000ADF8000003208DF8020048208DF80300C5
:105CA00069460348FEF7CEFA08BD0000000C01402B
:105CB0000010014010B50F48806940F004000D4904
:105CC000886148150C4908600C490B481438FEF7E8
:105CD000B9FA0848806940F004000649886148150F
:105CE00005490860064904481438FEF7ABFA00F08D
:105CF00049F810BD0010024014080140CCFA000819
:105D0000D0FA000808B50121092001F05BF8012153
:105D10000748FEF75FFB1020ADF800008DF8030088
:105D200003208DF8020069460248FEF78BFA08BD91
:105D300000023000000C01404FF40070014908607F
:105D400070470000100801404FF4007001490860DE
:105D5000704700001408014000B5024600F012F838
:105D60000748007820F00100054908704FF0E02056
:105D7000006940F001004FF0E021086100BD000023
:105D8000FD0100204FF400700149086070470000D9
:105D9000100801404FF4007001490860704700008E
:105DA0001408014000B50246FFF7CEFF0F48007807
:105DB00040F001000D49087002F0010050B14FF0B1
:105DC000E020006920F001004FF0E0210861FFF7BA
:105DD000E1FF09E04FF0E020006940F001004FF0E2
:105DE000E0210861FFF7CEFF00BD0000FD010020AB
:105DF00010B5002000F00CF810BD014611B10129CA
:105E000004D101E0002070470020FCE70120FAE700
:105E10000146002211B1012910D10EE04FF400001B
:105E2000094B18608013094B1860074800681B680D
:105E3000B0FBF3F0064B186002E001E00120704770
:105E400000BF1046FBE7000044020020480200208B
:105E50004C0200202DE9F04104460F4615461E462F
:105E60002CB932463946284606F086FC02E001206D
:105E7000BDE8F08100BF0020FAE72DE9F0410446BB
:105E80000F4615461E4614B1012C07D105E03246D7
:105E90003946284606F0DCFC03E002E00120BDE8BC
:105EA000F08100BF0020FAE770B50446002500BF6E
:105EB000212C08D111480068007800F07F002128CB
:105EC0000ED10F4D0CE0202C0AD10C480068007850
:105ED00000F07F00212800D10A4D20200A490870D7
:105EE0000DB9022070BD0548006885610021034896
:105EF000006841820020A8470020F3E70C0400203E
:105F000095C60008B1C600086003002010B504461D
:105F10000249204602F058FF10BD0000CC030020CB
:105F200010B504460249204602F04EFF10BD0000A5
:105F3000C403002070B5054606480068C478052CE7
:105F400001DD002070BD044800EBC401284602F0CA
:105F50003BFFF7E70C040020D40300200246002991
:105F600001DD02207047072A01DD0220FAE7002048
:105F7000F8E70000014608480068007800F07F005C
:105F8000212807D1022901D100207047222901D1FF
:105F90000020FAE70220F8E70C04002010B50020EA
:105FA0004E4988724E48C0794E49096848720020AF
:105FB00002F018FC4FF40071002002F00DFD2021CA
:105FC000002002F0CFFC4021002002F03BFC4648BC
:105FD00090F82C10002002F047FC8021002002F0F5
:105FE000A3FC0020FAF7EEFE002002F083FC002163
:105FF000012002F0F1FCC021012002F095FC2021DB
:10600000012002F0AFFC0021012002F053FC00212E
:10601000022002F0E1FC4FF48071022002F012FC39
:10602000314890F82C10022002F01EFC4FF4405131
:10603000022002F03FFC0021022002F093FC2A48DB
:1060400090F82C10002002F00FFC002002F052FC0F
:106050000021042002F0C0FC4FF4A871042002F0DB
:1060600063FC2021042002F07DFC0021042002F0CA
:1060700021FC4FF4C061052002F0AEFC4FF4C87162
:10608000052002F051FC0021052002F013FC202124
:10609000052002F067FC0021062002F09DFC4FF471
:1060A000E871062002F0CEFB4021062002F0DCFB66
:1060B0004FF44051062002F0FDFB0021062002F0C3
:1060C00051FC002002F096FB0120084908600848B6
:1060D0000849086000200849087010BD5C120020C3
:1060E00032FB00080C04002070030020FC03002099
:1060F00055534243B0110020EC02002010B508486F
:10610000007820280AD1C8210648FAF787F90649FD
:10611000086808F027FF00200149087010BD000042
:1061200060030020A40D00206403002070470000DD
:1061300010B5FEF7BDFA002005490968887200F025
:1061400001FE06F03BFA00200249086010BD000085
:106150000C040020FC03002010B50448006804492A
:10616000884202D00220FAF791FA10BDB011002047
:106170005553424310B518480078022810D0032820
:106180001DD0042802D0052823D100E000BF002044
:10619000114908704FF44051022002F08BFB19E0C6
:1061A0000E48C07B282808D10C49487B0C490A6856
:1061B0000C49096801F088F900BF00BF0AE001211D
:1061C000002002F09DFC4FF44051022002F072FBCF
:1061D00000E000BF00BF10BDEC020020B0110020A5
:1061E000F4020020F002002010B51D48C47B1D49B8
:1061F000022006F0F5F91C4908801C48007810B10F
:1062000001281CD102E0FAF767FA26E02A2C08D10F
:106210001349487B16490A681649096801F07AFA59
:106220001BE00120FAF732FA0D49487B24220521B0
:1062300002F084FC0021022002F062FC0DE002204A
:10624000FAF724FA0649487B2422052102F076FC5D
:106250000021022002F054FC00BF00BF10BD00006E
:10626000B011002070110020EE020020EC0200208E
:10627000F4020020F002002010B508480068807A7F
:1062800058B10520064908600120FAF769FD02208F
:10629000FAF74CFD00200349087010BD0C040020E3
:1062A000FC030020EC020020042001490860704734
:1062B000FC0300207047000000F01F020121914004
:1062C000024A430942F823107047000080E200E0D0
:1062D00000F01F0201219140024A430942F82310B5
:1062E0007047000080E100E000F01F0201219140B2
:1062F0004209920002F1E022C2F80011704700004A
:1063000070B5002100230F22C47804B3154C246813
:1063100004F4E064C4F5E064210AC1F10403CA4056
:10632000447804FA03F184781440214309010E4CA7
:106330000678A155047804F01F050124AC400578C7
:106340006D11AD0005F1E025C5F8004109E00478C4
:1063500004F01F050124AC40044D0678761145F881
:10636000264070BD0CED00E000E400E080E100E0BC
:1063700002490143024A1160704700000000FA051B
:106380000CED00E070B502264748006844784648A6
:106390000068007800F07F00002844D1092C03D168
:1063A00002F0BAFD06465FE0052C14D13E480068B5
:1063B000C0787F280BDC3C480068807838B93A48C0
:1063C0000068808818B938480068807A08B10825C4
:1063D00065E0002648E0032C0ED133480068C07801
:1063E000012807D130480068808818B902F0B8FD4C
:1063F000064639E0022637E0012C35D12A480068EC
:10640000C07801280DD128480068808848B92648FE
:106410000068407A00F0200018B102F009FC06463E
:1064200022E0022620E020480068007800F07F008B
:10643000012805D10B2C17D102F00EFE064613E001
:1064400019480068007800F07F0002280BD1012C69
:1064500003D102F0EDFB064606E0032C04D102F066
:1064600093FD064600E002264EB1E0B20F4A1268E4
:10647000516988470646032E01D109250FE00EB168
:1064800008250CE0062500210948006880B2801C20
:10649000084A42F8101030200749088000BF02491E
:1064A00009680D7270BD00000C040020100400206B
:1064B000505C0040006000401E04002070B50024C5
:1064C00019E004F1B001C8B2002100F077F9002111
:1064D000084600F073F90021102000F06FF9002544
:1064E00005E00121002000F069F9681CC5B2802D8B
:1064F000F7DB601CC4B2082CE3DB70BD2DE9F05F54
:1065000006460F4690461C46DDF828A04FF0000BCB
:10651000E11704EB5171C910A4EBC10131B9204658
:10652000E11704EB5171C1F3C70506E02046E117FE
:1065300004EB5171C910491CCDB23D4615E0294606
:10654000304600F0B7F8B1460BE059460BF1010BAD
:106550001AF80100012100F031F909F1010000F001
:10656000FF09C145F1DB681CC5B2A542E7DBBDE808
:10657000F09F000008B50121042000F023FCB020AA
:10658000ADF8000010208DF8030003208DF8020004
:1065900069464648FDF756FEB0214448FEF702F82A
:1065A0000121082000F00EFC40F20310ADF80000BD
:1065B00010208DF8030003208DF8020069463C4846
:1065C000FDF740FE40F203113948FDF7EBFF0121D2
:1065D0003748FDF7E7FF642006F0E6FD0121344867
:1065E000FDF7DEFFC82006F0DFFD01213048FDF792
:1065F000D9FF0021AE2000F0E1F80021402000F09A
:10660000DDF80021B02000F0D9F80021C82000F00A
:10661000D5F80021812000F0D1F80021FF2000F002
:10662000CDF80021A12000F0C9F80021A62000F03B
:10663000C5F80021A82000F0C1F800211F2000F0BB
:10664000BDF80021D32000F0B9F80021084600F081
:10665000B5F80021D52000F0B1F80021F02000F0BD
:10666000ADF80021D92000F0A9F80021222000F087
:10667000A5F80021DA2000F0A1F80021022000F0A6
:106680009DF80021DB2000F099F80021492000F05E
:1066900095F800218D2000F091F80021142000F0E1
:1066A0008DF80021AF2000F089F808BD00080140F6
:1066B000000C014070B504460D4605F1B001C8B2AA
:1066C000002100F07BF8102141EA1410002100F0B5
:1066D00075F804F00F0141F00100002100F06EF8A0
:1066E00070BD00002DE9F04706460D461746984656
:1066F0004FF000090024A7F1200000F0FF097F2ED1
:1067000002DD0026A81CC5B2681CC1B23046FFF7E6
:10671000D1FF002419E0B8F1000F09D009EB4901BD
:106720000C4A02EB4101085D012100F047F80AE044
:1067300009EB4901074A02EB4101095DC943C8B2AF
:10674000012100F03BF8601CC4B2062CE3DBBDE87D
:10675000F0870000BC0101082DE9F04704460D4612
:1067600016469946089F4FF0000821E016F80820C9
:106770004B4629462046FFF7B5FFB9F1000F00D080
:1067800017B1A01DC4B202E004F10800C4B2782C15
:1067900004DD1FB90024A81CC5B205E0782C03DD78
:1067A00017B10024681CC5B208F1010000F0FF0811
:1067B00016F808000028D9D1BDE8F08770B5044666
:1067C0000E4626B102211848FDF7ECFE03E0022137
:1067D0001548FDF7E5FE10211448FDF7E1FE002500
:1067E00017E020211148FDF7DBFE04F0800020B106
:1067F00080210E48FDF7D6FE03E080210B48FDF70F
:10680000CFFE20210948FDF7CDFE6006040E681C6E
:10681000C5B2082DE5DB10210448FDF7C3FE0221B7
:106820000148FDF7BFFE70BD000C014000080140AB
:1068300010B511480068047A022C01D0042C01D153
:10684000082412E0032C01D0052C05D1FCF76AF8CE
:1068500009480068047A08E0072C05D1074909684F
:10686000C8688047082400E00824034909680C72BE
:1068700000F044FA10BD00000C04002010040020B9
:106880000448406840F00070024948600815024919
:106890000860704700000140140801400448406847
:1068A00040F00070024948600815024908607047CE
:1068B00000000140140801400448406840F00070A6
:1068C000024948600815024908607047000001400D
:1068D000140801400548406840F0007003494860D2
:1068E00003480068C0F380207047000000000140AA
:1068F0000C0801400448406840F0007002494860BC
:106900000815024908607047000001401008014066
:106910000448406840F00070024948600815024988
:1069200008607047000001401008014004484068BA
:1069300040F000700249486008150249086070473D
:1069400000000140100801400948406840F0007014
:10695000074948600846406840F0007048600548B4
:10696000006800F4007008B1012070470020FCE7C7
:1069700000000140080801400948406840F00070EC
:10698000074948600846406840F000704860054884
:10699000006800F4007008B1012070470020FCE797
:1069A00000000140080801400B49496841F00071AE
:1069B000094A51601146496841F00071516000F088
:1069C000010119B15115054A116004E04FF400713D
:1069D000024A121D1160704700000140100801407A
:1069E0000B49496841F00071094A516011464968F4
:1069F00041F00071516000F0010119B15115054AD3
:106A0000116004E04FF40071024A121D11607047DA
:106A100000000140100801400C48406840F0007040
:106A20000A4948600846406840F00070486000BF6E
:106A30000748006820F0F00040F08000044908603A
:106A4000481503490C31086000BF70470000014041
:106A5000040801400C48406840F000700A49486052
:106A60000846406840F00070486000BF0748006872
:106A700020F0F00040F03000044908604815034958
:106A80001031086000BF7047000001400408014059
:106A90000C48406840F000700A4948600846406869
:106AA00040F00070486000BF0748006820F0F00028
:106AB00040F030000449086048150349103108606F
:106AC00000BF7047000001400408014007484068CB
:106AD00040F00070054948600846406840F000708A
:106AE00048604815024908607047000000000140F6
:106AF000140801400748406840F0007005494860AC
:106B00000846406840F00070486003480068C0F3E1
:106B100040207047000001400808014007484068D5
:106B200040F00070054948600846406840F0007039
:106B300048604815024908607047000000000140A5
:106B40001008014002480068C0F380107047000040
:106B50000C0C014000F0010119B14021034A116001
:106B600003E04021014A121D11607047100C0140E2
:106B700002480068C0F3C01070470000080C0140D4
:106B8000F0B5561C7510074E06EB41042B4605E088
:106B900034F8047B20F8017B401C5B1E002BF7D1EE
:106BA000F0BD00000060004010B54FF4C060124915
:106BB0000860402011490860114910481038FDF75D
:106BC00041FB10490D481038FDF73CFB0E4840686A
:106BD00040F000700C4948600C4907481038FDF738
:106BE00031FB002008F078FC6420FCF745F8012018
:106BF00008F072FC10BD000010080140100C0140AC
:106C0000F8FA000800FB000800000140FCFA000848
:106C100010B50E48406840F000700C4948600846C6
:106C2000406840F00070486009490A48FDF70AFBD7
:106C300009490A48FDF706FB09490848FDF702FB28
:106C400008490448FDF7FEFA10BD000000000140AD
:106C500008FB00080008014004FB0008000C01408C
:106C60000CFB000810FB000810B54FF4C06012497F
:106C7000086012491248FDF7E5FA12491048FDF77D
:106C8000E1FA1148406840F000700F49486008463A
:106C9000406840F0007048600C4907481038FDF724
:106CA000D1FA002008F018FC6420FBF7E5FF012072
:106CB00008F012FC10BD000010080140ECFA0008BA
:106CC000000C0140F0FA000800000140F4FA00084E
:106CD00010B50748806940F00400054988618815AF
:106CE00004490860044903481438FDF7ABFA10BDA5
:106CF0000010024014080140E8FA000810B50D48E1
:106D000090F82C10002001F0AFFD0B480068007ACD
:106D1000082805D140020949088010200849088048
:106D200005480068007A092801D1012010BD002023
:106D3000FCE70000700300200C0400201C0400206D
:106D40001E04002010B5012005F008FB01240B48AB
:106D5000046000200A490880084600880749086046
:106D60000020091D08604FF4E050054908800846DE
:106D7000008802490860002010BD0000405C00400F
:106D80001604002029B1064A52690243044B5A6195
:106D900004E0034A52698243014B5A617047000084
:106DA0000010024029B1064AD2690243044BDA615D
:106DB00004E0034AD2698243014BDA617047000064
:106DC0000010024029B1064A92690243044B9A61BD
:106DD00004E0034A92698243014B9A6170470000C4
:106DE0000010024030B500210022002400232D4D68
:106DF0006D6805F00C0121B1042905D0082923D1C3
:106E000005E0294D056022E0274D05601FE0254D76
:106E10006D6805F47012234D6D6805F48034022509
:106E200005EB92421CB9214D554305600BE01D4D09
:106E30006D6805F400351DB11C4D5543056002E039
:106E4000194D5543056002E0174D056000BF00BFB6
:106E5000144D6D6805F0F0010909154D6B5C05686E
:106E6000DD4045600F4D6D6805F4E061090A104D85
:106E70006B5C4568DD4085600A4D6D6805F46051C6
:106E8000C90A0B4D6B5C4568DD40C560054D6D68FA
:106E900005F44041890B074D6B5CC568B5FBF3F504
:106EA000056130BD0010024000127A0000093D006B
:106EB00028020020380200200149086070470000C5
:106EC000D80042422DE9F04707468A4600250120B6
:106ED000FFF76AFDFFF7D4FCDB494868014600BFB5
:106EE00000BF4A1E111EFCD100BFFFF703FDD649AB
:106EF0004868014600BF00BF4A1E111EFCD100BFFA
:106F00003C46E0B2FFF750FDFFF7BAFCCE494868B7
:106F1000014600BF00BF4A1E111EFCD100BFFFF793
:106F2000E9FCC9494868014600BF00BF4A1E111E5E
:106F3000FCD100BF25447C08E0B2FFF735FDFFF728
:106F40009FFCC1494868014600BF00BF4A1E111E90
:106F5000FCD100BFFFF7CEFCBB494868014600BF2B
:106F600000BF4A1E111EFCD100BF2544BC08E0B280
:106F7000FFF71AFDFFF784FCB3494868014600BFDC
:106F800000BF4A1E111EFCD100BFFFF7B3FCAE4983
:106F90004868014600BF00BF4A1E111EFCD100BF59
:106FA0002544FC08E0B2FFF7FFFCFFF769FCA649A7
:106FB0004868014600BF00BF4A1E111EFCD100BF39
:106FC000FFF798FCA0494868014600BF00BF4A1E71
:106FD000111EFCD100BF2544E8B2FFF7E5FCFFF726
:106FE0004FFC99494868014600BF00BF4A1E111E68
:106FF000FCD100BFFFF77EFC93494868014600BF03
:1070000000BF4A1E111EFCD100BF0020FFF7CCFCC0
:10701000FFF736FC8C494868014600BF00BF4A1E96
:10702000111EFCD100BFFFF765FC87494868014687
:1070300000BF00BF4A1E111EFCD100BF0120FFF798
:10704000B3FCFFF71DFC80494868014600BF00BF44
:107050004A1E111EFCD100BFFFF74CFC7A4948685C
:10706000014600BF00BF4A1E111EFCD100BF00BF79
:107070007648406840F000707449486008464068AF
:1070800040F00070486000BF00BF7148006820F009
:10709000F00040F080006E49086048156C490C31E2
:1070A000086000BF00BF6848067D16E0FFF7E8FBF8
:1070B00065494868014600BF00BF4A1E111EFCD149
:1070C00000BFFFF717FC60494868014600BF00BFDA
:1070D0004A1E111EFCD100BF761E002EE6D1FFF71E
:1070E000CFFB59494868014600BF00BF4A1E111E28
:1070F000FCD100BFFFF728FC0446FFF7FBFB524919
:107100004868014600BF00BF4A1E111EFCD100BFE7
:10711000A046FFF7B5FB4C494868014600BF00BFD9
:107120004A1E111EFCD100BFFFF70EFC0446FFF7FC
:10713000E1FB45494868014600BF00BF4A1E111ED9
:10714000FCD100BF48EA4408FFF79AFB3E49486873
:10715000014600BF00BF4A1E111EFCD100BFFFF751
:10716000F3FB0446FFF7C6FB37494868014600BFFA
:1071700000BF4A1E111EFCD100BF48EA84083248F5
:10718000067D16E0FFF77CFB2F494868014600BFEB
:1071900000BF4A1E111EFCD100BFFFF7ABFB2A49FE
:1071A0004868014600BF00BF4A1E111EFCD100BF47
:1071B000761E002EE6D1FFF74DFCD1460025202695
:1071C0001DE009F0FF00FFF7EFFBFFF759FB1E4939
:1071D0004868014600BF00BF4A1E111EFCD100BF17
:1071E000FFF788FB18494868014600BF00BF4A1EE8
:1071F000111EFCD100BF4D444FEA5909761E002EE6
:10720000DFD1E8B2FFF7D0FBFFF73AFB0E49486841
:10721000014600BF00BF4A1E111EFCD100BFFFF790
:1072200069FB09494868014600BF00BF4A1E111E9C
:10723000FCD100BFFFF70EFC0120FFF7B5FB08F003
:10724000FF00BDE8F0870000781200200000014038
:107250000408014070B504460D46164635480078CE
:1072600070B9354850F82400684334490860324802
:1072700050F8240070433249086001202D490870FD
:107280002C480078012844D12E480068C0B92A480B
:1072900030F8240083B22C4A284801682046FEF7C3
:1072A000D9FD40222849812005F0B1F9224850F843
:1072B000240040382349086040202449086011E038
:1072C0002148224A126881184022812005F09FF946
:1072D0001C48006840381B4908601C480068403062
:1072E0001A4908604021012001F02EFB30210120C5
:1072F00001F038FB11480068403010490860104820
:10730000006840380E4908601148806840381049CC
:1073100088600B48006860B900200A4908600B4982
:1073200008600649086003200A49087000200149E6
:10733000087070BD6402002048020020680200202E
:107340006C02002054020020700F00205802002020
:10735000D0110020EC0200202DE9F04104460D463A
:1073600017461E46B8191C4951F82410884213D9F3
:107370002A2D02D10220F9F789F90020F9F786F9C0
:1073800021220521204601F0D9FB0021012001F036
:10739000B7FB0020BDE8F08110488168104850F824
:1073A00024007043814214D02A2D03D10220F9F722
:1073B0006DF902E00020F9F769F90849487B2422B9
:1073C000052101F0BBFB0021012001F099FB002009
:1073D000E0E70120DEE700004C020020B0110020B1
:1073E0004802002010B504462046FEF706FD68B1AD
:1073F0000749487B3A22022101F0A0FB01210846FF
:1074000001F07EFB0020F9F741F910BD00BFFCE759
:10741000B011002070B506460C48007C00F0010059
:1074200010B10B4C05250BE00EB90A4C00E00A4CDC
:107430000648C07C242802DC0448C57C00E02425E2
:107440002946204601F0BCFE70BD0000B0110020AE
:10745000780200207D0200209302002010B504462F
:107460000E48806818B90020F9F710F90BE00B48B6
:10747000007B00F0800018B10020F9F707F902E066
:107480000220F9F703F90549487B2022052101F084
:1074900055FB0021012001F033FB10BDB01100208D
:1074A00010B504460821024801F08AFE10BD000014
:1074B000BB02002010B504460421024801F080FE02
:1074C00010BD0000B702002070B506460C461546F8
:1074D0001948007820BB1949487B2B4622462821B1
:1074E000FFF73AFF00B970BD1448007B00F0800040
:1074F00040B10220104908702A4621463046FFF765
:10750000A9FE0CE00220F9F7C1F80C49487B2422BF
:10751000052101F013FB0121084601F0F1FAE2E731
:1075200005480078022804D12A4621463046FFF754
:1075300091FE00BFD7E70000EC020020B011002050
:1075400010B504462046FEF758FC68B11F49487B39
:107550003A22022101F0F2FA0121084601F0D0FAA4
:107560000020F9F793F810BD194850F82400401E88
:10757000000E18490870164850F82400401E000CF0
:107580004870134830F82400401E000A88701048E4
:1075900010F82400401EC8700F4850F82400000E58
:1075A00008710D4850F82400000C48710A4830F862
:1075B0002400000A8871084810F82400C8710821C6
:1075C000044801F0FDFD00BFCDE70000B011002030
:1075D0004C020020D50200204802002010B50446CD
:1075E0002046FEF70AFC68B11A49487B3A2202217C
:1075F00001F0A4FA0121084601F082FA0020F9F70F
:1076000045F810BD144850F82400000E13490871C5
:10761000114850F82400000C48710F4830F824003D
:10762000000A88710C4810F82400C8710C4850F802
:107630002400000C48720A4830F82400000A8872BE
:10764000074810F82400C8720C21044801F0B8FD66
:1076500000BFD6E7B01100204C020020DD02002060
:107660004802002070B505460648C07C122802DC9E
:107670000448C47C00E012242146034801F0A0FD28
:1076800070BD0000B0110020C302002010B50446F8
:107690000121002001F034FA10BD000010B50446AD
:1076A0002046FEF7AAFB68B10949487B3A2202212D
:1076B00001F044FA0121084601F022FA0020F8F70F
:1076C000E5FF10BD0121002001F01AFA00BFF8E724
:1076D000B011002010B504460D48806848B90C4828
:1076E000007C00F0040020B90121002001F008FA1C
:1076F0000CE00220F8F7CAFF0549487B2422052147
:1077000001F01CFA0021012001F0FAF910BD00007F
:10771000B011002070B506460C4615461948007891
:1077200020BB1949487B2B4622462A21FFF714FE2D
:1077300000B970BD1448007B00F0800040B9012002
:10774000104908704FF44051022001F0B3F80CE0EA
:107750000020F8F79BFF0C49487B2422052101F00B
:10776000EDF90021012001F0CBF9E2E705480078AE
:10777000012804D12A462146304605F023F900BFEE
:10778000D7E70000EC020020B011002000B587B060
:1077900001210820FFF716FB01218803FFF702FBF8
:1077A0004FF46040ADF8180018208DF81B0003203E
:1077B0008DF81A0006A91848FCF744FD4FF4604103
:1077C0001548FCF7EFFE0020ADF804004FF482707E
:1077D000ADF806000020ADF808000220ADF80A0060
:1077E0000120ADF80C004002ADF80E003820ADF8D5
:1077F00010000020ADF812000720ADF8140001A918
:10780000064800F065F80121044800F047F8FF2021
:1078100000F006F807B000BD000C01400038004041
:1078200070B50546002405E0601CC4B2C82C01DD1B
:10783000002070BD02210E4800F03CF80028F3D073
:1078400029460B4800F042F8002405E0601CC4B251
:10785000C82C01DD0020ECE70121054800F02AF8E2
:107860000028F3D0024800F02EF8C0B2E1E7000093
:107870000038004010B50446074800884FF6C7712D
:1078800008400549088008460088204308800121F7
:10789000014800F003F810BD0038004021B1028813
:1078A00042F04002028004E002884FF6BF731A40A3
:1078B000028070470246002013890B400BB1012063
:1078C00000E0002070470146888970478181704739
:1078D00010B50022028802F441520B884C882343E1
:1078E0008C882343CC8823430C8923434C8923432E
:1078F0008C892343CC8923431A430280838B4FF224
:10790000FF74234083830B8A038210BD70B5044645
:107910000D460648407820B12946204600F008F878
:1079200070BD2946204600F091F9F9E77812002051
:107930002DE9F04706468A4600270120FFF750F858
:10794000FEF7ACFF00BF00BFFEF7E2FF00BF00BFC5
:107950003546E8B2FFF744F8FEF7A0FF00BF00BFCE
:10796000FEF7D6FF00BF00BF2F447508E8B2FFF74F
:1079700037F8FEF793FF00BF00BFFEF7C9FF00BF57
:1079800000BF2F44B508E8B2FFF72AF8FEF786FFDC
:1079900000BF00BFFEF7BCFF00BF00BF2F44F508CB
:1079A000E8B2FFF71DF8FEF779FF00BF00BFFEF752
:1079B000AFFF00BF00BF2F44F8B2FFF711F8FEF78A
:1079C0006DFF00BF00BFFEF7A3FF00BF00BF002098
:1079D000FFF706F8FEF762FF00BF00BFFEF798FF53
:1079E00000BF00BF0120FEF7FBFFFEF757FF00BFFF
:1079F00000BFFEF78DFF00BF00BFFFF70DF89248F4
:107A0000047D08E0FEF74AFF00BF00BFFEF780FFDD
:107A100000BF00BF641E002CF4D1FEF73FFF00BF83
:107A200000BFFEF7A9FF0546FEF772FF00BF00BFCB
:107A3000A846FEF733FF00BF00BFFEF79DFF0546D7
:107A4000FEF766FF00BF00BF48EA4508FEF726FFC5
:107A500000BF00BFFEF790FF0546FEF759FF00BFCD
:107A600000BF48EA8508B8F1010F7CD106F002009A
:107A700000283ED0A1460027202410E0FEF70EFF8C
:107A800000BF00BFFEF778FF0546FEF741FF00BFCD
:107A900000BF2F444FEA590949EAC579641E002CFA
:107AA000ECD1FEF7FBFE00BF00BFFEF765FF054609
:107AB000FEF72EFF00BF00BF87EA050000F00100BF
:107AC00008B14FF00808BAF1000F01D0CAF80090D1
:107AD0005D48047D08E0FEF7E1FE00BF00BFFEF751
:107AE00017FF00BF00BF641E002CF4D1FEF7D0FFCB
:107AF00032E05548047D08E0FEF7D0FE00BF00BF2D
:107B0000FEF706FF00BF00BF641E002CF4D1FEF795
:107B1000BFFFDAF80090002720240FE009F0FF00F3
:107B2000FEF75EFFFEF7BAFE00BF00BFFEF7F0FEF5
:107B300000BF00BF4F444FEA5909641E002CEDD12D
:107B4000F8B2FEF74DFFFEF7A9FE00BF00BFFEF73B
:107B5000DFFE00BF00BF00BF3B48047A7CB10020BD
:107B6000FEF73EFF09E011E0FEF798FE00BF00BF00
:107B7000FEF7CEFE00BF00BF641E002CF4D1012032
:107B8000FEF72EFF08F0FF00BDE8F087B8F1020F06
:107B900002D0B8F1040F3ED12B48407D78B106F0F9
:107BA000020060B1212408E0FEF778FE00BF00BFAC
:107BB000FEF7AEFE00BF00BF641E002CF4D12248C9
:107BC000047D08E0FEF76AFE00BF00BFFEF7A0FEDE
:107BD00000BF00BF641E002CF4D1FEF759FF1A4805
:107BE000407D90B106F0020078B90020FEF7F8FE63
:107BF000212408E0FEF752FE00BF00BFFEF788FE1A
:107C000000BF00BF641E002CF4D10120FEF7E8FE87
:107C100008F0FF00B8E70C48007D00F1210408E0FF
:107C2000FEF73CFE00BF00BFFEF772FE00BF00BFC4
:107C3000641E002CF4D1FEF72BFF0120FEF7D0FECE
:107C400008F0FF00A0E700007812002003B587B01D
:107C5000002003900120FEF7C3FEFEF71FFEFE4842
:107C6000406801900198009000BF00BF0098401E3E
:107C700000900028FAD100BFFEF74AFEF64840689F
:107C800001900198009000BF00BF0098401E009036
:107C90000028FAD100BF079805900598C0B201905E
:107CA000FEF79EFEFEF7FAFDEB4840680190019852
:107CB000009000BF00BF0098401E00900028FAD13D
:107CC00000BFFEF725FEE44840680190019800904F
:107CD00000BF00BF0098401E00900028FAD100BFEE
:107CE0000599039808440390079840080590059863
:107CF000C0B20190FEF774FEFEF7D0FDD648406892
:107D000001900198009000BF00BF0098401E0090B5
:107D10000028FAD100BFFEF7FBFDCF484068019074
:107D20000198009000BF00BF0098401E00900028FE
:107D3000FAD100BF0599039808440390079880087A
:107D400005900598C0B20190FEF74AFEFEF7A6FD29
:107D5000C148406801900198009000BF00BF0098A2
:107D6000401E00900028FAD100BFFEF7D1FDBA48AE
:107D7000406801900198009000BF00BF0098401E2D
:107D800000900028FAD100BF059903980844039099
:107D90000798C00805900598C0B20190FEF720FE34
:107DA000FEF77CFDAC48406801900198009000BF50
:107DB00000BF0098401E00900028FAD100BFFEF7D7
:107DC000A7FDA548406801900198009000BF00BF42
:107DD0000098401E00900028FAD100BF0599039832
:107DE000084403900398C0B20190FEF7F9FDFEF736
:107DF00055FD9948406801900198009000BF00BF70
:107E00000098401E00900028FAD100BFFEF780FDC8
:107E10009148406801900198009000BF00BF009811
:107E2000401E00900028FAD100BFFEF7D9FDFEF7F2
:107E300035FD8948406801900198009000BF00BF5F
:107E40000098401E00900028FAD100BFFEF760FDA8
:107E50008148406801900198009000BF00BF0098E1
:107E6000401E00900028FAD100BF0120FEF7B8FDA7
:107E7000FEF714FD7848406801900198009000BF1B
:107E800000BF0098401E00900028FAD100BFFEF706
:107E90003FFD7148406801900198009000BF00BF0D
:107EA0000098401E00900028FAD100BFFEF7B4FDF4
:107EB0006948007D029020E0FEF7F0FC66484068CB
:107EC00001900198009000BF00BF0098401E0090F4
:107ED0000028FAD100BFFEF71BFD5F484068019003
:107EE0000198009000BF00BF0098401E009000283D
:107EF000FAD100BF0298401E029002980028DBD100
:107F0000FEF7CCFC5448406801900198009000BFF7
:107F100000BF0098401E00900028FAD100BFFEF775
:107F20002BFD0590FEF7F4FC4B484068019001984A
:107F3000009000BF00BF0098401E00900028FAD1BA
:107F400000BF05980690FEF7A9FC434840680190E1
:107F50000198009000BF00BF0098401E00900028CC
:107F6000FAD100BFFEF708FD0590FEF7D1FC3A48B4
:107F7000406801900198009000BF00BF0098401E2B
:107F800000900028FAD100BFDDE9051040EA410069
:107F90000690FEF783FC30484068019001980090FD
:107FA00000BF00BF0098401E00900028FAD100BF1B
:107FB000FEF7E2FC0590FEF7ABFC27484068019015
:107FC0000198009000BF00BF0098401E009000285C
:107FD000FAD100BFDDE9051040EA8100069006985D
:107FE000012872D1079800F0020000286ED000200E
:107FF000049003902020029032E0FEF74FFC1648D8
:10800000406801900198009000BF00BF0098401E9A
:1080100000900028FAD100BFFEF7AEFC0590FEF7F5
:1080200077FC0D48406801900198009000BF00BFA8
:108030000098401E00900028FAD100BF05990398CF
:1080400008440390049840080490DDE9040140EAE4
:10805000C1700490029801E078120020401E029046
:1080600002980028C9D1FEF719FCED48406801903C
:108070000198009000BF00BF0098401E00900028AB
:10808000FAD100BFFEF778FC0590FEF741FCE4480A
:10809000406801900198009000BF00BF0098401E0A
:1080A00000900028FAD100BF05990398484000F0DD
:1080B000010008B108200690089810B108990498AA
:1080C0000860D748007D029022E0E0E026E0FEF75D
:1080D000E5FBD348406801900198009000BF00BFC5
:1080E0000098401E00900028FAD100BFFEF710FC57
:1080F000CB48406801900198009000BF00BF0098F5
:10810000401E00900028FAD100BF0298401E029045
:1081100002980028DBD1FEF7BBFC84E0C048007D5C
:10812000029020E0FEF7BAFBBD484068019001983C
:10813000009000BF00BF0098401E00900028FAD1B8
:1081400000BFFEF7E5FBB64840680190019800903B
:1081500000BF00BF0098401E00900028FAD100BF69
:108160000298401E029002980028DBD1FEF790FC96
:1081700008980068049000200390202002902CE0D2
:108180000498C0B20190FEF72BFCFEF787FBA448D1
:10819000406801900198009000BF00BF0098401E09
:1081A00000900028FAD100BFFEF7B2FB9C4840685F
:1081B00001900198009000BF00BF0098401E009001
:1081C0000028FAD100BFDDE90301084403900498B8
:1081D000400804900298401E029002980028CFD1D7
:1081E0000398C0B20190FEF7FBFBFEF757FB8C48EB
:1081F000406801900198009000BF00BF0098401EA9
:1082000000900028FAD100BFFEF782FB8448406846
:1082100001900198009000BF00BF0098401E0090A0
:108220000028FAD100BF7E48007A0290029838B345
:108230000020FEF7D5FB20E0FEF730FB78484068D1
:1082400001900198009000BF00BF0098401E009070
:108250000028FAD100BFFEF75BFB7148406801902F
:108260000198009000BF00BF0098401E00900028B9
:10827000FAD100BF0298401E029002980028DBD17C
:108280000120FEF7ADFB0698C0B209B000BD06980C
:10829000022802D0069804287ED16148407D50B360
:1082A000079800F0020030B32120029020E0FEF792
:1082B000F5FA5B48406801900198009000BF00BF4C
:1082C0000098401E00900028FAD100BFFEF720FB66
:1082D0005348406801900198009000BF00BF00988B
:1082E000401E00900028FAD100BF0298401E029064
:1082F00002980028DBD14A48007D029020E0FEF77A
:10830000CDFA4748406801900198009000BF00BF37
:108310000098401E00900028FAD100BFFEF7F8FA3E
:108320003F48406801900198009000BF00BF00984E
:10833000401E00900028FAD100BF0298401E029013
:1083400002980028DBD1FEF7A3FB3548407D78B3C7
:10835000079800F0020058BB0020FEF741FB2120E7
:10836000029022E0FEF79AFA2D48406801900198A9
:10837000009000BF00BF0098401E00900028FAD176
:1083800000BFFEF7C5FA26484068019001980090AA
:1083900000BF00BF009800E010E0401E00900028E1
:1083A000F8D100BF0298401E029002980028D9D14F
:1083B0000120FEF715FB0698C0B266E71848007D5D
:1083C0002130029020E0FEF769FA154840680190DC
:1083D0000198009000BF00BF0098401E0090002848
:1083E000FAD100BFFEF794FA0D4840680190019859
:1083F000009000BF00BF0098401E00900028FAD1F6
:1084000000BF0298401E029002980028DBD1FEF7C0
:108410003FFB0120FEF7E4FA0698C0B235E7000002
:10842000781200202DE9F04105460C460026002771
:1084300041E017B914F8016B082706F0010080B17C
:1084400000BF2048406840F000701E494860084660
:10845000406840F00070486048151B49086000BF44
:1084600011E000BF1748406840F0007015494860AF
:108470000846406840F00070486048151249091DE0
:10848000086000BF00BFFEF709FA104948680146BE
:1084900000BF00BF4A1E111EFCD100BFFEF738FA14
:1084A0000A494868014600BF00BF4A1E111EFCD1A0
:1084B00000BF76087F1E281EA5F10105B9D1BDE8D1
:1084C000F0810000000001401008014078120020F7
:1084D00070B506460C463078717840EA0120B178D4
:1084E00040EA0140F17840EA01650E480078012831
:1084F00004D1284600F0B2FE054601E0002500BF89
:1085000000BF15B900200849087004F8015B280A6B
:1085100004F8010B280C04F8010B280E20704FF012
:10852000041070BD26040020270400202DE9F0412E
:1085300007460E46387800F001051248007800F032
:108540000100A84212D00DB1F8F724FC0E480078C3
:10855000012804D1284600F0F3FE044601E000247F
:1085600000BF00BF1CB10748057000E0012414B132
:108570000020307001E0FF2030704FF00110BDE8A6
:10858000F081000027040020260400202DE9F0419E
:1085900007460C462B480078012808D12A48007865
:1085A000012802D100F03EFF00E000BF00BFFCF751
:1085B00067F88046FCF72AF8064624480078012828
:1085C00004D13878797840EA012500E00025AE42F0
:1085D00000D92E4604F8018B04F8016B300A04F828
:1085E000010B35460BE01A490868411C184A116016
:1085F000C0F30B01174A515C04F8011B6D1E002DDE
:10860000F1D110480078032816D1FCF723F805466D
:1086100095B10D48007801280CD10F490968C1F3C4
:108620000B010C4A8818294600F07EFE01200549FE
:10863000087000E000BF00BFF01C40F40030BDE84F
:10864000F0810000270400202604002025040020DB
:1086500030040020B81200202C0400202DE9F04145
:1086600006460D46377817480078012803D10020C8
:1086700000F0AAFE00E000BF00BF17B1012F07D134
:1086800001E0012406E0012000F09EFE044601E026
:10869000002400BF00BF14B10A48077002E00020A8
:1086A00008490870002008490870F8F773FB14B1F6
:1086B0000020287001E0FF2028704FF00110BDE875
:1086C000F0810000260400202704002070B5044635
:1086D00010480078012808D10F480078012802D1FD
:1086E00000F0A0FE00E000BF00BFFBF7C9FF064698
:1086F000FBF78CFF054604F8016B04F8015B280AC0
:1087000004F8010B280C04F8010B280E207005203A
:1087100070BD0000270400202604002010B5044688
:108720000A460E48007800F0010060B9237813B1C2
:10873000012B05D100E000BF09480370012101E0D1
:10874000002100BF00E0002111B10020107001E005
:10875000FF2010704FF0011010BD00002704002012
:108760002504002010B51B480068B0B9232004F090
:108770001BFD1848006880B900BF164800681649FC
:10878000D1F82C1109B9012100E000218842F4D070
:10879000232004F009FD012010BD10480068B0B985
:1087A000232004F001FD0D48006880B900BF0B488C
:1087B00000680B49D1F8001109B9012100E000213E
:1087C0008842F4D0232004F0EFFC0220E4E70020EC
:1087D000E2E700002C812142008021420001224278
:1087E000000022424FF6F8710140014A11607047C3
:1087F000505C004030B501460F4B1A78002014E061
:1088000003060E4C04EB9353D3F8003C48F68F74E8
:10881000234048F280042343C4B223430406074D97
:1088200005EB9454C4F8003C401C9042E8D341F05E
:108830008003034C236030BD6C03002000500040D7
:108840004C5C004010B54A105300054A126892B2C1
:1088500002EBC002121D034C44F8123010BD0000A0
:10886000505C00400060004010B502460F480068B0
:1088700080B200EBC200801D0D4C04EB40033E298A
:108880000BDD481101F01F040CB9441EA0B24FF4D7
:10889000004444EA80241C6007E0481001F0010411
:1088A0000CB1441CA0B284021C6010BD505C00409E
:1088B0000060004030B50E4C04EB8003D3F8003C60
:1088C0004BF68F7403EA040201F480530BB182F477
:1088D000805201F400530BB182F4005242F4004381
:1088E00043F08003024D05EB8004C4F8003C30BD2A
:1088F0000050004010B50B4B03EB8002D2F8002C67
:108900004BF68F7302EA030181F4805181F4005128
:1089100041F4004242F08002024C04EB8003C3F8B1
:10892000002C10BD0050004010B54A105200044BFE
:108930001B689BB203EBC003024C44F8132010BD2C
:10894000505C004000600040044A126892B202EBA2
:10895000C002921C024B43F812107047505C00405A
:108960000060004030B50E4C04EB8003D3F8003CAF
:1089700048F6BF7403EA040201F010030BB182F061
:10898000100201F020030BB182F0200242F40043F8
:1089900043F08003024D05EB8004C4F8003C30BD79
:1089A0000050004010B50B4B03EB8002D2F8002CB6
:1089B00048F6BF7302EA030181F0100181F0200143
:1089C00041F4004242F08002024C04EB8003C3F801
:1089D000002C10BD0050004010B5074B03EB800287
:1089E000D2F8002C48F68F131A400A43024C04EBCD
:1089F0008003C3F8002C10BD0050004010B500F0FB
:108A000001F810BD0CB500200190009033480068BB
:108A100040F480303149086000BF3048006800F4FD
:108A2000003000900198401C0190009818B90198FE
:108A3000B0F5A06FF1D12948006800F4003010B102
:108A40000120009001E0002000900098012843D10F
:108A50002348006840F0100021490860084600687B
:108A600020F0030008600846006840F0020008603B
:108A70001A484068194948600846406848600846F6
:108A8000406840F4806048600846406820F47C10EC
:108A900048600846406840F4E810486008460068AE
:108AA00040F08070086000BF0C48006800F0007063
:108AB0000028F9D00948406820F0030007494860C1
:108AC0000846406840F00200486000BF0348406824
:108AD00000F00C000828F9D10CBD00000010024085
:108AE000002002400449054A1278895C0143024A89
:108AF000024B1B78D1547047280400202A04002020
:108B000070B505460C460A480A49086008460573D0
:108B10000D22812003F07BFD0520074908702CB150
:108B20000420087030210120FFF71CFF70BD0000F9
:108B300055534253D0110020EC020020014B997094
:108B40001A737047C302002010B54FF4165006F098
:108B500009FAC8210248F7F761FCFDF749F910BD91
:108B6000A40D002010B50020FEF7A6F90121C805CC
:108B7000FEF718F910BD000038B501242948006837
:108B800080B2001D284931F8100080B201EB40008E
:108B9000009026480068007A092832D000980078B2
:108BA0002249096808700098401C009000980078DD
:108BB0001E49096848700098401C0090009800EB1E
:108BC00044000090009931F8020B0091F7F77EFD08
:108BD000164909684880009800EB4400009000990D
:108BE00031F8020B0091F7F771FD10490968888090
:108BF000009800EB44000090009800880B49096839
:108C0000C880012009490968087208480068C088BE
:108C100010B9FDF7B7FB01E0F9F7E2FEFEF76EF8D9
:108C200038BD0000505C0040006000400C04002093
:108C30002DE9F04754480068007800F07F08B8F14B
:108C4000000F0AD150480068407A00F0DF004E491A
:108C5000096848720020BDE8F087B8F1020F7CD1A6
:108C600049480068408818B947480068007908B149
:108C70000220F0E7DFF8149143480068477927F0B5
:108C800080052C4640480068407900F0800038B1EB
:108C90003F4901EB8400D0F8000C00F0300606E0FC
:108CA0003B4901EB8400D0F8000C00F4405699F8E1
:108CB0000000A84204D91EB133480068807A08B980
:108CC0000220C8E707F0800080B1314901EB840041
:108CD000D0F8000C00F0300010284BD1E0B2F8F7CB
:108CE0003FF8E0B23021FFF73DFE43E0284901EBB9
:108CF0008400D0F8000C00F44050B0F5805F39D10A
:108D0000E4B9244A92F82C10E0B2FFF7ADFD204AF6
:108D100002EB8401D1F8001C4BF68F7201EA0200CD
:108D200080F4805080F4005040F4004141F0800114
:108D3000174B03EB8402C2F8001C1BE0E0B2F7F70C
:108D4000F5FF134A02EB8401D1F8001C4BF68F7239
:108D500001EA020080F4805000E011E080F400504D
:108D600040F4004141F08001094B03EB8402C2F85A
:108D7000001C00BF084909684869804700206AE76D
:108D800000BF022067E700000C0400206C030020F5
:108D900000500040700300201804002010B5044665
:108DA0002CB90120064909680882002010BD054938
:108DB000096808688047024800680A30F6E7000042
:108DC0000C0400201804002010B502460648006874
:108DD000438A32B98888C01A034C24682082002054
:108DE00010BD08681844FBE70C04002010B50446C9
:108DF0002CB90120064909680882002010BD0549E8
:108E0000096888688047024800680C30F6E700006F
:108E10000C0400201804002010B504462CB90220D0
:108E2000394909680882002010BD002037490880B0
:108E300035480068007800F07F0018BB32490968A7
:108E4000487A00F0200131B13049097841F002013F
:108E50002E4A117005E02D49097801F0FD012B4AD9
:108E6000117000F0400131B12849097841F0010149
:108E7000264A117005E02549097801F0FE01234AD0
:108E800011703AE020480068007800F07F00012867
:108E900001D11E48C8E71C480068007800F07F0038
:108EA000022828D1184A1268517901F00F0001F008
:108EB00080027AB1164B03EB8002D2F8002C02F04C
:108EC0003002102A16D1114A127842F001020F4BDB
:108ED0001A700FE00E4B03EB8002D2F8002C02F464
:108EE0004052B2F5805F05D1084A127842F0010283
:108EF000064B1A7001E0002096E7064909680869E8
:108F00008047024890E700000C0400200404002081
:108F1000005000401804002010B50E480068C078CA
:108F20000D494978884213DC0A480068807878B98E
:108F300008480068808858B906480068C078054924
:108F4000096888720549096848688047002010BD93
:108F50000220FCE70C0400206C0300201804002011
:108F600010B507480068407A40F0200004490968BD
:108F7000487204490968C8698047002010BD000094
:108F80000C040020180400202DE9F0412E48006850
:108F9000467926F080073C462B480068407900F06F
:108FA000800038B1294901EB8400D0F8000C00F0B2
:108FB000300506E0254901EB8400D0F8000C00F4F0
:108FC000405523480078A04208D91F4800684088CF
:108FD00020B91DB11C480068807A10B90220BDE894
:108FE000F08106F08000A0B1184A02EB8401D1F8AC
:108FF000001C48F6BF7201EA020080F0100040F445
:10900000004141F08001114B03EB8402C2F8001CC7
:1090100014E00E4A02EB8401D1F8001C4BF68F726B
:1090200001EA020080F4805040F4004141F08001E8
:10903000064B03EB8402C2F8001C00BF0549096817
:10904000886980470020CAE70C04002000500040D7
:109050006C0300201804002010B5174B1B68D9784A
:10906000154B1B685879154B1B689A699047044645
:1090700011480068807AE8B13CB90F48006800796F
:1090800018B90D480068807808B1022010BD8CB96D
:109090000B490968C8688047074800684079064955
:1090A0000968C87204480068C078034909680873F1
:1090B0000020EBE70220E9E70C0400201004002068
:1090C00018040020042808D14FF0E021096941F07C
:1090D00004014FF0E022116107E04FF0E02109693F
:1090E00021F004014FF0E0221161704700B51A48E9
:1090F0000078401E184908701848007800F00200F7
:1091000080B11648007820F0020014490870124817
:10911000007800F0010010B1FCF716FE0CE0FCF73F
:109120000BFE09E00C48007800F0070010B9FCF7CE
:109130000BFE01E0FCF700FE0848007800F001009B
:1091400048B10548007800F0030010B9FCF722FE92
:1091500001E0FCF717FE00BDFC010020FD0100202E
:1091600010B51348006840F0010011490860084636
:109170004068104908400E494860084600680E499A
:1091800008400B4908600846006820F48020086009
:109190000846406820F4FE0048604FF41F008860D5
:1091A000FFF72CFC4FF000600449086010BD000080
:1091B000001002400000FFF8FFFFF6FE08ED00E09F
:1091C00070B505460C4622462946812003F01FFA59
:1091D00030210120FFF7C6FB032005490870054830
:1091E0008068001B034988600020087370BD000080
:1091F000EC020020D011002070B50546124800781E
:1092000040F002001049087005F0020058B10F4804
:10921000006800F580600D4908600D484FF48061DA
:1092200082690C48904705F0010060B14FF48061FD
:10923000094801F0FBFC0446002C04DD04482146EB
:1092400042690548904770BDFD010020640400207C
:1092500018FE00080444002004480020F8B5054624
:109260002A48854200D905462948007800F00100C7
:10927000D8B128480021826A162090472549C86A3B
:1092800080470090C0F3400078B100202249086078
:109290002049486A80472149096808441F490860F5
:1092A0001C480021826A192090471A482946826A80
:1092B0000120904706461EB901201949087003E0B5
:1092C00000201749087000251148007800F00100BF
:1092D000C8B113480078B0B10E480121826A162047
:1092E0009047FBF7B7F9044654B10C490968C1F33C
:1092F0000B010C4BC81807498A692146904702E0C8
:109300000320034908702846F8BD000040420F00C2
:109310002704002018FE0008340400202C0400203C
:1093200024040020B812002070B504460D460348FE
:10933000294682692046904770BD000018FE00084B
:1093400038B50546BDB11B48007808B9002038BDC6
:1093500019480121826A1620904704460CB100206A
:10936000F5E715484FF48051826914489047044648
:10937000ECB10020EBE710480021826A16209047EC
:109380000D49C86A80470090C0F3400078B10020C2
:109390000B4908600849486A80470A490968084437
:1093A0000849086004480021826A1920904701207A
:1093B000CDE700002404002018FE0008B8120020A9
:1093C000340400202C04002070B50546002012490A
:1093D000087095B1114881681148884704460CB15E
:1093E000002070BD0D48016902208847044684B101
:1093F0000A49C86880470020F3E708480021826ACC
:109400001920904705480169002088470349C8682A
:1094100080470120E5E700002404002018FE000832
:10942000A595000810B50349486A804702490860BD
:1094300010BD000018FE00083404002010B540F2F2
:109440002441104800F021FDD8B10E4801F086FA01
:109450000D48F9F7D9F9C0F1C8000C490870084661
:10946000007830B10A4805F02FFEC8210848F6F709
:10947000D5FF40F22441034800F0CEF8024805F041
:1094800061FD10BD00380140580002400E0200206E
:10949000A40D002070B504460D46034A2946204617
:1094A00000F0D6F870BD0000E0FD000808B50248E5
:1094B00000F0E8FC009008BDE0FD000808B5024897
:1094C00000F00DFD009008BDE0FD000810B5024859
:1094D00000F04DFD10BD0000E0FD000808B5024899
:1094E00000F052FD009008BDE0FD000810B50248F4
:1094F00000F0B4FD10BD0000E0FD000810B502480A
:1095000000F0B9FD10BD0000E0FD000810B50446F4
:109510000249204600F078FF10BD0000E0FD000881
:1095200010B504460249204601F02CF810BD000099
:10953000E0FD000870B504460D46034A2946204662
:1095400001F07BF970BD0000E0FD000870B5044635
:109550000D46034A2946204601F005FA70BD000079
:10956000E0FD000810B504460249204601F076FAF5
:1095700010BD0000E0FD000870B504460D4616461B
:10958000034B32462946204601F0DBFA70BD00004D
:10959000E0FD000810B5024801F008FB10BD000016
:1095A000E0FD000870B5044604F00200E0B10020C0
:1095B000144908601449486A8047144909680844F6
:1095C00012490860FBF746F8054655B10F4909688E
:1095D000C1F30B010E4BC8180B498A692946904705
:1095E00002E003200B49087004F0200010B1802035
:1095F000FFF778FA04F4607010B14020FFF772FAB8
:1096000070BD00003404002018FE00082C04002067
:10961000B81200202704002010B50022002340F6D5
:109620006A14A14200D100BF0A1201249440A3B2DF
:10963000DC43048010BD21B1828942F40052828152
:1096400004E082894DF6FF731A4082817047000062
:109650002DE9FE4F07460D461446206BC07A00F0F8
:10966000020018B94FF0FF30BDE8FE8F00200090D7
:1096700080468346F8B2153806287CD2DFE800F031
:10968000A3DC032C4E6CA5B1606B90F8210010B1E7
:109690006FF00100E8E70120616B81F82100616B48
:1096A00081F820006068808940F0810061688881CD
:1096B00010E0606B90F8200060B16068808920F055
:1096C0008000616888810020616B81F82000616BF7
:1096D00081F821000020C7E76068808920F0C00081
:1096E00061688881A06A88B1606B90F8210068B1D8
:1096F0006068808A20F0800061688882A16A0868BA
:10970000016821F00101016000BF00BF0020616B12
:1097100081F82000616B81F82100A5E760688089ED
:1097200020F0200061688881E06A80B1206B407978
:1097300068B16068808A20F0400061688882E16AD0
:109740000868016821F00101016000BF00BF00212D
:10975000206B4171002087E76068808920F0E0007D
:1097600061688881A06A98B1606B90F8210078B137
:109770006068808A00E0C2E020F080006168888232
:10978000A16A0868016821F00101016000BF00BF03
:10979000E06A80B1206B407968B16068808A20F00F
:1097A000400061688882E16A0868016821F001016F
:1097B000016000BF00BF0021206B41710020616B80
:1097C00081F8210050E7E06810B94FF0FF304BE717
:1097D000BDB1206BC068062806D0E26891880323DB
:1097E00010680222FAF7B9FD206BC07A40F0080039
:1097F000216BC8726068808940F0080061688881C8
:1098000018E06068808920F0080061688881206B1A
:10981000C07A20F00800216BC872206BC06806284F
:1098200008D0E06830B1E2689188002310681A46D9
:10983000FAF793FD002017E7206910B94FF0FF30C9
:1098400012E7E5B3206BC06806280AD0206BC06819
:10985000042806D022699188002310680122FAF7B3
:109860007CFD206BC07A40F01000216BC8726068EC
:10987000808A40F00100616888826068008A40F058
:109880004000616808826068808940F0100061686B
:109890008881206B407918B1E06A08B1012000E0AE
:1098A000002028B96068808940F0200061688881C4
:1098B0006068808940F00400616888811DE0FFE7EE
:1098C0006068808920F0040061688881206BC07A1C
:1098D00020F01000216BC872206BC06806280CD0E5
:1098E000206BC068042808D0206930B122699188B3
:1098F000002310681A46FAF730FD0020B4E600BFD6
:1099000000BF206B407918B9606B90F8210010B14E
:109910006FF00100A8E66068808900F0080038B1A7
:109920006068008800F0400010B96FF001009BE60D
:10993000F8B2152872D2DFE800F0C90B0E1D202501
:109940002AC9C9C9C9C9C9C9C9C9373B697EB800CB
:1099500001200290BDE02078C0F3400020B148F41F
:10996000006848F4807802E06FF006007CE6022090
:109970000290AEE06FF0060076E64BF0080B042094
:109980000290A6E04BF0020B05200290A1E02078A7
:10999000C0F3401010B14BF0200B02E06FF0060056
:1099A00062E60620029094E0616B4D8300205BE646
:1099B000206BC068052824D015B36068808A40F009
:1099C000040061688882D4F808A0FE48B0FBFAFA67
:1099D000012605E00AFB06F0A84200D902E0761C49
:1099E000FF2EF7D900BFB6F5807F02D14FF0FF30D0
:1099F0003AE66068008B20F0FF003043616808831E
:109A000002E04FF0FF302FE600202DE6206BC0680B
:109A100006280BD1FF2D02D9C01F25E656E060684D
:109A2000008BC0B228436168088302E04FF0FF302A
:109A30001AE6002018E6206BC068062830D1D4F85A
:109A400008A0E048B0FBFAFA012619E00AFB06F08C
:109A500040006421484305EB051101EB4101B0EBE7
:109A6000410F0CD20AFB06F040006421484305EB8D
:109A7000051101EB4511B0EB410F00D902E0761C56
:109A8000402EE3D300BF402E02D14FF0FF30EBE574
:109A90006068008B20F0FF0030436168088302E0BB
:109AA0004FF0FF30E0E50020DEE5206BC0680628BF
:109AB00007D14DB16068808A40F0100061688882EB
:109AC00002E04FF0FF30CFE50020CDE56FF003005E
:109AD000CAE500BF07F4E06060B1B0F5807F13D045
:109AE000B0F5E06F1DD107F4405010B96FF00800D9
:109AF000BAE519E007F4405028B148F02008009872
:109B000040F4805000900FE007F4405010B16FF027
:109B10000800A9E548F02008009840F48050009023
:109B200002E06FF008009FE500BF07F4405030B13D
:109B3000B0F5805F04D0B0F5005F0BD105E00CE01C
:109B4000009840F48060009007E0009840F4C06006
:109B5000009002E06FF0090086E500BF07F4404086
:109B600048B1B0F5804F07D0B0F5004F07D0B0F541
:109B7000404F0AD106E00BE048F4005808E048F4F2
:109B8000405805E048F4805802E06FF00A006BE5A9
:109B900000BF07F4403048B1B0F5803F09D0B0F5C0
:109BA000003F13D0B0F5403F2ED11CE04FF000092C
:109BB0002DE02078C0F3C01020B14FF480394BF471
:109BC000807B02E06FF00B004EE520E02088C0F3C0
:109BD000002020B14FF400394BF4C06B02E06FF06D
:109BE0000B0041E513E02078C0F3C01040B120889D
:109BF000C0F3002020B14FF440394BF4E06B02E099
:109C00006FF00B0030E502E06FF00B002CE500BFB9
:109C1000029802281DD107F4802018B1B0F5802FDA
:109C200004D100E005E048F4806802E06FF00C0029
:109C30001AE500BF07F4002018B1B0F5002F04D1D9
:109C400000E005E048F4007802E06FF00D000BE55D
:109C500000BFA06800EBC00101EB0010A900B0FB41
:109C6000F1F06421B0FBF1F1A06800EBC00202EB5F
:109C70000010AA00B0FBF2F0A26802EBC20303EBF3
:109C80000212AB00B2FBF3F26423B2FBF3F202EB7D
:109C9000C20303EB0212A0EB8200322202EB00109F
:109CA0006422B0FBF2FA61F31F1AA06800011FFAE8
:109CB0008AF1B0FBF1F0000901906421019848435A
:109CC00005EB051101EB4101B0EB410F09D2642115
:109CD0000198484305EB051101EB4511B0EB410F2D
:109CE00002D86FF00700BFE46068808920F400505C
:109CF000616888816168A1F808A00298216BC8603A
:109D0000206BC0F81090206BC068062809D1E0686D
:109D100030B1E2689188032310680222FAF71DFB34
:109D200018E0206BC07A00F0080048B1E06880B10C
:109D3000E2689188032310680222FAF70EFB08E01C
:109D4000E06830B1E2689188002310681A46FAF79B
:109D500004FB00BF00BF206BC068042802D00628A7
:109D60000BD100E000BF206930B122699188002347
:109D700010681A46FAF7F1FA18E0206BC07A00F082
:109D8000100048B1206980B12269918800231068D1
:109D90000122FAF7E2FA08E0206930B122699188DD
:109DA000002310681A46FAF7D8FA00BF00BF6069AE
:109DB000D0B1206BC068022802D006280BD100BFAA
:109DC000626901E000CA9A3B91880323106802226D
:109DD000FAF7C3FA07E062699188002310681A460F
:109DE000FAF7BBFA00BF00BFA069A0B1B9F5803F88
:109DF00002D0B9F5403F07D1A269918803231068CA
:109E00000222FAF7AAFA06E0A269918800231068F4
:109E10001A46FAF7A2FAE069A0B1B9F5003F02D0FC
:109E2000B9F5403F07D1E26991880023106801220B
:109E3000FAF793FA06E0E26991880023106801229C
:109E4000FAF78BFA0098616888816168A1F8108040
:109E50006168A1F814B06068808940F400506168BE
:109E60008881206BC07A40F00400216BC87200200A
:109E700010E41AB1838A0B43838202E0838A8B4306
:109E80008382704701460868704770B50246002417
:109E900000230025002040F66A16B14200D100BF21
:109EA000C1F3421501F01F03012606FA03F3012D49
:109EB00002D19689334006E0022D02D1168A334042
:109EC00001E0968A33400C12012606FA04F4168843
:109ED000344013B10CB1012000E0002070BD0CB57E
:109EE0000146019820F001000190086B006920B143
:109EF000086B0069B0F5803F0ED1C86960B1CB69CD
:109F000098881A689368C34003F0010323B9019845
:109F100020F00100401C0190019820F00200019007
:109F2000019820F008000190019820F004000190B1
:109F30000198009A60F3000200920198420800988C
:109F400062F34100009001988208009862F3820059
:109F500000900198C208009862F3C3000090019835
:109F60000209009862F31F10009000980CBD014692
:109F7000C86A30B1CA6A10684268486B0068801AC3
:109F80007047486B0069FBE70CB50146486B90F8D9
:109F9000210028B1019820F00100401C019008E048
:109FA00048680088012222EA9012019862F30000BA
:109FB0000190086B4279019862F341000190086BAF
:109FC0008279019862F382000190086BC27901984E
:109FD00062F3C3000190086B027A019862F30410E7
:109FE0000190086B427A019862F345100190086B6A
:109FF000827A019862F3861001900198009A60F3CA
:10A000000002009201984208009862F3410000901B
:10A0100001988208009862F3820000900198C208BB
:10A02000009862F3C300009001980209009862F35F
:10A030000410009001984209009862F345100090C6
:10A0400001988209009862F3861000900198C20975
:10A05000009862F3DF10009000980CBD0146886AFA
:10A0600030B18A6A10684268486B4068801A70474D
:10A07000486B4069FBE72DE9F041044660680688BB
:10A0800000270025A84606F020006168898908405D
:10A09000002860D0206B407938B960688088012141
:10A0A000206BC17145F0200555E0206BC068022887
:10A0B00006D1606BC069012802D16068808802E027
:10A0C0006068B0F80480606B8268501C636B9860B5
:10A0D00082F800806068878907F4806050B907F4CF
:10A0E000805038B14FEA2821606B8268501C636B46
:10A0F00098601170606B0069401C616B0861606B57
:10A100000069616B0968884225D16068808920F008
:10A110001000616888810021206B4171206BC0684C
:10A12000022816D1606BC7690020616BC861012FDE
:10A1300004D0022F05D0032F09D105E045F0010519
:10A1400006E045F0020503E045F0040500E000BF2D
:10A1500001E045F0020506F01000616889890840B9
:10A1600018B16068808845F0400506F0800061689D
:10A1700089890840002863D0606B90F8200030B1D6
:10A180006068808940F001006168888158E0606BF8
:10A190004068616B4969884222D0206BC068022800
:10A1A00007D1606BC069022803D1606BB0F81A80D8
:10A1B00016E0606BC168481C626BD06091F800804B
:10A1C0006068878907F4806050B907F4805038B11F
:10A1D000606BC168481C626BD060087848EA002850
:10A1E000606B4069401C616B48616068A0F8048046
:10A1F000606B4068616B4969884221D160688089E1
:10A2000020F08000616888816068808940F04000AB
:10A21000616888810020616B81F82100206BC06833
:10A2200002280BD1606BC069012809D1206BC07A6C
:10A2300000F0100020B945F0010501E045F00105EE
:10A2400006F0400061688989084038B160688089FB
:10A2500020F040006168888145F0080506F008009C
:10A2600030B1606880880121206BC17145F0200504
:10A2700006F0020030B1606880880121206B4172D5
:10A2800045F4807506F0010030B1606880880121D6
:10A29000206B817245F4007506F4807050B16068DF
:10A2A000008820F48070616808800121206B0172B1
:10A2B00045F0800506F4007038B16068008820F42D
:10A2C00000706168088045F4806525B1206B0068E6
:10A2D00008B1012000E0002018B1206B0168284679
:10A2E0008847BDE8F081F0B503460024002600252C
:10A2F000002040F66A17B94200D100BF1846C1F3EA
:10A30000421401F01F06012707FA06F5012C01D1BE
:10A310000C3004E0022C01D1103000E014301AB1EE
:10A3200007682F43076002E00768AF430760F0BD8E
:10A330002DE9F04786B005460E460024A24600BF30
:10A34000A1460027B08900B100BF2F462C8A4CF6E9
:10A35000FF700440F08804432C82AC894EF6F31061
:10A360000440B08831890843718908430443AC81B3
:10A37000AC8A4FF6FF400440B0890443AC8201A888
:10A38000FCF730FD1F48874202D1DDF810A001E044
:10A39000DDF80CA0A88900F4004040B10AEBCA0027
:10A3A00000EB0A1031684900B0FBF1F807E00AEB56
:10A3B000CA0000EB0A1031688900B0FBF1F8642094
:10A3C000B8FBF0F004012009642101FB1089A88981
:10A3D00000F4004040B1322000EBC900B0FBF1F0C6
:10A3E00000F00700044308E0322000EB091064216C
:10A3F000B0FBF1F000F00F0004432C8106B0BDE883
:10A40000F08700000038014070B505460C46206B0F
:10A41000C07A00F0010008B1002070BD206B05601B
:10A420000020216B08710021206B4171206B81712C
:10A43000206BC171206B0172206B4172206B8172A5
:10A440000020216BC860616B81F821002421606BC2
:10A45000F6F706F8608CF9F75BFEE06820B1E1687A
:10A4600008680121F9F7FEFF206920B12169086819
:10A470000121F9F7F7FF606920B1616908680121DE
:10A48000F9F7F0FFA06920B1A16908680121F9F787
:10A49000E9FFE06920B1E16908680121F9F7E2FF0D
:10A4A0000120216BC8720020B7E700002F498842C5
:10A4B00005D12F49C96841F480412D4AD1602D4909
:10A4C000884205D12A49096941F40031284A1161BD
:10A4D0002949884205D12649096941F48021244A45
:10A4E00011612649884205D12149096941F40021B9
:10A4F0001F4A11612249884205D11D49096941F469
:10A5000080111B4A116100BF00BF00BF00BF174987
:10A51000884205D11649C96821F48041144AD160A6
:10A520001449884205D11249096921F40031104AC1
:10A5300011611149884205D10D49096921F4802131
:10A540000B4A11610D49884205D10949096921F475
:10A550000021074A11610A49884205D10449096965
:10A5600021F48011024A1161704700000038014057
:10A57000001002400044004000480040004C0040F1
:10A580000050004070B505460C4625B1012D6BD03A
:10A59000022D74D16BE06068FFF788FF94F9240006
:10A5A00000F01F02012191407B4A430942F8231029
:10A5B00000BFE06A20B1E26A51791079F7F7B2FF83
:10A5C000A06A20B1A26A51791079F7F7ABFF7349FD
:10A5D0006068884205D17248806920F480407049E3
:10A5E000886170496068884205D16D48C06920F46F
:10A5F00000306B49C8616C496068884205D1684881
:10A60000C06920F480206649C86168496068884252
:10A6100005D16348C06920F400206149C8616449DC
:10A620006068884205D15E48C06920F480105C49AA
:10A63000C8610020216B08710021206B4171206BE3
:10A640008171206BC171206B0172206B4172206B94
:10A6500081720020616B81F82100206BC07A20F0AC
:10A660000200216BC87293E06FF0030070BD206B95
:10A67000C07A00F0010018B94FF0FF30F6E784E02F
:10A68000206BC07A00F0020008B10020EEE7002045
:10A69000216B08710021206B4171206B8171206B4F
:10A6A000C171206B0172206B4172206B817200209E
:10A6B000616B81F82100616B4883616BC861616BDC
:10A6C00081F82000216BC860216B08610320216B99
:10A6D000C87232496068884205D13148806940F4C7
:10A6E00080402F4988612F496068884205D12C48F5
:10A6F000C06940F400302A49C8612B49606888422B
:10A7000005D12748C06940F480202549C861274900
:10A710006068884205D12248C06940F40020204981
:10A72000C86123496068884205D11D48C06940F46A
:10A7300080101B49C86194F9240000F01F02012118
:10A7400091401C4A430942F8231000BF94F92400A9
:10A7500000F01F02012191404209920002F1E02223
:10A76000C2F8001100BFE06A20B1E26A51791079A5
:10A77000F7F7F0FDA06A20B1A26A51791079F7F7D6
:10A78000E9FD6068FFF792FE02E06FF003006DE7FD
:10A7900000BF00206AE7000080E100E000380140CF
:10A7A000001002400044004000480040004C0040BF
:10A7B0000050004080E200E070B50446E16A08689D
:10A7C000416819B1606B006800B170BD6068808934
:10A7D00020F01000616888810025206BC068022885
:10A7E00013D1606BC6690020616BC861012E04D073
:10A7F000022E04D0032E06D103E0012504E0022539
:10A8000002E0042500E000BF00E00225606B006864
:10A81000616B08610021206B41716068808940F0A4
:10A82000200061688881206B006820B11DB1206B19
:10A8300001682846884700BFC7E72DE9F04706466C
:10A840000F46144606B11FB96FF00400BDE8F0874B
:10A85000206BC07A00F0040010B94FF0FF30F5E72C
:10A86000206B4079012801D1C01EEFE76068808924
:10A8700020F0200061688881606B07600021206BF8
:10A880000172206B4172206BC171206B8172606B11
:10A8900086600020616B08610121206B4171802579
:10A8A000206BC068022804D1606BC069012800D108
:10A8B0000025E06A88B3E06A80794FF4405101EAEC
:10A8C0000030801C05436068B0F80C9009F480509B
:10A8D00028B109F4806010B945F4A06500E000BF1C
:10A8E000E26A10686268111D05608160C660476099
:10A8F00000BFE16A0868016841F00101016000BF22
:10A900006068808A40F04000616888826068808961
:10A9100040F010006168888106E0FFE76068808988
:10A9200040F0300061688881206BC068022813D134
:10A93000606BC06980B90220616BC861616B01F115
:10A940001A002246394600F00EF8804608F102004F
:10A9500010B96FF0010079E7002077E70146888899
:10A96000C0F3080070472DE9F04706460F4614462D
:10A9700006B11FB96FF00400BDE8F087206BC07A04
:10A9800000F0040010B94FF0FF30F5E7606B90F86D
:10A99000210010B16FF00100EEE70120616B81F83A
:10A9A0002100606BC660606B47600020616B48618E
:10A9B0008025206BC068022818D1606BC06980B9FF
:10A9C0000120616BC861616B01F1180022463946B4
:10A9D000FFF733FF804608F1020038B96FF001003D
:10A9E000CAE7606BC069022800D10025A06A68B37D
:10A9F000A06A80794FF4405101EA003040F0100025
:10AA0000801C05436068B0F80C9009F4805028B1B0
:10AA100009F4806010B945F4A06500E000BFA26AA7
:10AA200010686268111D05608160C660476000BFE4
:10AA3000A16A0868016841F00101016000BF606817
:10AA4000808A40F080006168888205E060688089C3
:10AA500040F080006168888100208DE770B5044671
:10AA600034B1012C22D0022C3FD0032C3CD13DE04C
:10AA7000086B006920B1086B0069B0F5003F11D187
:10AA8000886990B18D69AA88012328681BB10125C6
:10AA90009540056104E002F110050126AE40066113
:10AAA00000BF02E04FF0FF3070BD22E0086B00698C
:10AAB00020B1086B0069B0F5003F11D1886990B1F1
:10AAC0008D69AA88002328681BB10125954005617E
:10AAD00004E002F110050126AE40066100BF02E06D
:10AAE0004FF0FF30E0E704E000BF00BF4FF0FF3061
:10AAF000DAE700BF0020D7E710B50446A16A08686E
:10AB0000416819B1606B406800B110BD606B40686E
:10AB1000616B48610020616B81F821006068808969
:10AB200040F0400061688881206BC068022806D030
:10AB3000206B006818B1206B01680120884700BFB6
:10AB4000E3E72DE9F04180460E4617461C46B8F172
:10AB5000000F01D006B11FB96FF00400BDE8F0810D
:10AB6000206BC07A00F0040010B94FF0FF30F5E719
:10AB7000206BC068022814D10320616BC861224693
:10AB800039463046FFF759FE05460DB12846E5E740
:10AB9000224639464046FFF7E6FE054625B12846DF
:10ABA000DCE74FF0FF30D9E70020D7E710B50446C7
:10ABB000E06830B1E2689188002310681A46F9F71E
:10ABC000CCFB206930B122699188002310681A46B5
:10ABD000F9F7C3FB606930B162699188002310689E
:10ABE0001A46F9F7BAFBA06930B1A269918800232F
:10ABF00010681A46F9F7B1FBE06930B1E269918853
:10AC0000002310681A46F9F7A8FB208CF9F780FAA0
:10AC10000020216BC87210BD08B502480068009082
:10AC200008BD0000BCFD00080020704770B50B4D4A
:10AC30000C460346D5E90C0188420BD9401A8442E0
:10AC400000DD044622461846F5F7A3FB686B204456
:10AC5000686300E00024204670BD0000AC040020C2
:10AC600038B505460A49C86A8047009000F00100DF
:10AC700060B94FF480610748FFF7D8FF0446002C05
:10AC800004DD0348214642690248904738BD000070
:10AC900018FE00080448002010B5054C6068002824
:10ACA00005D10120606000F005F80020606010BD53
:10ACB000AC0400202DE9F047224CA06800283BD0CE
:10ACC000D4E90401421AE0684FF00006104335D081
:10ACD0001D481E4FDFF878800088DFF878903D1817
:10ACE0002046C1696AB1A069814203D38818A8428D
:10ACF00000D36A1A99F8003038F81300904200DA4D
:10AD000002461548E660007840F0800001F0E6FA5F
:10AD1000E1690144E16162698D420244626100D1EE
:10AD2000E761216991420BD199F8002038F812109F
:10AD3000814205D10120E060BDE8F087A660FBE715
:10AD4000E660F9E7AC04002008FC00087A23002044
:10AD500010FC00088704002005FC000810B50B4C0F
:10AD6000206A18B1A06A401CA06210BD01202062B8
:10AD7000606200F00DF8002060622062D4E90C01EE
:10AD80008842F2D0401AFFF76BFF10BDAC040020E0
:10AD900010B5134C144A1348216B1288144B081A2F
:10ADA000101A124A1B7832F8132090420EDB114819
:10ADB000007800F0EDFE216B08442063A06A0028B3
:10ADC0000CD0616A002909D1401E06E00120E06232
:10ADD000606A002802D0A06A401CA06210BD00007A
:10ADE000AC040020BA2300200AFC000810FC000874
:10ADF0008704002006FC000810B50446400702D571
:10AE00002046FFF7ABFF200704D52046BDE81040E1
:10AE1000FFF742BF10BD7047002070470020704709
:10AE200010B50B4800F01CF8002810D0084A09485B
:10AE3000116801700B0A43700B0C8370090EC1700E
:10AE4000117901715179417191798171012010BDA0
:10AE5000E4040020B822002010B500F00DF810BD69
:10AE60000146044802680A6082888A808079887175
:10AE7000012070476C04002010B505488168054822
:10AE800088470348016902208847012010BD00005F
:10AE900018FE0008F991000810B506480021826AE2
:10AEA0001820904703480021826A1920904701200A
:10AEB00010BD000018FE0008014601207047000088
:10AEC0002DE9F041044600260027B0463D48002108
:10AED000826A182090473B480021826A19209047D7
:10AEE00038480021826A1520904736480021826A3E
:10AEF00016209047207920B1012805D0022809D1D9
:10AF000005E04FF0000805E04FF4004802E04FF480
:10AF1000804800BF00BF607920B1012804D002281A
:10AF200008D104E0002708E04FF4005705E04FF493
:10AF3000805702E00020BDE8F08100BFA07905281D
:10AF400006D0062807D0072808D008280BD108E02B
:10AF50004FF4A06609E04FF4C06606E04FF4E066E7
:10AF600003E0002601E00020E5E700BF216846F08D
:10AF700001033B4343EA0800124B9A6A9047054697
:10AF80000DB10020D7E7104821680160A1888180B9
:10AF9000A179817100200D4908600D4908600948B8
:10AFA0000121826A1520904706480121826A1620F5
:10AFB000904704484FF48061826906489047012019
:10AFC000B9E7000018FE00086C04002064040020AB
:10AFD000680400200444002010B5104800241049E3
:10AFE00044608460C4600461C0E90541C0E907149D
:10AFF00044620C498462C0E90B4141630480FFF75D
:10B000004BFF06484FF4165138300160047144710B
:10B0100008218171FFF754FF10BD0000AC0400202F
:10B020007A230020BA23002010B5FFF7D5FF10BD0A
:10B0300070B5174C00250126206A50B9D4E90C10D0
:10B04000814206D11348814203D02063E562256224
:10B050006063A06A70B1206A60B9E06A50B9266284
:10B06000FFF796FE2562D4E90C01884202D0401A0F
:10B07000FFF7F6FDD4E90101084308D1D4E9040142
:10B08000884204D06660A660FFF714FE656070BD5C
:10B09000AC040020BA230020002070470020704735
:10B0A00000207047024910B50880FFF705FF10BD6A
:10B0B000AC040020084810B5C178026861F31F6233
:10B0C00006490A6002790A7142794A718079887169
:10B0D0000846FFF7F5FE10BDB8220020E40400206A
:10B0E00010B504462046F8F7F1FC43F23001204643
:10B0F000F8F70CFD10BD000010B50246937803F080
:10B100000F019088937803F0800353B1294B1B887B
:10B11000294C246804EB01142360431C23F0010034
:10B1200020E0244B1B88244C246804EB0114A3600A
:10B130003E280ED900F11F0323F01F000123C3EBAB
:10B14000401343F400431C4C246804EB0114E360F7
:10B1500008E0431C23F001004302174C246804EB71
:10B160000114E360134B1B880344124C2380D378F3
:10B1700003F0030333B1012B07D0022B08D0032BBC
:10B180000FD10BE04FF400700BE04FF4806008E04B
:10B19000002000230BB140F4807002E04FF4C06047
:10B1A00000BF00BF0843054C04EB8103C3F8000C4B
:10B1B00010BD00004804002044040020005000405E
:10B1C00030B94021034A118011460988803111802D
:10B1D000704700004804002000F086BA70B10121D9
:10B1E0000A4A116000211160121D11604FF4E051F4
:10B1F000121F11609115064A116006E00321034AEF
:10B2000011609115024A121D11607047405C0040A8
:10B210001008014010B50B4C0B48A28801788A42F7
:10B2200000D9CAB21AB9074900201839087180201C
:10B23000216801F053F8216801442160A188081AAF
:10B24000A08010BD9C040020EDFB000810B5064C4A
:10B250000020216800F09CFC216801442160A18845
:10B26000081AA08010BD00009C040020704710B593
:10B27000044600212046F8F749FC10BD10B50446ED
:10B2800043F220012046F8F741FC10BD2DE9F047BC
:10B29000DFF844820646A8F1080580074FF0000A4F
:10B2A000A5F1180424D500F0EDFF98F800004746FA
:10B2B000C009FFF7DBFFF888A8803978C1F3411097
:10B2C00010B1012877D17DE098F80120834FDFF895
:10B2D00010920C2A6FD2DFE802F0060C951C952B19
:10B2E0003B953F45526100F05FFD33E0FFF792FF71
:10B2F00096E0002000F096FD00285CD000F0C8FF2A
:10B30000386820B16169002921D0082050E0484602
:10B3100053E0012000F086FD002873D000F0B8FF54
:10B3200038680028F3D06169002979D004203FE013
:10B3300011F01F0F66D198F80200012140F0800043
:10B34000207000F07F0000F08BFF00F0A1FF67E0AD
:10B3500000F050FC78B3C9E711F01F0F52D15E48DE
:10B360001F3819E000F0B4FD28B300F091FF3868F1
:10B3700018B1616929B301201AE05A481DE001F0B3
:10B380001F0101293ED16178A9B198F80400A17884
:10B39000884237D2544908442860A7E700F060FE8D
:10B3A00048B100F075FF386830B1616949B10220D9
:10B3B00004F07EF834E025E04C48016809B1084605
:10B3C00080472DE011F01F0004D0012805D002288D
:10B3D00018D111E000F02AF913E000F02DF9F8B9C6
:10B3E00000F080F9E0B900F0CFF8C8B900F0CEF86D
:10B3F000B0B900F01FF904E000F0C4F880B900F023
:10B4000017F968B998F80010090604D4B8F80600CE
:10B4100008B1002000E0802000F02CFFA5F804A077
:10B42000700735D598F80000474600062ED4A88846
:10B4300058B3FFF70BFFA88838BB3878C0F3411129
:10B44000F1B101291CD110F01F0004D0012805D052
:10B45000022815D10EE000F077F810E000F07AF83D
:10B4600098B900F047F880B900F046F868B900F0E4
:10B470006FF804E000F03CF838B900F067F820B944
:10B48000802000F0F7FEA5F804A001E000F006FF20
:10B49000300713D598F80000000606D5A888217952
:10B4A00008430BD0FFF7B6FE08E02078010605D56B
:10B4B00000F07F002070002100F0D2FE700602D55F
:10B4C0000020FFF70DFE300604D5BDE8F0478020D0
:10B4D000FFF706BEBDE8F087A40400207CFC00084E
:10B4E00078FC000870FC00083804002074FC000898
:10B4F000002070470020704710B51048104A0179AD
:10B500001278914203D00F4A1278914214D14178B7
:10B5100021B1022905D020290ED10AE0FFF7BEFD96
:10B5200002E04088FFF7BCFD30B100F0B1FE012021
:10B5300010BDFFF7BFFDF7E7002010BDA4040020F9
:10B5400002FC000803FC0008002070470020704740
:10B550000020704710B50948094A017912789142D4
:10B5600009D14078092806D100F0D8FA18B100F0C6
:10B570008FFE012010BD002010BD0000A40400209B
:10B58000EEFB0008002070470020704770B522498C
:10B59000224A08791278904203D0214A12789042C8
:10B5A00038D11D4849781F4C1F4D408804291FD0B1
:10B5B00007DC79B101290FD002290BD0032929D149
:10B5C00011E0202906D021291AD022291BD02329B5
:10B5D00020D11BE02C6011E0FFF720FC05E02C607F
:10B5E000FFF718FE0AE0FFF717FC0028F7D111E07B
:10B5F000FFF71AFB0CE000BF00F04AFE012070BD0F
:10B60000FFF70EFCF1E7FFF74DFD01E0FFF744FD0A
:10B610000028F1D1002070BDA404002002FC000825
:10B6200003FC0008B82200209C0400200020704782
:10B6300000207047002070472DE9F041224C23493B
:10B640002079097888423DD16078214D214E224FE2
:10B650000C2837D2DFE800F03606212D3636363694
:10B660003616243200F070F960B3E078012802D079
:10B67000032803D003E01948286000E02E60FFF79C
:10B68000C9FD13E0E078022802D0032803D00DE0C2
:10B69000134828600AE02E6008E000F03DF90AE057
:10B6A00000F014FA0CE000BF00F0F2FD0120BDE84C
:10B6B000F08100F03FF928B12F60E0E700F024FAB4
:10B6C0000028F1D10020F2E7A4040020EEFB0008DE
:10B6D0009C04002042040020B8220020F92200200F
:10B6E0003A23002000207047084800214170C160C3
:10B6F000016141618161C16141808180016241627A
:10B700008162C180C162018170470000EC040020A9
:10B710002DE9F05FDFF84081DFF840A1DFF840B1AC
:10B720000127504C08F101090025A561606910B19D
:10B73000A761BDE8F09F6761A088618888421AD33D
:10B74000206AC0B9E561A580012398F8001008F1CE
:10B750000102184603F030FD0004000C60800CD09C
:10B760004149C4F81C800978012902D8C4F81C900A
:10B770003BE0401C60806088B8BBE068A8BB2169E2
:10B7800099B339484246007801280FD81570A58032
:10B790000223521C0021012003F00EFD0004000CC6
:10B7A000608001D0C4F81C9025611EE01678202E20
:10B7B00000D3002607FA06F0084240D0701CC1B240
:10B7C0001170A580022308F10102012003F0F4FCAE
:10B7D0000104090C618003D0491CC4F81C806180FD
:10B7E000216907FA06F0814321616088216A0143DB
:10B7F0002AD0A188401A9BF8001086B23AF81100AE
:10B80000B04200D20646676218483246E1690078C5
:10B8100040F0800000F062FDE06915493044E061CD
:10B82000A088304480B2A080098888420AD29BF860
:10B8300000103AF81100B04204D1276205E0761CEE
:10B84000F6B2B4E7256200E065626561A069002890
:10B850007FF46BAF6DE70000F8220020F6FB0008D4
:10B8600087040020EC040020FAFB0008EFFB00082E
:10B87000FCFB0008F8B5194C194D0026E08800B90A
:10B88000A5621848A16A007800F082F90004A16A54
:10B89000000C0144A162E18801448BB2E3800AD02C
:10B8A000114909888B4206D2114A1049127831F8A1
:10B8B0001210814210D90F4801780120012900900F
:10B8C00003D80021064A022003E029786A1C0220DE
:10B8D0005B1E03F08FFDE680F8BD0000EC04002045
:10B8E00039230020F0FB0008FEFB0008F6FB0008EF
:10B8F00087040020FBFB000810B50446000702D5B2
:10B900002046FFF705FF600704D52046BDE810403C
:10B91000FFF7B0BF10BD0000034804498078085C01
:10B920000349087001207047A4040020400400204F
:10B93000B822002010B503F03DFC02490870012038
:10B9400010BD0000B82200200B4910B5C8780022B5
:10B95000012804D0022804D0032806D103E0074AB6
:10B9600002E0002010BD064A521C8978002303F033
:10B9700023FC012010BD0000A4040020F8220020B8
:10B98000410400202DE9F05F4648007800287DD072
:10B99000454800273D4601784A1C0270434A147806
:10B9A000042204EB440A02FA0AF2521E914201DB1D
:10B9B000057001273E4900230A88FF2A01D2521C44
:10B9C0000A803C4A8E46098832F81490894500D195
:10B9D00001238346002100699BF8006043E000BF1B
:10B9E0004FF0000C6FB1344A545CFF2C01D2641C40
:10B9F0005454324C645C24B1525CA24201D34FF0E7
:10BA0000010C2E4A4FF0020808FA0AF8525C02FABA
:10BA100008F44C4502DA0AB1012400E0002433B1F5
:10BA20002CB14FF0010808FA01F848EA0000DFF8ED
:10BA3000908018F8018042450AD01F4A525C424566
:10BA400003D301228A40104300261C4A02F80180D9
:10BA5000BCF1000F05D014B901228A401043164AE8
:10BA60005554491CC9B2174A12789142B8D3CBF841
:10BA7000100059468BF800600BB1AEF8005008B1C9
:10BA8000CA6852B1104A1378012200E003E09A40DC
:10BA90009043CBF81000BDE8F09FBDE8F05F0020B8
:10BAA000FFF736BE85040020EC0400208704002048
:10BAB0003C040020F2FB00083E0400203F0400206C
:10BAC00040040020FAFB0008F822002010B50A48C4
:10BAD00009498078C97810B1084A815409E00020EA
:10BAE000074B084A02E01954401CC0B21478A04227
:10BAF000F9D3012010BD0000A40400203F04002061
:10BB000040040020FAFB0008034810B5807803F0D9
:10BB10006FFC012010BD0000A40400200C4908B5F2
:10BB2000C8780022012804D0022804D0032806D1B6
:10BB300003E0002008BD074A00E0074A521C00232A
:10BB40000093CB88897803F055FC012008BD0000E4
:10BB5000A4040020392300204104002010B505482A
:10BB6000C06940F400000349C86100F005F8FBF724
:10BB7000AFF810BD0010024014200121814042099D
:10BB8000920002F1E022C2F8001100BF7047704736
:10BB90002DE9F04305460C4605F00F0612480068F3
:10BBA00000EB061080681149022202FB00190E48C2
:10BBB000006800EB06108089C0F309074FF0000809
:10BBC00005E039F8041B2180A41C08F10108781C49
:10BBD000B8EB500FF5D34FF440512846F7F796FFD6
:10BBE0003846BDE8F08300004404002000600040B7
:10BBF000704700007CB54048A0F120050178A0F115
:10BC0000080411F01F0102D0012973D15CE0C37850
:10BC1000394839492038394AC0788978082B69D29F
:10BC2000DFE803F06804123F6868082C344820609D
:10BC3000122047E0117800295CD018B1314820600B
:10BC40000A203FE03048FAE712780AB9012851D0BB
:10BC500018B12E480090002008E02D48FAE7009A1D
:10BC6000137813B153881A440092401C8142F6D1D4
:10BC700000980178E9B32060408823E01278C2B3CD
:10BC800018B124480090002008E02348FAE7009A01
:10BC9000137813B153881A440092401C8142F6D1A4
:10BCA000E6E71E480090002005E0009B1A780AB1E4
:10BCB0001A440092401C8142F7D100980178C1B12A
:10BCC00020600078019005E001A9684600F02AF89C
:10BCD00000280DD0A1880198814208D9104980B26E
:10BCE000A0800978491E084201D101202871012055
:10BCF0007CBDFFE70020FBE7A4040020E9FB00086F
:10BD0000A6FC0008B9FC0008B8FC000826FD0008E5
:10BD1000BAFC000828FD000827FD00082AFD0008DD
:10BD2000EDFB000830B5164A164C174BD578127942
:10BD3000212D02D0222D20D115E02478A2421CD141
:10BD4000124A1478124A12780CB9012A15D042B15D
:10BD5000104A02601046104A1288104418600920E8
:10BD600008E00E4AF5E72078824206D10C481860B8
:10BD70000C4800880860012030BD002030BD000064
:10BD8000A4040020EEFB00089C040020E9FB00084E
:10BD90008704002026FD0008A4FC0008BAFC000867
:10BDA00080FC0008A2FC000870B51C481B4D007800
:10BDB000A5F1080510F01F040AD01848A5F11801D4
:10BDC000174B4A780079012C06D0022C24D109E0C7
:10BDD00012481A3828601DE0F2B1897888421BD2D7
:10BDE000002015E000F08F04200605D504F00F06B2
:10BDF0004FF48030B04001E00120A0400AB9220792
:10BE00000AD18A68024207D0C9680142E8D00120FD
:10BE100018802B60012070BD002070BDA40400209C
:10BE2000B822002070B5294A0146A2F120041078FA
:10BE300010F01F031046408804D0012B28D0022B9D
:10BE400026D110E0012823D129B100F045FAE0887D
:10BE500040F0020005E0002000F03EFAE08820F00B
:10BE60000200E08030E0127902F08F06320605D53C
:10BE700006F00F024FF48035954001E00125B540F2
:10BE800062782AB1320703D0A2682A4200D008B1F2
:10BE9000002070BD0D482038C06800EA050031B1AF
:10BEA00090B9304600F0E6F9E06828430BE058B15D
:10BEB0002069284208D13046FFF712F93046FFF7D3
:10BEC00097FEE068A843E060012070BDA404002054
:10BED0002DE9F84F5C4F00200090387810F01F0FCC
:10BEE0006FD1B8784FF000094FF0010B4FF4803A52
:10BEF000A7F1200600287AD0544801783046C0784F
:10BF000009B901285DD008B1514C6BE0514C69E092
:10BF10006078022804D0042844D0052860D144E089
:10BF20006179B87881423BD170702079B07000207F
:10BF3000494A4A4903E000BF02F80090401C0B88C0
:10BF40009842F9D30125B0460BFA05F0D8F808104D
:10BF5000084202D02846FFF78AF9D8F808100AFAF2
:10BF600005F0084203D045F08000FFF780F96D1C12
:10BF7000102DE9D34FF00110C8E902090120C8F8DB
:10BF80001090FFF71DF9E0794006B8F8060002D5D9
:10BF900040F0010001E020F00100A8F806001FE0D9
:10BFA00060881EE0E07800901AE00098C0B9A078A0
:10BFB00000F08F05280605D505F00F010AFA01F0FB
:10BFC00002E03CE00BFA05F0B16801432046B160A5
:10BFD000FFF792F82846FFF751F9284600F030F9AC
:10BFE000207804442078002892D124E0FFE7C84656
:10BFF00086F8019001245D464FEA0A09B16805FA06
:10C0000004F0084202D02046FFF731F9B16809FA7E
:10C0100004F0084203D044F08000FFF728F9641CC4
:10C02000102CEBD34FF00110C6E902080020C6F82F
:10C030001080FFF7C5F8B8787178884202D00020E8
:10C04000BDE8F88F0120FBE7A4040020E9FB00080D
:10C0500026FD0008BAFC000838040020EAFB0008AE
:10C060002DE9FC5F444E00273D463078BB4600F08A
:10C070001F00B84601287DD1A6F12001487800288C
:10C0800075D03E48BA4602780846C0780AB90128F9
:10C0900070D0894608B13A4C65E03A4C63E060786C
:10C0A000022804D0042809D005285AD117E0617964
:10C0B00099F80100814254D0608853E0A778307924
:10C0C000E5784FF00008B8424BD1B078A84248D18B
:10C0D0002D484FF0010A10F807B0C55541E03079FE
:10C0E000B8423ED1A07800F08F000190000605D53F
:10C0F000019800F00F014FF4803001E00199012018
:10C1000088400090B078A84217D1D9F80810009A5A
:10C1100020461143C9F80810D9F80C109143C9F80A
:10C120000C10FEF7E9FF0198FFF7A8F8019800F05E
:10C1300087F8009948EA010813E05D4511D100999C
:10C1400018EA010F0DD1D9F80810009A9143C9F8E7
:10C150000810D9F80C109143C9F80C100198FFF79A
:10C1600086F8207804442078002898D15046BDE80D
:10C17000FC9FFFE70020FAE7A4040020E9FB000889
:10C1800026FD0008BAFC00083804002000202749DA
:10C1900008602748006808B1481400E0002040F417
:10C1A0001C402349096811B14FF4804100E000218F
:10C1B00008432049096811B14FF4007100E00021E3
:10C1C00008431C49096811B14FF4807100E0002157
:10C1D00008431649091F08604020174908800020BD
:10C1E00012490C3108601448008814490968086035
:10C1F00011480088403010490880084600880F49DF
:10C20000096888600C48008840300B49088048F273
:10C21000FF700A490968C8604FF44850034944391F
:10C22000086080200149083108607047445C004084
:10C230002CFC000828FC00084804002044040020CE
:10C2400010B504462046F7F741FC10BDFEF7ECBEE2
:10C2500010B5FFF797FBBDE81040FEF7E9BE000000
:10C2600001B1704740F08002014B1A6000BFF8E74F
:10C270004C5C004010B5044641F210012046F7F72F
:10C2800045FC10BD01490020FFF782BCA40400203A
:10C2900000221146802000F021B800000149002052
:10C2A000FFF776BCB82200200548006840F008007F
:10C2B000034908600846006840F0040008607047C1
:10C2C000405C00400348006820F008000149086015
:10C2D00070470000405C0040704700002DE9F047C7
:10C2E00007460D46144607F00F061648006800EB97
:10C2F000061000681449022202FB001A4FF00008E1
:10C3000005E028884AF8040BAD1C08F10108601C00
:10C31000B8EB500FF5D30B48006800EB06104460F3
:10C320000A4901EB8600D0F8000C1FFA80F909F0E9
:10C330003000102803D030213846F7F7E7FB2046BD
:10C34000BDE8F08744040020006000400050004039
:10C3500010B54FF48020F7F7FFFB10BD704710B504
:10C36000F4F71CFB10BD000010B508480849086030
:10C370000220096808720748074908600748084909
:10C380000860054909680868804710BD5C120020F4
:10C390000C0400207003002010040020A0030020E3
:10C3A000180400200EB54FF48020F7F7D5FB4FF4AA
:10C3B0008020009008208DF8050001208DF80600EF
:10C3C0006846F7F7CFFB14208DF8080001208DF8A0
:10C3D000090000208DF80A0001208DF80B0002A84A
:10C3E000F9F78EFF13208DF8080000208DF8090062
:10C3F0008DF80A0001208DF80B0002A8F9F780FFE4
:10C400000EBD000010B50F4800680F4908800846AF
:10C41000008800F400400D490988084008B1F4F78D
:10C4200021FB0948008800F4806008490988084019
:10C4300030B14FF6FF30034908600549486880472E
:10C4400010BD0000445C00402003002016040020C2
:10C450007003002070B5FFF7D5FF5048056805F45C
:10C46000806068B1FFF792FE03F024F84C48006842
:10C4700010B14B48006880476FF4806047490860FE
:10C4800005F4006058B1FFF70FFF4648006810B18F
:10C490004448006880476FF400604049086005F434
:10C4A000805058B1FFF70EFF3F48006810B13E487A
:10C4B000006880476FF480503849086005F40070C8
:10C4C00048B13A48006810B13848006880476FF4B6
:10C4D00000703249086005F4804050B1344800686B
:10C4E00018B102203249096888476FF480402B490F
:10C4F000086005F4005050B12D48006818B10120C3
:10C500002B49096888476FF40050244908603CE0D3
:10C510006FF400402149086005F00F04254901EB44
:10C520008400D0F8006C06F40040C0B126F400404E
:10C5300048F68F7108401F4A02EB8401C1F8000CD5
:10C540001D4850F8240050B106F400620AB10222DE
:10C5500000E004221046184A52F82410884706F0DA
:10C56000800090B126F0800048F68F710840114A93
:10C5700002EB8401C1F8000C0F4850F8240020B1F0
:10C580000D4850F8241008208847044800680546E4
:10C5900000F400400028BBD170BD0000445C0040A6
:10C5A00018FC00081CFC000820FC000828FC0008FF
:10C5B0002CFC00080050004030FC00080020064918
:10C5C00008604FF404400549088008460088024985
:10C5D000091F086000207047445C004016040020DA
:10C5E0002DE9F04104460E46002504F07F00F7F7E0
:10C5F000EBFF054604F07F00F7F7D6FF07462A4613
:10C6000039463046FAF7BCFA2846BDE8F0812DE9F4
:10C61000F04104460E46154604F07F00F7F7E6FFAA
:10C620000746AAB23946304600F018F8A9B204F01D
:10C630007F00FCF789F90020BDE8F0810120014965
:10C64000087070472004002010B5044602480460BA
:10C65000F5F7FEFC10BD000000020020F0B5144606
:10C6600004F1010C4FEA6C07DFF824C00CEB410326
:10C670003D460AE00678401C90F800C046EA0C22CD
:10C6800023F8022B9B1C401C6D1E002DF2D1F0BD27
:10C6900000600040014629B90820034A1268108250
:10C6A000002070470148FCE70C04002064030020D0
:10C6B000014629B90820034A1268108200207047F9
:10C6C0000148FCE70C0400206403002010B5044678
:10C6D000214610A0F3F7C0FD240300F015F900F087
:10C6E000ADF800200D4908602020FBF799F8C4F34D
:10C6F0000740FBF795F8C4F30720FBF791F8E0B289
:10C70000FBF78EF801200649C1F8980100F096F871
:10C7100010BD000066653A25780D0A009801224296
:10C720000000224208B501211020FAF74BFB4020FF
:10C73000ADF8000010208DF8030003208DF80200F2
:10C7400069460A48F7F77EFD40210848F7F72AFFB7
:10C75000012007490860FBF719F80020FBF78AF869
:10C7600000F032F80349088008BD000000100140C5
:10C7700098012242800400202DE9F04106460C4633
:10C78000174600200F4908600320FBF749F8C4F35F
:10C790000740FBF745F8C4F30720FBF741F8E0B288
:10C7A000FBF73EF8002505E0FF20FBF739F8705550
:10C7B000681C85B2BD42F7DB012002490860BDE874
:10C7C000F08100009801224210B5002400200E499B
:10C7D00008609020FBF724F80020FBF721F80020E8
:10C7E000FBF71EF80020FBF71BF8FF20FBF718F8FB
:10C7F00044EA0024FF20FBF713F804430120034917
:10C80000C1F89801204610BD980122420000224242
:10C8100010B500240020074908600520FBF700F848
:10C82000FF20FAF7FDFF044601200349C1F89801F3
:10C83000204610BD980122420000224210B500BFE0
:10C84000FFF7E6FF00F001000028F9D110BD00005D
:10C850002DE9F05F81460F461646DFF8A8B04FEA93
:10C860001738C7F30B0ACAF58054A64200DC3446D9
:10C8700044E04FEA08314FF480525846FFF77CFFFE
:10C88000002508E00AEB05001BF80000FF2800D097
:10C8900003E0681C85B2A542F4DB00BFA54216DAAE
:10C8A0004046FFF713FF002507E019F8050005EBE8
:10C8B0000A010BF80100681C85B2A542F5DB4FEABE
:10C8C00008314FF48052584600F02EF804E022461A
:10C8D0003946484600F028F8A64200D10FE008F19A
:10C8E00001084FF0000AA1442744301B86B2B6F578
:10C8F000805F02DD4FF4805400E03446B9E700BFAA
:10C90000BDE8F09F3C4C002010B5002004490860B1
:10C910000620FAF785FF01200249C1F8980110BDF1
:10C9200098012242000022422DE9F04107460E46BE
:10C930001446F0B2C0F58075AC4200DC254612E02A
:10C940002A463146384600F013F8AC4200D10BE0DD
:10C950002F442E44601B84B2B4F5807F02DD4FF477
:10C96000807500E02546EBE700BFBDE8F0810000E0
:10C970002DE9F04106460C461746FFF7C5FF00209B
:10C980000F4908600220FAF74BFFC4F30740FAF79B
:10C9900047FFC4F30720FAF743FFE0B2FAF740FF7E
:10C9A000002504E0705DFAF73BFF681C85B2BD42CC
:10C9B000F8DB012002490860FFF740FFBDE8F08185
:10C9C000980122422DE9F04104460D4616463C48A6
:10C9D000006800F140073B48007870B93A4850F8C9
:10C9E0002400684339490860374850F824007043F0
:10C9F000374908600120334908703248007801281F
:10CA00004CD100203349086010E0324801680068CA
:10CA1000401C304A10603048415C3048284A126857
:10CA2000815427480068401C254908602448006854
:10CA3000B842EAD3254800682949098808442349AF
:10CA400008602348006826490988401A2049086080
:10CA50001D4850F824000968B1FBF0F200FB1210E9
:10CA600080B9002016490860174830F8240083B2C6
:10CA7000154850F82400154A1268111A174A204622
:10CA8000F9F7FBF91748806815490988401A1549D4
:10CA900088604FF440510220FBF70CFF0C480068FF
:10CAA00018B111480078042808D100200449086012
:10CAB0000121FCF725F8002002490870BDE8F0814B
:10CAC0005C02002064020020480200207002002066
:10CAD000740200206002002070110020700F0020FE
:10CAE000EE020020D0110020EC02002000BF7047B1
:10CAF00070B504460D46607801232A4604F13001E2
:10CB000000F010FD08B1032070BD94F82E1294F8C7
:10CB10002F0241EA00204AF65521884201D0022026
:10CB2000F2E794F86900010694F8680041EA0041D0
:10CB300094F8670041EA002094F86610084320F05A
:10CB40007F400E49884201D10020DDE794F885003E
:10CB5000010694F8840041EA004194F8830041EA18
:10CB6000002094F88210084320F07F400349884257
:10CB700001D10020C8E70120C6E70000464154006B
:10CB8000024600E0521C107810B110788842F9D1AA
:10CB9000107870472DE9F74F88B008980068019029
:10CBA0000198007830380790079809280AD801982A
:10CBB00040783A2806D10198801C01900899019884
:10CBC000086001E000200790079818B10B200BB017
:10CBD000BDE8F08FD049079851F8204009980460CB
:10CBE0000CB90C20F3E7207878B1607800F0C0FC35
:10CBF000804608F0010040B90A9820B108F004000E
:10CC000008B10A20E3E70020E1E700202070079840
:10CC10006070607800F080FC804608F0010008B188
:10CC20000320D4E70A9820B108F0040008B10A20D4
:10CC3000CDE74FF0000B59462046FFF759FF054658
:10CC400000BF012D21D14FF0000ABAF1000F03D02F
:10CC5000AAF1010000F0FF0A4FF4DF7000EB0A11A7
:10CC600004F130000F18387978B1F87A0106B87AF3
:10CC700041EA0041787A41EA0020397A40EA010B22
:10CC800059462046FFF734FF0546032D01D1012008
:10CC90009DE70DB10D209AE73B20015D94F83C0023
:10CCA00041EA0020B0F5007F01D00D208FE746203B
:10CCB000015D94F8470041EA0029B9F1000F0ED157
:10CCC00094F85700010694F8560041EA004194F8A0
:10CCD000550041EA002094F8541040EA0109C4F8D4
:10CCE0001C904020065DE670012E03D0022E01D07C
:10CCF0000D206CE709FB06F93D20005D0646A0709B
:10CD000016B1701E304008B10D2060E74120015D72
:10CD100094F8420041EA00202081207A00F00F00C0
:10CD200008B10D2053E74320015D94F8440041EA27
:10CD300000200690069870B994F85300010694F804
:10CD4000520041EA004194F8510041EA002094F871
:10CD50005010084306903E20015D94F83F0041EAE0
:10CD600000200290029808B90D2030E7029848444C
:10CD7000218900EB11100590DDE90501814201D206
:10CD80000D2024E7DDE90510401AA178B0FBF1F091
:10CD90000490049808B90D2019E7012540F6F671B2
:10CDA0000498884200D302254FF6F6710498884211
:10CDB00000D303250498801CA06105985844A06204
:10CDC000029858442062032D16D1208908B10D2005
:10CDD000FDE694F85F00010694F85E0041EA004128
:10CDE00094F85D0041EA002094F85C10084360620A
:10CDF000A0698000039014E0208908B90D20E6E6C0
:10CE0000206A48446062022D02D1A069400007E018
:10CE1000207E00F00100A16901EB410100EB51000F
:10CE20000390E169039800F2FF10B1EB502F01D29B
:10CE30000D20CCE64FF0FF3020610020E060032D94
:10CE40005CD1607194F8601094F8610041EA0020B0
:10CE5000584460616078012304F13001626900F098
:10CE600061FBE8BB94F82E1294F82F0241EA0020EF
:10CE70004AF65521884241D13320005D0106322017
:10CE8000005D41EA00413120005D41EA002094F854
:10CE9000301008432149884230D194F81702010626
:10CEA00094F8160241EA004194F8150241EA002084
:10CEB00094F8141208431A4988421FD194F81F02AB
:10CEC000010694F81E0241EA004194F81D0241EA6D
:10CED000002094F81C120843E06094F81B0200E064
:10CEE0000CE0010694F81A0241EA004194F8190294
:10CEF00041EA002094F8181208432061257009487F
:10CF00000088401C80B207490880E0800020E06271
:10CF1000207100BF5BE600003C02002052526141DC
:10CF200072724161400200200246891E9069801E93
:10CF3000884201D8002070479378906A01FB030073
:10CF4000F9E72DE9F04704468946B9F1000F06D10B
:10CF5000E76817B1A069B84211D801270FE0494628
:10CF6000204601F07BF80646022E02D20120BDE8E1
:10CF7000F087A069B04201D93046F8E74F463D46F8
:10CF800000BF6D1CA069A84204D80225BD4201D98A
:10CF90000020ECE72946204601F060F8064606B975
:10CFA00009E0701C08B1012E01D13046DFE7BD4217
:10CFB000E7D10020DBE700BF6FF070422946204632
:10CFC00001F085F98046B8F1000F08D1B9F1000FE2
:10CFD00005D02A464946204601F079F98046B8F145
:10CFE000000F09D1E5602069401C68B12069401E2E
:10CFF00020610120607107E0B8F1010F02D14FF00C
:10D00000FF3000E0012005462846B0E72DE9F35F38
:10D010000198D0F8009001E009F1010999F80000A9
:10D020002F28F9D099F800005C28F5D0009886697F
:10D030000B222021304601F007F900252F46AB4690
:10D040004FF0080A00BF58460BF1010B19F80040D9
:10D05000202C03DD2F2C01D05C2C00D153E02E2C92
:10D0600001D057450DD3BAF1080F01D12E2C02D0B3
:10D070000620BDE8FC9F08274FF00B0AA806050E06
:10D08000E1E7802C01DB45F00305812C20DBFE2C41
:10D090001EDC58460BF1010B19F80080B8F1400F67
:10D0A00002DBB8F17E0F05DDB8F1800F06DBB8F1C9
:10D0B000FE0F03DCAAF10100B84201D80620D8E730
:10D0C00038467F1C345438467F1C06F8008019E02F
:10D0D000214620A0FFF754FD08B10620C9E7412CE6
:10D0E00004DB5A2C02DC45F0020508E0612C06DB6B
:10D0F0007A2C04DC45F00105A4F12000C4B23846C6
:10D100007F1C34549FE700BF09EB0B0101980160BD
:10D11000202C01DC042000E0002004460FB906208A
:10D12000A7E73078E52801D105203070BAF1080F63
:10D1300001D1A806050E05F00300012801D144F035
:10D14000100405F00C00042801D144F00804F47226
:10D1500000208EE7222A2B2C3A3B3C3D3E3F5B5D74
:10D160007C7F000010B56FF00400FBF7ABFF0A48AE
:10D1700000680A49B0FBF1F00949087008460078D8
:10D1800000EB4001C1EBC0104FF6FF7101EAC00097
:10D190000449088010BD00001402002000127A002B
:10D1A00010020020120200200146114A12884A4350
:10D1B0004FF0E0235A6100229A611A46126942F048
:10D1C00001021A6100BF4FF0E022106900F0010275
:10D1D0001AB100F48032002AF5D04FF0E022126933
:10D1E00022F001024FF0E0231A6100229A61704799
:10D1F000120200200749096889084FF47A73B1FBCD
:10D20000F3F101FB00F2002101E000BF491C914253
:10D21000FBD37047140200202DE9F04104460021A1
:10D22000204600F02BF9054615B12846BDE8F081EF
:10D2300000BF2169206801F011F8054605B116E02C
:10D24000666937780FB9042511E0F07A00F008001C
:10D2500030B90B223046A16900F0D6FF00B906E0D4
:10D260000021204600F006F80546002DE1D000BF61
:10D270002846DBE72DE9F0410446884600BFE088F8
:10D28000401C86B20EB1206910B90420BDE8F081BF
:10D2900006F00F0000286FD12069401C2061E06873
:10D2A00028B920680089B04266DC0420EEE72068D7
:10D2B0008078401E00EA161000285DD1E1682068E1
:10D2C00000F0CCFE0546012D01D80220DEE7681CE7
:10D2D00008B90120DAE720688069A84246D8B8F189
:10D2E000000F01D10420D1E7E1682068FFF729FE93
:10D2F00005460DB90720C9E7012D01D10220C5E778
:10D30000681C08B90120C1E70021206800F0A6FFD1
:10D3100008B10120BAE7216801F130004FF4007232
:10D32000002100F091FF29462068FFF7FDFD2168EC
:10D33000C862002710E001202168087100212068E0
:10D3400000F08CFF08B10120A0E72068C06A401CF3
:10D350002168C862781CC7B220688078B842EADCCD
:10D360002068C06AC01B2168C86200BFE56029460A
:10D370002068FFF7D9FD2061E6802068303006F094
:10D380000F0100EB4110606100207FE72DE9F041C3
:10D39000044604251BE02169206800F05FFF054674
:10D3A00005B117E067693E780EB9042512E0E52E55
:10D3B00006D02E2E04D0F87A00F0080000B909E05B
:10D3C00000212046FFF756FF054605B102E020691F
:10D3D0000028E0D100BF0DB1002020612846BDE843
:10D3E000F0812DE9F04104460021204600F046F886
:10D3F0000546ADB900BF2169206800F02FFF054642
:10D4000005B10CE060690678E52E00D006B906E0AB
:10D4100001212046FFF72EFF0546002DEBD000BF6F
:10D420009DB92169206800F019FF05466DB967694B
:10D4300020220021384600F007FF0B223846A16960
:10D4400000F0F5FE0120216808712846BDE8F08152
:10D4500070B50446E188204600F010F805465DB935
:10D460002169206800F0FAFE05462DB9E5206169C2
:10D470000870012021680871284670BD2DE9F0412F
:10D4800004460E46E680A568012D03D02068806919
:10D49000A84202D80220BDE8F0812DB920680078AA
:10D4A000032801D12068456A65B9E56020680089D4
:10D4B000B04201DC0220EEE72068406A00EB161063
:10D4C000206120E020688078070112E0294620686A
:10D4D00000F0C4FD0546681C08B90120DBE7022DF9
:10D4E00003D320688069A84201D80220D3E7F01B4B
:10D4F00086B2BE42EADAE56029462068FFF714FDED
:10D5000000EB161020612068303006F00F0100EBB0
:10D51000411060610020BEE70146002070470346CD
:10D52000002070472DE9F04107460C4615461E467F
:10D530004FF0000887B90AE069024FF400722046F4
:10D54000FFF71AF96D1C04F50074701EC6B2002EA8
:10D55000F2DC4FF0000802E04FF0010800BF00BF0E
:10D56000B8F1000F02D10020BDE8F0810120FBE7F7
:10D570000146002070472DE9F04107460C4615464C
:10D580001E464FF0000887B90AE069024FF40072A6
:10D590002046FFF75DF96D1C04F50074701EC6B2DD
:10D5A000002EF2DC4FF0000802E04FF0010800BF4F
:10D5B00000BFB8F1000F02D10020BDE8F0810120CA
:10D5C000FBE770B50446204600F02FFB05460DB979
:10D5D00000202060284670BD2DE9FC47074688469C
:10D5E000914600243E4611E06B46012201A94846BF
:10D5F00000F008FA0098012800D00BE09DF80450D4
:10D6000006F8015B641C0A2D00D103E0A8F10100BB
:10D61000A042E9DC00BF0020307014B13846BDE8FC
:10D62000FC870020FBE72DE9F04704460E46A18861
:10D63000206801F09FFF8246BAF1000F02D05046E9
:10D64000BDE8F087A07900F0800008B10220F7E77C
:10D65000E068B04204D2A07900F0020000B9E668A8
:10D66000D4F808904FF00008C4F80880002E77D056
:10D67000206880784702B9F1000F11D0701EB0FB0E
:10D68000F7F1A9F10100B0FBF7F0814208D3A9F14D
:10D690000100791E8843A060A068361A656918E009
:10D6A0002569ADB900212068FFF74BFC0546012D27
:10D6B00005D1A07940F08000A0710220C0E7681C6D
:10D6C00028B9A07940F08000A0710120B8E7256159
:10D6D0006561002D44D029E0A07900F0020038B146
:10D6E00029462068FFF72DFC054635B93E461FE068
:10D6F0002946206800F0B2FC0546681C28B9A079CC
:10D7000040F08000A07101209AE7012D03D9206824
:10D710008069A84205D8A07940F08000A07102205D
:10D720008EE76561A0683844A060F61BBE42D3D87E
:10D7300000BFA0683044A060C6F3080068B1294665
:10D740002068FFF7F1FB8046B8F1000F06D1A07901
:10D7500040F08000A071022072E701E008EB56283B
:10D760002089C0F3080050B3A069404527D0A079B4
:10D7700000F0400090B121684878012304F12401B1
:10D78000A269FFF7F8FE28B1A07940F08000A071EF
:10D79000012055E7A07920F04000A0712168487869
:10D7A0000123424604F12401FFF7BCFE28B1A07911
:10D7B00040F08000A071012042E7C4F81880D4E94D
:10D7C0000201884205D9A068E060A07940F02000FD
:10D7D000A071504634E700000246012A01DB0B200D
:10D7E0007047074850F822300BB10020187009B17B
:10D7F00000200870024840F822100020F0E70000E6
:10D800003C0200202DE9F7438AB005461646002069
:10D81000286006F01F0626F0010203A90BA8FFF7F7
:10D82000B9F90746CDF824D027B903A80B9900F021
:10D83000B8FB0746089C0FB904B9062706F01C0080
:10D84000002858D04FB1042F03D103A8FFF7C9FD1A
:10D85000074646F00806089C09E0E07A00F011004F
:10D8600008B1072703E006F0040000B10827002FE5
:10D8700040D106F0080000283CD000F061FC804652
:10D8800084F80E804FEA1821E1734FEA18412174A1
:10D890004FEA186161740020E072207700216177FF
:10D8A000A177E177A17EE07E41EA0021227D607DC3
:10D8B00042EA002041EA00490020A0760021E176FA
:10D8C00020756175012003990871B9F1000F11D01D
:10D8D0000398D0F82C804946039800F093FD074642
:10D8E00047B9A9F101000399C8604146039800F0C7
:10D8F000B5FC07460EE06FB9E07A00F0100008B101
:10D90000042707E006F0020020B1E07A00F00100F1
:10D9100000B1072747B906F0080008B146F0200615
:10D920000398C06AE8612C62F7B9AE71A17EE07E0F
:10D9300041EA0021227D607D42EA002041EA004068
:10D940002861E07F0106A07F41EA0041607F41EA53
:10D950000020217F0843E8600020A860A8610398A8
:10D9600028600398C088A88038460DB0BDE8F083D1
:10D9700033B583B004460022214604A8FFF70AF914
:10D9800005464DBBC4F818D02046049900F009FBA9
:10D990000546F5B9606998B16069C07A00F0100079
:10D9A00068B16069817EC07E41EA00216069027DC4
:10D9B000407D42EA002041EA0040A06000E00525E9
:10D9C0003DB92068C088A08000212046FFF756FDA1
:10D9D0000546042D00D10525284605B030BD7CB58F
:10D9E00004460D468DF80040012601AB32466946DB
:10D9F000284600F0CFF90198B04200D17CBD4FF02D
:10DA0000FF30FBE72DE9FF4F83B0044615469A46E9
:10DA1000DDF810B00020CAF80000A188206801F0ED
:10DA2000A9FD0290029818B1029807B0BDE8F08FE6
:10DA3000A07900F0800008B10220F6E7A07900F09C
:10DA4000010008B90720F0E7D4E90210401A00905D
:10DA50000098854200D9009DB6E02089C0F30800F7
:10DA600000287DD120688078401EA16800EA5120FE
:10DA700000F0FF09B9F1000F1DD1A06810B92069AD
:10DA8000019004E06169206800F0E8FA01900198D3
:10DA9000022805D2A07940F08000A0710220C4E7DE
:10DAA0000198401C28B9A07940F08000A0710120A5
:10DAB000BBE70198606161692068FFF735FA0646A7
:10DAC0002EB9A07940F08000A0710220ADE74E444D
:10DAD0004FEA5528B8F1000F2DD009EB0800216856
:10DAE0008978884203D920688078A0EB090808F07B
:10DAF000FF032168487832465946FFF713FD28B1E5
:10DB0000A07940F08000A07101208EE7A07900F09C
:10DB1000400068B1A069801B404509D2A169891BFA
:10DB20000BEB41204FF4007204F1240100F07FFB65
:10DB30004FEA48273EE0A069B04227D0A07900F024
:10DB40004000A0B121684878012304F12401A269B2
:10DB5000FFF711FD38B1A07940F08000A07100E01E
:10DB600015E0012061E7A07920F04000A071216854
:10DB700048780123324604F12401FFF7D3FC28B191
:10DB8000A07940F08000A07101204EE7A6612089B5
:10DB9000C0F30800C0F50077AF4200D92F462089B6
:10DBA000C0F3080204F1240011183A46584600F068
:10DBB0003EFB00BFBB44A0683844A060DAF8000018
:10DBC0003844CAF80000ED1B002D7FF446AF00205A
:10DBD0002BE7FEB504460E46A188206801F0CAFC7A
:10DBE000054605BB2EB900212046FFF747FC054638
:10DBF00019E0C4F818D02046FFF7C8FB0546042DED
:10DC000002D10020206100256DB93146204600F088
:10DC100099FA00212046FFF72DFB0546042D02D17D
:10DC20000020206100252846FEBD2DE9F041044674
:10DC3000A188206801F09EFC0746002F4FD1A079F3
:10DC400000F0200000284AD0A07900F0400078B110
:10DC500021684878012304F12401A269FFF78BFCB5
:10DC600010B10120BDE8F081A07920F04000A07142
:10DC7000E169206800F0F2FA0746002F2FD1256AEB
:10DC8000E87A40F02000E872207B2877A089010A1A
:10DC90006977E068010CA977E068010EE977207CDC
:10DCA000A876208A010AE9762069000C2875206987
:10DCB000010E697500F044FA0646AE75310AE97541
:10DCC000310C2976310E6976A07920F02000A07100
:10DCD000012021680871206801F016F807463846CF
:10DCE000C0E771B591B001220AA911A8FEF752FF51
:10DCF0000446002C4BD1CDF840D00AA8119900F071
:10DD000050F9044600BF002C41D10F9D0DB90624E7
:10DD100004E0E87A00F0010000B10724A97EE87E63
:10DD200041EA00212A7D687D42EA002041EA00465E
:10DD3000E4B9E87A00F01000C0B1022E01D202244A
:10DD400014E01C220AA903A800F071FA059602212A
:10DD500003A8FFF793FB044644B903A8FFF716FB9B
:10DD6000044604B90724042C00D100247CB90AA875
:10DD7000FFF76EFB044654B926B131460A9800F00D
:10DD800041FB04461CB90A9800F0BEFF0446204639
:10DD900012B070BD2DE9FF4F83B0044615469B4677
:10DDA000049801900020CBF80000A188206801F0C1
:10DDB000E1FB0290029818B1029807B0BDE8F08F1D
:10DDC000A07900F0800008B10220F6E7A07900F009
:10DDD000020008B90720F0E7E0682844E1688842BB
:10DDE00000D20025CDE02089C0F30800002877D1BB
:10DDF00020688078401EA16800EA512000F0FF0AE8
:10DE0000BAF1000F2AD1A06858B9D4F81080B8F13F
:10DE1000000F0BD100212068FFF793F880462061A6
:10DE200004E061692068FFF78CF88046B8F1000FC4
:10DE300000D1A9E0B8F1010F05D1A07940F0800030
:10DE4000A0710220B9E708F1010028B9A07940F0DB
:10DE50008000A0710120B0E7C4F81480A07900F020
:10DE6000400090B121684878012304F12401A2699F
:10DE7000FFF781FB28B1A07940F08000A07101205C
:10DE80009BE7A07920F04000A07161692068FFF74E
:10DE90004BF806462EB9A07940F08000A071022010
:10DEA0008BE756444FEA5529B9F1000F2FD00AEB02
:10DEB000090021688978884203D920688078A0EB1E
:10DEC0000A0909F0FF032168487832460199FFF7F3
:10DED00052FB30B1A07940F08000A07101206CE7C6
:10DEE0002CE0A069801B48450ED2A069801B019AD6
:10DEF00002EB40214FF4007204F1240000F097F986
:10DF0000A07920F04000A0714FEA49272DE0A069D8
:10DF1000B04212D0D4E9020188420ED2216848787A
:10DF20000123324604F12401FFF7FCFA28B1A0795D
:10DF300040F08000A07101203FE7A6612089C0F376
:10DF40000800C0F50077AF4200D92F462189C1F300
:10DF5000080204F1240150183A46019900F067F9CB
:10DF6000A07940F04000A07100BF019838440190B2
:10DF7000A0683844A060DBF800003844CBF800000B
:10DF8000ED1B002D7FF42FAF00BFD4E902018842C2
:10DF900001D9A068E060A07940F02000A0710020C5
:10DFA0000BE72DE9F3410446019800782F2803D0B0
:10DFB000019800785C2802D10198401C0190002053
:10DFC000A06001980078202807D200212046FFF7A2
:10DFD00055FA0646002060612FE000BF01A92046E7
:10DFE000FFF714F8064606B126E02046FFF714F9BD
:10DFF0000646A069C77A46B1042E00D01CE000BFD7
:10E0000007F0040000B9052616E007F0040000B18F
:10E0100012E06569E87A00F0100008B905260BE007
:10E02000A97EE87E41EA00212A7D687D42EA00203F
:10E0300041EA0040A060D1E700BF3046BDE8FC8166
:10E0400000BF054A128802F04002002AF9D0C2B28D
:10E05000014B1B1D1A807047003801402DE9F0412B
:10E0600005460C46022C02D3A869A04202D8012022
:10E07000BDE8F0812878012804D002282CD003289C
:10E080005AD13DE0274607EB5707286A00EB572196
:10E09000284600F0E3F800B14EE0C7F3080105F1AF
:10E0A000300010F801807F1C286A00EB57212846B9
:10E0B00000F0D4F800B13FE0C7F3080105F13000EB
:10E0C000405C48EA002804F0010010B14FEA181043
:10E0D000CEE7C8F30B00CBE7286A00EB14212846F3
:10E0E00000F0BCF800B127E040F2FF1000EA440164
:10E0F00005F130000E183078717840EA0120B7E75A
:10E10000286A00EBD411284600F0A8F800B113E00B
:10E1100040F2FF1000EA840105F130000E18F0789B
:10E120000006B17840EA0140717840EA0120317878
:10E13000084320F070409BE700BF4FF0FF3097E7A7
:10E1400000207047F0B505460B4603F109022F6920
:10E15000002F40D06869067B00210AE0445C202C37
:10E1600000D108E0052C00D1E52400BF02F8014BE6
:10E17000491C0829F2D300BF077A202F0FD02E2781
:10E1800002F8017B082107E0445C202C00D105E067
:10E1900000BF02F8014B491C0B29F5D300BFC77A19
:10E1A0001F72C77F4FEA076C877F4CEA074C477F97
:10E1B0004CEA072790F81CC047EA0C071F6090F84C
:10E1C00018C0477E4CEA07279F8090F816C0C77D8D
:10E1D0004CEA0727DF8000271770F0BD10B5034613
:10E1E000002000BF05E0C40021FA04F41C54441CC4
:10E1F000E0B29042F7DB10BDF6F79CFCF4F756FD59
:10E20000F5F72EFB00BFFEE7F0B503461C460D46B2
:10E21000002000BF161EA2F1010207D014F8017BF6
:10E2200015F801CBA7EB0C06301EF3D0F0BD70B58E
:10E2300003460C4603E014F8015B03F8015B151E6E
:10E24000A2F10102F7D170BD30B5034601E003F839
:10E25000011B141EA2F10102F9D130BD2DE9F041DC
:10E2600004460D46E66AAE422FD0207908B36078A6
:10E270000123324604F13001FFF77DF910B101208E
:10E28000BDE8F08100202071D4E907100844B042B5
:10E290000FD9E7780AE0E069064460780123324646
:10E2A00004F13001FFF767F9781EC7B2012FF2DCE5
:10E2B00000BF55B1607801232A4604F13001FFF711
:10E2C00031F908B10120DBE7E5620020D8E72DE94C
:10E2D000F04705460E461746022E02D3A869B04203
:10E2E00002D84FF002088AE02878012804D00228DA
:10E2F00041D003287DD154E0B14609EB5909286A81
:10E3000000EB59212846FFF7A9FF8046B8F1000F1E
:10E3100000D071E0C9F3080105F130000C1806F0D7
:10E32000010020B1F9B2207861F31F1000E03846F7
:10E33000207009F1010901202871286A00EB592198
:10E340002846FFF78BFF8046B8F1000F00D053E05E
:10E35000C9F3080105F130000C1806F0010010B1F6
:10E36000C7F3071005E0207800F0F000C7F30321A1
:10E370000843207040E0286A00EB16212846FFF78A
:10E380006DFF8046B8F1000F00D035E040F2FF107D
:10E3900000EA460105F130000C182770380A607059
:10E3A0002AE0286A00EBD6112846FFF757FF80467F
:10E3B000B8F1000F00D01FE040F2FF1000EA860124
:10E3C00005F130000C18E0780006A17840EA014021
:10E3D000617840EA01202178084300F0704007434B
:10E3E0002770380A6070380CA070380EE07003E0B7
:10E3F000FFE74FF0020800BF00BF01202871404630
:10E40000BDE8F0872DE9F04104460E46022E02D306
:10E41000A069B04201D8022725E000271FE031465D
:10E420002046FFF71BFE054605B91BE0012D01D173
:10E43000022717E0681C08B9012713E000223146C3
:10E440002046FFF744FF074607B10BE02069401C58
:10E4500020B12069401C2061012060712E46A06916
:10E46000B042DCD800BF3846BDE8F0812DE9F0436A
:10E4700091B004460D4616461F46DDE91889442131
:10E480006846F1F7EDFF00960197CDF80880CDF8CA
:10E490000C9060680990A0680D9020680E900F9510
:10E4A0004FF080701090684600F066FB18B90020AD
:10E4B00011B0BDE8F08300F059FA08B90020F7E781
:10E4C0006946002000F068F808B90020F0E70098DD
:10E4D00008B10020ECE70120EAE710B5F3F7B8FD3A
:10E4E000F8F7C2FB012010BD38B5002000900024D1
:10E4F0006425401E234908604860FFF7EEFFF6F7E9
:10E500005DFB08B9002038BD1E21002000F080FB13
:10E5100008B90020F7E70021082000F079FB08B9CE
:10E520000020F0E74FF0A041042000F071FB08B993
:10E530000020E8E700240EE06946042000F0A2F87D
:10E5400008B90020DFE7009800F02040B0F1204F2C
:10E5500000D102E0641CAC42EEDB00BFAC4201D152
:10E560000020D0E70849042000F052FB08B9002041
:10E57000C9E70021082000F04BFB08B90020C2E7E2
:10E580000120C0E778040020000F005010B5F8F714
:10E590003FFB012010BD00002DE9F04105460E466D
:10E5A000002464272946144800F098FB10B9002085
:10E5B000BDE8F08100240DE031460F48001F00F057
:10E5C000B1F808B90020F3E7306800F4803000B1FA
:10E5D00002E0641CBC42EFDB00BFBC4201D1002062
:10E5E000E6E731460448001D00F09CF808B9002019
:10E5F000DEE70120DCE70000F4ED00E02DE9FC415E
:10E6000007460C460422394601A8FFF7E7FD4FF004
:10E61000050801A9404600F093F9012802D0002026
:10E62000BDE8FC814FF00F086946404600F088F9CC
:10E63000012801D00020F3E74FF00E08694640465C
:10E6400000F07EF90646002020609DF80350206807
:10E6500040EA056020609DF80250206840EA0540CD
:10E6600020609DF80150206840EA052020609DF858
:10E670000050206828432060012E01D10120CFE7FF
:10E680000020CDE72DE9F84306460C4606F00C00C5
:10E6900040F002076946384600F052F980460020F3
:10E6A00020609DF80350206840EA056020609DF8D6
:10E6B0000250206840EA054020609DF80150206823
:10E6C00040EA052020609DF8005020682843206023
:10E6D000B8F1010F02D10120BDE8F8830020FBE76B
:10E6E0001CB504460020019001A90820F9F79AFE04
:10E6F00069460020FFF7C6FF012801D000201CBD9D
:10E700009DF8030000069DF8021040EA01409DF8C4
:10E71000011040EA01209DF800100843206001200C
:10E72000EDE7000070B504460D460849002000F0F2
:10E7300037F908B9002070BD29462046FFF75EFF73
:10E7400008B90020F7E70120F5E700005200002398
:10E750001CB5002400BF04E0FF200DF80400601C7D
:10E76000C4B2082CF8DB69463320F9F75BFE0120C0
:10E770001CBD000010B504464CB90548006800F403
:10E78000E060044A1043011D014800F0A7FA10BDE3
:10E790000CED00E00000FA0538B504460225062C11
:10E7A00001D0FFF79AFE072C75D2DFE804F00417BA
:10E7B000085F688CA7000120FFF7DCFFABE00120B9
:10E7C000FFF7D8FF1420FEF715FD0020FFF7D2FF5A
:10E7D0001420FEF70FFDFFF7D9FE9CE0FFF784FE43
:10E7E00008B9002038BD11E0681E40B2051E01DCEA
:10E7F0000020F7E70120FFF7BDFF1420FEF7FAFC29
:10E800000020FFF7B7FF1420FEF7F4FC434944480B
:10E8100000F064FA0028E7D0012141480C3000F0F4
:10E820005DFA08B90020DDE70120FFF7A3FF1420FF
:10E83000FEF7E0FC0020FFF79DFF1420FEF7DAFC56
:10E8400000BF69463648FFF76DFF08B90020C9E7E9
:10E85000009800F400300028F3D0002130480C303C
:10E8600000F03CFA08B90020BCE754E02B49491EEF
:10E870002B4800F033FA08B90020B3E74BE0F6F775
:10E880009DF908B90020ADE71E21002000F0C0F975
:10E8900010B90020A6E73CE00021082000F0B8F9FC
:10E8A00008B900209EE74FF0A041042000F0B0F925
:10E8B00008B9002096E71949194800F00FFA08B97D
:10E8C00000208FE727E0FFF70FFE08B9002089E757
:10E8D0001249891C124800F001FA08B9002081E7AA
:10E8E00000BF69460E48FFF71DFF08B9002079E711
:10E8F000009800F400300028F3D00CE00749491ECE
:10E90000074800F0EBF908B900206BE7FFF73EFE7F
:10E9100000BF002066E700BF012063E701005FA0A1
:10E92000F0ED00E038B50446E0B28DF80000200AB2
:10E930008DF8010069461020F9F774FD012038BDFB
:10E940002DE9F04106460F4600250BE039463046DA
:10E95000F8F7DCFF0446022C02D02046BDE8F08127
:10E96000681CC5B20A2DF1DB2046F7E738B50A4D21
:10E9700000240DE069460948FFF7D4FE08B90020DD
:10E9800038BD009800F4003008B10120F8E7641C9D
:10E99000AC42EFD30020F3E740420F00F0ED00E07F
:10E9A0002DE9F84304460D4604F07F4804F0F009D1
:10E9B00048EA0901082000F02BF910B90020BDE851
:10E9C000F88344B913484068A84201D10120F6E712
:10E9D0001048456000E000BF00BF04F00C0040F0AC
:10E9E0000107042229466846FFF7F8FB69463846C6
:10E9F000FFF7A6FF012801D00020E0E70E27002145
:10EA00003846FFF79DFF0646012E00D1D7E70020CC
:10EA1000D5E70000780400202DE9F84F0746884626
:10EA2000144614B90020BDE8F88F4FEA940A19493A
:10EA30000020FFF7B5FF08B90020F4E74FF0050903
:10EA4000042239466846FFF7C9FB69464846FFF786
:10EA500077FF012801D00020E5E74FF00D090025E0
:10EA60000AE041464846FFF76BFF012801D000202D
:10EA7000D9E708F104086D1C5545F2D34FF00E0993
:10EA800000214846FFF75CFF0646012E00D1CAE789
:10EA90000020C8E75200002370B504460E460A491C
:10EAA0000020FFF77DFF08B9002070BDA007C00E51
:10EAB00006FA00F52946204600F034F808B900208F
:10EAC000F3E70120F1E700005000002373B504468E
:10EAD000002564261248019900F000F908B90020C9
:10EAE0007CBD44F480310E48001F00F0F7F808B9EF
:10EAF0000020F5E700250EE001A909480838FFF7D6
:10EB000011FE08B90020EBE7019800F4803008B14D
:10EB10000120E5E76D1CB542EEDB0020E0E70000D8
:10EB2000F8ED00E0F8B505460E4604222946684691
:10EB3000FFF754FB052769463846FFF701FF012818
:10EB400001D00020F8BD042231466846FFF746FB9D
:10EB50000D2769463846FFF7F3FE012801D0002053
:10EB6000F0E70E2700213846FFF7EAFE0446012CA5
:10EB700000D1E7E70020E5E738B505460021082089
:10EB800000F046F808B9002038BD002408E055F828
:10EB900024102046FFF79AFF08B90020F4E7641C10
:10EBA000042CF4D30920696AFFF790FF08B900200C
:10EBB000EAE70D2408E055F824102046FFF786FF09
:10EBC00008B90020E0E7641C102CF4D31020296C55
:10EBD000FFF77CFF08B90020D6E70B490B4800F08F
:10EBE0007DF808B90020CFE769460420FFF74AFD09
:10EBF00008B90020C8E7009800F0A00008B1002084
:10EC0000C2E70120C0E7000001005FA0F0ED00E0D6
:10EC1000F8B504460D46082C08D10E480068A842F5
:10EC200001D10120F8BD0B48056000E000BF00BF26
:10EC300004F00C06042229466846FFF7CFFA69461D
:10EC40003046FFF77DFE0746012F00D1EAE700209E
:10EC5000E8E70000780400202DE9F04105460E4663
:10EC6000144600270AE031782846FFF715FF10B94F
:10EC70000020BDE8F0816D1C761C641E1CB105F0FF
:10EC800003000028EFD115E013480068401E28401B
:10EC9000114909680F1ABC4201D224F003073A4611
:10ECA00031462846FFF7B8FE08B90020E1E73D44A9
:10ECB0003E44E41B032CE7D809E031782846FFF7EF
:10ECC000EBFE08B90020D4E76D1C761C641E002CF6
:10ECD000F3D10120CDE70000D001002070B504463B
:10ECE0000D4608490020FFF75BFE08B9002070BD03
:10ECF00029462046FFF716FF08B90020F7E7012054
:10ED0000F5E700005200002370B5044600212046BC
:10ED1000FFF7A4FA0546002D59D1207803284FD1DA
:10ED2000607900284CD00020E0624FF4007200218E
:10ED300004F13000FFF788FA552184F82E12AA2139
:10ED400084F82F12522084F83000522131200155CE
:10ED5000612132200155412133200155722184F86F
:10ED6000141284F81512412184F81612612184F8D6
:10ED70001712217C84F81812208A010A84F81912CB
:10ED80002069010C84F81A122069010E84F81B1204
:10ED9000217B84F81C12A089010A84F81D12E06806
:10EDA000010C84F81E12E068010E84F81F126078CE
:10EDB000012304F130016269FEF7DDFB0020607180
:10EDC000607800221146FEF7AAFB00B10125284613
:10EDD00070BD00001CB50024002000900190064882
:10EDE00000231A4681681430FFF740FB08B90A2057
:10EDF0001CBD2046FCE700009CFF00081CB5044633
:10EE00000120FFF7C9FC08B903201CBD0B4B9A6A0F
:10EE1000D96A586AFFF720FF08B90420F5E70020F7
:10EE20000090019005480023224601681430FFF746
:10EE30001DFB08B90620E8E70020E6E79CFF000874
:10EE40002DE9FC4106460F46144625E01448006BA8
:10EE5000A04202D21248006B00E02046054610494D
:10EE60002A46086A3946FFF7F7FE10B90520BDE8C3
:10EE7000FC8100210A48006ACDE900010848036BC3
:10EE8000324601691430FFF7F1FA08B90B20EEE7BA
:10EE90002E442F44641B00BF002CD7D10020E6E78E
:10EEA0009CFF000810B50220FFF776FCFFF76EFB11
:10EEB000002010BD1CB500240020009001900648E1
:10EEC00000231A4681681430FFF7D0FA08B90A20E7
:10EED0001CBD2046FCE70000880101081CB501208C
:10EEE000FFF75AFC08B903201CBD0C4B9A6AD96A7B
:10EEF000586AFFF7B1FE08B90420F5E7002000903A
:10EF00000190064800231A4601681430FFF7AEFA54
:10EF100008B90620E8E70020E6E7000088010108BC
:10EF20001CB5002000900190054800231A46416856
:10EF30001430FFF79BFA08B906201CBD0020FCE73F
:10EF40008801010810B5044600212046F3F7AAFB0A
:10EF5000C8212046F3F783FC01212046F3F7A2FBEA
:10EF600010BD000010B592B00446012144F2040027
:10EF7000F7F728FF01210846F7F704FF4FF4007068
:10EF8000ADF8440003208DF8460018208DF84700A6
:10EF900011A94848F5F756F94FF48060ADF84400E0
:10EFA00003208DF8460048208DF8470011A94148FC
:10EFB000F5F748F90D940020ADF83800ADF83A00A7
:10EFC000ADF83C00ADF840000C20ADF83E00252027
:10EFD0008DF8300000208DF831008DF832000120CE
:10EFE0008DF833000CA8F7F78BF90DA93248FBF721
:10EFF0009FF9012240F224412F48FBF774F90122C6
:10F00000C0212D48FAF735FF01212B48FAF713FBF1
:10F010002A48F3F753FB2848001D01902848029026
:10F0200000200390C82004900020059080200690C6
:10F0300000200790089009904FF480500A9000201B
:10F040000B9001A91D48F3F7ECFB01211B48F3F7D6
:10F0500029FB002119481438F3F724FB174814380A
:10F06000F3F72CFB1448001D019016480290102065
:10F070000390C82004900020059080200690002076
:10F080000790089009904FF440500A9000200B9090
:10F0900001A90A481438F3F7C4FB4FF48050F3F782
:10F0A000F3FA0122022105481438F3F7B1FB12B03C
:10F0B00010BD000000080140003801405800024027
:10F0C000A40D00206C0E002038B5044619480278C3
:10F0D0004FF4A8712046FDF7C1FA164801780420C4
:10F0E000F9F732FC0420F9F75DFC1348007800289A
:10F0F0001FD00120034611A2FF2100900020F7F746
:10F100002BFB012003460DA2002100900846F7F7D3
:10F1100023FB0120034609A2014600900020F7F7D7
:10F120001BFB012003462246FF2100900020F7F739
:10F1300013FB38BD0E020020F1010020202020200A
:10F1400020202020202020202020202020202020BF
:10F150002000000070B504460D4664210A48F1F70E
:10F160005DF92A4621460848F1F713F900210748BE
:10F17000F3F798FA29460548F3F771FB0121034894
:10F18000F3F790FA70BD00006C0E002044000240BE
:10F1900010B500F0AFF8BDE81040FBF75DBE000011
:10F1A00002484078002800D00120704784040020E5
:10F1B000FCF714B8002070472DE9F04104460F46D3
:10F1C00015461E46012C02D0032C38D136E026B15C
:10F1D000012E04D0022E2FD100E000BF2CE01948F0
:10F1E000006819490968884202D118480078F8B1C6
:10F1F0001748144A126800EB821140222846F1F7A2
:10F20000C8F810480068401C0E49086008460068AD
:10F21000402801D1002008600A4800680A490968AE
:10F22000884202D10020094908704020BDE8F081E1
:10F2300001200849087000BF00BF00E000BF00BF08
:10F240000020F3E7600400205C0400205904002043
:10F2500004340020580400202DE9F04107461F48DF
:10F2600016460088824202DD0020BDE8F0811C487D
:10F2700000780028F9D01B4C01224FF00008E26012
:10F2800000E0B0B1626A12B1A269002AF9D1164D4C
:10F290003246681C2F70F1F77CF8E5611349A4F839
:10F2A0000480B0B26080097801290BD86D1CE5613B
:10F2B0000AE0C4F80C80C4F81C80A4F80480A4F808
:10F2C0000280D1E7401C60800020FCF721FA08484A
:10F2D00000F807800120C4F80C80C6E7FCFB00089A
:10F2E00085040020EC040020F8220020FAFB00082E
:10F2F0003E040020002008490870084908600849B9
:10F300000860012007490870002007490870074974
:10F3100008600749086070474C0400205004002032
:10F320005404002058040020590400205C040020EC
:10F330006004002010B52548006825490968884206
:10F3400003D12448007800283DD0234A234B1B6872
:10F3500002EB8311224A1D4B1B6802EB8310F5F769
:10F36000CBF91A480068441C402C00D100241748EF
:10F370000460006816490968884202D100201549D6
:10F3800008701848007860B10020164908701248CB
:10F39000124A126800EB821140220020FFF75CFF46
:10F3A0000FE00E480068441C402C00D100240B489C
:10F3B000046000680C490968884202D101200B49A9
:10F3C0000870012010BD0020FCE70000540400205C
:10F3D000500400204C040020043400205C04002071
:10F3E0000424002058040020600400205904002058
:10F3F000704700002DE9F0410646884614461D4638
:10F40000069F022E02D0032E36D134E005B933E038
:10F410002078072807D11A48006818B118490968E8
:10F420008868804728E01748007830B1164800689F
:10F4300016490968884200D11EE01549124A12682F
:10F4400001EB82102A462146F0F7A3FF0E48006820
:10F45000401C0D49086008460068402801D1002082
:10F4600008600948006809490968884202D10120FA
:10F470000449087000E000BF00BFBDE8F081000053
:10F48000040200204C0400205004002054040020FA
:10F4900004240020054910B50020C870FFF778FE4D
:10F4A000FCF775FBBDE81040FCF758BB8404002056
:10F4B0007047000006484FF0011201780548C180EE
:10F4C000002101704170C0E9022101617047000014
:10F4D000E8FB00088404002070B50546224940F688
:10F4E000C540F7F7EFFC002400E0641C642CFCD35B
:10F4F0001E4940F6DD40F7F7E5FC002400E0641CFF
:10F50000642CFCD3184940F6C540F7F7DBFC002417
:10F5100000E0641C642CFCD3144940F6DD40F7F78E
:10F52000D1FC05F0010070B100BF01201049086056
:10F530000F481038006820F00F0040F048000C49D8
:10F54000103908600EE000BF09481038006820F04C
:10F550000F00C01D06491039086001200449091D2B
:10F56000086000BF70BD00000CED00E00700FA0568
:10F570001008014070B504460D4624B1207810B142
:10F58000E088A84201D0092070BD6078FDF7F0FF47
:10F5900000F0010008B10320F6E70020F4E70000C6
:10F5A0002DE9C04130B4DFF8A0C23CEA111418BF05
:10F5B0003CEA131400F0EC8081EA03051CEA111404
:10F5C00044EAD57418BF1CEA131500F0C780A4EBF9
:10F5D00005044FF0004545EAC12145EAC32341EA4D
:10F5E000505143EA525304F17F74994204F50034B8
:10F5F0004FEAC0204FEAC22208BF904200F09C8030
:10F600004FEA13650FF24016765D4FEA134506FB8D
:10F6100005F7C7F1807706FB07F74FEAD737A7FB57
:10F6200003687642C8F58038A7FB06CE38BFA8F13C
:10F63000010807FB08E64FF0000EA6FB028CE6FB74
:10F6400003CEDCF1000CCEF1004E38BFAEF1010E5E
:10F65000A6FB0C584FF000074FF00005E6FB0E87A5
:10F66000A1FB08C6A0FB07CE16EB0E0645F1000570
:10F67000E1FB076515F1E04E7EBFA4F580345FEA3B
:10F6800046066D4116F1800745F100054FEA172740
:10F690004FEA066647EA0567A6F1DE46B6F1805FE7
:10F6A0004FEA15251FD9384624F0010C05EBC4712B
:10F6B000BCF1FE6F01EB0C1102D8F0BCBDE800817B
:10F6C00024425CBF01F5801E9EEAC47F02D4F0BCD8
:10F6D000BDE80081244238D4F0BCA1F1C041BDE8AE
:10F6E000004100F0EDB94FEAD22242EA43524FEA1C
:10F6F000D323A7FB02864FEAD02040EA415007FB04
:10F7000003661EEA0E0F4FEAD12105FB026658BFC1
:10F71000A6EB0056B6EB00564FEA520E4EEAC37EF9
:10F7200018EB0E0E56EB530EBDD518EB02085E41DA
:10F730007F1C55F10005B6E74FF480154FF0000728
:10F740004FF000064FF00008ADE7F0BC4FF00000AE
:10F7500001F1C04101F00041BDE8008111EA0C1F38
:10F760000CEA131500D00CE013EA0C1F00F0258002
:10F770004FF00000F0BC81EA030101F00041BDE858
:10F780000081F0BCBDE8004181EA030100F098B9B6
:10F79000F0BCBDE8004170B500F044F9097EFC3EC4
:10F7A00000F007B881EA03014FF0000001F00041CA
:10F7B000704781EA030100F083B9F0BCBDE8004165
:10F7C0004FF0000021497047FFFDFBF9F7F5F4F217
:10F7D000F0EEEDEBE9E8E6E4E3E1E0DEDDDBDAD8EC
:10F7E000D7D5D4D3D1D0CFCDCCCBCAC8C7C6C5C44A
:10F7F000C2C1C0BFBEBDBCBBBAB9B8B7B6B5B4B361
:10F80000B2B1B0AFAEADACABAAA9A8A8A7A6A5A44B
:10F81000A3A3A2A1A09F9F9E9D9C9C9B9A9999980F
:10F820009797969595949393929191908F8F8E8EB2
:10F830008D8C8C8B8B8A898988888787868585843F
:10F8400084838382828181800000FF070000F87F2B
:10F850004FEA1153A3F58063D3F11E03A8BFD3F180
:10F86000200C08DB4FF0004242EAC12252EA50521B
:10F8700032FA03F0704709420BD4102BC4BF0020AA
:10F88000704703F5787CBCF1FF3F05D04FF0FF30A7
:10F8900070474FF00000704770B500F0C3F800BF2C
:10F8A0004992248000207047F0E7B0FA80F310FA04
:10F8B00003F10AD0C3F11D0303F580634FEA415001
:10F8C0004FEA035202EBD12170474FF0000070471E
:10F8D000DFF848C170B51CEA111E1EBF1CEA1315E3
:10F8E0009EEA0C0F95EA0C0F00F06F8081EA03048A
:10F8F00023EA4C134EEAD47E21EA4C1141F48011E4
:10F9000043F48013AE44A1FB024CA0FB0365AEF1AF
:10F910007F7E361955EB0C05A1FB034C4CF100031F
:10F92000A0FB021C16EB0C06654153F100030942D3
:10F9300018BF46F0010613F4007F0BD14FEA0331E4
:10F940004FEA0530340341EA155140EA16506FF092
:10F9500003020AE04FEAC3214FEAC520F40241EA5C
:10F96000555140EA56506FF0020202EB2E4201EB75
:10F97000025585EACE710AD05FEA440C18BF24F024
:10F98000004450F1000041F1000120EAD47040F23F
:10F99000FE7C624500D270BDA84214BF4FF0804487
:10F9A0004FF04044002E08BF0024BEF1806FA8BF76
:10F9B000A1F1C041BDE8704080F282804FF00000AC
:10F9C00001F1C04101F0004170479EEA0C0F0CEAC2
:10F9D000131518BF95EA0C0F06D04FF0000081EA0E
:10F9E000030E0EF0004170BD00F01CF88900013ECE
:10F9F00000F007B800F009B84FEA430C5FEA5C5C1E
:10FA000008D081EA030100F05BB84FEA410C5FEADD
:10FA10005C5CF6D14FF00000014970470000FF0721
:10FA20000000F87F0EF1020E2EF0030E5EF8046B5C
:10FA3000364205D4012A43EB030515F5001F12D801
:10FA4000012841EB010C1CF5001F0CD80ED14FEA28
:10FA5000D17C15F5001F0CEB4C0C0CF1020C08BF0F
:10FA60004CEBD37C04E04FF0080C01E04FEAD37C70
:10FA70000CEB4C0526FA05F606F00706B6F1040C69
:10FA800006D20EEB860CBDE870404CF0010C6047CE
:10FA9000DFE80CF0090B02024FF000414FF00000CC
:10FAA000A1F5002170BD19461046012851EB010453
:10FAB00018BFD4F5001484BF002001F0004170BDD0
:10FAC0000808A0F500114FEA310170470002031049
:10FAD00000020310595D0008A55D000849C6000832
:10FAE0003D1600083DC60008000103104000000458
:10FAF00080000004000603108000000400060310CC
:10FB000040000310400000040006000480000004D0
:10FB100001000048FF870000FFFF000000E0000038
:10FB2000120100020000004083022057000201027F
:10FB3000030109025100020100C032090400000261
:10FB40000806500407058102400000070502024034
:10FB50000000090401000302020100052400100155
:10FB60000524010001042402020524060001070502
:10FB700085030800FF070506024000000705840210
:10FB8000400000040309042603530054004D00699B
:10FB900000630072006F0065006C00650063007414
:10FBA0000072006F006E006900630073002603534B
:10FBB0000054004D003300320020004D00610073FE
:10FBC0000073002000530074006F00720061006732
:10FBD00000650010035300540020004D00610073C5
:10FBE000007300312E313000000003000340020397
:10FBF00003000100400040000400010140004000FB
:10FC0000010000010102020040004000400010001D
:10FC100040004000000000004DC20008000000004D
:10FC2000000000000000000051C2000800000000B9
:10FC30008DB2000817AE0008F9AD0008F9B8000849
:10FC400000000000000000000000000000000000B4
:10FC500000000000000000000000000000000000A4
:10FC60000000000000000000000000000000000094
:10FC7000D9B10008000000000000000000000000F2
:10FC80000600FF0901A101150026FF007508954037
:10FC90000901810295400901910295010901B10212
:10FCA000C0002100540012010002EF02014051C2C5
:10FCB00001F0000101020301000009026B000301D1
:10FCC0000080FA080B00020202010409040000018E
:10FCD000020200040524001001052401010104248E
:10FCE0000202052406000107058103400002090401
:10FCF0000100020A00000507050202400000070596
:10FD000082024000000904020002030000060921EB
:10FD100000010001222100070583034000010705BF
:10FD20000303400001000000000004030904140361
:10FD300043004D005300490053002D004400410092
:10FD40005000140343004D005300490053002D00A0
:10FD50004400410050001A03430041005A002000B3
:10FD60003200300032003000300039003200310003
:10FD70001C0343004D005300490053002D00440074
:10FD80004100500020004300440043001C03430096
:10FD90004D005300490053002D0044004100500025
:10FDA0002000440043004900140343004D00530069
:10FDB000490053002D00440041005000030202029C
:10FDC000000801400200000000080140030000009C
:10FDD00080000240010700006C00024001060000A4
:10FDE000390600000044004000512502C0FD000813
:10FDF000C8FD000800000000000000000000000036
:10FE00002300230026000000D0FD0008D8FD0008D4
:10FE1000044C0020184C002019AC0008AD940008D8
:10FE20000D95000895950008219500084D9500084E
:10FE30003595000879950008ED940008CD940008E8
:10FE400095940008DD94000865950008BD940008AD
:10FE500000BE0AE00D782D0668400824400000D35B
:10FE60005840641EFAD1491C521E002AF2D1704734
:10FE700010B503460020444C20604448606044486C
:10FE800060602046C06910F0040F08D145F255505B
:10FE9000404C20600620606040F6FF70A0600020AB
:10FEA00010BD01463848006940F08000364A1061B4
:10FEB000002070473448006940F00400324908616E
:10FEC0000846006940F04000086103E04AF6AA20B5
:10FED000304908602C48C06810F0010FF6D12A485C
:10FEE000006920F00400284908610020704701469D
:10FEF0002548006940F00200234A10611046416124
:10FF0000006940F04000106103E04AF6AA20214A4F
:10FF100010601D48C06810F0010FF6D11A48006942
:10FF200020F00200184A10610020704710B5034607
:10FF3000481C20F0010122E01348006940F0010054
:10FF4000114C20611088188000BF0F48C06810F065
:10FF5000010FFAD10C48006920F001000A4C206121
:10FF60002046C06810F0140F06D02046C06840F04C
:10FF70001400E060012010BD9B1C921C891E00290A
:10FF8000DAD10020F7E70000002002402301674596
:10FF9000AB89EFCD003000400000000021000020C0
:10FFA00053000020650000209F000020DD0000209D
:10FFB00001000020000C00200010002000040020A0
:10FFC000000000204C01000050FE0008000400006A
:10FFD00000BE0AE00D782D0668400824400000D3DA
:10FFE0005840641EFAD1491C521E002AF2D17047B3
:10FFF00010B5034600205E4C20605E4860605E489D
:020000040801F1
:1000000060605C48A0605C48A0602046C06910F059
:10001000040F08D145F25550584C2060062060600E
:1000200040F6FF70A060002010BD014650480069F6
:1000300020F480704E4A10611046006940F0800044
:100040001061002070474A48006940F0200048498C
:1000500008610846006940F04000086103E04AF684
:10006000AA20464908604248C06810F0010FF6D146
:100070003F48006920F020003D49086108460069BA
:1000800040F01000086145F6A5203D49088003E0D6
:100090004AF6AA20394908603548C06810F0010FB7
:1000A000F6D13348006920F0100031490861084654
:1000B000C06810F0140F06D00846C06840F0140065
:1000C000C860012070470020FCE70146284800690D
:1000D00040F02000264A10611046006940F04000C0
:1000E000106103E04AF6AA20244A10602048C06844
:1000F00010F0010FF6D11E48006920F020001C4AC4
:1001000010610020704703460120704710B5034678
:10011000481C20F0010126E01548006940F010005D
:10012000134C20611088188003E04AF6AA20134C73
:1001300020600F48C06810F0010FF6D10C4800692C
:1001400020F010000A4C20612046C06810F0140F07
:1001500006D02046C06840F01400E060012010BDC9
:100160009B1C921C891E0029D6D10020F7E70000B5
:100170000020024023016745AB89EFCD00300040ED
:1001800000F8FF1F00000000210000205B0000209D
:1001900077000020FB0000203D010020010000202E
:1001A000000C0020001000200004002000000020AF
:1001B000B8010000D0FF000810000000000000009F
:1001C00000000000002F00000000070007000014DE
:1001D0007F147F1400242A7F2A12006264081323EC
:1001E00000364955225000000503000000001C2283
:1001F0004100000041221C000014083E08140008C1
:10020000083E0808000000A0600000080808080870
:10021000000060600000002010080402003E514908
:10022000453E0000427F40000042615149460021A6
:1002300041454B31001814127F10002745454539C0
:10024000003C4A494930000171090503003649491B
:10025000493600064949291E0000363600000000D4
:10026000563600000008142241000014141414141F
:1002700000004122140800020151090600324959C8
:10028000513E007C1211127C007F49494936003EE4
:1002900041414122007F4141221C007F494949419F
:1002A000007F09090901003E4149497A007F080899
:1002B000087F0000417F4100002040413F01007F56
:1002C00008142241007F40404040007F020C027F22
:1002D000007F0408107F003E4141413E007F090934
:1002E0000906003E4151215E007F0919294600465A
:1002F000494949310001017F0101003F4040403F31
:10030000001F2040201F003F4038403F006314087A
:100310001463000708700807006151494543000055
:100320007F41410000552A552A55000041417F0078
:10033000000402010204004040404040000001026D
:100340000400002054545478007F48444438003856
:100350004444442000384444487F003854545418DE
:1003600000087E0901020018A4A4A47C007F0804F0
:1003700004780000447D4000004080847D00007FC0
:10038000102844000000417F4000007C04180478DD
:10039000007C0804047800384444443800FC2424D9
:1003A00024180018242418FC007C080404080048C1
:1003B0005454542000043F444020003C4040207CE2
:1003C000001C2040201C003C4030403C00442810D1
:1003D0002844001CA0A0A07C004464544C44141485
:1003E00014141414000000000000000000000000BD
:1003F00000000000000000F80000000000000033D2
:100400003000000000100C06100C06000000000078
:100410000000000040C07840C0784000043F040461
:100420003F040400007088FC08300000001820FF22
:10043000211E0000F008F000E018000000211C035D
:100440001E211E0000F00888700000001E212324D9
:100450001927211010160E000000000000000000F7
:1004600000000000000000E0180402000000000787
:100470001820400000020418E0000000004020188E
:1004800007000000404080F0804040000202010F61
:1004900001020200000000F0000000000101011F45
:1004A00001010100000000000000000080B07000A9
:1004B0000000000000000000000000000001010139
:1004C00001010101000000000000000000303000C8
:1004D00000000000000000008060180400601806A2
:1004E0000100000000E010080810E000000F1020DC
:1004F00020100F00001010F8000000000020203F26
:1005000020200000007008080888700000302824AF
:100510002221300000300888884830000018202050
:1005200020110E000000C02010F800000007042475
:10053000243F240000F808888808080000192120BA
:1005400020110E0000E0108888180000000F112014
:1005500020110E0000380808C83808000000003FCD
:10056000000000000070880808887000001C22212C
:1005700021221C0000E010080810E00000003122D9
:1005800022110F00000000C0C00000000000003079
:1005900030000000000000800000000000008060CB
:1005A000000000000000804020100800000102044C
:1005B0000810200040404040404040000404040433
:1005C00004040400000810204080000000201008EF
:1005D00004020100007048080808F0000000003024
:1005E00036010000C030C828E810E00007182724B2
:1005F00023140B000000C038E0000000203C230260
:100600000227382008F8888888700000203F2020C2
:1006100020110E00C03008080808380007182020F4
:100620002010080008F808080810E000203F2020EB
:1006300020100F0008F88888E8081000203F2020CC
:100640002320180008F88888E8081000203F2000C0
:1006500003000000C03008080838000007182020F8
:10066000221E020008F808000008F808203F2101B7
:1006700001213F20000808F8080800000020203F62
:100680002020000000000808F8080800C0808080D2
:100690007F00000008F888C028180800203F2001CB
:1006A0002638200008F8080000000000203F202025
:1006B0002020300008F8F800F8F80800203F003F3C
:1006C000003F200008F830C00008F808203F200054
:1006D00007183F00E01008080810E0000F10202065
:1006E00020100F0008F808080808F000203F21013A
:1006F00001010000E01008080810E0000F18242491
:1007000038504F0008F8888888887000203F200003
:10071000030C3020007088080808380000382021B9
:1007200021221C00180808F8080818000000203FC3
:100730002000000008F808000008F808001F20202A
:1007400020201F000878880000C8380800000738FB
:100750000E010000F80800F80008F800033C07004C
:10076000073C0300081868808068180820302C03B4
:10077000032C30200838C800C83808000000203F8B
:100780002000000010080808C8380800203826217A
:1007900020201800000000FE020202000000007F7E
:1007A00040404000000C30C000000000000000018C
:1007B0000638C00000020202FE0000000040404077
:1007C0007F0000000000040202020400000000009C
:1007D0000000000000000000000000008080808019
:1007E0008080808000020204000000000000000001
:1007F000000000000000808080800000001924229A
:1008000022223F2008F8008080000000003F1120D5
:1008100020110E000000008080800000000E1120DA
:1008200020201100000000808088F800000E1120B8
:1008300020103F200000808080800000001F2222C6
:1008400022221300008080F0888888180020203F32
:10085000202000000000808080808000006B949445
:100860009493600008F8008080800000203F210001
:1008700000203F2000809898000000000020203FCA
:1008800020200000000000809898000000C08080B8
:10089000807F000008F8000080808000203F240254
:1008A0002D302000000808F8000000000020203F44
:1008B000202000008080808080808000203F2000F9
:1008C0003F20003F8080008080800000203F21008A
:1008D00000203F200000808080800000001F20203A
:1008E00020201F00808000808000000080FFA12069
:1008F00020110E000000008080808000000E11207A
:1009000020A0FF80808080008080800020203F2108
:1009100020000100000080808080800000332424BB
:1009200024241900008080E0808000000000001F67
:10093000202000008080000000808000001F202018
:1009400020103F20808080000080808000010E30D9
:100950000806010080800080008080800F300C033A
:100960000C300F0000808000808080000020312E3D
:100970000E312000808080000080808080818E7019
:100980001806010000808080808080000021302CCB
:100990002221300000000000807C020200000000E4
:1009A000003F404000000000FF0000000000000089
:1009B000FF0000000002027C800000000040403F79
:1009C0000000000000060101020204040000000013
:1009D0000000000030313233343536373839414287
:1009E0004344454640305800303132333435363791
:1009F0003839616263646566403078001C0A01081A
:100A0000000000201C0500006C010008200C0108FB
:100A10001C050020845D0000C80100080112080ABE
:100A20001180C0E0F0F0F0E0C080181DF8FCFEFF7F
:100A300001A00BFBF1E1C3C7EE7F3B1F0E1C1C3E68
:100A40007F1AF00FDFDBF6F7FFFEF6FFFF7F3F1F99
:100A50000F07000E351E3F3F0F03070F1F0F0F0735
:100A60000301198418097038381C1C0C0C0E013055
:100A70000E8ECCECECECF8F8F87CFE8F070328091E
:100A8000C0FCFF0F038080C0A959AA200DFFFFBF43
:100A90008F87818003077FFCC0480B077FFFE080C2
:100AA0000303C3E3F31C2BFF7FA7198E470380C00A
:100AB000FC7F0F1DC1E3F77C15280D6F6F6F67E397
:100AC000C3C1C0E0E06060725B0E0FB20B20010199
:100AD000BA19A619352DB8B8BCFC0119A176F0E0F9
:100AE000E0C0801AE099180AF1FCFEF3FB391D0FF3
:100AF000C7014C0F1F3F8C44FEFCE04C073F7F10AA
:100B00001DFCF8F0E3011808F0389CCFFF7F1FAC04
:100B1000733F07380A010307070F1F1F1F3F015FBD
:100B20001B1B190C06079F21E2040912AE10084D89
:100B30006F676F6F62610218037BA24A4668090102
:100B4000020304060708090C69100542020406089E
:100B50003580020221680F4F46464C494E45202001
:100B60004445425547162D53544D200138154E41EA
:100B70004E4420466C617368204469736B20312EAB
:100B80003020BB6206627002150A39A502120214F7
:100B90001A03531254124D123312321231021D3005
:100BA00013593A4C08B562049A690C6904DA611465
:100BB0005A751079E64A258A230701133161140812
:100BC0009D5F1408FD601B082D0C1BA95E301910D9
:100BD0001A5D041A21041A0D041A35044132402901
:100BE00048DA79701A5938690C1AA9041320FB33B2
:100BF00008121A320832511A830832041A8708324E
:100C0000265AAD0813F80233201A1AD3107210199D
:100C10009301423A60AB01220A10C26E039A17EFA9
:0400000508000131BD
:00000001FF
