Component: ARM Compiler 5.06 update 6 (build 750) Tool: armlink [4d35ed]

==============================================================================

Section Cross References

    main.o(i.Draw_Logo) refers to oled.o(i.OLED_ShowChar) for OLED_ShowChar
    main.o(i.Draw_Logo) refers to delay.o(i.delay_ms) for delay_ms
    main.o(i.Draw_Logo) refers to oled.o(i.OLED_Clear) for OLED_Clear
    main.o(i.Draw_Logo) refers to main.o(.data) for Logo
    main.o(i.Draw_Main) refers to ff.o(i.f_unlink) for f_unlink
    main.o(i.Draw_Main) refers to ff.o(i.f_opendir) for f_opendir
    main.o(i.Draw_Main) refers to ff.o(i.f_readdir) for f_readdir
    main.o(i.Draw_Main) refers to oled.o(i.OLED_ShowString) for OLED_ShowString
    main.o(i.Draw_Main) refers to main.o(i.Scan_Key) for Scan_Key
    main.o(i.Draw_Main) refers to oled.o(i.OLED_Clear) for OLED_Clear
    main.o(i.Draw_Main) refers to oled.o(i.OLED_DrawBMP) for OLED_DrawBMP
    main.o(i.Draw_Main) refers to delay.o(i.delay_ms) for delay_ms
    main.o(i.Draw_Main) refers to main.o(.bss) for DirInfo
    main.o(i.Draw_Main) refers to main.o(.data) for select
    main.o(i.Draw_Main) refers to strstr.o(.text) for strstr
    main.o(i.Draw_Main) refers to ff.o(i.f_open) for f_open
    main.o(i.Draw_Main) refers to hex2bin.o(i.HexFormatUncode) for HexFormatUncode
    main.o(i.Draw_Main) refers to oled.o(i.OLED_ShowChar) for OLED_ShowChar
==============================================================================

Removing Unused input sections from the image.

    Removing main.o(.rev16_text), (4 bytes).
    Removing main.o(.revsh_text), (4 bytes).
    Removing main.o(.rrx_text), (6 bytes).
    Removing cmsis-dap.o(.rev16_text), (4 bytes).
    Removing cmsis-dap.o(.revsh_text), (4 bytes).
    Removing cmsis-dap.o(.rrx_text), (6 bytes).
    Removing cmsis-dap.o(i.BoardInit), (108 bytes).
    Removing cmsis-dap.o(i.LedConnectedToggle), (20 bytes).
    Removing cmsis-dap.o(i.LedRunningToggle), (20 bytes).
    Removing cmsis-dap.o(i.SysTick_Init), (108 bytes).
    Removing cmsis-dap.o(i.USBD_Error_Event), (22 bytes).
    Removing sys.o(.rev16_text), (4 bytes).
    Removing sys.o(.revsh_text), (4 bytes).
    Removing sys.o(.rrx_text), (6 bytes).
    Removing sys.o(.emb_text), (6 bytes).
    Removing sys.o(i.INTX_DISABLE), (4 bytes).
    Removing sys.o(i.INTX_ENABLE), (4 bytes).
    Removing sys.o(i.WFI_SET), (4 bytes).
==============================================================================

Image Symbol Table

    Local Symbols

    Symbol Name                              Value     Ov Type        Size  Object(Section)

    ../clib/angel/boardlib.s                 0x00000000   Number         0  boardinit3.o ABSOLUTE
    ../clib/angel/boardlib.s                 0x00000000   Number         0  boardinit2.o ABSOLUTE
    ../clib/angel/boardlib.s                 0x00000000   Number         0  boardinit1.o ABSOLUTE
    ../clib/angel/boardlib.s                 0x00000000   Number         0  boardshut.o ABSOLUTE
    ../clib/angel/dczerorl2.s                0x00000000   Number         0  __dczerorl2.o ABSOLUTE
    ../clib/angel/handlers.s                 0x00000000   Number         0  __scatter_zi.o ABSOLUTE
    ../clib/angel/kernel.s                   0x00000000   Number         0  __rtentry.o ABSOLUTE
    ../clib/angel/kernel.s                   0x00000000   Number         0  __rtentry2.o ABSOLUTE
    ../clib/angel/kernel.s                   0x00000000   Number         0  __rtentry4.o ABSOLUTE
    ../clib/angel/kernel.s                   0x00000000   Number         0  rtexit.o ABSOLUTE
    ../clib/angel/kernel.s                   0x00000000   Number         0  rtexit2.o ABSOLUTE
    ../clib/angel/rt.s                       0x00000000   Number         0  rt_raise.o ABSOLUTE
    ../clib/angel/scatter.s                  0x00000000   Number         0  __scatter.o ABSOLUTE
    ../clib/angel/startup.s                  0x00000000   Number         0  __main.o ABSOLUTE
    ../clib/angel/sys.s                      0x00000000   Number         0  use_no_semi_2.o ABSOLUTE
    ../clib/angel/sys.s                      0x00000000   Number         0  sys_stackheap_outer.o ABSOLUTE
    ../clib/angel/sys.s                      0x00000000   Number         0  use_no_semi.o ABSOLUTE
    ../clib/angel/sys.s                      0x00000000   Number         0  libspace.o ABSOLUTE
    ../clib/angel/sys.s                      0x00000000   Number         0  indicate_semi.o ABSOLUTE
    ../clib/angel/sysapp.c                   0x00000000   Number         0  sys_command.o ABSOLUTE
    ../clib/angel/sysapp.c                   0x00000000   Number         0  sys_wrch.o ABSOLUTE
    ../clib/armsys.c                         0x00000000   Number         0  _get_argv_nomalloc.o ABSOLUTE
    ../clib/armsys.c                         0x00000000   Number         0  no_argv.o ABSOLUTE
    ../clib/armsys.c                         0x00000000   Number         0  argv_veneer.o ABSOLUTE
    ../clib/armsys.c                         0x00000000   Number         0  argv_veneer.o ABSOLUTE
    ../clib/heapalloc.c                      0x00000000   Number         0  hrguard.o ABSOLUTE
    ../clib/heapaux.c                        0x00000000   Number         0  heapauxi.o ABSOLUTE
    ../clib/libinit.s                        0x00000000   Number         0  libinit.o ABSOLUTE
    ../clib/libinit.s                        0x00000000   Number         0  libshutdown.o ABSOLUTE
    ../clib/libinit.s                        0x00000000   Number         0  libinit2.o ABSOLUTE
    ../clib/libinit.s                        0x00000000   Number         0  libshutdown2.o ABSOLUTE
    ../clib/memcpset.s                       0x00000000   Number         0  rt_memclr.o ABSOLUTE
    ../clib/memcpset.s                       0x00000000   Number         0  rt_memcpy_w.o ABSOLUTE
    ../clib/memcpset.s                       0x00000000   Number         0  rt_memclr_w.o ABSOLUTE
    ../clib/memcpset.s                       0x00000000   Number         0  rt_memcpy_v6.o ABSOLUTE
    ../clib/printf.c                         0x00000000   Number         0  __printf_flags_ss.o ABSOLUTE
    ../clib/printf.c                         0x00000000   Number         0  _printf_char_common.o ABSOLUTE
    ../clib/printf.c                         0x00000000   Number         0  _printf_hex_ll_ptr.o ABSOLUTE
    ../clib/printf.c                         0x00000000   Number         0  __printf_nopercent.o ABSOLUTE
    ../clib/printf.c                         0x00000000   Number         0  __printf_ss.o ABSOLUTE
    ../clib/printf.c                         0x00000000   Number         0  __printf_flags.o ABSOLUTE
    ../clib/printf.c                         0x00000000   Number         0  _printf_hex_int_ll_ptr.o ABSOLUTE
    ../clib/printf.c                         0x00000000   Number         0  _printf_hex_int_ptr.o ABSOLUTE
    ../clib/printf.c                         0x00000000   Number         0  _printf_hex_ptr.o ABSOLUTE
    ../clib/printf.c                         0x00000000   Number         0  _printf_hex_int_ll.o ABSOLUTE
    ../clib/printf.c                         0x00000000   Number         0  _printf_hex_int.o ABSOLUTE
    ../clib/printf.c                         0x00000000   Number         0  _printf_hex_ll.o ABSOLUTE
    ../clib/printf.c                         0x00000000   Number         0  __printf.o ABSOLUTE
    ../clib/printf.c                         0x00000000   Number         0  noretval__2printf.o ABSOLUTE
    ../clib/printf.c                         0x00000000   Number         0  __printf_wp.o ABSOLUTE
    ../clib/printf.c                         0x00000000   Number         0  __2printf.o ABSOLUTE
    ../clib/printf.c                         0x00000000   Number         0  _printf_intcommon.o ABSOLUTE
    ../clib/printf.c                         0x00000000   Number         0  _printf_char_file.o ABSOLUTE
    ../clib/printf.c                         0x00000000   Number         0  __printf_flags_ss_wp.o ABSOLUTE
    ../clib/printf.c                         0x00000000   Number         0  __printf_ss_wp.o ABSOLUTE
    ../clib/printf.c                         0x00000000   Number         0  __printf_flags_wp.o ABSOLUTE
    ../clib/printf_percent.s                 0x00000000   Number         0  _printf_percent.o ABSOLUTE
    ../clib/printf_percent.s                 0x00000000   Number         0  _printf_x.o ABSOLUTE
    ../clib/printf_percent.s                 0x00000000   Number         0  _printf_percent_end.o ABSOLUTE
    ../clib/signal.c                         0x00000000   Number         0  defsig_abrt_inner.o ABSOLUTE
    ../clib/signal.c                         0x00000000   Number         0  defsig_stak_inner.o ABSOLUTE
    ../clib/signal.c                         0x00000000   Number         0  defsig_rtmem_outer.o ABSOLUTE
    ../clib/signal.c                         0x00000000   Number         0  defsig_rtmem_formal.o ABSOLUTE
    ../clib/signal.c                         0x00000000   Number         0  defsig_general.o ABSOLUTE
    ../clib/signal.c                         0x00000000   Number         0  defsig_rtred_inner.o ABSOLUTE
    ../clib/signal.c                         0x00000000   Number         0  defsig_exit.o ABSOLUTE
    ../clib/signal.c                         0x00000000   Number         0  defsig_fpe_inner.o ABSOLUTE
    ../clib/signal.c                         0x00000000   Number         0  defsig_segv_inner.o ABSOLUTE
    ../clib/signal.c                         0x00000000   Number         0  defsig_cppl_inner.o ABSOLUTE
    ../clib/signal.c                         0x00000000   Number         0  defsig_rtmem_inner.o ABSOLUTE
    ../clib/signal.c                         0x00000000   Number         0  defsig_pvfn_inner.o ABSOLUTE
    ../clib/signal.c                         0x00000000   Number         0  defsig_other.o ABSOLUTE
    ../clib/signal.c                         0x00000000   Number         0  __raise.o ABSOLUTE
    ../clib/signal.s                         0x00000000   Number         0  defsig.o ABSOLUTE
    ../clib/stdio.c                          0x00000000   Number         0  ferror_locked.o ABSOLUTE
    ../clib/stdio.c                          0x00000000   Number         0  ferror.o ABSOLUTE
    ../clib/stdlib.c                         0x00000000   Number         0  exit.o ABSOLUTE
    ../clib/string.c                         0x00000000   Number         0  strlen.o ABSOLUTE
    ../clib/string.c                         0x00000000   Number         0  strstr.o ABSOLUTE
    ../fplib/ddiv.s                          0x00000000   Number         0  ddiv.o ABSOLUTE
    ../fplib/dfixu.s                         0x00000000   Number         0  dfixu.o ABSOLUTE
    ../fplib/dflt.s                          0x00000000   Number         0  dflt_clz.o ABSOLUTE
    ../fplib/dmul.s                          0x00000000   Number         0  dmul.o ABSOLUTE
    ../fplib/dnaninf.s                       0x00000000   Number         0  dnaninf.o ABSOLUTE
    ../fplib/dretinf.s                       0x00000000   Number         0  dretinf.o ABSOLUTE
    ../fplib/fpinit.s                        0x00000000   Number         0  fpinit.o ABSOLUTE
    ../fplib/usenofp.s                       0x00000000   Number         0  usenofp.o ABSOLUTE
    ..\CMSIS\CoreSupport\core_cm3.c          0x00000000   Number         0  core_cm3.o ABSOLUTE
    ..\CORE\startup_stm32f10x_hd.s           0x00000000   Number         0  startup_stm32f10x_hd.o ABSOLUTE
    ..\CORE\system_stm32f10x.c               0x00000000   Number         0  system_stm32f10x.o ABSOLUTE
    ..\HARDWARE\DAP\DAP.c                    0x00000000   Number         0  dap.o ABSOLUTE
    ..\HARDWARE\DAP\DAP_vendor.c             0x00000000   Number         0  dap_vendor.o ABSOLUTE
    ..\HARDWARE\DAP\JTAG_DP.c                0x00000000   Number         0  jtag_dp.o ABSOLUTE
    ..\HARDWARE\DAP\SWO.c                    0x00000000   Number         0  swo.o ABSOLUTE
    ..\HARDWARE\DAP\SW_DP.c                  0x00000000   Number         0  sw_dp.o ABSOLUTE
    ..\HARDWARE\DAP_UART\DMA_STM32F10x.c     0x00000000   Number         0  dma_stm32f10x.o ABSOLUTE
    ..\HARDWARE\DAP_UART\GPIO_STM32F10x.c    0x00000000   Number         0  gpio_stm32f10x.o ABSOLUTE
    ..\HARDWARE\DAP_UART\USART_STM32F10x.c   0x00000000   Number         0  usart_stm32f10x.o ABSOLUTE
    ..\HARDWARE\DAP_USB\src\usb_config.c     0x00000000   Number         0  usb_config_1.o ABSOLUTE
    ..\HARDWARE\DAP_USB\src\usbd_STM32F103.c 0x00000000   Number         0  usbd_stm32f103_1.o ABSOLUTE
    ..\HARDWARE\DAP_USB\src\usbd_user_cdc_acm.c 0x00000000   Number         0  usbd_user_cdc_acm.o ABSOLUTE
    ..\HARDWARE\DAP_USB\src\usbd_user_hid.c  0x00000000   Number         0  usbd_user_hid_1.o ABSOLUTE
    ..\HARDWARE\Mass_Storage\src\fsmc_nand.c 0x00000000   Number         0  fsmc_nand.o ABSOLUTE
    ..\HARDWARE\Mass_Storage\src\hw_config.c 0x00000000   Number         0  hw_config.o ABSOLUTE
    ..\HARDWARE\Mass_Storage\src\mass_mal.c  0x00000000   Number         0  mass_mal.o ABSOLUTE
    ..\HARDWARE\Mass_Storage\src\memory.c    0x00000000   Number         0  memory.o ABSOLUTE
    ..\HARDWARE\Mass_Storage\src\scsi_data.c 0x00000000   Number         0  scsi_data.o ABSOLUTE
    ..\HARDWARE\Mass_Storage\src\usb_bot.c   0x00000000   Number         0  usb_bot.o ABSOLUTE
    ..\HARDWARE\Mass_Storage\src\usb_desc.c  0x00000000   Number         0  usb_desc.o ABSOLUTE
    ..\HARDWARE\Mass_Storage\src\usb_endp.c  0x00000000   Number         0  usb_endp.o ABSOLUTE
    ..\HARDWARE\Mass_Storage\src\usb_istr.c  0x00000000   Number         0  usb_istr.o ABSOLUTE
    ..\HARDWARE\Mass_Storage\src\usb_prop.c  0x00000000   Number         0  usb_prop.o ABSOLUTE
    ..\HARDWARE\Mass_Storage\src\usb_pwr.c   0x00000000   Number         0  usb_pwr.o ABSOLUTE
    ..\HARDWARE\Mass_Storage\src\usb_scsi.c  0x00000000   Number         0  usb_scsi.o ABSOLUTE
    ..\HARDWARE\OLED\oled.c                  0x00000000   Number         0  oled.o ABSOLUTE
    ..\HARDWARE\STM32_USB-FS-Device_Driver\src\otgd_fs_cal.c 0x00000000   Number         0  otgd_fs_cal.o ABSOLUTE
    ..\HARDWARE\STM32_USB-FS-Device_Driver\src\otgd_fs_dev.c 0x00000000   Number         0  otgd_fs_dev.o ABSOLUTE
    ..\HARDWARE\STM32_USB-FS-Device_Driver\src\otgd_fs_int.c 0x00000000   Number         0  otgd_fs_int.o ABSOLUTE
    ..\HARDWARE\STM32_USB-FS-Device_Driver\src\otgd_fs_pcd.c 0x00000000   Number         0  otgd_fs_pcd.o ABSOLUTE
    ..\HARDWARE\STM32_USB-FS-Device_Driver\src\usb_core.c 0x00000000   Number         0  usb_core.o ABSOLUTE
    ..\HARDWARE\STM32_USB-FS-Device_Driver\src\usb_init.c 0x00000000   Number         0  usb_init.o ABSOLUTE
    ..\HARDWARE\STM32_USB-FS-Device_Driver\src\usb_int.c 0x00000000   Number         0  usb_int.o ABSOLUTE
    ..\HARDWARE\STM32_USB-FS-Device_Driver\src\usb_mem.c 0x00000000   Number         0  usb_mem.o ABSOLUTE
    ..\HARDWARE\STM32_USB-FS-Device_Driver\src\usb_regs.c 0x00000000   Number         0  usb_regs.o ABSOLUTE
    ..\HARDWARE\STM32_USB-FS-Device_Driver\src\usb_sil.c 0x00000000   Number         0  usb_sil.o ABSOLUTE
    ..\HARDWARE\SWD\SWD_flash.c              0x00000000   Number         0  swd_flash.o ABSOLUTE
    ..\HARDWARE\SWD\SWD_host.c               0x00000000   Number         0  swd_host.o ABSOLUTE
    ..\HARDWARE\SWD\SWD_opt.c                0x00000000   Number         0  swd_opt.o ABSOLUTE
    ..\HARDWARE\W25QXX\w25qxx.c              0x00000000   Number         0  w25qxx.o ABSOLUTE
    ..\HARDWARE\algo\STM32F10x_128.c         0x00000000   Number         0  stm32f10x_128.o ABSOLUTE
    ..\HARDWARE\algo\STM32F10x_OPT.c         0x00000000   Number         0  stm32f10x_opt.o ABSOLUTE
    ..\HARDWARE\another\hex2bin.c            0x00000000   Number         0  hex2bin.o ABSOLUTE
    ..\HARDWARE\another\key.c                0x00000000   Number         0  key.o ABSOLUTE
    ..\HARDWARE\another\led.c                0x00000000   Number         0  led.o ABSOLUTE
    ..\HARDWARE\ff9\src\diskio.c             0x00000000   Number         0  diskio.o ABSOLUTE
    ..\HARDWARE\ff9\src\ff.c                 0x00000000   Number         0  ff.o ABSOLUTE
    ..\STM32F10x_FWLib\src\misc.c            0x00000000   Number         0  misc.o ABSOLUTE
    ..\STM32F10x_FWLib\src\stm32f10x_dma.c   0x00000000   Number         0  stm32f10x_dma.o ABSOLUTE
    ..\STM32F10x_FWLib\src\stm32f10x_exti.c  0x00000000   Number         0  stm32f10x_exti.o ABSOLUTE
    ..\STM32F10x_FWLib\src\stm32f10x_flash.c 0x00000000   Number         0  stm32f10x_flash.o ABSOLUTE
    ..\STM32F10x_FWLib\src\stm32f10x_fsmc.c  0x00000000   Number         0  stm32f10x_fsmc.o ABSOLUTE
    ..\STM32F10x_FWLib\src\stm32f10x_gpio.c  0x00000000   Number         0  stm32f10x_gpio.o ABSOLUTE
    ..\STM32F10x_FWLib\src\stm32f10x_rcc.c   0x00000000   Number         0  stm32f10x_rcc.o ABSOLUTE
    ..\STM32F10x_FWLib\src\stm32f10x_spi.c   0x00000000   Number         0  stm32f10x_spi.o ABSOLUTE
    ..\STM32F10x_FWLib\src\stm32f10x_tim.c   0x00000000   Number         0  stm32f10x_tim.o ABSOLUTE
    ..\STM32F10x_FWLib\src\stm32f10x_usart.c 0x00000000   Number         0  stm32f10x_usart.o ABSOLUTE
    ..\SYSTEM\SPI\spi.c                      0x00000000   Number         0  spi.o ABSOLUTE
    ..\SYSTEM\delay\delay.c                  0x00000000   Number         0  delay.o ABSOLUTE
    ..\SYSTEM\sys\sys.c                      0x00000000   Number         0  sys.o ABSOLUTE
    ..\SYSTEM\usart\usart.c                  0x00000000   Number         0  usart.o ABSOLUTE
    ..\USER\CMSIS-DAP.c                      0x00000000   Number         0  cmsis-dap.o ABSOLUTE
    ..\USER\main.c                           0x00000000   Number         0  main.o ABSOLUTE
    ..\\CMSIS\\CoreSupport\\core_cm3.c       0x00000000   Number         0  core_cm3.o ABSOLUTE
    ..\\CORE\\system_stm32f10x.c             0x00000000   Number         0  system_stm32f10x.o ABSOLUTE
    ..\\HARDWARE\\DAP\\DAP.c                 0x00000000   Number         0  dap.o ABSOLUTE
    ..\\HARDWARE\\DAP\\DAP_vendor.c          0x00000000   Number         0  dap_vendor.o ABSOLUTE
    ..\\HARDWARE\\DAP\\JTAG_DP.c             0x00000000   Number         0  jtag_dp.o ABSOLUTE
    ..\\HARDWARE\\DAP\\SWO.c                 0x00000000   Number         0  swo.o ABSOLUTE
    ..\\HARDWARE\\DAP\\SW_DP.c               0x00000000   Number         0  sw_dp.o ABSOLUTE
    ..\\HARDWARE\\DAP_UART\\DMA_STM32F10x.c  0x00000000   Number         0  dma_stm32f10x.o ABSOLUTE
    ..\\HARDWARE\\DAP_UART\\GPIO_STM32F10x.c 0x00000000   Number         0  gpio_stm32f10x.o ABSOLUTE
    ..\\HARDWARE\\DAP_UART\\USART_STM32F10x.c 0x00000000   Number         0  usart_stm32f10x.o ABSOLUTE
    ..\\HARDWARE\\DAP_USB\\src\\usbd_STM32F103.c 0x00000000   Number         0  usbd_stm32f103_1.o ABSOLUTE
    ..\\HARDWARE\\DAP_USB\\src\\usbd_user_cdc_acm.c 0x00000000   Number         0  usbd_user_cdc_acm.o ABSOLUTE
    ..\\HARDWARE\\DAP_USB\\src\\usbd_user_hid.c 0x00000000   Number         0  usbd_user_hid_1.o ABSOLUTE
    ..\\HARDWARE\\Mass_Storage\\src\\fsmc_nand.c 0x00000000   Number         0  fsmc_nand.o ABSOLUTE
    ..\\HARDWARE\\Mass_Storage\\src\\hw_config.c 0x00000000   Number         0  hw_config.o ABSOLUTE
    ..\\HARDWARE\\Mass_Storage\\src\\mass_mal.c 0x00000000   Number         0  mass_mal.o ABSOLUTE
    ..\\HARDWARE\\Mass_Storage\\src\\memory.c 0x00000000   Number         0  memory.o ABSOLUTE
    ..\\HARDWARE\\Mass_Storage\\src\\scsi_data.c 0x00000000   Number         0  scsi_data.o ABSOLUTE
    ..\\HARDWARE\\Mass_Storage\\src\\usb_bot.c 0x00000000   Number         0  usb_bot.o ABSOLUTE
    ..\\HARDWARE\\Mass_Storage\\src\\usb_desc.c 0x00000000   Number         0  usb_desc.o ABSOLUTE
    ..\\HARDWARE\\Mass_Storage\\src\\usb_endp.c 0x00000000   Number         0  usb_endp.o ABSOLUTE
    ..\\HARDWARE\\Mass_Storage\\src\\usb_istr.c 0x00000000   Number         0  usb_istr.o ABSOLUTE
    ..\\HARDWARE\\Mass_Storage\\src\\usb_prop.c 0x00000000   Number         0  usb_prop.o ABSOLUTE
    ..\\HARDWARE\\Mass_Storage\\src\\usb_pwr.c 0x00000000   Number         0  usb_pwr.o ABSOLUTE
    ..\\HARDWARE\\Mass_Storage\\src\\usb_scsi.c 0x00000000   Number         0  usb_scsi.o ABSOLUTE
    ..\\HARDWARE\\OLED\\oled.c               0x00000000   Number         0  oled.o ABSOLUTE
    ..\\HARDWARE\\STM32_USB-FS-Device_Driver\\src\\usb_core.c 0x00000000   Number         0  usb_core.o ABSOLUTE
    ..\\HARDWARE\\STM32_USB-FS-Device_Driver\\src\\usb_init.c 0x00000000   Number         0  usb_init.o ABSOLUTE
    ..\\HARDWARE\\STM32_USB-FS-Device_Driver\\src\\usb_int.c 0x00000000   Number         0  usb_int.o ABSOLUTE
    ..\\HARDWARE\\STM32_USB-FS-Device_Driver\\src\\usb_mem.c 0x00000000   Number         0  usb_mem.o ABSOLUTE
    ..\\HARDWARE\\STM32_USB-FS-Device_Driver\\src\\usb_regs.c 0x00000000   Number         0  usb_regs.o ABSOLUTE
    ..\\HARDWARE\\STM32_USB-FS-Device_Driver\\src\\usb_sil.c 0x00000000   Number         0  usb_sil.o ABSOLUTE
    ..\\HARDWARE\\SWD\\SWD_host.c            0x00000000   Number         0  swd_host.o ABSOLUTE
    ..\\HARDWARE\\W25QXX\\w25qxx.c           0x00000000   Number         0  w25qxx.o ABSOLUTE
    ..\\HARDWARE\\another\\hex2bin.c         0x00000000   Number         0  hex2bin.o ABSOLUTE
    ..\\HARDWARE\\another\\key.c             0x00000000   Number         0  key.o ABSOLUTE
    ..\\HARDWARE\\another\\led.c             0x00000000   Number         0  led.o ABSOLUTE
    ..\\HARDWARE\\ff9\\src\\diskio.c         0x00000000   Number         0  diskio.o ABSOLUTE
    ..\\STM32F10x_FWLib\\src\\misc.c         0x00000000   Number         0  misc.o ABSOLUTE
    ..\\STM32F10x_FWLib\\src\\stm32f10x_dma.c 0x00000000   Number         0  stm32f10x_dma.o ABSOLUTE
    ..\\STM32F10x_FWLib\\src\\stm32f10x_exti.c 0x00000000   Number         0  stm32f10x_exti.o ABSOLUTE
    ..\\STM32F10x_FWLib\\src\\stm32f10x_flash.c 0x00000000   Number         0  stm32f10x_flash.o ABSOLUTE
    ..\\STM32F10x_FWLib\\src\\stm32f10x_fsmc.c 0x00000000   Number         0  stm32f10x_fsmc.o ABSOLUTE
    ..\\STM32F10x_FWLib\\src\\stm32f10x_gpio.c 0x00000000   Number         0  stm32f10x_gpio.o ABSOLUTE
    ..\\STM32F10x_FWLib\\src\\stm32f10x_rcc.c 0x00000000   Number         0  stm32f10x_rcc.o ABSOLUTE
    ..\\STM32F10x_FWLib\\src\\stm32f10x_spi.c 0x00000000   Number         0  stm32f10x_spi.o ABSOLUTE
    ..\\STM32F10x_FWLib\\src\\stm32f10x_tim.c 0x00000000   Number         0  stm32f10x_tim.o ABSOLUTE
    ..\\STM32F10x_FWLib\\src\\stm32f10x_usart.c 0x00000000   Number         0  stm32f10x_usart.o ABSOLUTE
    ..\\SYSTEM\\SPI\\spi.c                   0x00000000   Number         0  spi.o ABSOLUTE
    ..\\SYSTEM\\delay\\delay.c               0x00000000   Number         0  delay.o ABSOLUTE
    ..\\SYSTEM\\sys\\sys.c                   0x00000000   Number         0  sys.o ABSOLUTE
    ..\\SYSTEM\\usart\\usart.c               0x00000000   Number         0  usart.o ABSOLUTE
    ..\\USER\\CMSIS-DAP.c                    0x00000000   Number         0  cmsis-dap.o ABSOLUTE
    ..\\USER\\main.c                         0x00000000   Number         0  main.o ABSOLUTE
    RL_ARM.s                                 0x00000000   Number         0  usbd_core.o ABSOLUTE
    RL_ARM.s                                 0x00000000   Number         0  usbd_hid.o ABSOLUTE
    RL_ARM.s                                 0x00000000   Number         0  usbd_core_cdc.o ABSOLUTE
    RL_ARM.s                                 0x00000000   Number         0  usbd_core_hid.o ABSOLUTE
    RL_ARM.s                                 0x00000000   Number         0  usbd_cdc_acm.o ABSOLUTE
    SRC\\usbd_core.c                         0x00000000   Number         0  usbd_core.o ABSOLUTE
    SRC\usbd_cdc_acm.c                       0x00000000   Number         0  usbd_cdc_acm.o ABSOLUTE
    SRC\usbd_core.c                          0x00000000   Number         0  usbd_core.o ABSOLUTE
    SRC\usbd_core_cdc.c                      0x00000000   Number         0  usbd_core_cdc.o ABSOLUTE
    SRC\usbd_core_hid.c                      0x00000000   Number         0  usbd_core_hid.o ABSOLUTE
    SRC\usbd_hid.c                           0x00000000   Number         0  usbd_hid.o ABSOLUTE
    dc.s                                     0x00000000   Number         0  dc.o ABSOLUTE
    RESET                                    0x08000000   Section      304  startup_stm32f10x_hd.o(RESET)
    !!!main                                  0x08000130   Section        8  __main.o(!!!main)
    !!!scatter                               0x08000138   Section       52  __scatter.o(!!!scatter)
    !!dczerorl2                              0x0800016c   Section       90  __dczerorl2.o(!!dczerorl2)
    !!handler_zi                             0x080001c8   Section       28  __scatter_zi.o(!!handler_zi)
    .ARM.Collect$$_printf_percent$$00000000  0x080001e4   Section        0  _printf_percent.o(.ARM.Collect$$_printf_percent$$00000000)
    .ARM.Collect$$_printf_percent$$0000000C  0x080001e4   Section        6  _printf_x.o(.ARM.Collect$$_printf_percent$$0000000C)
    .ARM.Collect$$_printf_percent$$00000017  0x080001ea   Section        4  _printf_percent_end.o(.ARM.Collect$$_printf_percent$$00000017)
    .ARM.Collect$$libinit$$00000000          0x080001ee   Section        2  libinit.o(.ARM.Collect$$libinit$$00000000)
    .ARM.Collect$$libinit$$00000002          0x080001f0   Section        0  libinit2.o(.ARM.Collect$$libinit$$00000002)
    .ARM.Collect$$libinit$$00000004          0x080001f0   Section        0  libinit2.o(.ARM.Collect$$libinit$$00000004)
    .ARM.Collect$$libinit$$0000000A          0x080001f0   Section        0  libinit2.o(.ARM.Collect$$libinit$$0000000A)
    .ARM.Collect$$libinit$$0000000C          0x080001f0   Section        0  libinit2.o(.ARM.Collect$$libinit$$0000000C)
    .ARM.Collect$$libinit$$0000000E          0x080001f0   Section        0  libinit2.o(.ARM.Collect$$libinit$$0000000E)
    .ARM.Collect$$libinit$$00000011          0x080001f0   Section        0  libinit2.o(.ARM.Collect$$libinit$$00000011)
    .ARM.Collect$$libinit$$00000013          0x080001f0   Section        0  libinit2.o(.ARM.Collect$$libinit$$00000013)
    .ARM.Collect$$libinit$$00000015          0x080001f0   Section        0  libinit2.o(.ARM.Collect$$libinit$$00000015)
    .ARM.Collect$$libinit$$00000017          0x080001f0   Section        0  libinit2.o(.ARM.Collect$$libinit$$00000017)
    .ARM.Collect$$libinit$$00000019          0x080001f0   Section        0  libinit2.o(.ARM.Collect$$libinit$$00000019)
    .ARM.Collect$$libinit$$0000001B          0x080001f0   Section        0  libinit2.o(.ARM.Collect$$libinit$$0000001B)
    .ARM.Collect$$libinit$$0000001D          0x080001f0   Section        0  libinit2.o(.ARM.Collect$$libinit$$0000001D)
    .ARM.Collect$$libinit$$0000001F          0x080001f0   Section        0  libinit2.o(.ARM.Collect$$libinit$$0000001F)
    .ARM.Collect$$libinit$$00000021          0x080001f0   Section        0  libinit2.o(.ARM.Collect$$libinit$$00000021)
    .ARM.Collect$$libinit$$00000023          0x080001f0   Section        0  libinit2.o(.ARM.Collect$$libinit$$00000023)
    .ARM.Collect$$libinit$$00000025          0x080001f0   Section        0  libinit2.o(.ARM.Collect$$libinit$$00000025)
    .ARM.Collect$$libinit$$0000002C          0x080001f0   Section        0  libinit2.o(.ARM.Collect$$libinit$$0000002C)
    .ARM.Collect$$libinit$$0000002E          0x080001f0   Section        0  libinit2.o(.ARM.Collect$$libinit$$0000002E)
    .ARM.Collect$$libinit$$00000030          0x080001f0   Section        0  libinit2.o(.ARM.Collect$$libinit$$00000030)
    .ARM.Collect$$libinit$$00000032          0x080001f0   Section        0  libinit2.o(.ARM.Collect$$libinit$$00000032)
    .ARM.Collect$$libinit$$00000033          0x080001f0   Section        2  libinit2.o(.ARM.Collect$$libinit$$00000033)
    .ARM.Collect$$libshutdown$$00000000      0x080001f2   Section        2  libshutdown.o(.ARM.Collect$$libshutdown$$00000000)
    .ARM.Collect$$libshutdown$$00000002      0x080001f4   Section        0  libshutdown2.o(.ARM.Collect$$libshutdown$$00000002)
    .ARM.Collect$$libshutdown$$00000004      0x080001f4   Section        0  libshutdown2.o(.ARM.Collect$$libshutdown$$00000004)
    .ARM.Collect$$libshutdown$$00000007      0x080001f4   Section        0  libshutdown2.o(.ARM.Collect$$libshutdown$$00000007)
    .ARM.Collect$$libshutdown$$0000000A      0x080001f4   Section        0  libshutdown2.o(.ARM.Collect$$libshutdown$$0000000A)
    .ARM.Collect$$libshutdown$$0000000C      0x080001f4   Section        0  libshutdown2.o(.ARM.Collect$$libshutdown$$0000000C)
    .ARM.Collect$$libshutdown$$0000000F      0x080001f4   Section        0  libshutdown2.o(.ARM.Collect$$libshutdown$$0000000F)
    .ARM.Collect$$libshutdown$$00000010      0x080001f4   Section        2  libshutdown2.o(.ARM.Collect$$libshutdown$$00000010)
    .ARM.Collect$$rtentry$$00000000          0x080001f6   Section        0  __rtentry.o(.ARM.Collect$$rtentry$$00000000)
    .ARM.Collect$$rtentry$$00000002          0x080001f6   Section        0  __rtentry2.o(.ARM.Collect$$rtentry$$00000002)
    .ARM.Collect$$rtentry$$00000004          0x080001f6   Section        6  __rtentry4.o(.ARM.Collect$$rtentry$$00000004)
    .ARM.Collect$$rtentry$$00000009          0x080001fc   Section        0  __rtentry2.o(.ARM.Collect$$rtentry$$00000009)
    .ARM.Collect$$rtentry$$0000000A          0x080001fc   Section        4  __rtentry2.o(.ARM.Collect$$rtentry$$0000000A)
    .ARM.Collect$$rtentry$$0000000C          0x08000200   Section        0  __rtentry2.o(.ARM.Collect$$rtentry$$0000000C)
    .ARM.Collect$$rtentry$$0000000D          0x08000200   Section        8  __rtentry2.o(.ARM.Collect$$rtentry$$0000000D)
    .ARM.Collect$$rtexit$$00000000           0x08000208   Section        2  rtexit.o(.ARM.Collect$$rtexit$$00000000)
    .ARM.Collect$$rtexit$$00000002           0x0800020a   Section        0  rtexit2.o(.ARM.Collect$$rtexit$$00000002)
    .ARM.Collect$$rtexit$$00000003           0x0800020a   Section        4  rtexit2.o(.ARM.Collect$$rtexit$$00000003)
    .ARM.Collect$$rtexit$$00000004           0x0800020e   Section        6  rtexit2.o(.ARM.Collect$$rtexit$$00000004)
    .text                                    0x08000214   Section       64  startup_stm32f10x_hd.o(.text)
    .text                                    0x08000254   Section        2  use_no_semi_2.o(.text)
    .text                                    0x08000258   Section        0  noretval__2printf.o(.text)
    .text                                    0x08000270   Section        0  __printf.o(.text)
    .text                                    0x080002d8   Section        0  _printf_hex_int.o(.text)
    .text                                    0x08000330   Section        0  strstr.o(.text)
    .text                                    0x08000354   Section        0  strlen.o(.text)
    .text                                    0x08000392   Section      138  rt_memcpy_v6.o(.text)
    .text                                    0x0800041c   Section       68  rt_memclr.o(.text)
    .text                                    0x08000460   Section       78  rt_memclr_w.o(.text)
    .text                                    0x080004ae   Section        0  heapauxi.o(.text)
    .text                                    0x080004b4   Section        2  use_no_semi.o(.text)
    .text                                    0x080004b6   Section        0  _printf_intcommon.o(.text)
    .text                                    0x08000568   Section        0  _printf_char_file.o(.text)
    .text                                    0x0800058c   Section      100  rt_memcpy_w.o(.text)
    .text                                    0x080005f0   Section        0  _printf_char_common.o(.text)
    _printf_input_char                       0x080005f1   Thumb Code    10  _printf_char_common.o(.text)
    .text                                    0x08000620   Section        0  ferror.o(.text)
    .text                                    0x08000628   Section       74  sys_stackheap_outer.o(.text)
    .text                                    0x08000672   Section        0  exit.o(.text)
    .text                                    0x08000684   Section        8  libspace.o(.text)
    i.Bot_Abort                              0x0800068c   Section        0  usb_bot.o(i.Bot_Abort)
    i.ByteSwap                               0x080006cc   Section        0  usb_regs.o(i.ByteSwap)
    i.CBW_Decode                             0x080006d8   Section        0  usb_bot.o(i.CBW_Decode)
    i.CTR_HP                                 0x0800099c   Section        0  usb_int.o(i.CTR_HP)
    i.CTR_LP                                 0x08000a64   Section        0  usb_int.o(i.CTR_LP)
    i.Char2toByte                            0x08000cec   Section        0  hex2bin.o(i.Char2toByte)
    i.ChartoByte                             0x08000d06   Section        0  hex2bin.o(i.ChartoByte)
    i.ClearDTOG_RX                           0x08000d2c   Section        0  usb_regs.o(i.ClearDTOG_RX)
    i.ClearDTOG_TX                           0x08000d60   Section        0  usb_regs.o(i.ClearDTOG_TX)
    i.ClearTrace                             0x08000d94   Section        0  swo.o(i.ClearTrace)
    ClearTrace                               0x08000d95   Thumb Code    26  swo.o(i.ClearTrace)
    i.Clear_Status_Out                       0x08000dc4   Section        0  usb_regs.o(i.Clear_Status_Out)
    i.DAP_Connect                            0x08000dec   Section        0  dap.o(i.DAP_Connect)
    DAP_Connect                              0x08000ded   Thumb Code    64  dap.o(i.DAP_Connect)
    i.DAP_Delay                              0x08000e30   Section        0  dap.o(i.DAP_Delay)
    DAP_Delay                                0x08000e31   Thumb Code    58  dap.o(i.DAP_Delay)
    i.DAP_Disconnect                         0x08000e78   Section        0  dap.o(i.DAP_Disconnect)
    DAP_Disconnect                           0x08000e79   Thumb Code    22  dap.o(i.DAP_Disconnect)
    i.DAP_Dummy_Transfer                     0x08000e94   Section        0  dap.o(i.DAP_Dummy_Transfer)
    DAP_Dummy_Transfer                       0x08000e95   Thumb Code    56  dap.o(i.DAP_Dummy_Transfer)
    i.DAP_HostStatus                         0x08000ecc   Section        0  dap.o(i.DAP_HostStatus)
    DAP_HostStatus                           0x08000ecd   Thumb Code    66  dap.o(i.DAP_HostStatus)
    i.DAP_Info                               0x08000f18   Section        0  dap.o(i.DAP_Info)
    DAP_Info                                 0x08000f19   Thumb Code   120  dap.o(i.DAP_Info)
    i.DAP_JTAG_Configure                     0x08000f94   Section        0  dap.o(i.DAP_JTAG_Configure)
    DAP_JTAG_Configure                       0x08000f95   Thumb Code    82  dap.o(i.DAP_JTAG_Configure)
    i.DAP_JTAG_IDCode                        0x08000fec   Section        0  dap.o(i.DAP_JTAG_IDCode)
    DAP_JTAG_IDCode                          0x08000fed   Thumb Code    78  dap.o(i.DAP_JTAG_IDCode)
    i.DAP_JTAG_Sequence                      0x08001044   Section        0  dap.o(i.DAP_JTAG_Sequence)
    DAP_JTAG_Sequence                        0x08001045   Thumb Code    90  dap.o(i.DAP_JTAG_Sequence)
    i.DAP_JTAG_Transfer                      0x080010a0   Section        0  dap.o(i.DAP_JTAG_Transfer)
    DAP_JTAG_Transfer                        0x080010a1   Thumb Code   936  dap.o(i.DAP_JTAG_Transfer)
    i.DAP_JTAG_TransferBlock                 0x08001450   Section        0  dap.o(i.DAP_JTAG_TransferBlock)
    DAP_JTAG_TransferBlock                   0x08001451   Thumb Code   408  dap.o(i.DAP_JTAG_TransferBlock)
    i.DAP_JTAG_WriteAbort                    0x080015f0   Section        0  dap.o(i.DAP_JTAG_WriteAbort)
    DAP_JTAG_WriteAbort                      0x080015f1   Thumb Code    70  dap.o(i.DAP_JTAG_WriteAbort)
    i.DAP_ProcessCommand                     0x0800163c   Section        0  dap.o(i.DAP_ProcessCommand)
    i.DAP_ProcessVendorCommand               0x080017b2   Section        0  dap_vendor.o(i.DAP_ProcessVendorCommand)
    i.DAP_ResetTarget                        0x08001832   Section        0  dap.o(i.DAP_ResetTarget)
    DAP_ResetTarget                          0x08001833   Thumb Code    16  dap.o(i.DAP_ResetTarget)
    i.DAP_SWD_Configure                      0x08001844   Section        0  dap.o(i.DAP_SWD_Configure)
    DAP_SWD_Configure                        0x08001845   Thumb Code    34  dap.o(i.DAP_SWD_Configure)
    i.DAP_SWD_Transfer                       0x0800186c   Section        0  dap.o(i.DAP_SWD_Transfer)
    DAP_SWD_Transfer                         0x0800186d   Thumb Code   918  dap.o(i.DAP_SWD_Transfer)
    i.DAP_SWD_TransferBlock                  0x08001c0c   Section        0  dap.o(i.DAP_SWD_TransferBlock)
    DAP_SWD_TransferBlock                    0x08001c0d   Thumb Code   368  dap.o(i.DAP_SWD_TransferBlock)
    i.DAP_SWD_WriteAbort                     0x08001d84   Section        0  dap.o(i.DAP_SWD_WriteAbort)
    DAP_SWD_WriteAbort                       0x08001d85   Thumb Code    44  dap.o(i.DAP_SWD_WriteAbort)
    i.DAP_SWJ_Clock                          0x08001db0   Section        0  dap.o(i.DAP_SWJ_Clock)
    DAP_SWJ_Clock                            0x08001db1   Thumb Code   106  dap.o(i.DAP_SWJ_Clock)
    i.DAP_SWJ_Pins                           0x08001e28   Section        0  dap.o(i.DAP_SWJ_Pins)
    DAP_SWJ_Pins                             0x08001e29   Thumb Code   484  dap.o(i.DAP_SWJ_Pins)
    i.DAP_SWJ_Sequence                       0x08002028   Section        0  dap.o(i.DAP_SWJ_Sequence)
    DAP_SWJ_Sequence                         0x08002029   Thumb Code    40  dap.o(i.DAP_SWJ_Sequence)
    i.DAP_Setup                              0x08002050   Section        0  dap.o(i.DAP_Setup)
    i.DAP_Transfer                           0x080020a0   Section        0  dap.o(i.DAP_Transfer)
    DAP_Transfer                             0x080020a1   Thumb Code    62  dap.o(i.DAP_Transfer)
    i.DAP_TransferBlock                      0x080020e4   Section        0  dap.o(i.DAP_TransferBlock)
    DAP_TransferBlock                        0x080020e5   Thumb Code    94  dap.o(i.DAP_TransferBlock)
    i.DAP_TransferConfigure                  0x08002148   Section        0  dap.o(i.DAP_TransferConfigure)
    DAP_TransferConfigure                    0x08002149   Thumb Code    40  dap.o(i.DAP_TransferConfigure)
    i.DAP_WriteAbort                         0x08002178   Section        0  dap.o(i.DAP_WriteAbort)
    DAP_WriteAbort                           0x08002179   Thumb Code    60  dap.o(i.DAP_WriteAbort)
    i.DMA1_Channel1_Event                    0x080021b8   Section        0  dma_stm32f10x.o(i.DMA1_Channel1_Event)
    i.DMA1_Channel1_IRQHandler               0x080021bc   Section        0  dma_stm32f10x.o(i.DMA1_Channel1_IRQHandler)
    i.DMA1_Channel2_Event                    0x080021d8   Section        0  dma_stm32f10x.o(i.DMA1_Channel2_Event)
    i.DMA1_Channel2_IRQHandler               0x080021dc   Section        0  dma_stm32f10x.o(i.DMA1_Channel2_IRQHandler)
    i.DMA1_Channel3_Event                    0x080021f8   Section        0  dma_stm32f10x.o(i.DMA1_Channel3_Event)
    i.DMA1_Channel3_IRQHandler               0x080021fc   Section        0  dma_stm32f10x.o(i.DMA1_Channel3_IRQHandler)
    i.DMA1_Channel4_Event                    0x08002218   Section        0  dma_stm32f10x.o(i.DMA1_Channel4_Event)
    i.DMA1_Channel4_IRQHandler               0x0800221c   Section        0  dma_stm32f10x.o(i.DMA1_Channel4_IRQHandler)
    i.DMA1_Channel5_Event                    0x08002238   Section        0  dma_stm32f10x.o(i.DMA1_Channel5_Event)
    i.DMA1_Channel5_IRQHandler               0x0800223c   Section        0  dma_stm32f10x.o(i.DMA1_Channel5_IRQHandler)
    i.DMA1_Channel6_Event                    0x08002258   Section        0  usart_stm32f10x.o(i.DMA1_Channel6_Event)
    i.DMA1_Channel6_IRQHandler               0x08002268   Section        0  dma_stm32f10x.o(i.DMA1_Channel6_IRQHandler)
    i.DMA1_Channel7_Event                    0x08002284   Section        0  usart_stm32f10x.o(i.DMA1_Channel7_Event)
    i.DMA1_Channel7_IRQHandler               0x08002294   Section        0  dma_stm32f10x.o(i.DMA1_Channel7_IRQHandler)
    i.DMA2_Channel1_Event                    0x080022b0   Section        0  dma_stm32f10x.o(i.DMA2_Channel1_Event)
    i.DMA2_Channel1_IRQHandler               0x080022b4   Section        0  dma_stm32f10x.o(i.DMA2_Channel1_IRQHandler)
    i.DMA2_Channel2_Event                    0x080022d0   Section        0  dma_stm32f10x.o(i.DMA2_Channel2_Event)
    i.DMA2_Channel2_IRQHandler               0x080022d4   Section        0  dma_stm32f10x.o(i.DMA2_Channel2_IRQHandler)
    i.DMA2_Channel3_Event                    0x080022f4   Section        0  dma_stm32f10x.o(i.DMA2_Channel3_Event)
    i.DMA2_Channel3_IRQHandler               0x080022f8   Section        0  dma_stm32f10x.o(i.DMA2_Channel3_IRQHandler)
    i.DMA2_Channel4_5_IRQHandler             0x08002318   Section        0  dma_stm32f10x.o(i.DMA2_Channel4_5_IRQHandler)
    i.DMA2_Channel4_Event                    0x08002350   Section        0  dma_stm32f10x.o(i.DMA2_Channel4_Event)
    i.DMA2_Channel5_Event                    0x08002352   Section        0  dma_stm32f10x.o(i.DMA2_Channel5_Event)
    i.DMA_ChannelInitialize                  0x08002354   Section        0  dma_stm32f10x.o(i.DMA_ChannelInitialize)
    i.DMA_ChannelUninitialize                0x08002524   Section        0  dma_stm32f10x.o(i.DMA_ChannelUninitialize)
    i.DMA_ClearFlag                          0x08002688   Section        0  stm32f10x_dma.o(i.DMA_ClearFlag)
    i.DMA_Cmd                                0x080026a4   Section        0  stm32f10x_dma.o(i.DMA_Cmd)
    i.DMA_DeInit                             0x080026bc   Section        0  stm32f10x_dma.o(i.DMA_DeInit)
    i.DMA_GetCurrDataCounter                 0x08002808   Section        0  stm32f10x_dma.o(i.DMA_GetCurrDataCounter)
    i.DMA_ITConfig                           0x08002810   Section        0  stm32f10x_dma.o(i.DMA_ITConfig)
    i.DMA_Init                               0x08002822   Section        0  stm32f10x_dma.o(i.DMA_Init)
    i.DMA_SetCurrDataCounter                 0x0800285e   Section        0  stm32f10x_dma.o(i.DMA_SetCurrDataCounter)
    i.DataStageIn                            0x08002864   Section        0  usb_core.o(i.DataStageIn)
    DataStageIn                              0x08002865   Thumb Code   166  usb_core.o(i.DataStageIn)
    i.DataStageOut                           0x08002924   Section        0  usb_core.o(i.DataStageOut)
    DataStageOut                             0x08002925   Thumb Code   166  usb_core.o(i.DataStageOut)
    i.Data_Setup0                            0x080029e0   Section        0  usb_core.o(i.Data_Setup0)
    Data_Setup0                              0x080029e1   Thumb Code   628  usb_core.o(i.Data_Setup0)
    i.Delayms                                0x08002c78   Section        0  dap.o(i.Delayms)
    i.Do_DAPUSB                              0x08002ca4   Section        0  cmsis-dap.o(i.Do_DAPUSB)
    i.Draw_Logo                              0x08002cac   Section        0  main.o(i.Draw_Logo)
    i.Draw_Main                              0x08002ce8   Section        0  main.o(i.Draw_Main)
    i.Draw_Menu                              0x08003860   Section        0  main.o(i.Draw_Menu)
    i.EP1_IN_Callback                        0x08003a58   Section        0  usb_endp.o(i.EP1_IN_Callback)
    i.EP2_OUT_Callback                       0x08003a60   Section        0  usb_endp.o(i.EP2_OUT_Callback)
    i.EP4_IN_Callback                        0x08003a68   Section        0  usb_endp.o(i.EP4_IN_Callback)
    i.EP6_OUT_Callback                       0x08003a74   Section        0  usb_endp.o(i.EP6_OUT_Callback)
    i.EP_Reset                               0x08003acc   Section        0  usbd_stm32f103_1.o(i.EP_Reset)
    i.EP_Status                              0x08003b0c   Section        0  usbd_stm32f103_1.o(i.EP_Status)
    i.EXTI_ClearITPendingBit                 0x08003b58   Section        0  stm32f10x_exti.o(i.EXTI_ClearITPendingBit)
    i.EXTI_Init                              0x08003b64   Section        0  stm32f10x_exti.o(i.EXTI_Init)
    i.FLASH_ErasePage                        0x08003bf8   Section        0  stm32f10x_flash.o(i.FLASH_ErasePage)
    i.FLASH_GetBank1Status                   0x08003c44   Section        0  stm32f10x_flash.o(i.FLASH_GetBank1Status)
    i.FLASH_Lock                             0x08003c78   Section        0  stm32f10x_flash.o(i.FLASH_Lock)
    i.FLASH_ProgramHalfWord                  0x08003c8c   Section        0  stm32f10x_flash.o(i.FLASH_ProgramHalfWord)
    i.FLASH_SWD                              0x08003ccc   Section        0  main.o(i.FLASH_SWD)
    i.FLASH_Unlock                           0x080040d0   Section        0  stm32f10x_flash.o(i.FLASH_Unlock)
    i.FLASH_WaitForLastOperation             0x080040e8   Section        0  stm32f10x_flash.o(i.FLASH_WaitForLastOperation)
    i.GPIO_AFConfigure                       0x08004110   Section        0  gpio_stm32f10x.o(i.GPIO_AFConfigure)
    i.GPIO_GetPortClockState                 0x080041ac   Section        0  gpio_stm32f10x.o(i.GPIO_GetPortClockState)
    i.GPIO_Init                              0x08004244   Section        0  stm32f10x_gpio.o(i.GPIO_Init)
    i.GPIO_PinConfigure                      0x0800435a   Section        0  gpio_stm32f10x.o(i.GPIO_PinConfigure)
    i.GPIO_PinRemapConfig                    0x080043d4   Section        0  stm32f10x_gpio.o(i.GPIO_PinRemapConfig)
    i.GPIO_PortClock                         0x08004464   Section        0  gpio_stm32f10x.o(i.GPIO_PortClock)
    i.GPIO_ResetBits                         0x080045a0   Section        0  stm32f10x_gpio.o(i.GPIO_ResetBits)
    i.GPIO_SetBits                           0x080045a4   Section        0  stm32f10x_gpio.o(i.GPIO_SetBits)
    i.GetEPRxAddr                            0x080045a8   Section        0  usb_regs.o(i.GetEPRxAddr)
    i.GetEPRxCount                           0x080045c8   Section        0  usb_regs.o(i.GetEPRxCount)
    i.GetEPTxAddr                            0x080045ec   Section        0  usb_regs.o(i.GetEPTxAddr)
    i.GetTraceCount                          0x0800460c   Section        0  swo.o(i.GetTraceCount)
    GetTraceCount                            0x0800460d   Thumb Code    54  swo.o(i.GetTraceCount)
    i.GetTraceSpace                          0x08004654   Section        0  swo.o(i.GetTraceSpace)
    GetTraceSpace                            0x08004655   Thumb Code    36  swo.o(i.GetTraceSpace)
    i.GetTraceStatus                         0x08004680   Section        0  swo.o(i.GetTraceStatus)
    GetTraceStatus                           0x08004681   Thumb Code    34  swo.o(i.GetTraceStatus)
    i.Get_SerialNum                          0x080046b0   Section        0  hw_config.o(i.Get_SerialNum)
    i.HID_ProcessCommand                     0x080046f8   Section        0  usbd_user_hid_1.o(i.HID_ProcessCommand)
    i.HardFault_Handler                      0x080048a8   Section        0  cmsis-dap.o(i.HardFault_Handler)
    i.HexFormatUncode                        0x08004930   Section        0  hex2bin.o(i.HexFormatUncode)
    i.In0_Process                            0x08004a88   Section        0  usb_core.o(i.In0_Process)
    i.Init_DAPUSB                            0x08004af8   Section        0  cmsis-dap.o(i.Init_DAPUSB)
    i.Init_device                            0x08004b34   Section        0  main.o(i.Init_device)
    i.JTAG2SWD                               0x08004bbc   Section        0  swd_host.o(i.JTAG2SWD)
    JTAG2SWD                                 0x08004bbd   Thumb Code    56  swd_host.o(i.JTAG2SWD)
    i.JTAG_IR                                0x08004bf4   Section        0  jtag_dp.o(i.JTAG_IR)
    i.JTAG_IR_Fast                           0x08004c14   Section        0  jtag_dp.o(i.JTAG_IR_Fast)
    i.JTAG_IR_Slow                           0x08004d58   Section        0  jtag_dp.o(i.JTAG_IR_Slow)
    i.JTAG_ReadIDCode                        0x08004fe8   Section        0  jtag_dp.o(i.JTAG_ReadIDCode)
    i.JTAG_Sequence                          0x08005190   Section        0  jtag_dp.o(i.JTAG_Sequence)
    i.JTAG_Transfer                          0x08005230   Section        0  jtag_dp.o(i.JTAG_Transfer)
    i.JTAG_TransferFast                      0x08005254   Section        0  jtag_dp.o(i.JTAG_TransferFast)
    i.JTAG_TransferSlow                      0x080054cc   Section        0  jtag_dp.o(i.JTAG_TransferSlow)
    i.JTAG_WriteAbort                        0x08005994   Section        0  jtag_dp.o(i.JTAG_WriteAbort)
    i.Key_Init                               0x08005c68   Section        0  key.o(i.Key_Init)
    i.LEDS_SETUP                             0x08005cb4   Section        0  cmsis-dap.o(i.LEDS_SETUP)
    i.LED_Init                               0x08005d04   Section        0  led.o(i.LED_Init)
    i.LedConnectedOff                        0x08005d38   Section        0  cmsis-dap.o(i.LedConnectedOff)
    i.LedConnectedOn                         0x08005d48   Section        0  cmsis-dap.o(i.LedConnectedOn)
    i.LedConnectedOut                        0x08005d58   Section        0  cmsis-dap.o(i.LedConnectedOut)
    i.LedRunningOff                          0x08005d84   Section        0  cmsis-dap.o(i.LedRunningOff)
    i.LedRunningOn                           0x08005d94   Section        0  cmsis-dap.o(i.LedRunningOn)
    i.LedRunningOut                          0x08005da4   Section        0  cmsis-dap.o(i.LedRunningOut)
    i.MAL_Config                             0x08005df0   Section        0  hw_config.o(i.MAL_Config)
    i.MAL_GetStatus                          0x08005dfa   Section        0  mass_mal.o(i.MAL_GetStatus)
    i.MAL_Init                               0x08005e10   Section        0  mass_mal.o(i.MAL_Init)
    i.MAL_Read                               0x08005e54   Section        0  mass_mal.o(i.MAL_Read)
    i.MAL_Write                              0x08005e7a   Section        0  mass_mal.o(i.MAL_Write)
    i.MASS_Data_Setup                        0x08005ea8   Section        0  usb_prop.o(i.MASS_Data_Setup)
    i.MASS_GetConfigDescriptor               0x08005f0c   Section        0  usb_prop.o(i.MASS_GetConfigDescriptor)
    i.MASS_GetDeviceDescriptor               0x08005f20   Section        0  usb_prop.o(i.MASS_GetDeviceDescriptor)
    i.MASS_GetStringDescriptor               0x08005f34   Section        0  usb_prop.o(i.MASS_GetStringDescriptor)
    i.MASS_Get_Interface_Setting             0x08005f5c   Section        0  usb_prop.o(i.MASS_Get_Interface_Setting)
    i.MASS_NoData_Setup                      0x08005f74   Section        0  usb_prop.o(i.MASS_NoData_Setup)
    i.MASS_Reset                             0x08005f9c   Section        0  usb_prop.o(i.MASS_Reset)
    i.MASS_Status_In                         0x080060fc   Section        0  usb_prop.o(i.MASS_Status_In)
    i.MASS_Status_Out                        0x0800612c   Section        0  usb_prop.o(i.MASS_Status_Out)
    i.MASS_init                              0x08006130   Section        0  usb_prop.o(i.MASS_init)
    i.Mass_Storage_ClearFeature              0x08006158   Section        0  usb_prop.o(i.Mass_Storage_ClearFeature)
    i.Mass_Storage_In                        0x08006174   Section        0  usb_bot.o(i.Mass_Storage_In)
    i.Mass_Storage_Out                       0x080061e8   Section        0  usb_bot.o(i.Mass_Storage_Out)
    i.Mass_Storage_SetConfiguration          0x08006278   Section        0  usb_prop.o(i.Mass_Storage_SetConfiguration)
    i.Mass_Storage_SetDeviceAddress          0x080062a8   Section        0  usb_prop.o(i.Mass_Storage_SetDeviceAddress)
    i.NOP_Process                            0x080062b4   Section        0  usb_core.o(i.NOP_Process)
    i.NVIC_ClearPendingIRQ                   0x080062b8   Section        0  dma_stm32f10x.o(i.NVIC_ClearPendingIRQ)
    NVIC_ClearPendingIRQ                     0x080062b9   Thumb Code    18  dma_stm32f10x.o(i.NVIC_ClearPendingIRQ)
    i.NVIC_DisableIRQ                        0x080062d0   Section        0  dma_stm32f10x.o(i.NVIC_DisableIRQ)
    NVIC_DisableIRQ                          0x080062d1   Thumb Code    18  dma_stm32f10x.o(i.NVIC_DisableIRQ)
    i.NVIC_EnableIRQ                         0x080062e8   Section        0  dma_stm32f10x.o(i.NVIC_EnableIRQ)
    NVIC_EnableIRQ                           0x080062e9   Thumb Code    22  dma_stm32f10x.o(i.NVIC_EnableIRQ)
    i.NVIC_Init                              0x08006300   Section        0  misc.o(i.NVIC_Init)
    i.NVIC_PriorityGroupConfig               0x08006370   Section        0  misc.o(i.NVIC_PriorityGroupConfig)
    i.NoData_Setup0                          0x08006384   Section        0  usb_core.o(i.NoData_Setup0)
    NoData_Setup0                            0x08006385   Thumb Code   290  usb_core.o(i.NoData_Setup0)
    i.OLED_Clear                             0x080064bc   Section        0  oled.o(i.OLED_Clear)
    i.OLED_DrawBMP                           0x080064fc   Section        0  oled.o(i.OLED_DrawBMP)
    i.OLED_Init                              0x08006574   Section        0  oled.o(i.OLED_Init)
    i.OLED_Set_Pos                           0x080066b4   Section        0  oled.o(i.OLED_Set_Pos)
    i.OLED_ShowChar                          0x080066e4   Section        0  oled.o(i.OLED_ShowChar)
    i.OLED_ShowString                        0x08006758   Section        0  oled.o(i.OLED_ShowString)
    i.OLED_WR_Byte                           0x080067bc   Section        0  oled.o(i.OLED_WR_Byte)
    i.Out0_Process                           0x08006830   Section        0  usb_core.o(i.Out0_Process)
    i.PIN_SWCLK_TCK_CLR                      0x08006880   Section        0  cmsis-dap.o(i.PIN_SWCLK_TCK_CLR)
    PIN_SWCLK_TCK_CLR                        0x08006881   Thumb Code    20  cmsis-dap.o(i.PIN_SWCLK_TCK_CLR)
    i.PIN_SWCLK_TCK_CLR                      0x0800689c   Section        0  sw_dp.o(i.PIN_SWCLK_TCK_CLR)
    PIN_SWCLK_TCK_CLR                        0x0800689d   Thumb Code    20  sw_dp.o(i.PIN_SWCLK_TCK_CLR)
    i.PIN_SWCLK_TCK_CLR                      0x080068b8   Section        0  jtag_dp.o(i.PIN_SWCLK_TCK_CLR)
    PIN_SWCLK_TCK_CLR                        0x080068b9   Thumb Code    20  jtag_dp.o(i.PIN_SWCLK_TCK_CLR)
    i.PIN_SWCLK_TCK_IN                       0x080068d4   Section        0  dap.o(i.PIN_SWCLK_TCK_IN)
    PIN_SWCLK_TCK_IN                         0x080068d5   Thumb Code    22  dap.o(i.PIN_SWCLK_TCK_IN)
    i.PIN_SWCLK_TCK_SET                      0x080068f4   Section        0  cmsis-dap.o(i.PIN_SWCLK_TCK_SET)
    PIN_SWCLK_TCK_SET                        0x080068f5   Thumb Code    20  cmsis-dap.o(i.PIN_SWCLK_TCK_SET)
    i.PIN_SWCLK_TCK_SET                      0x08006910   Section        0  sw_dp.o(i.PIN_SWCLK_TCK_SET)
    PIN_SWCLK_TCK_SET                        0x08006911   Thumb Code    20  sw_dp.o(i.PIN_SWCLK_TCK_SET)
    i.PIN_SWCLK_TCK_SET                      0x0800692c   Section        0  jtag_dp.o(i.PIN_SWCLK_TCK_SET)
    PIN_SWCLK_TCK_SET                        0x0800692d   Thumb Code    20  jtag_dp.o(i.PIN_SWCLK_TCK_SET)
    i.PIN_SWDIO_IN                           0x08006948   Section        0  cmsis-dap.o(i.PIN_SWDIO_IN)
    PIN_SWDIO_IN                             0x08006949   Thumb Code    40  cmsis-dap.o(i.PIN_SWDIO_IN)
    i.PIN_SWDIO_IN                           0x08006978   Section        0  sw_dp.o(i.PIN_SWDIO_IN)
    PIN_SWDIO_IN                             0x08006979   Thumb Code    40  sw_dp.o(i.PIN_SWDIO_IN)
    i.PIN_SWDIO_OUT                          0x080069a8   Section        0  cmsis-dap.o(i.PIN_SWDIO_OUT)
    PIN_SWDIO_OUT                            0x080069a9   Thumb Code    48  cmsis-dap.o(i.PIN_SWDIO_OUT)
    i.PIN_SWDIO_OUT                          0x080069e0   Section        0  sw_dp.o(i.PIN_SWDIO_OUT)
    PIN_SWDIO_OUT                            0x080069e1   Thumb Code    48  sw_dp.o(i.PIN_SWDIO_OUT)
    i.PIN_SWDIO_OUT_DISABLE                  0x08006a18   Section        0  sw_dp.o(i.PIN_SWDIO_OUT_DISABLE)
    PIN_SWDIO_OUT_DISABLE                    0x08006a19   Thumb Code    52  sw_dp.o(i.PIN_SWDIO_OUT_DISABLE)
    i.PIN_SWDIO_OUT_ENABLE                   0x08006a54   Section        0  cmsis-dap.o(i.PIN_SWDIO_OUT_ENABLE)
    PIN_SWDIO_OUT_ENABLE                     0x08006a55   Thumb Code    52  cmsis-dap.o(i.PIN_SWDIO_OUT_ENABLE)
    i.PIN_SWDIO_OUT_ENABLE                   0x08006a90   Section        0  sw_dp.o(i.PIN_SWDIO_OUT_ENABLE)
    PIN_SWDIO_OUT_ENABLE                     0x08006a91   Thumb Code    52  sw_dp.o(i.PIN_SWDIO_OUT_ENABLE)
    i.PIN_SWDIO_TMS_CLR                      0x08006acc   Section        0  jtag_dp.o(i.PIN_SWDIO_TMS_CLR)
    PIN_SWDIO_TMS_CLR                        0x08006acd   Thumb Code    30  jtag_dp.o(i.PIN_SWDIO_TMS_CLR)
    i.PIN_SWDIO_TMS_IN                       0x08006af4   Section        0  dap.o(i.PIN_SWDIO_TMS_IN)
    PIN_SWDIO_TMS_IN                         0x08006af5   Thumb Code    32  dap.o(i.PIN_SWDIO_TMS_IN)
    i.PIN_SWDIO_TMS_SET                      0x08006b1c   Section        0  jtag_dp.o(i.PIN_SWDIO_TMS_SET)
    PIN_SWDIO_TMS_SET                        0x08006b1d   Thumb Code    30  jtag_dp.o(i.PIN_SWDIO_TMS_SET)
    i.PIN_TDI_IN                             0x08006b44   Section        0  dap.o(i.PIN_TDI_IN)
    PIN_TDI_IN                               0x08006b45   Thumb Code    10  dap.o(i.PIN_TDI_IN)
    i.PIN_TDI_OUT                            0x08006b54   Section        0  jtag_dp.o(i.PIN_TDI_OUT)
    PIN_TDI_OUT                              0x08006b55   Thumb Code    24  jtag_dp.o(i.PIN_TDI_OUT)
    i.PIN_TDO_IN                             0x08006b70   Section        0  jtag_dp.o(i.PIN_TDO_IN)
    PIN_TDO_IN                               0x08006b71   Thumb Code    10  jtag_dp.o(i.PIN_TDO_IN)
    i.PMAToUserBufferCopy                    0x08006b80   Section        0  usb_mem.o(i.PMAToUserBufferCopy)
    i.PORT_JTAG_SETUP                        0x08006ba8   Section        0  cmsis-dap.o(i.PORT_JTAG_SETUP)
    i.PORT_OFF                               0x08006c10   Section        0  cmsis-dap.o(i.PORT_OFF)
    i.PORT_SWD_SETUP                         0x08006c68   Section        0  cmsis-dap.o(i.PORT_SWD_SETUP)
    i.PORT_USB_CONNECT_SETUP                 0x08006cd0   Section        0  cmsis-dap.o(i.PORT_USB_CONNECT_SETUP)
    i.Post0_Process                          0x08006cfc   Section        0  usb_core.o(i.Post0_Process)
    i.PowerOn                                0x08006d44   Section        0  usb_pwr.o(i.PowerOn)
    i.RCC_AHBPeriphClockCmd                  0x08006d84   Section        0  stm32f10x_rcc.o(i.RCC_AHBPeriphClockCmd)
    i.RCC_APB1PeriphClockCmd                 0x08006da4   Section        0  stm32f10x_rcc.o(i.RCC_APB1PeriphClockCmd)
    i.RCC_APB2PeriphClockCmd                 0x08006dc4   Section        0  stm32f10x_rcc.o(i.RCC_APB2PeriphClockCmd)
    i.RCC_GetClocksFreq                      0x08006de4   Section        0  stm32f10x_rcc.o(i.RCC_GetClocksFreq)
    i.RCC_USBCLKConfig                       0x08006eb8   Section        0  stm32f10x_rcc.o(i.RCC_USBCLKConfig)
    i.RST_Transfer                           0x08006ec4   Section        0  cmsis-dap.o(i.RST_Transfer)
    i.Read_Memory                            0x08007254   Section        0  memory.o(i.Read_Memory)
    i.SCSI_Address_Management                0x08007358   Section        0  usb_scsi.o(i.SCSI_Address_Management)
    i.SCSI_Format_Cmd                        0x080073e4   Section        0  usb_scsi.o(i.SCSI_Format_Cmd)
    i.SCSI_Inquiry_Cmd                       0x08007414   Section        0  usb_scsi.o(i.SCSI_Inquiry_Cmd)
    i.SCSI_Invalid_Cmd                       0x0800745c   Section        0  usb_scsi.o(i.SCSI_Invalid_Cmd)
    i.SCSI_ModeSense10_Cmd                   0x080074a0   Section        0  usb_scsi.o(i.SCSI_ModeSense10_Cmd)
    i.SCSI_ModeSense6_Cmd                    0x080074b4   Section        0  usb_scsi.o(i.SCSI_ModeSense6_Cmd)
    i.SCSI_Read10_Cmd                        0x080074c8   Section        0  usb_scsi.o(i.SCSI_Read10_Cmd)
    i.SCSI_ReadCapacity10_Cmd                0x08007540   Section        0  usb_scsi.o(i.SCSI_ReadCapacity10_Cmd)
    i.SCSI_ReadFormatCapacity_Cmd            0x080075dc   Section        0  usb_scsi.o(i.SCSI_ReadFormatCapacity_Cmd)
    i.SCSI_RequestSense_Cmd                  0x08007664   Section        0  usb_scsi.o(i.SCSI_RequestSense_Cmd)
    i.SCSI_Start_Stop_Unit_Cmd               0x0800768c   Section        0  usb_scsi.o(i.SCSI_Start_Stop_Unit_Cmd)
    i.SCSI_TestUnitReady_Cmd                 0x0800769c   Section        0  usb_scsi.o(i.SCSI_TestUnitReady_Cmd)
    i.SCSI_Verify10_Cmd                      0x080076d4   Section        0  usb_scsi.o(i.SCSI_Verify10_Cmd)
    i.SCSI_Write10_Cmd                       0x08007714   Section        0  usb_scsi.o(i.SCSI_Write10_Cmd)
    i.SPI2_Init                              0x0800778c   Section        0  spi.o(i.SPI2_Init)
    i.SPI2_ReadWriteByte                     0x08007820   Section        0  spi.o(i.SPI2_ReadWriteByte)
    i.SPI2_SetSpeed                          0x08007874   Section        0  spi.o(i.SPI2_SetSpeed)
    i.SPI_Cmd                                0x0800789c   Section        0  stm32f10x_spi.o(i.SPI_Cmd)
    i.SPI_I2S_GetFlagStatus                  0x080078b4   Section        0  stm32f10x_spi.o(i.SPI_I2S_GetFlagStatus)
    i.SPI_I2S_ReceiveData                    0x080078c6   Section        0  stm32f10x_spi.o(i.SPI_I2S_ReceiveData)
    i.SPI_I2S_SendData                       0x080078cc   Section        0  stm32f10x_spi.o(i.SPI_I2S_SendData)
    i.SPI_Init                               0x080078d0   Section        0  stm32f10x_spi.o(i.SPI_Init)
    i.SWD_Transfer                           0x0800790c   Section        0  sw_dp.o(i.SWD_Transfer)
    i.SWD_TransferFast                       0x08007930   Section        0  sw_dp.o(i.SWD_TransferFast)
    i.SWD_TransferSlow                       0x08007c4c   Section        0  sw_dp.o(i.SWD_TransferSlow)
    i.SWJ_Sequence                           0x08008424   Section        0  sw_dp.o(i.SWJ_Sequence)
    i.SWO_Baudrate                           0x080084d0   Section        0  swo.o(i.SWO_Baudrate)
    i.SWO_Control                            0x0800852c   Section        0  swo.o(i.SWO_Control)
    i.SWO_Data                               0x0800858c   Section        0  swo.o(i.SWO_Data)
    i.SWO_Mode                               0x0800865c   Section        0  swo.o(i.SWO_Mode)
    i.SWO_Status                             0x080086cc   Section        0  swo.o(i.SWO_Status)
    i.SWO_Transport                          0x0800871c   Section        0  swo.o(i.SWO_Transport)
    i.Scan_Key                               0x08008764   Section        0  main.o(i.Scan_Key)
    i.SetBTABLE                              0x080087e4   Section        0  usb_regs.o(i.SetBTABLE)
    i.SetDeviceAddress                       0x080087f4   Section        0  usb_core.o(i.SetDeviceAddress)
    i.SetEPRxAddr                            0x08008844   Section        0  usb_regs.o(i.SetEPRxAddr)
    i.SetEPRxCount                           0x08008868   Section        0  usb_regs.o(i.SetEPRxCount)
    i.SetEPRxStatus                          0x080088b4   Section        0  usb_regs.o(i.SetEPRxStatus)
    i.SetEPRxValid                           0x080088f4   Section        0  usb_regs.o(i.SetEPRxValid)
    i.SetEPTxAddr                            0x08008928   Section        0  usb_regs.o(i.SetEPTxAddr)
    i.SetEPTxCount                           0x08008948   Section        0  usb_regs.o(i.SetEPTxCount)
    i.SetEPTxStatus                          0x08008964   Section        0  usb_regs.o(i.SetEPTxStatus)
    i.SetEPTxValid                           0x080089a4   Section        0  usb_regs.o(i.SetEPTxValid)
    i.SetEPType                              0x080089d8   Section        0  usb_regs.o(i.SetEPType)
    i.SetSysClock                            0x080089fc   Section        0  system_stm32f10x.o(i.SetSysClock)
    SetSysClock                              0x080089fd   Thumb Code     8  system_stm32f10x.o(i.SetSysClock)
    i.SetSysClockTo72                        0x08008a04   Section        0  system_stm32f10x.o(i.SetSysClockTo72)
    SetSysClockTo72                          0x08008a05   Thumb Code   214  system_stm32f10x.o(i.SetSysClockTo72)
    i.SetTraceError                          0x08008ae4   Section        0  swo.o(i.SetTraceError)
    SetTraceError                            0x08008ae5   Thumb Code    20  swo.o(i.SetTraceError)
    i.Set_CSW                                0x08008b00   Section        0  usb_bot.o(i.Set_CSW)
    i.Set_Scsi_Sense_Data                    0x08008b3c   Section        0  usb_scsi.o(i.Set_Scsi_Sense_Data)
    i.Set_System                             0x08008b48   Section        0  hw_config.o(i.Set_System)
    i.Set_USBClock                           0x08008b64   Section        0  hw_config.o(i.Set_USBClock)
    i.Setup0_Process                         0x08008b78   Section        0  usb_core.o(i.Setup0_Process)
    i.Standard_ClearFeature                  0x08008c30   Section        0  usb_core.o(i.Standard_ClearFeature)
    i.Standard_GetConfiguration              0x08008d9c   Section        0  usb_core.o(i.Standard_GetConfiguration)
    i.Standard_GetDescriptorData             0x08008dc8   Section        0  usb_core.o(i.Standard_GetDescriptorData)
    i.Standard_GetInterface                  0x08008dec   Section        0  usb_core.o(i.Standard_GetInterface)
    i.Standard_GetStatus                     0x08008e18   Section        0  usb_core.o(i.Standard_GetStatus)
    i.Standard_SetConfiguration              0x08008f18   Section        0  usb_core.o(i.Standard_SetConfiguration)
    i.Standard_SetDeviceFeature              0x08008f60   Section        0  usb_core.o(i.Standard_SetDeviceFeature)
    i.Standard_SetEndPointFeature            0x08008f88   Section        0  usb_core.o(i.Standard_SetEndPointFeature)
    i.Standard_SetInterface                  0x08009058   Section        0  usb_core.o(i.Standard_SetInterface)
    i.SysTick_CLKSourceConfig                0x080090c4   Section        0  misc.o(i.SysTick_CLKSourceConfig)
    i.SysTick_Handler                        0x080090ec   Section        0  cmsis-dap.o(i.SysTick_Handler)
    i.SystemInit                             0x08009160   Section        0  system_stm32f10x.o(i.SystemInit)
    i.Transfer_Data_Request                  0x080091c0   Section        0  usb_bot.o(i.Transfer_Data_Request)
    i.UART_Callback                          0x080091f8   Section        0  usbd_user_cdc_acm.o(i.UART_Callback)
    UART_Callback                            0x080091f9   Thumb Code    80  usbd_user_cdc_acm.o(i.UART_Callback)
    i.UART_SWO_Baudrate                      0x0800925c   Section        0  swo.o(i.UART_SWO_Baudrate)
    i.UART_SWO_Capture                       0x08009328   Section        0  swo.o(i.UART_SWO_Capture)
    i.UART_SWO_Control                       0x08009340   Section        0  swo.o(i.UART_SWO_Control)
    i.UART_SWO_Mode                          0x080093c8   Section        0  swo.o(i.UART_SWO_Mode)
    i.UART_SWO_Update                        0x08009424   Section        0  swo.o(i.UART_SWO_Update)
    i.USART1_IRQHandler                      0x0800943c   Section        0  usart.o(i.USART1_IRQHandler)
    i.USART2_Control                         0x08009494   Section        0  usart_stm32f10x.o(i.USART2_Control)
    USART2_Control                           0x08009495   Thumb Code    18  usart_stm32f10x.o(i.USART2_Control)
    i.USART2_GetCapabilities                 0x080094ac   Section        0  usart_stm32f10x.o(i.USART2_GetCapabilities)
    USART2_GetCapabilities                   0x080094ad   Thumb Code    12  usart_stm32f10x.o(i.USART2_GetCapabilities)
    i.USART2_GetModemStatus                  0x080094bc   Section        0  usart_stm32f10x.o(i.USART2_GetModemStatus)
    USART2_GetModemStatus                    0x080094bd   Thumb Code    12  usart_stm32f10x.o(i.USART2_GetModemStatus)
    i.USART2_GetRxCount                      0x080094cc   Section        0  usart_stm32f10x.o(i.USART2_GetRxCount)
    USART2_GetRxCount                        0x080094cd   Thumb Code    10  usart_stm32f10x.o(i.USART2_GetRxCount)
    i.USART2_GetStatus                       0x080094dc   Section        0  usart_stm32f10x.o(i.USART2_GetStatus)
    USART2_GetStatus                         0x080094dd   Thumb Code    12  usart_stm32f10x.o(i.USART2_GetStatus)
    i.USART2_GetTxCount                      0x080094ec   Section        0  usart_stm32f10x.o(i.USART2_GetTxCount)
    USART2_GetTxCount                        0x080094ed   Thumb Code    10  usart_stm32f10x.o(i.USART2_GetTxCount)
    i.USART2_IRQHandler                      0x080094fc   Section        0  usart_stm32f10x.o(i.USART2_IRQHandler)
    i.USART2_Initialize                      0x0800950c   Section        0  usart_stm32f10x.o(i.USART2_Initialize)
    USART2_Initialize                        0x0800950d   Thumb Code    14  usart_stm32f10x.o(i.USART2_Initialize)
    i.USART2_PowerControl                    0x08009520   Section        0  usart_stm32f10x.o(i.USART2_PowerControl)
    USART2_PowerControl                      0x08009521   Thumb Code    14  usart_stm32f10x.o(i.USART2_PowerControl)
    i.USART2_Receive                         0x08009534   Section        0  usart_stm32f10x.o(i.USART2_Receive)
    USART2_Receive                           0x08009535   Thumb Code    18  usart_stm32f10x.o(i.USART2_Receive)
    i.USART2_Send                            0x0800954c   Section        0  usart_stm32f10x.o(i.USART2_Send)
    USART2_Send                              0x0800954d   Thumb Code    18  usart_stm32f10x.o(i.USART2_Send)
    i.USART2_SetModemControl                 0x08009564   Section        0  usart_stm32f10x.o(i.USART2_SetModemControl)
    USART2_SetModemControl                   0x08009565   Thumb Code    14  usart_stm32f10x.o(i.USART2_SetModemControl)
    i.USART2_Transfer                        0x08009578   Section        0  usart_stm32f10x.o(i.USART2_Transfer)
    USART2_Transfer                          0x08009579   Thumb Code    22  usart_stm32f10x.o(i.USART2_Transfer)
    i.USART2_Uninitialize                    0x08009594   Section        0  usart_stm32f10x.o(i.USART2_Uninitialize)
    USART2_Uninitialize                      0x08009595   Thumb Code    10  usart_stm32f10x.o(i.USART2_Uninitialize)
    i.USART_Callback                         0x080095a4   Section        0  swo.o(i.USART_Callback)
    USART_Callback                           0x080095a5   Thumb Code    94  swo.o(i.USART_Callback)
    i.USART_ClearITPendingBit                0x08009618   Section        0  stm32f10x_usart.o(i.USART_ClearITPendingBit)
    i.USART_Cmd                              0x08009636   Section        0  stm32f10x_usart.o(i.USART_Cmd)
    i.USART_Control                          0x08009650   Section        0  usart_stm32f10x.o(i.USART_Control)
    USART_Control                            0x08009651   Thumb Code  2082  usart_stm32f10x.o(i.USART_Control)
    i.USART_DMACmd                           0x08009e72   Section        0  stm32f10x_usart.o(i.USART_DMACmd)
    i.USART_GetCapabilities                  0x08009e84   Section        0  usart_stm32f10x.o(i.USART_GetCapabilities)
    USART_GetCapabilities                    0x08009e85   Thumb Code     6  usart_stm32f10x.o(i.USART_GetCapabilities)
    i.USART_GetITStatus                      0x08009e8a   Section        0  stm32f10x_usart.o(i.USART_GetITStatus)
    i.USART_GetModemStatus                   0x08009ede   Section        0  usart_stm32f10x.o(i.USART_GetModemStatus)
    USART_GetModemStatus                     0x08009edf   Thumb Code   144  usart_stm32f10x.o(i.USART_GetModemStatus)
    i.USART_GetRxCount                       0x08009f6e   Section        0  usart_stm32f10x.o(i.USART_GetRxCount)
    USART_GetRxCount                         0x08009f6f   Thumb Code    26  usart_stm32f10x.o(i.USART_GetRxCount)
    i.USART_GetStatus                        0x08009f88   Section        0  usart_stm32f10x.o(i.USART_GetStatus)
    USART_GetStatus                          0x08009f89   Thumb Code   212  usart_stm32f10x.o(i.USART_GetStatus)
    i.USART_GetTxCount                       0x0800a05c   Section        0  usart_stm32f10x.o(i.USART_GetTxCount)
    USART_GetTxCount                         0x0800a05d   Thumb Code    26  usart_stm32f10x.o(i.USART_GetTxCount)
    i.USART_IRQHandler                       0x0800a076   Section        0  usart_stm32f10x.o(i.USART_IRQHandler)
    i.USART_ITConfig                         0x0800a2e6   Section        0  stm32f10x_usart.o(i.USART_ITConfig)
    i.USART_Init                             0x0800a330   Section        0  stm32f10x_usart.o(i.USART_Init)
    i.USART_Initialize                       0x0800a408   Section        0  usart_stm32f10x.o(i.USART_Initialize)
    USART_Initialize                         0x0800a409   Thumb Code   162  usart_stm32f10x.o(i.USART_Initialize)
    i.USART_PeripheralReset                  0x0800a4ac   Section        0  usart_stm32f10x.o(i.USART_PeripheralReset)
    USART_PeripheralReset                    0x0800a4ad   Thumb Code   190  usart_stm32f10x.o(i.USART_PeripheralReset)
    i.USART_PowerControl                     0x0800a584   Section        0  usart_stm32f10x.o(i.USART_PowerControl)
    USART_PowerControl                       0x0800a585   Thumb Code   530  usart_stm32f10x.o(i.USART_PowerControl)
    i.USART_RX_DMA_Complete                  0x0800a7b8   Section        0  usart_stm32f10x.o(i.USART_RX_DMA_Complete)
    i.USART_Receive                          0x0800a83a   Section        0  usart_stm32f10x.o(i.USART_Receive)
    USART_Receive                            0x0800a83b   Thumb Code   290  usart_stm32f10x.o(i.USART_Receive)
    i.USART_ReceiveData                      0x0800a95c   Section        0  stm32f10x_usart.o(i.USART_ReceiveData)
    i.USART_Send                             0x0800a966   Section        0  usart_stm32f10x.o(i.USART_Send)
    USART_Send                               0x0800a967   Thumb Code   246  usart_stm32f10x.o(i.USART_Send)
    i.USART_SetModemControl                  0x0800aa5c   Section        0  usart_stm32f10x.o(i.USART_SetModemControl)
    USART_SetModemControl                    0x0800aa5d   Thumb Code   156  usart_stm32f10x.o(i.USART_SetModemControl)
    i.USART_TX_DMA_Complete                  0x0800aaf8   Section        0  usart_stm32f10x.o(i.USART_TX_DMA_Complete)
    i.USART_Transfer                         0x0800ab42   Section        0  usart_stm32f10x.o(i.USART_Transfer)
    USART_Transfer                           0x0800ab43   Thumb Code   106  usart_stm32f10x.o(i.USART_Transfer)
    i.USART_Uninitialize                     0x0800abac   Section        0  usart_stm32f10x.o(i.USART_Uninitialize)
    USART_Uninitialize                       0x0800abad   Thumb Code   108  usart_stm32f10x.o(i.USART_Uninitialize)
    i.USARTx_GetVersion                      0x0800ac18   Section        0  usart_stm32f10x.o(i.USARTx_GetVersion)
    USARTx_GetVersion                        0x0800ac19   Thumb Code    10  usart_stm32f10x.o(i.USARTx_GetVersion)
    i.USBD_CDC_ACM_ClearCommFeature          0x0800ac28   Section        0  usbd_cdc_acm.o(i.USBD_CDC_ACM_ClearCommFeature)
    i.USBD_CDC_ACM_DataRead                  0x0800ac2c   Section        0  usbd_cdc_acm.o(i.USBD_CDC_ACM_DataRead)
    i.USBD_CDC_ACM_DataReceived              0x0800ac60   Section        0  usbd_user_cdc_acm.o(i.USBD_CDC_ACM_DataReceived)
    i.USBD_CDC_ACM_EP_BULKIN_Event           0x0800ac98   Section        0  usbd_cdc_acm.o(i.USBD_CDC_ACM_EP_BULKIN_Event)
    i.USBD_CDC_ACM_EP_BULKIN_HandleData      0x0800acb4   Section        0  usbd_cdc_acm.o(i.USBD_CDC_ACM_EP_BULKIN_HandleData)
    USBD_CDC_ACM_EP_BULKIN_HandleData        0x0800acb5   Thumb Code   144  usbd_cdc_acm.o(i.USBD_CDC_ACM_EP_BULKIN_HandleData)
    i.USBD_CDC_ACM_EP_BULKOUT_Event          0x0800ad5c   Section        0  usbd_cdc_acm.o(i.USBD_CDC_ACM_EP_BULKOUT_Event)
    i.USBD_CDC_ACM_EP_BULKOUT_HandleData     0x0800ad90   Section        0  usbd_cdc_acm.o(i.USBD_CDC_ACM_EP_BULKOUT_HandleData)
    USBD_CDC_ACM_EP_BULKOUT_HandleData       0x0800ad91   Thumb Code    78  usbd_cdc_acm.o(i.USBD_CDC_ACM_EP_BULKOUT_HandleData)
    i.USBD_CDC_ACM_EP_BULK_Event             0x0800adf8   Section        0  usbd_cdc_acm.o(i.USBD_CDC_ACM_EP_BULK_Event)
    i.USBD_CDC_ACM_EP_INTIN_Event            0x0800ae16   Section        0  usbd_cdc_acm.o(i.USBD_CDC_ACM_EP_INTIN_Event)
    i.USBD_CDC_ACM_GetCommFeature            0x0800ae18   Section        0  usbd_cdc_acm.o(i.USBD_CDC_ACM_GetCommFeature)
    i.USBD_CDC_ACM_GetEncapsulatedResponse   0x0800ae1c   Section        0  usbd_cdc_acm.o(i.USBD_CDC_ACM_GetEncapsulatedResponse)
    i.USBD_CDC_ACM_GetLineCoding             0x0800ae20   Section        0  usbd_cdc_acm.o(i.USBD_CDC_ACM_GetLineCoding)
    i.USBD_CDC_ACM_Initialize                0x0800ae58   Section        0  usbd_cdc_acm.o(i.USBD_CDC_ACM_Initialize)
    i.USBD_CDC_ACM_PortGetLineCoding         0x0800ae60   Section        0  usbd_user_cdc_acm.o(i.USBD_CDC_ACM_PortGetLineCoding)
    i.USBD_CDC_ACM_PortInitialize            0x0800ae78   Section        0  usbd_user_cdc_acm.o(i.USBD_CDC_ACM_PortInitialize)
    i.USBD_CDC_ACM_PortReset                 0x0800ae98   Section        0  usbd_user_cdc_acm.o(i.USBD_CDC_ACM_PortReset)
    i.USBD_CDC_ACM_PortSetControlLineState   0x0800aeb8   Section        0  usbd_user_cdc_acm.o(i.USBD_CDC_ACM_PortSetControlLineState)
    i.USBD_CDC_ACM_PortSetLineCoding         0x0800aec0   Section        0  usbd_user_cdc_acm.o(i.USBD_CDC_ACM_PortSetLineCoding)
    i.USBD_CDC_ACM_Reset                     0x0800afd8   Section        0  usbd_cdc_acm.o(i.USBD_CDC_ACM_Reset)
    i.USBD_CDC_ACM_Reset_Event               0x0800b028   Section        0  usbd_cdc_acm.o(i.USBD_CDC_ACM_Reset_Event)
    i.USBD_CDC_ACM_SOF_Event                 0x0800b030   Section        0  usbd_cdc_acm.o(i.USBD_CDC_ACM_SOF_Event)
    i.USBD_CDC_ACM_SendBreak                 0x0800b098   Section        0  usbd_cdc_acm.o(i.USBD_CDC_ACM_SendBreak)
    i.USBD_CDC_ACM_SendEncapsulatedCommand   0x0800b09c   Section        0  usbd_cdc_acm.o(i.USBD_CDC_ACM_SendEncapsulatedCommand)
    i.USBD_CDC_ACM_SetCommFeature            0x0800b0a0   Section        0  usbd_cdc_acm.o(i.USBD_CDC_ACM_SetCommFeature)
    i.USBD_CDC_ACM_SetControlLineState       0x0800b0a4   Section        0  usbd_cdc_acm.o(i.USBD_CDC_ACM_SetControlLineState)
    i.USBD_CDC_ACM_SetLineCoding             0x0800b0b4   Section        0  usbd_cdc_acm.o(i.USBD_CDC_ACM_SetLineCoding)
    i.USBD_ClrStallEP                        0x0800b0e0   Section        0  usbd_stm32f103_1.o(i.USBD_ClrStallEP)
    i.USBD_ConfigEP                          0x0800b0f8   Section        0  usbd_stm32f103_1.o(i.USBD_ConfigEP)
    i.USBD_Configure                         0x0800b1c0   Section        0  usbd_stm32f103_1.o(i.USBD_Configure)
    i.USBD_Configure_Event                   0x0800b1d8   Section        0  usb_config_1.o(i.USBD_Configure_Event)
    i.USBD_Connect                           0x0800b1dc   Section        0  usbd_stm32f103_1.o(i.USBD_Connect)
    i.USBD_DataInStage                       0x0800b214   Section        0  usbd_core.o(i.USBD_DataInStage)
    i.USBD_DataOutStage                      0x0800b24c   Section        0  usbd_core.o(i.USBD_DataOutStage)
    i.USBD_DirCtrlEP                         0x0800b26c   Section        0  usbd_stm32f103_1.o(i.USBD_DirCtrlEP)
    i.USBD_DisableEP                         0x0800b26e   Section        0  usbd_stm32f103_1.o(i.USBD_DisableEP)
    i.USBD_EnableEP                          0x0800b27c   Section        0  usbd_stm32f103_1.o(i.USBD_EnableEP)
    i.USBD_EndPoint0                         0x0800b28c   Section        0  usbd_core.o(i.USBD_EndPoint0)
    i.USBD_EndPoint0_Out_ADC_ReqToEP         0x0800b4f0   Section        0  usb_config_1.o(i.USBD_EndPoint0_Out_ADC_ReqToEP)
    i.USBD_EndPoint0_Out_ADC_ReqToIF         0x0800b4f4   Section        0  usb_config_1.o(i.USBD_EndPoint0_Out_ADC_ReqToIF)
    i.USBD_EndPoint0_Out_CDC_ReqToIF         0x0800b4f8   Section        0  usbd_core_cdc.o(i.USBD_EndPoint0_Out_CDC_ReqToIF)
    i.USBD_EndPoint0_Out_CLS_ReqToDEV        0x0800b548   Section        0  usb_config_1.o(i.USBD_EndPoint0_Out_CLS_ReqToDEV)
    i.USBD_EndPoint0_Out_CLS_ReqToEP         0x0800b54c   Section        0  usb_config_1.o(i.USBD_EndPoint0_Out_CLS_ReqToEP)
    i.USBD_EndPoint0_Out_CLS_ReqToIF         0x0800b550   Section        0  usb_config_1.o(i.USBD_EndPoint0_Out_CLS_ReqToIF)
    i.USBD_EndPoint0_Out_HID_ReqToIF         0x0800b554   Section        0  usbd_core_hid.o(i.USBD_EndPoint0_Out_HID_ReqToIF)
    i.USBD_EndPoint0_Setup_ADC_ReqToEP       0x0800b584   Section        0  usb_config_1.o(i.USBD_EndPoint0_Setup_ADC_ReqToEP)
    i.USBD_EndPoint0_Setup_ADC_ReqToIF       0x0800b588   Section        0  usb_config_1.o(i.USBD_EndPoint0_Setup_ADC_ReqToIF)
    i.USBD_EndPoint0_Setup_CDC_ReqToIF       0x0800b58c   Section        0  usbd_core_cdc.o(i.USBD_EndPoint0_Setup_CDC_ReqToIF)
    i.USBD_EndPoint0_Setup_CLS_ReqToDEV      0x0800b62c   Section        0  usb_config_1.o(i.USBD_EndPoint0_Setup_CLS_ReqToDEV)
    i.USBD_EndPoint0_Setup_CLS_ReqToEP       0x0800b630   Section        0  usb_config_1.o(i.USBD_EndPoint0_Setup_CLS_ReqToEP)
    i.USBD_EndPoint0_Setup_CLS_ReqToIF       0x0800b634   Section        0  usb_config_1.o(i.USBD_EndPoint0_Setup_CLS_ReqToIF)
    i.USBD_EndPoint0_Setup_HID_ReqToIF       0x0800b638   Section        0  usbd_core_hid.o(i.USBD_EndPoint0_Setup_HID_ReqToIF)
    i.USBD_EndPoint0_Setup_MSC_ReqToIF       0x0800b6e4   Section        0  usb_config_1.o(i.USBD_EndPoint0_Setup_MSC_ReqToIF)
    i.USBD_HID_Configure_Event               0x0800b6e8   Section        0  usbd_hid.o(i.USBD_HID_Configure_Event)
    i.USBD_HID_EP_INTIN_Event                0x0800b710   Section        0  usbd_hid.o(i.USBD_HID_EP_INTIN_Event)
    i.USBD_HID_EP_INTOUT_Event               0x0800b874   Section        0  usbd_hid.o(i.USBD_HID_EP_INTOUT_Event)
    i.USBD_HID_EP_INT_Event                  0x0800b8f8   Section        0  usbd_hid.o(i.USBD_HID_EP_INT_Event)
    i.USBD_HID_GetIdle                       0x0800b918   Section        0  usbd_hid.o(i.USBD_HID_GetIdle)
    i.USBD_HID_GetProtocol                   0x0800b934   Section        0  usbd_hid.o(i.USBD_HID_GetProtocol)
    i.USBD_HID_GetReport                     0x0800b948   Section        0  usbd_hid.o(i.USBD_HID_GetReport)
    i.USBD_HID_SOF_Event                     0x0800b984   Section        0  usbd_hid.o(i.USBD_HID_SOF_Event)
    i.USBD_HID_SetIdle                       0x0800bacc   Section        0  usbd_hid.o(i.USBD_HID_SetIdle)
    i.USBD_HID_SetProtocol                   0x0800bb08   Section        0  usbd_hid.o(i.USBD_HID_SetProtocol)
    i.USBD_HID_SetReport                     0x0800bb1c   Section        0  usbd_hid.o(i.USBD_HID_SetReport)
    i.USBD_Init                              0x0800bb5c   Section        0  usbd_stm32f103_1.o(i.USBD_Init)
    i.USBD_IntrEna                           0x0800bb78   Section        0  usbd_stm32f103_1.o(i.USBD_IntrEna)
    i.USBD_RTX_TaskInit                      0x0800bb8e   Section        0  usb_config_1.o(i.USBD_RTX_TaskInit)
    i.USBD_ReadEP                            0x0800bb90   Section        0  usbd_stm32f103_1.o(i.USBD_ReadEP)
    i.USBD_ReqClrFeature_MSC                 0x0800bbf0   Section        0  usb_config_1.o(i.USBD_ReqClrFeature_MSC)
    i.USBD_ReqGetDescriptor                  0x0800bbf4   Section        0  usbd_core.o(i.USBD_ReqGetDescriptor)
    i.USBD_ReqGetDescriptor_HID              0x0800bd24   Section        0  usbd_core_hid.o(i.USBD_ReqGetDescriptor_HID)
    i.USBD_ReqGetStatus                      0x0800bda8   Section        0  usbd_core.o(i.USBD_ReqGetStatus)
    i.USBD_ReqSetClrFeature                  0x0800be24   Section        0  usbd_core.o(i.USBD_ReqSetClrFeature)
    i.USBD_ReqSetConfiguration               0x0800bed0   Section        0  usbd_core.o(i.USBD_ReqSetConfiguration)
    i.USBD_ReqSetInterface                   0x0800c060   Section        0  usbd_core.o(i.USBD_ReqSetInterface)
    i.USBD_Reset                             0x0800c18c   Section        0  usbd_stm32f103_1.o(i.USBD_Reset)
    i.USBD_ResetEP                           0x0800c240   Section        0  usbd_stm32f103_1.o(i.USBD_ResetEP)
    i.USBD_Reset_Event                       0x0800c24c   Section        0  usb_config_1.o(i.USBD_Reset_Event)
    i.USBD_SOF_Event                         0x0800c250   Section        0  usb_config_1.o(i.USBD_SOF_Event)
    i.USBD_SetAddress                        0x0800c260   Section        0  usbd_stm32f103_1.o(i.USBD_SetAddress)
    i.USBD_SetStallEP                        0x0800c274   Section        0  usbd_stm32f103_1.o(i.USBD_SetStallEP)
    i.USBD_SetupStage                        0x0800c284   Section        0  usbd_core.o(i.USBD_SetupStage)
    i.USBD_StatusInStage                     0x0800c290   Section        0  usbd_core.o(i.USBD_StatusInStage)
    i.USBD_StatusOutStage                    0x0800c29c   Section        0  usbd_core.o(i.USBD_StatusOutStage)
    i.USBD_Suspend                           0x0800c2a8   Section        0  usbd_stm32f103_1.o(i.USBD_Suspend)
    i.USBD_WakeUp                            0x0800c2c4   Section        0  usbd_stm32f103_1.o(i.USBD_WakeUp)
    i.USBD_WakeUpCfg                         0x0800c2d8   Section        0  usbd_stm32f103_1.o(i.USBD_WakeUpCfg)
    i.USBD_WriteEP                           0x0800c2dc   Section        0  usbd_stm32f103_1.o(i.USBD_WriteEP)
    i.USBWakeUp_IRQHandler                   0x0800c350   Section        0  hw_config.o(i.USBWakeUp_IRQHandler)
    i.USB_Cable_Config                       0x0800c35c   Section        0  hw_config.o(i.USB_Cable_Config)
    i.USB_HP_CAN1_TX_IRQHandler              0x0800c35e   Section        0  hw_config.o(i.USB_HP_CAN1_TX_IRQHandler)
    i.USB_Init                               0x0800c368   Section        0  usb_init.o(i.USB_Init)
    i.USB_Interrupts_Config                  0x0800c3a4   Section        0  hw_config.o(i.USB_Interrupts_Config)
    i.USB_Istr                               0x0800c404   Section        0  usb_istr.o(i.USB_Istr)
    i.USB_LP_CAN1_RX0_IRQHandler             0x0800c454   Section        0  usbd_stm32f103_1.o(i.USB_LP_CAN1_RX0_IRQHandler)
    i.USB_SIL_Init                           0x0800c5bc   Section        0  usb_sil.o(i.USB_SIL_Init)
    i.USB_SIL_Read                           0x0800c5e0   Section        0  usb_sil.o(i.USB_SIL_Read)
    i.USB_SIL_Write                          0x0800c60e   Section        0  usb_sil.o(i.USB_SIL_Write)
    i.UserAppAbort                           0x0800c63c   Section        0  cmsis-dap.o(i.UserAppAbort)
    i.UserAppInit                            0x0800c648   Section        0  cmsis-dap.o(i.UserAppInit)
    i.UserToPMABufferCopy                    0x0800c65c   Section        0  usb_mem.o(i.UserToPMABufferCopy)
    i.Virtual_Com_Port_GetLineCoding         0x0800c694   Section        0  usb_prop.o(i.Virtual_Com_Port_GetLineCoding)
    i.Virtual_Com_Port_SetLineCoding         0x0800c6b0   Section        0  usb_prop.o(i.Virtual_Com_Port_SetLineCoding)
    i.W25QXX_Erase_Sector                    0x0800c6cc   Section        0  w25qxx.o(i.W25QXX_Erase_Sector)
    i.W25QXX_Init                            0x0800c724   Section        0  w25qxx.o(i.W25QXX_Init)
    i.W25QXX_Read                            0x0800c778   Section        0  w25qxx.o(i.W25QXX_Read)
    i.W25QXX_ReadID                          0x0800c7c8   Section        0  w25qxx.o(i.W25QXX_ReadID)
    i.W25QXX_ReadSR                          0x0800c810   Section        0  w25qxx.o(i.W25QXX_ReadSR)
    i.W25QXX_Wait_Busy                       0x0800c83c   Section        0  w25qxx.o(i.W25QXX_Wait_Busy)
    i.W25QXX_Write                           0x0800c850   Section        0  w25qxx.o(i.W25QXX_Write)
    i.W25QXX_Write_Enable                    0x0800c908   Section        0  w25qxx.o(i.W25QXX_Write_Enable)
    i.W25QXX_Write_NoCheck                   0x0800c928   Section        0  w25qxx.o(i.W25QXX_Write_NoCheck)
    i.W25QXX_Write_Page                      0x0800c970   Section        0  w25qxx.o(i.W25QXX_Write_Page)
    i.Write_Memory                           0x0800c9c4   Section        0  memory.o(i.Write_Memory)
    i._sys_exit                              0x0800caec   Section        0  usart.o(i._sys_exit)
    i.check_fs                               0x0800caf0   Section        0  ff.o(i.check_fs)
    check_fs                                 0x0800caf1   Thumb Code   138  ff.o(i.check_fs)
    i.chk_chr                                0x0800cb80   Section        0  ff.o(i.chk_chr)
    chk_chr                                  0x0800cb81   Thumb Code    20  ff.o(i.chk_chr)
    i.chk_mounted                            0x0800cb94   Section        0  ff.o(i.chk_mounted)
    chk_mounted                              0x0800cb95   Thumb Code   898  ff.o(i.chk_mounted)
    i.clust2sect                             0x0800cf28   Section        0  ff.o(i.clust2sect)
    i.create_chain                           0x0800cf42   Section        0  ff.o(i.create_chain)
    create_chain                             0x0800cf43   Thumb Code   202  ff.o(i.create_chain)
    i.create_name                            0x0800d00c   Section        0  ff.o(i.create_name)
    create_name                              0x0800d00d   Thumb Code   328  ff.o(i.create_name)
    i.delay_init                             0x0800d164   Section        0  delay.o(i.delay_init)
    i.delay_ms                               0x0800d1a8   Section        0  delay.o(i.delay_ms)
    i.delaymS                                0x0800d1f4   Section        0  swd_host.o(i.delaymS)
    i.dir_find                               0x0800d218   Section        0  ff.o(i.dir_find)
    dir_find                                 0x0800d219   Thumb Code    92  ff.o(i.dir_find)
    i.dir_next                               0x0800d274   Section        0  ff.o(i.dir_next)
    dir_next                                 0x0800d275   Thumb Code   280  ff.o(i.dir_next)
    i.dir_read                               0x0800d38c   Section        0  ff.o(i.dir_read)
    dir_read                                 0x0800d38d   Thumb Code    86  ff.o(i.dir_read)
    i.dir_register                           0x0800d3e2   Section        0  ff.o(i.dir_register)
    dir_register                             0x0800d3e3   Thumb Code   110  ff.o(i.dir_register)
    i.dir_remove                             0x0800d450   Section        0  ff.o(i.dir_remove)
    dir_remove                               0x0800d451   Thumb Code    44  ff.o(i.dir_remove)
    i.dir_sdi                                0x0800d47c   Section        0  ff.o(i.dir_sdi)
    dir_sdi                                  0x0800d47d   Thumb Code   156  ff.o(i.dir_sdi)
    i.disk_initialize                        0x0800d518   Section        0  diskio.o(i.disk_initialize)
    i.disk_ioctl                             0x0800d51e   Section        0  diskio.o(i.disk_ioctl)
    i.disk_read                              0x0800d524   Section        0  diskio.o(i.disk_read)
    i.disk_status                            0x0800d570   Section        0  diskio.o(i.disk_status)
    i.disk_write                             0x0800d576   Section        0  diskio.o(i.disk_write)
    i.f_close                                0x0800d5c2   Section        0  ff.o(i.f_close)
    i.f_gets                                 0x0800d5d8   Section        0  ff.o(i.f_gets)
    i.f_lseek                                0x0800d626   Section        0  ff.o(i.f_lseek)
    i.f_mount                                0x0800d7d8   Section        0  ff.o(i.f_mount)
    i.f_open                                 0x0800d804   Section        0  ff.o(i.f_open)
    i.f_opendir                              0x0800d970   Section        0  ff.o(i.f_opendir)
    i.f_putc                                 0x0800d9de   Section        0  ff.o(i.f_putc)
    i.f_read                                 0x0800da04   Section        0  ff.o(i.f_read)
    i.f_readdir                              0x0800dbd2   Section        0  ff.o(i.f_readdir)
    i.f_sync                                 0x0800dc2a   Section        0  ff.o(i.f_sync)
    i.f_unlink                               0x0800dce2   Section        0  ff.o(i.f_unlink)
    i.f_write                                0x0800dd94   Section        0  ff.o(i.f_write)
    i.follow_path                            0x0800dfa2   Section        0  ff.o(i.follow_path)
    follow_path                              0x0800dfa3   Thumb Code   158  ff.o(i.follow_path)
    i.fputc                                  0x0800e040   Section        0  usart.o(i.fputc)
    i.get_fat                                0x0800e05c   Section        0  ff.o(i.get_fat)
    i.get_fattime                            0x0800e140   Section        0  diskio.o(i.get_fattime)
    i.get_fileinfo                           0x0800e144   Section        0  ff.o(i.get_fileinfo)
    get_fileinfo                             0x0800e145   Thumb Code   152  ff.o(i.get_fileinfo)
    i.int2array                              0x0800e1dc   Section        0  swd_host.o(i.int2array)
    int2array                                0x0800e1dd   Thumb Code    28  swd_host.o(i.int2array)
    i.main                                   0x0800e1f8   Section        0  main.o(i.main)
    i.mem_cmp                                0x0800e208   Section        0  ff.o(i.mem_cmp)
    mem_cmp                                  0x0800e209   Thumb Code    38  ff.o(i.mem_cmp)
    i.mem_cpy                                0x0800e22e   Section        0  ff.o(i.mem_cpy)
    mem_cpy                                  0x0800e22f   Thumb Code    26  ff.o(i.mem_cpy)
    i.mem_set                                0x0800e248   Section        0  ff.o(i.mem_set)
    mem_set                                  0x0800e249   Thumb Code    20  ff.o(i.mem_set)
    i.move_window                            0x0800e25c   Section        0  ff.o(i.move_window)
    move_window                              0x0800e25d   Thumb Code   114  ff.o(i.move_window)
    i.put_fat                                0x0800e2ce   Section        0  ff.o(i.put_fat)
    i.remove_chain                           0x0800e404   Section        0  ff.o(i.remove_chain)
    remove_chain                             0x0800e405   Thumb Code   104  ff.o(i.remove_chain)
    i.swd_flash_syscall_exec                 0x0800e46c   Section        0  swd_host.o(i.swd_flash_syscall_exec)
    i.swd_init                               0x0800e4da   Section        0  swd_host.o(i.swd_init)
    i.swd_init_debug                         0x0800e4e8   Section        0  swd_host.o(i.swd_init_debug)
    i.swd_off                                0x0800e58c   Section        0  swd_host.o(i.swd_off)
    i.swd_read_core_register                 0x0800e598   Section        0  swd_host.o(i.swd_read_core_register)
    swd_read_core_register                   0x0800e599   Thumb Code    94  swd_host.o(i.swd_read_core_register)
    i.swd_read_data                          0x0800e5fc   Section        0  swd_host.o(i.swd_read_data)
    swd_read_data                            0x0800e5fd   Thumb Code   136  swd_host.o(i.swd_read_data)
    i.swd_read_dp                            0x0800e684   Section        0  swd_host.o(i.swd_read_dp)
    i.swd_read_idcode                        0x0800e6e0   Section        0  swd_host.o(i.swd_read_idcode)
    swd_read_idcode                          0x0800e6e1   Thumb Code    66  swd_host.o(i.swd_read_idcode)
    i.swd_read_word                          0x0800e724   Section        0  swd_host.o(i.swd_read_word)
    swd_read_word                            0x0800e725   Thumb Code    38  swd_host.o(i.swd_read_word)
    i.swd_reset                              0x0800e750   Section        0  swd_host.o(i.swd_reset)
    swd_reset                                0x0800e751   Thumb Code    34  swd_host.o(i.swd_reset)
    i.swd_set_target_reset                   0x0800e774   Section        0  swd_host.o(i.swd_set_target_reset)
    i.swd_set_target_state_hw                0x0800e798   Section        0  swd_host.o(i.swd_set_target_state_hw)
    i.swd_switch                             0x0800e924   Section        0  swd_host.o(i.swd_switch)
    swd_switch                               0x0800e925   Thumb Code    28  swd_host.o(i.swd_switch)
    i.swd_transfer_retry                     0x0800e940   Section        0  swd_host.o(i.swd_transfer_retry)
    swd_transfer_retry                       0x0800e941   Thumb Code    44  swd_host.o(i.swd_transfer_retry)
    i.swd_wait_until_halted                  0x0800e96c   Section        0  swd_host.o(i.swd_wait_until_halted)
    swd_wait_until_halted                    0x0800e96d   Thumb Code    44  swd_host.o(i.swd_wait_until_halted)
    i.swd_write_ap                           0x0800e9a0   Section        0  swd_host.o(i.swd_write_ap)
    i.swd_write_block                        0x0800ea18   Section        0  swd_host.o(i.swd_write_block)
    swd_write_block                          0x0800ea19   Thumb Code   124  swd_host.o(i.swd_write_block)
    i.swd_write_byte                         0x0800ea98   Section        0  swd_host.o(i.swd_write_byte)
    swd_write_byte                           0x0800ea99   Thumb Code    46  swd_host.o(i.swd_write_byte)
    i.swd_write_core_register                0x0800eacc   Section        0  swd_host.o(i.swd_write_core_register)
    swd_write_core_register                  0x0800eacd   Thumb Code    82  swd_host.o(i.swd_write_core_register)
    i.swd_write_data                         0x0800eb24   Section        0  swd_host.o(i.swd_write_data)
    swd_write_data                           0x0800eb25   Thumb Code    84  swd_host.o(i.swd_write_data)
    i.swd_write_debug_state                  0x0800eb78   Section        0  swd_host.o(i.swd_write_debug_state)
    swd_write_debug_state                    0x0800eb79   Thumb Code   142  swd_host.o(i.swd_write_debug_state)
    i.swd_write_dp                           0x0800ec10   Section        0  swd_host.o(i.swd_write_dp)
    i.swd_write_memory                       0x0800ec58   Section        0  swd_host.o(i.swd_write_memory)
    i.swd_write_word                         0x0800ecdc   Section        0  swd_host.o(i.swd_write_word)
    swd_write_word                           0x0800ecdd   Thumb Code    38  swd_host.o(i.swd_write_word)
    i.sync                                   0x0800ed08   Section        0  ff.o(i.sync)
    sync                                     0x0800ed09   Thumb Code   202  ff.o(i.sync)
    i.target_flash_erase_chip                0x0800edd4   Section        0  swd_flash.o(i.target_flash_erase_chip)
    i.target_flash_init                      0x0800edfc   Section        0  swd_flash.o(i.target_flash_init)
    i.target_flash_program_page              0x0800ee40   Section        0  swd_flash.o(i.target_flash_program_page)
    i.target_flash_uninit                    0x0800eea4   Section        0  swd_flash.o(i.target_flash_uninit)
    i.target_opt_erase_chip                  0x0800eeb4   Section        0  swd_opt.o(i.target_opt_erase_chip)
    i.target_opt_init                        0x0800eedc   Section        0  swd_opt.o(i.target_opt_init)
    i.target_opt_uninit                      0x0800ef20   Section        0  swd_opt.o(i.target_opt_uninit)
    i.uart1_dma_enable                       0x0800ef44   Section        0  usart.o(i.uart1_dma_enable)
    i.uart_init                              0x0800ef64   Section        0  usart.o(i.uart_init)
    i.usart_receive_parse                    0x0800f0c8   Section        0  usart.o(i.usart_receive_parse)
    i.usart_sendCommand                      0x0800f154   Section        0  usart.o(i.usart_sendCommand)
    i.usbd_class_init                        0x0800f190   Section        0  usb_config_1.o(i.usbd_class_init)
    i.usbd_configured                        0x0800f1a0   Section        0  usbd_core.o(i.usbd_configured)
    i.usbd_connect                           0x0800f1b0   Section        0  usbd_core.o(i.usbd_connect)
    i.usbd_hid_get_protocol                  0x0800f1b4   Section        0  usbd_hid.o(i.usbd_hid_get_protocol)
    i.usbd_hid_get_report                    0x0800f1b8   Section        0  usbd_user_hid_1.o(i.usbd_hid_get_report)
    i.usbd_hid_get_report_trigger            0x0800f258   Section        0  usbd_hid.o(i.usbd_hid_get_report_trigger)
    i.usbd_hid_init                          0x0800f2f4   Section        0  usbd_user_hid_1.o(i.usbd_hid_init)
    i.usbd_hid_process                       0x0800f334   Section        0  usbd_user_hid_1.o(i.usbd_hid_process)
    i.usbd_hid_set_protocol                  0x0800f3f0   Section        0  usbd_hid.o(i.usbd_hid_set_protocol)
    i.usbd_hid_set_report                    0x0800f3f4   Section        0  usbd_user_hid_1.o(i.usbd_hid_set_report)
    i.usbd_init                              0x0800f494   Section        0  usbd_core.o(i.usbd_init)
    i.usbd_os_evt_set                        0x0800f4b0   Section        0  usb_config_1.o(i.usbd_os_evt_set)
    i.usbd_reset_core                        0x0800f4b4   Section        0  usbd_core.o(i.usbd_reset_core)
    i.vResetTarget                           0x0800f4d8   Section        0  cmsis-dap.o(i.vResetTarget)
    i.validate                               0x0800f574   Section        0  ff.o(i.validate)
    validate                                 0x0800f575   Thumb Code    42  ff.o(i.validate)
    x$fpl$ddiv                               0x0800f5a0   Section      688  ddiv.o(x$fpl$ddiv)
    ddiv_entry                               0x0800f5a7   Thumb Code     0  ddiv.o(x$fpl$ddiv)
    x$fpl$dfixu                              0x0800f850   Section       90  dfixu.o(x$fpl$dfixu)
    x$fpl$dfltu                              0x0800f8aa   Section       38  dflt_clz.o(x$fpl$dfltu)
    x$fpl$dmul                               0x0800f8d0   Section      340  dmul.o(x$fpl$dmul)
    x$fpl$dnaninf                            0x0800fa24   Section      156  dnaninf.o(x$fpl$dnaninf)
    x$fpl$dretinf                            0x0800fac0   Section       12  dretinf.o(x$fpl$dretinf)
    .constdata                               0x0800facc   Section       84  cmsis-dap.o(.constdata)
    x$fpl$usenofp                            0x0800facc   Section        0  usenofp.o(x$fpl$usenofp)
    .constdata                               0x0800fb20   Section      195  usb_desc.o(.constdata)
    .constdata                               0x0800fbe3   Section        5  dap.o(.constdata)
    .constdata                               0x0800fbe8   Section      468  usb_config_1.o(.constdata)
    .constdata                               0x0800fdbc   Section      148  usart_stm32f10x.o(.constdata)
    usart_driver_version                     0x0800fdbc   Data           4  usart_stm32f10x.o(.constdata)
    USART2_tx                                0x0800fdc0   Data           8  usart_stm32f10x.o(.constdata)
    USART2_rx                                0x0800fdc8   Data           8  usart_stm32f10x.o(.constdata)
    USART2_DMA_Tx                            0x0800fdd0   Data           8  usart_stm32f10x.o(.constdata)
    USART2_DMA_Rx                            0x0800fdd8   Data           8  usart_stm32f10x.o(.constdata)
    USART2_Resources                         0x0800fde0   Data          56  usart_stm32f10x.o(.constdata)
    .constdata                               0x0800fe50   Section      384  stm32f10x_128.o(.constdata)
    flash_code                               0x0800fe50   Data         332  stm32f10x_128.o(.constdata)
    .constdata                               0x0800ffd0   Section      492  stm32f10x_opt.o(.constdata)
    flash_code                               0x0800ffd0   Data         440  stm32f10x_opt.o(.constdata)
    .constdata                               0x080101bc   Section     2072  oled.o(.constdata)
    .constdata                               0x080109d4   Section       40  _printf_hex_int.o(.constdata)
    uc_hextab                                0x080109d4   Data          20  _printf_hex_int.o(.constdata)
    lc_hextab                                0x080109e8   Data          20  _printf_hex_int.o(.constdata)
    .data                                    0x20000000   Section      508  main.o(.data)
    .data                                    0x200001fc   Section       12  cmsis-dap.o(.data)
    .data                                    0x20000208   Section        7  usart.o(.data)
    .data                                    0x20000210   Section        4  delay.o(.data)
    fac_us                                   0x20000210   Data           1  delay.o(.data)
    fac_ms                                   0x20000212   Data           2  delay.o(.data)
    .data                                    0x20000214   Section       20  system_stm32f10x.o(.data)
    .data                                    0x20000228   Section       20  stm32f10x_rcc.o(.data)
    APBAHBPrescTable                         0x20000228   Data          16  stm32f10x_rcc.o(.data)
    ADCPrescTable                            0x20000238   Data           4  stm32f10x_rcc.o(.data)
    .data                                    0x2000023c   Section        6  ff.o(.data)
    FatFs                                    0x2000023c   Data           4  ff.o(.data)
    Fsid                                     0x20000240   Data           2  ff.o(.data)
    .data                                    0x20000244   Section       16  mass_mal.o(.data)
    .data                                    0x20000254   Section       36  memory.o(.data)
    Offset                                   0x20000268   Data           4  memory.o(.data)
    Length                                   0x2000026c   Data           4  memory.o(.data)
    W_Offset                                 0x20000270   Data           4  memory.o(.data)
    W_Length                                 0x20000274   Data           4  memory.o(.data)
    .data                                    0x20000278   Section      113  scsi_data.o(.data)
    .data                                    0x200002ec   Section       12  usb_bot.o(.data)
    .data                                    0x200002f8   Section       26  usb_desc.o(.data)
    .data                                    0x20000314   Section        9  usb_endp.o(.data)
    .data                                    0x20000320   Section       60  usb_istr.o(.data)
    .data                                    0x2000035c   Section      160  usb_prop.o(.data)
    .data                                    0x200003fc   Section        7  usb_pwr.o(.data)
    .data                                    0x20000404   Section        3  usb_core.o(.data)
    .data                                    0x20000408   Section       20  usb_init.o(.data)
    .data                                    0x2000041c   Section        4  usb_int.o(.data)
    .data                                    0x20000420   Section        1  dap.o(.data)
    .data                                    0x20000424   Section       20  swo.o(.data)
    USART_Ready                              0x20000424   Data           1  swo.o(.data)
    TraceTransport                           0x20000425   Data           1  swo.o(.data)
    TraceMode                                0x20000426   Data           1  swo.o(.data)
    TraceStatus                              0x20000427   Data           1  swo.o(.data)
    TraceError                               0x20000428   Data           2  swo.o(.data)
    TraceError_n                             0x2000042a   Data           1  swo.o(.data)
    TraceIn                                  0x2000042c   Data           4  swo.o(.data)
    TraceOut                                 0x20000430   Data           4  swo.o(.data)
    TracePending                             0x20000434   Data           4  swo.o(.data)
    .data                                    0x20000438   Section       11  usb_config_1.o(.data)
    .data                                    0x20000444   Section        6  usbd_stm32f103_1.o(.data)
    .data                                    0x2000044c   Section       24  usbd_user_hid_1.o(.data)
    USB_RequestFlag                          0x2000044c   Data           1  usbd_user_hid_1.o(.data)
    USB_RequestIn                            0x20000450   Data           4  usbd_user_hid_1.o(.data)
    USB_RequestOut                           0x20000454   Data           4  usbd_user_hid_1.o(.data)
    USB_ResponseIdle                         0x20000458   Data           1  usbd_user_hid_1.o(.data)
    USB_ResponseFlag                         0x20000459   Data           1  usbd_user_hid_1.o(.data)
    USB_ResponseIn                           0x2000045c   Data           4  usbd_user_hid_1.o(.data)
    USB_ResponseOut                          0x20000460   Data           4  usbd_user_hid_1.o(.data)
    .data                                    0x20000464   Section       15  usbd_user_cdc_acm.o(.data)
    uart_rx_cnt                              0x20000464   Data           4  usbd_user_cdc_acm.o(.data)
    usb_tx_cnt                               0x20000468   Data           4  usbd_user_cdc_acm.o(.data)
    cdc_acm_line_coding                      0x2000046c   Data           7  usbd_user_cdc_acm.o(.data)
    .data                                    0x20000473   Section        2  dma_stm32f10x.o(.data)
    DMA1_Channel                             0x20000473   Data           1  dma_stm32f10x.o(.data)
    DMA2_Channel                             0x20000474   Data           1  dma_stm32f10x.o(.data)
    .data                                    0x20000478   Section        8  swd_host.o(.data)
    dap_state                                0x20000478   Data           8  swd_host.o(.data)
    .data                                    0x20000480   Section        2  w25qxx.o(.data)
    .data                                    0x20000484   Section       40  usbd_core.o(.data)
    .data                                    0x200004ac   Section       63  usbd_cdc_acm.o(.data)
    .data                                    0x200004ec   Section       48  usbd_hid.o(.data)
    cnt_for_4ms                              0x200004ec   Data           1  usbd_hid.o(.data)
    .bss                                     0x2000051c   Section     2184  main.o(.bss)
    .bss                                     0x20000da4   Section      460  usart.o(.bss)
    .bss                                     0x20000f70   Section      512  memory.o(.bss)
    .bss                                     0x20001170   Section      112  usb_bot.o(.bss)
    .bss                                     0x200011e0   Section      124  usb_endp.o(.bss)
    .bss                                     0x2000125c   Section       28  usb_init.o(.bss)
    .bss                                     0x20001278   Section       64  dap.o(.bss)
    .bss                                     0x200012b8   Section     4096  swo.o(.bss)
    TraceBuf                                 0x200012b8   Data        4096  swo.o(.bss)
    .bss                                     0x200022b8   Section      332  usb_config_1.o(.bss)
    .bss                                     0x20002404   Section     8192  usbd_user_hid_1.o(.bss)
    USB_Request                              0x20002404   Data        4096  usbd_user_hid_1.o(.bss)
    USB_Response                             0x20003404   Data        4096  usbd_user_hid_1.o(.bss)
    .bss                                     0x20004404   Section     2048  usbd_user_cdc_acm.o(.bss)
    uart_rx_buf                              0x20004404   Data        1024  usbd_user_cdc_acm.o(.bss)
    uart_tx_buf                              0x20004804   Data        1024  usbd_user_cdc_acm.o(.bss)
    .bss                                     0x20004c04   Section       56  usart_stm32f10x.o(.bss)
    USART2_Info                              0x20004c04   Data          20  usart_stm32f10x.o(.bss)
    USART2_TransferInfo                      0x20004c18   Data          36  usart_stm32f10x.o(.bss)
    .bss                                     0x20004c3c   Section     4096  w25qxx.o(.bss)
    .bss                                     0x20005c3c   Section       96  libspace.o(.bss)
    HEAP                                     0x20005ca0   Section      512  startup_stm32f10x_hd.o(HEAP)
    Heap_Mem                                 0x20005ca0   Data         512  startup_stm32f10x_hd.o(HEAP)
    STACK                                    0x20005ea0   Section     1024  startup_stm32f10x_hd.o(STACK)
    Stack_Mem                                0x20005ea0   Data        1024  startup_stm32f10x_hd.o(STACK)
    __initial_sp                             0x200062a0   Data           0  startup_stm32f10x_hd.o(STACK)

    Global Symbols

    Symbol Name                              Value     Ov Type        Size  Object(Section)

    BuildAttributes$$THM_ISAv4$P$D$K$B$S$PE$A:L22UL41UL21$X:L11$S22US41US21$IEEE1$IW$~IW$USESV6$~STKCKD$USESV7$~SHL$OSPACE$ROPI$EBA8$UX$STANDARDLIB$REQ8$PRES8$EABIv2 0x00000000   Number         0  anon$$obj.o ABSOLUTE
    __ARM_use_no_argv                        0x00000000   Number         0  main.o ABSOLUTE
    USBD_EndPoint10                           - Undefined Weak Reference
    USBD_EndPoint11                           - Undefined Weak Reference
    USBD_EndPoint12                           - Undefined Weak Reference
    USBD_EndPoint13                           - Undefined Weak Reference
    USBD_EndPoint14                           - Undefined Weak Reference
    USBD_EndPoint15                           - Undefined Weak Reference
    USBD_EndPoint4                            - Undefined Weak Reference
    USBD_EndPoint5                            - Undefined Weak Reference
    USBD_EndPoint6                            - Undefined Weak Reference
    USBD_EndPoint7                            - Undefined Weak Reference
    USBD_EndPoint8                            - Undefined Weak Reference
    USBD_EndPoint9                            - Undefined Weak Reference
    USBD_Feature_Event                        - Undefined Weak Reference
    USBD_Interface_Event                      - Undefined Weak Reference
    USBD_Power_Event                          - Undefined Weak Reference
    USBD_Resume_Event                         - Undefined Weak Reference
    USBD_Suspend_Event                        - Undefined Weak Reference
    USBD_WakeUp_Event                         - Undefined Weak Reference
    __ARM_exceptions_init                     - Undefined Weak Reference
    __alloca_initialize                       - Undefined Weak Reference
    __arm_preinit_                            - Undefined Weak Reference
    __cpp_initialize__aeabi_                  - Undefined Weak Reference
    __cxa_finalize                            - Undefined Weak Reference
    __rt_locale                               - Undefined Weak Reference
    __sigvec_lookup                           - Undefined Weak Reference
    _atexit_init                              - Undefined Weak Reference
    _call_atexit_fns                          - Undefined Weak Reference
    _clock_init                               - Undefined Weak Reference
    _fp_trap_init                             - Undefined Weak Reference
    _fp_trap_shutdown                         - Undefined Weak Reference
    _get_lc_collate                           - Undefined Weak Reference
    _get_lc_ctype                             - Undefined Weak Reference
    _get_lc_monetary                          - Undefined Weak Reference
    _get_lc_numeric                           - Undefined Weak Reference
    _get_lc_time                              - Undefined Weak Reference
    _getenv_init                              - Undefined Weak Reference
    _handle_redirection                       - Undefined Weak Reference
    _init_alloc                               - Undefined Weak Reference
    _init_user_alloc                          - Undefined Weak Reference
    _initio                                   - Undefined Weak Reference
    _mutex_acquire                            - Undefined Weak Reference
    _mutex_release                            - Undefined Weak Reference
    _printf_post_padding                      - Undefined Weak Reference
    _printf_pre_padding                       - Undefined Weak Reference
    _printf_truncate_unsigned                 - Undefined Weak Reference
    _rand_init                                - Undefined Weak Reference
    _signal_finish                            - Undefined Weak Reference
    _signal_init                              - Undefined Weak Reference
    _terminate_alloc                          - Undefined Weak Reference
    _terminate_user_alloc                     - Undefined Weak Reference
    _terminateio                              - Undefined Weak Reference
    __Vectors_Size                           0x00000130   Number         0  startup_stm32f10x_hd.o ABSOLUTE
    __RL_USBD_VER                            0x00000475   Number         0  usbd_core.o ABSOLUTE
    __Vectors                                0x08000000   Data           4  startup_stm32f10x_hd.o(RESET)
    __Vectors_End                            0x08000130   Data           0  startup_stm32f10x_hd.o(RESET)
    __main                                   0x08000131   Thumb Code     8  __main.o(!!!main)
    __scatterload                            0x08000139   Thumb Code     0  __scatter.o(!!!scatter)
    __scatterload_rt2                        0x08000139   Thumb Code    44  __scatter.o(!!!scatter)
    __scatterload_rt2_thumb_only             0x08000139   Thumb Code     0  __scatter.o(!!!scatter)
    __scatterload_null                       0x08000147   Thumb Code     0  __scatter.o(!!!scatter)
    __decompress                             0x0800016d   Thumb Code    90  __dczerorl2.o(!!dczerorl2)
    __decompress1                            0x0800016d   Thumb Code     0  __dczerorl2.o(!!dczerorl2)
    __scatterload_zeroinit                   0x080001c9   Thumb Code    28  __scatter_zi.o(!!handler_zi)
    _printf_percent                          0x080001e5   Thumb Code     0  _printf_percent.o(.ARM.Collect$$_printf_percent$$00000000)
    _printf_x                                0x080001e5   Thumb Code     0  _printf_x.o(.ARM.Collect$$_printf_percent$$0000000C)
    _printf_percent_end                      0x080001eb   Thumb Code     0  _printf_percent_end.o(.ARM.Collect$$_printf_percent$$00000017)
    __rt_lib_init                            0x080001ef   Thumb Code     0  libinit.o(.ARM.Collect$$libinit$$00000000)
    __rt_lib_init_alloca_1                   0x080001f1   Thumb Code     0  libinit2.o(.ARM.Collect$$libinit$$0000002E)
    __rt_lib_init_argv_1                     0x080001f1   Thumb Code     0  libinit2.o(.ARM.Collect$$libinit$$0000002C)
    __rt_lib_init_atexit_1                   0x080001f1   Thumb Code     0  libinit2.o(.ARM.Collect$$libinit$$0000001B)
    __rt_lib_init_clock_1                    0x080001f1   Thumb Code     0  libinit2.o(.ARM.Collect$$libinit$$00000021)
    __rt_lib_init_cpp_1                      0x080001f1   Thumb Code     0  libinit2.o(.ARM.Collect$$libinit$$00000032)
    __rt_lib_init_exceptions_1               0x080001f1   Thumb Code     0  libinit2.o(.ARM.Collect$$libinit$$00000030)
    __rt_lib_init_fp_1                       0x080001f1   Thumb Code     0  libinit2.o(.ARM.Collect$$libinit$$00000002)
    __rt_lib_init_fp_trap_1                  0x080001f1   Thumb Code     0  libinit2.o(.ARM.Collect$$libinit$$0000001F)
    __rt_lib_init_getenv_1                   0x080001f1   Thumb Code     0  libinit2.o(.ARM.Collect$$libinit$$00000023)
    __rt_lib_init_heap_1                     0x080001f1   Thumb Code     0  libinit2.o(.ARM.Collect$$libinit$$0000000A)
    __rt_lib_init_lc_collate_1               0x080001f1   Thumb Code     0  libinit2.o(.ARM.Collect$$libinit$$00000011)
    __rt_lib_init_lc_ctype_1                 0x080001f1   Thumb Code     0  libinit2.o(.ARM.Collect$$libinit$$00000013)
    __rt_lib_init_lc_monetary_1              0x080001f1   Thumb Code     0  libinit2.o(.ARM.Collect$$libinit$$00000015)
    __rt_lib_init_lc_numeric_1               0x080001f1   Thumb Code     0  libinit2.o(.ARM.Collect$$libinit$$00000017)
    __rt_lib_init_lc_time_1                  0x080001f1   Thumb Code     0  libinit2.o(.ARM.Collect$$libinit$$00000019)
    __rt_lib_init_preinit_1                  0x080001f1   Thumb Code     0  libinit2.o(.ARM.Collect$$libinit$$00000004)
    __rt_lib_init_rand_1                     0x080001f1   Thumb Code     0  libinit2.o(.ARM.Collect$$libinit$$0000000E)
    __rt_lib_init_return                     0x080001f1   Thumb Code     0  libinit2.o(.ARM.Collect$$libinit$$00000033)
    __rt_lib_init_signal_1                   0x080001f1   Thumb Code     0  libinit2.o(.ARM.Collect$$libinit$$0000001D)
    __rt_lib_init_stdio_1                    0x080001f1   Thumb Code     0  libinit2.o(.ARM.Collect$$libinit$$00000025)
    __rt_lib_init_user_alloc_1               0x080001f1   Thumb Code     0  libinit2.o(.ARM.Collect$$libinit$$0000000C)
    __rt_lib_shutdown                        0x080001f3   Thumb Code     0  libshutdown.o(.ARM.Collect$$libshutdown$$00000000)
    __rt_lib_shutdown_cpp_1                  0x080001f5   Thumb Code     0  libshutdown2.o(.ARM.Collect$$libshutdown$$00000002)
    __rt_lib_shutdown_fp_trap_1              0x080001f5   Thumb Code     0  libshutdown2.o(.ARM.Collect$$libshutdown$$00000007)
    __rt_lib_shutdown_heap_1                 0x080001f5   Thumb Code     0  libshutdown2.o(.ARM.Collect$$libshutdown$$0000000F)
    __rt_lib_shutdown_return                 0x080001f5   Thumb Code     0  libshutdown2.o(.ARM.Collect$$libshutdown$$00000010)
    __rt_lib_shutdown_signal_1               0x080001f5   Thumb Code     0  libshutdown2.o(.ARM.Collect$$libshutdown$$0000000A)
    __rt_lib_shutdown_stdio_1                0x080001f5   Thumb Code     0  libshutdown2.o(.ARM.Collect$$libshutdown$$00000004)
    __rt_lib_shutdown_user_alloc_1           0x080001f5   Thumb Code     0  libshutdown2.o(.ARM.Collect$$libshutdown$$0000000C)
    __rt_entry                               0x080001f7   Thumb Code     0  __rtentry.o(.ARM.Collect$$rtentry$$00000000)
    __rt_entry_presh_1                       0x080001f7   Thumb Code     0  __rtentry2.o(.ARM.Collect$$rtentry$$00000002)
    __rt_entry_sh                            0x080001f7   Thumb Code     0  __rtentry4.o(.ARM.Collect$$rtentry$$00000004)
    __rt_entry_li                            0x080001fd   Thumb Code     0  __rtentry2.o(.ARM.Collect$$rtentry$$0000000A)
    __rt_entry_postsh_1                      0x080001fd   Thumb Code     0  __rtentry2.o(.ARM.Collect$$rtentry$$00000009)
    __rt_entry_main                          0x08000201   Thumb Code     0  __rtentry2.o(.ARM.Collect$$rtentry$$0000000D)
    __rt_entry_postli_1                      0x08000201   Thumb Code     0  __rtentry2.o(.ARM.Collect$$rtentry$$0000000C)
    __rt_exit                                0x08000209   Thumb Code     0  rtexit.o(.ARM.Collect$$rtexit$$00000000)
    __rt_exit_ls                             0x0800020b   Thumb Code     0  rtexit2.o(.ARM.Collect$$rtexit$$00000003)
    __rt_exit_prels_1                        0x0800020b   Thumb Code     0  rtexit2.o(.ARM.Collect$$rtexit$$00000002)
    __rt_exit_exit                           0x0800020f   Thumb Code     0  rtexit2.o(.ARM.Collect$$rtexit$$00000004)
    Reset_Handler                            0x08000215   Thumb Code     8  startup_stm32f10x_hd.o(.text)
    ADC1_2_IRQHandler                        0x0800022f   Thumb Code     0  startup_stm32f10x_hd.o(.text)
    ADC3_IRQHandler                          0x0800022f   Thumb Code     0  startup_stm32f10x_hd.o(.text)
    CAN1_RX1_IRQHandler                      0x0800022f   Thumb Code     0  startup_stm32f10x_hd.o(.text)
    CAN1_SCE_IRQHandler                      0x0800022f   Thumb Code     0  startup_stm32f10x_hd.o(.text)
    EXTI0_IRQHandler                         0x0800022f   Thumb Code     0  startup_stm32f10x_hd.o(.text)
    EXTI15_10_IRQHandler                     0x0800022f   Thumb Code     0  startup_stm32f10x_hd.o(.text)
    EXTI1_IRQHandler                         0x0800022f   Thumb Code     0  startup_stm32f10x_hd.o(.text)
    EXTI2_IRQHandler                         0x0800022f   Thumb Code     0  startup_stm32f10x_hd.o(.text)
    EXTI3_IRQHandler                         0x0800022f   Thumb Code     0  startup_stm32f10x_hd.o(.text)
    EXTI4_IRQHandler                         0x0800022f   Thumb Code     0  startup_stm32f10x_hd.o(.text)
    EXTI9_5_IRQHandler                       0x0800022f   Thumb Code     0  startup_stm32f10x_hd.o(.text)
    FLASH_IRQHandler                         0x0800022f   Thumb Code     0  startup_stm32f10x_hd.o(.text)
    FSMC_IRQHandler                          0x0800022f   Thumb Code     0  startup_stm32f10x_hd.o(.text)
    I2C1_ER_IRQHandler                       0x0800022f   Thumb Code     0  startup_stm32f10x_hd.o(.text)
    I2C1_EV_IRQHandler                       0x0800022f   Thumb Code     0  startup_stm32f10x_hd.o(.text)
    I2C2_ER_IRQHandler                       0x0800022f   Thumb Code     0  startup_stm32f10x_hd.o(.text)
    I2C2_EV_IRQHandler                       0x0800022f   Thumb Code     0  startup_stm32f10x_hd.o(.text)
    PVD_IRQHandler                           0x0800022f   Thumb Code     0  startup_stm32f10x_hd.o(.text)
    RCC_IRQHandler                           0x0800022f   Thumb Code     0  startup_stm32f10x_hd.o(.text)
    RTCAlarm_IRQHandler                      0x0800022f   Thumb Code     0  startup_stm32f10x_hd.o(.text)
    RTC_IRQHandler                           0x0800022f   Thumb Code     0  startup_stm32f10x_hd.o(.text)
    SDIO_IRQHandler                          0x0800022f   Thumb Code     0  startup_stm32f10x_hd.o(.text)
    SPI1_IRQHandler                          0x0800022f   Thumb Code     0  startup_stm32f10x_hd.o(.text)
    SPI2_IRQHandler                          0x0800022f   Thumb Code     0  startup_stm32f10x_hd.o(.text)
    SPI3_IRQHandler                          0x0800022f   Thumb Code     0  startup_stm32f10x_hd.o(.text)
    TAMPER_IRQHandler                        0x0800022f   Thumb Code     0  startup_stm32f10x_hd.o(.text)
    TIM1_BRK_IRQHandler                      0x0800022f   Thumb Code     0  startup_stm32f10x_hd.o(.text)
    TIM1_CC_IRQHandler                       0x0800022f   Thumb Code     0  startup_stm32f10x_hd.o(.text)
    TIM1_TRG_COM_IRQHandler                  0x0800022f   Thumb Code     0  startup_stm32f10x_hd.o(.text)
    TIM1_UP_IRQHandler                       0x0800022f   Thumb Code     0  startup_stm32f10x_hd.o(.text)
    TIM2_IRQHandler                          0x0800022f   Thumb Code     0  startup_stm32f10x_hd.o(.text)
    TIM3_IRQHandler                          0x0800022f   Thumb Code     0  startup_stm32f10x_hd.o(.text)
    TIM4_IRQHandler                          0x0800022f   Thumb Code     0  startup_stm32f10x_hd.o(.text)
    TIM5_IRQHandler                          0x0800022f   Thumb Code     0  startup_stm32f10x_hd.o(.text)
    TIM6_IRQHandler                          0x0800022f   Thumb Code     0  startup_stm32f10x_hd.o(.text)
    TIM7_IRQHandler                          0x0800022f   Thumb Code     0  startup_stm32f10x_hd.o(.text)
    TIM8_BRK_IRQHandler                      0x0800022f   Thumb Code     0  startup_stm32f10x_hd.o(.text)
    TIM8_CC_IRQHandler                       0x0800022f   Thumb Code     0  startup_stm32f10x_hd.o(.text)
    TIM8_TRG_COM_IRQHandler                  0x0800022f   Thumb Code     0  startup_stm32f10x_hd.o(.text)
    TIM8_UP_IRQHandler                       0x0800022f   Thumb Code     0  startup_stm32f10x_hd.o(.text)
    UART4_IRQHandler                         0x0800022f   Thumb Code     0  startup_stm32f10x_hd.o(.text)
    UART5_IRQHandler                         0x0800022f   Thumb Code     0  startup_stm32f10x_hd.o(.text)
    USART3_IRQHandler                        0x0800022f   Thumb Code     0  startup_stm32f10x_hd.o(.text)
    WWDG_IRQHandler                          0x0800022f   Thumb Code     0  startup_stm32f10x_hd.o(.text)
    __user_initial_stackheap                 0x08000231   Thumb Code     0  startup_stm32f10x_hd.o(.text)
    __use_no_semihosting                     0x08000255   Thumb Code     2  use_no_semi_2.o(.text)
    __2printf                                0x08000259   Thumb Code    20  noretval__2printf.o(.text)
    __printf                                 0x08000271   Thumb Code   104  __printf.o(.text)
    _printf_int_hex                          0x080002d9   Thumb Code    84  _printf_hex_int.o(.text)
    _printf_longlong_hex                     0x080002d9   Thumb Code     0  _printf_hex_int.o(.text)
    strstr                                   0x08000331   Thumb Code    36  strstr.o(.text)
    strlen                                   0x08000355   Thumb Code    62  strlen.o(.text)
    __aeabi_memcpy                           0x08000393   Thumb Code     0  rt_memcpy_v6.o(.text)
    __rt_memcpy                              0x08000393   Thumb Code   138  rt_memcpy_v6.o(.text)
    _memcpy_lastbytes                        0x080003f9   Thumb Code     0  rt_memcpy_v6.o(.text)
    __aeabi_memclr                           0x0800041d   Thumb Code     0  rt_memclr.o(.text)
    __rt_memclr                              0x0800041d   Thumb Code    68  rt_memclr.o(.text)
    _memset                                  0x08000421   Thumb Code     0  rt_memclr.o(.text)
    __aeabi_memclr4                          0x08000461   Thumb Code     0  rt_memclr_w.o(.text)
    __aeabi_memclr8                          0x08000461   Thumb Code     0  rt_memclr_w.o(.text)
    __rt_memclr_w                            0x08000461   Thumb Code    78  rt_memclr_w.o(.text)
    _memset_w                                0x08000465   Thumb Code     0  rt_memclr_w.o(.text)
    __use_two_region_memory                  0x080004af   Thumb Code     2  heapauxi.o(.text)
    __rt_heap_escrow$2region                 0x080004b1   Thumb Code     2  heapauxi.o(.text)
    __rt_heap_expand$2region                 0x080004b3   Thumb Code     2  heapauxi.o(.text)
    __I$use$semihosting                      0x080004b5   Thumb Code     0  use_no_semi.o(.text)
    __use_no_semihosting_swi                 0x080004b5   Thumb Code     2  use_no_semi.o(.text)
    _printf_int_common                       0x080004b7   Thumb Code   178  _printf_intcommon.o(.text)
    _printf_char_file                        0x08000569   Thumb Code    32  _printf_char_file.o(.text)
    __aeabi_memcpy4                          0x0800058d   Thumb Code     0  rt_memcpy_w.o(.text)
    __aeabi_memcpy8                          0x0800058d   Thumb Code     0  rt_memcpy_w.o(.text)
    __rt_memcpy_w                            0x0800058d   Thumb Code   100  rt_memcpy_w.o(.text)
    _memcpy_lastbytes_aligned                0x080005d5   Thumb Code     0  rt_memcpy_w.o(.text)
    _printf_char_common                      0x080005fb   Thumb Code    32  _printf_char_common.o(.text)
    ferror                                   0x08000621   Thumb Code     8  ferror.o(.text)
    __user_setup_stackheap                   0x08000629   Thumb Code    74  sys_stackheap_outer.o(.text)
    exit                                     0x08000673   Thumb Code    18  exit.o(.text)
    __user_libspace                          0x08000685   Thumb Code     8  libspace.o(.text)
    __user_perproc_libspace                  0x08000685   Thumb Code     0  libspace.o(.text)
    __user_perthread_libspace                0x08000685   Thumb Code     0  libspace.o(.text)
    Bot_Abort                                0x0800068d   Thumb Code    64  usb_bot.o(i.Bot_Abort)
    ByteSwap                                 0x080006cd   Thumb Code    12  usb_regs.o(i.ByteSwap)
    CBW_Decode                               0x080006d9   Thumb Code   676  usb_bot.o(i.CBW_Decode)
    CTR_HP                                   0x0800099d   Thumb Code   174  usb_int.o(i.CTR_HP)
    CTR_LP                                   0x08000a65   Thumb Code   616  usb_int.o(i.CTR_LP)
    Char2toByte                              0x08000ced   Thumb Code    26  hex2bin.o(i.Char2toByte)
    ChartoByte                               0x08000d07   Thumb Code    38  hex2bin.o(i.ChartoByte)
    ClearDTOG_RX                             0x08000d2d   Thumb Code    48  usb_regs.o(i.ClearDTOG_RX)
    ClearDTOG_TX                             0x08000d61   Thumb Code    48  usb_regs.o(i.ClearDTOG_TX)
    Clear_Status_Out                         0x08000dc5   Thumb Code    34  usb_regs.o(i.Clear_Status_Out)
    DAP_ProcessCommand                       0x0800163d   Thumb Code   374  dap.o(i.DAP_ProcessCommand)
    DAP_ProcessVendorCommand                 0x080017b3   Thumb Code   128  dap_vendor.o(i.DAP_ProcessVendorCommand)
    DAP_Setup                                0x08002051   Thumb Code    68  dap.o(i.DAP_Setup)
    DMA1_Channel1_Event                      0x080021b9   Thumb Code     2  dma_stm32f10x.o(i.DMA1_Channel1_Event)
    DMA1_Channel1_IRQHandler                 0x080021bd   Thumb Code    22  dma_stm32f10x.o(i.DMA1_Channel1_IRQHandler)
    DMA1_Channel2_Event                      0x080021d9   Thumb Code     2  dma_stm32f10x.o(i.DMA1_Channel2_Event)
    DMA1_Channel2_IRQHandler                 0x080021dd   Thumb Code    24  dma_stm32f10x.o(i.DMA1_Channel2_IRQHandler)
    DMA1_Channel3_Event                      0x080021f9   Thumb Code     2  dma_stm32f10x.o(i.DMA1_Channel3_Event)
    DMA1_Channel3_IRQHandler                 0x080021fd   Thumb Code    24  dma_stm32f10x.o(i.DMA1_Channel3_IRQHandler)
    DMA1_Channel4_Event                      0x08002219   Thumb Code     2  dma_stm32f10x.o(i.DMA1_Channel4_Event)
    DMA1_Channel4_IRQHandler                 0x0800221d   Thumb Code    24  dma_stm32f10x.o(i.DMA1_Channel4_IRQHandler)
    DMA1_Channel5_Event                      0x08002239   Thumb Code     2  dma_stm32f10x.o(i.DMA1_Channel5_Event)
    DMA1_Channel5_IRQHandler                 0x0800223d   Thumb Code    24  dma_stm32f10x.o(i.DMA1_Channel5_IRQHandler)
    DMA1_Channel6_Event                      0x08002259   Thumb Code    12  usart_stm32f10x.o(i.DMA1_Channel6_Event)
    DMA1_Channel6_IRQHandler                 0x08002269   Thumb Code    24  dma_stm32f10x.o(i.DMA1_Channel6_IRQHandler)
    DMA1_Channel7_Event                      0x08002285   Thumb Code    12  usart_stm32f10x.o(i.DMA1_Channel7_Event)
    DMA1_Channel7_IRQHandler                 0x08002295   Thumb Code    24  dma_stm32f10x.o(i.DMA1_Channel7_IRQHandler)
    DMA2_Channel1_Event                      0x080022b1   Thumb Code     2  dma_stm32f10x.o(i.DMA2_Channel1_Event)
    DMA2_Channel1_IRQHandler                 0x080022b5   Thumb Code    24  dma_stm32f10x.o(i.DMA2_Channel1_IRQHandler)
    DMA2_Channel2_Event                      0x080022d1   Thumb Code     2  dma_stm32f10x.o(i.DMA2_Channel2_Event)
    DMA2_Channel2_IRQHandler                 0x080022d5   Thumb Code    26  dma_stm32f10x.o(i.DMA2_Channel2_IRQHandler)
    DMA2_Channel3_Event                      0x080022f5   Thumb Code     2  dma_stm32f10x.o(i.DMA2_Channel3_Event)
    DMA2_Channel3_IRQHandler                 0x080022f9   Thumb Code    26  dma_stm32f10x.o(i.DMA2_Channel3_IRQHandler)
    DMA2_Channel4_5_IRQHandler               0x08002319   Thumb Code    52  dma_stm32f10x.o(i.DMA2_Channel4_5_IRQHandler)
    DMA2_Channel4_Event                      0x08002351   Thumb Code     2  dma_stm32f10x.o(i.DMA2_Channel4_Event)
    DMA2_Channel5_Event                      0x08002353   Thumb Code     2  dma_stm32f10x.o(i.DMA2_Channel5_Event)
    DMA_ChannelInitialize                    0x08002355   Thumb Code   444  dma_stm32f10x.o(i.DMA_ChannelInitialize)
    DMA_ChannelUninitialize                  0x08002525   Thumb Code   334  dma_stm32f10x.o(i.DMA_ChannelUninitialize)
    DMA_ClearFlag                            0x08002689   Thumb Code    18  stm32f10x_dma.o(i.DMA_ClearFlag)
    DMA_Cmd                                  0x080026a5   Thumb Code    24  stm32f10x_dma.o(i.DMA_Cmd)
    DMA_DeInit                               0x080026bd   Thumb Code   324  stm32f10x_dma.o(i.DMA_DeInit)
    DMA_GetCurrDataCounter                   0x08002809   Thumb Code     8  stm32f10x_dma.o(i.DMA_GetCurrDataCounter)
    DMA_ITConfig                             0x08002811   Thumb Code    18  stm32f10x_dma.o(i.DMA_ITConfig)
    DMA_Init                                 0x08002823   Thumb Code    60  stm32f10x_dma.o(i.DMA_Init)
    DMA_SetCurrDataCounter                   0x0800285f   Thumb Code     4  stm32f10x_dma.o(i.DMA_SetCurrDataCounter)
    Delayms                                  0x08002c79   Thumb Code    40  dap.o(i.Delayms)
    Do_DAPUSB                                0x08002ca5   Thumb Code     8  cmsis-dap.o(i.Do_DAPUSB)
    Draw_Logo                                0x08002cad   Thumb Code    54  main.o(i.Draw_Logo)
    Draw_Main                                0x08002ce9   Thumb Code  2898  main.o(i.Draw_Main)
    Draw_Menu                                0x08003861   Thumb Code   396  main.o(i.Draw_Menu)
    EP1_IN_Callback                          0x08003a59   Thumb Code     8  usb_endp.o(i.EP1_IN_Callback)
    EP2_OUT_Callback                         0x08003a61   Thumb Code     8  usb_endp.o(i.EP2_OUT_Callback)
    EP4_IN_Callback                          0x08003a69   Thumb Code     8  usb_endp.o(i.EP4_IN_Callback)
    EP6_OUT_Callback                         0x08003a75   Thumb Code    76  usb_endp.o(i.EP6_OUT_Callback)
    EP_Reset                                 0x08003acd   Thumb Code    58  usbd_stm32f103_1.o(i.EP_Reset)
    EP_Status                                0x08003b0d   Thumb Code    70  usbd_stm32f103_1.o(i.EP_Status)
    EXTI_ClearITPendingBit                   0x08003b59   Thumb Code     6  stm32f10x_exti.o(i.EXTI_ClearITPendingBit)
    EXTI_Init                                0x08003b65   Thumb Code   142  stm32f10x_exti.o(i.EXTI_Init)
    FLASH_ErasePage                          0x08003bf9   Thumb Code    72  stm32f10x_flash.o(i.FLASH_ErasePage)
    FLASH_GetBank1Status                     0x08003c45   Thumb Code    48  stm32f10x_flash.o(i.FLASH_GetBank1Status)
    FLASH_Lock                               0x08003c79   Thumb Code    14  stm32f10x_flash.o(i.FLASH_Lock)
    FLASH_ProgramHalfWord                    0x08003c8d   Thumb Code    60  stm32f10x_flash.o(i.FLASH_ProgramHalfWord)
    FLASH_SWD                                0x08003ccd   Thumb Code   882  main.o(i.FLASH_SWD)
    FLASH_Unlock                             0x080040d1   Thumb Code    12  stm32f10x_flash.o(i.FLASH_Unlock)
    FLASH_WaitForLastOperation               0x080040e9   Thumb Code    38  stm32f10x_flash.o(i.FLASH_WaitForLastOperation)
    GPIO_AFConfigure                         0x08004111   Thumb Code   146  gpio_stm32f10x.o(i.GPIO_AFConfigure)
    GPIO_GetPortClockState                   0x080041ad   Thumb Code   118  gpio_stm32f10x.o(i.GPIO_GetPortClockState)
    GPIO_Init                                0x08004245   Thumb Code   278  stm32f10x_gpio.o(i.GPIO_Init)
    GPIO_PinConfigure                        0x0800435b   Thumb Code   120  gpio_stm32f10x.o(i.GPIO_PinConfigure)
    GPIO_PinRemapConfig                      0x080043d5   Thumb Code   138  stm32f10x_gpio.o(i.GPIO_PinRemapConfig)
    GPIO_PortClock                           0x08004465   Thumb Code   284  gpio_stm32f10x.o(i.GPIO_PortClock)
    GPIO_ResetBits                           0x080045a1   Thumb Code     4  stm32f10x_gpio.o(i.GPIO_ResetBits)
    GPIO_SetBits                             0x080045a5   Thumb Code     4  stm32f10x_gpio.o(i.GPIO_SetBits)
    GetEPRxAddr                              0x080045a9   Thumb Code    24  usb_regs.o(i.GetEPRxAddr)
    GetEPRxCount                             0x080045c9   Thumb Code    26  usb_regs.o(i.GetEPRxCount)
    GetEPTxAddr                              0x080045ed   Thumb Code    22  usb_regs.o(i.GetEPTxAddr)
    Get_SerialNum                            0x080046b1   Thumb Code    62  hw_config.o(i.Get_SerialNum)
    HID_ProcessCommand                       0x080046f9   Thumb Code   400  usbd_user_hid_1.o(i.HID_ProcessCommand)
    BusFault_Handler                         0x080048a9   Thumb Code     0  cmsis-dap.o(i.HardFault_Handler)
    DebugMon_Handler                         0x080048a9   Thumb Code     0  cmsis-dap.o(i.HardFault_Handler)
    HardFault_Handler                        0x080048a9   Thumb Code   122  cmsis-dap.o(i.HardFault_Handler)
    MemManage_Handler                        0x080048a9   Thumb Code     0  cmsis-dap.o(i.HardFault_Handler)
    NMI_Handler                              0x080048a9   Thumb Code     0  cmsis-dap.o(i.HardFault_Handler)
    PendSV_Handler                           0x080048a9   Thumb Code     0  cmsis-dap.o(i.HardFault_Handler)
    SVC_Handler                              0x080048a9   Thumb Code     0  cmsis-dap.o(i.HardFault_Handler)
    UsageFault_Handler                       0x080048a9   Thumb Code     0  cmsis-dap.o(i.HardFault_Handler)
    HexFormatUncode                          0x08004931   Thumb Code   298  hex2bin.o(i.HexFormatUncode)
    In0_Process                              0x08004a89   Thumb Code    98  usb_core.o(i.In0_Process)
    Init_DAPUSB                              0x08004af9   Thumb Code    46  cmsis-dap.o(i.Init_DAPUSB)
    Init_device                              0x08004b35   Thumb Code   114  main.o(i.Init_device)
    JTAG_IR                                  0x08004bf5   Thumb Code    26  jtag_dp.o(i.JTAG_IR)
    JTAG_IR_Fast                             0x08004c15   Thumb Code   318  jtag_dp.o(i.JTAG_IR_Fast)
    JTAG_IR_Slow                             0x08004d59   Thumb Code   652  jtag_dp.o(i.JTAG_IR_Slow)
    JTAG_ReadIDCode                          0x08004fe9   Thumb Code   420  jtag_dp.o(i.JTAG_ReadIDCode)
    JTAG_Sequence                            0x08005191   Thumb Code   154  jtag_dp.o(i.JTAG_Sequence)
    JTAG_Transfer                            0x08005231   Thumb Code    32  jtag_dp.o(i.JTAG_Transfer)
    JTAG_TransferFast                        0x08005255   Thumb Code   628  jtag_dp.o(i.JTAG_TransferFast)
    JTAG_TransferSlow                        0x080054cd   Thumb Code  1218  jtag_dp.o(i.JTAG_TransferSlow)
    JTAG_WriteAbort                          0x08005995   Thumb Code   720  jtag_dp.o(i.JTAG_WriteAbort)
    Key_Init                                 0x08005c69   Thumb Code    66  key.o(i.Key_Init)
    LEDS_SETUP                               0x08005cb5   Thumb Code    64  cmsis-dap.o(i.LEDS_SETUP)
    LED_Init                                 0x08005d05   Thumb Code    44  led.o(i.LED_Init)
    LedConnectedOff                          0x08005d39   Thumb Code    10  cmsis-dap.o(i.LedConnectedOff)
    LedConnectedOn                           0x08005d49   Thumb Code    10  cmsis-dap.o(i.LedConnectedOn)
    LedConnectedOut                          0x08005d59   Thumb Code    38  cmsis-dap.o(i.LedConnectedOut)
    LedRunningOff                            0x08005d85   Thumb Code    10  cmsis-dap.o(i.LedRunningOff)
    LedRunningOn                             0x08005d95   Thumb Code    10  cmsis-dap.o(i.LedRunningOn)
    LedRunningOut                            0x08005da5   Thumb Code    70  cmsis-dap.o(i.LedRunningOut)
    MAL_Config                               0x08005df1   Thumb Code    10  hw_config.o(i.MAL_Config)
    MAL_GetStatus                            0x08005dfb   Thumb Code    22  mass_mal.o(i.MAL_GetStatus)
    MAL_Init                                 0x08005e11   Thumb Code    54  mass_mal.o(i.MAL_Init)
    MAL_Read                                 0x08005e55   Thumb Code    38  mass_mal.o(i.MAL_Read)
    MAL_Write                                0x08005e7b   Thumb Code    46  mass_mal.o(i.MAL_Write)
    MASS_Data_Setup                          0x08005ea9   Thumb Code    84  usb_prop.o(i.MASS_Data_Setup)
    MASS_GetConfigDescriptor                 0x08005f0d   Thumb Code    14  usb_prop.o(i.MASS_GetConfigDescriptor)
    MASS_GetDeviceDescriptor                 0x08005f21   Thumb Code    14  usb_prop.o(i.MASS_GetDeviceDescriptor)
    MASS_GetStringDescriptor                 0x08005f35   Thumb Code    32  usb_prop.o(i.MASS_GetStringDescriptor)
    MASS_Get_Interface_Setting               0x08005f5d   Thumb Code    22  usb_prop.o(i.MASS_Get_Interface_Setting)
    MASS_NoData_Setup                        0x08005f75   Thumb Code    36  usb_prop.o(i.MASS_NoData_Setup)
    MASS_Reset                               0x08005f9d   Thumb Code   320  usb_prop.o(i.MASS_Reset)
    MASS_Status_In                           0x080060fd   Thumb Code    34  usb_prop.o(i.MASS_Status_In)
    MASS_Status_Out                          0x0800612d   Thumb Code     2  usb_prop.o(i.MASS_Status_Out)
    MASS_init                                0x08006131   Thumb Code    30  usb_prop.o(i.MASS_init)
    Mass_Storage_ClearFeature                0x08006159   Thumb Code    20  usb_prop.o(i.Mass_Storage_ClearFeature)
    Mass_Storage_In                          0x08006175   Thumb Code   100  usb_bot.o(i.Mass_Storage_In)
    Mass_Storage_Out                         0x080061e9   Thumb Code   118  usb_bot.o(i.Mass_Storage_Out)
    Mass_Storage_SetConfiguration            0x08006279   Thumb Code    36  usb_prop.o(i.Mass_Storage_SetConfiguration)
    Mass_Storage_SetDeviceAddress            0x080062a9   Thumb Code     8  usb_prop.o(i.Mass_Storage_SetDeviceAddress)
    NOP_Process                              0x080062b5   Thumb Code     2  usb_core.o(i.NOP_Process)
    NVIC_Init                                0x08006301   Thumb Code   100  misc.o(i.NVIC_Init)
    NVIC_PriorityGroupConfig                 0x08006371   Thumb Code    10  misc.o(i.NVIC_PriorityGroupConfig)
    OLED_Clear                               0x080064bd   Thumb Code    64  oled.o(i.OLED_Clear)
    OLED_DrawBMP                             0x080064fd   Thumb Code   118  oled.o(i.OLED_DrawBMP)
    OLED_Init                                0x08006575   Thumb Code   312  oled.o(i.OLED_Init)
    OLED_Set_Pos                             0x080066b5   Thumb Code    46  oled.o(i.OLED_Set_Pos)
    OLED_ShowChar                            0x080066e5   Thumb Code   110  oled.o(i.OLED_ShowChar)
    OLED_ShowString                          0x08006759   Thumb Code   100  oled.o(i.OLED_ShowString)
    OLED_WR_Byte                             0x080067bd   Thumb Code   108  oled.o(i.OLED_WR_Byte)
    Out0_Process                             0x08006831   Thumb Code    70  usb_core.o(i.Out0_Process)
    PMAToUserBufferCopy                      0x08006b81   Thumb Code    34  usb_mem.o(i.PMAToUserBufferCopy)
    PORT_JTAG_SETUP                          0x08006ba9   Thumb Code    78  cmsis-dap.o(i.PORT_JTAG_SETUP)
    PORT_OFF                                 0x08006c11   Thumb Code    58  cmsis-dap.o(i.PORT_OFF)
    PORT_SWD_SETUP                           0x08006c69   Thumb Code    78  cmsis-dap.o(i.PORT_SWD_SETUP)
    PORT_USB_CONNECT_SETUP                   0x08006cd1   Thumb Code    32  cmsis-dap.o(i.PORT_USB_CONNECT_SETUP)
    Post0_Process                            0x08006cfd   Thumb Code    54  usb_core.o(i.Post0_Process)
    PowerOn                                  0x08006d45   Thumb Code    54  usb_pwr.o(i.PowerOn)
    RCC_AHBPeriphClockCmd                    0x08006d85   Thumb Code    26  stm32f10x_rcc.o(i.RCC_AHBPeriphClockCmd)
    RCC_APB1PeriphClockCmd                   0x08006da5   Thumb Code    26  stm32f10x_rcc.o(i.RCC_APB1PeriphClockCmd)
    RCC_APB2PeriphClockCmd                   0x08006dc5   Thumb Code    26  stm32f10x_rcc.o(i.RCC_APB2PeriphClockCmd)
    RCC_GetClocksFreq                        0x08006de5   Thumb Code   192  stm32f10x_rcc.o(i.RCC_GetClocksFreq)
    RCC_USBCLKConfig                         0x08006eb9   Thumb Code     6  stm32f10x_rcc.o(i.RCC_USBCLKConfig)
    RST_Transfer                             0x08006ec5   Thumb Code   898  cmsis-dap.o(i.RST_Transfer)
    Read_Memory                              0x08007255   Thumb Code   224  memory.o(i.Read_Memory)
    SCSI_Address_Management                  0x08007359   Thumb Code   126  usb_scsi.o(i.SCSI_Address_Management)
    SCSI_Format_Cmd                          0x080073e5   Thumb Code    44  usb_scsi.o(i.SCSI_Format_Cmd)
    SCSI_Inquiry_Cmd                         0x08007415   Thumb Code    54  usb_scsi.o(i.SCSI_Inquiry_Cmd)
    SCSI_Invalid_Cmd                         0x0800745d   Thumb Code    64  usb_scsi.o(i.SCSI_Invalid_Cmd)
    SCSI_ModeSense10_Cmd                     0x080074a1   Thumb Code    14  usb_scsi.o(i.SCSI_ModeSense10_Cmd)
    SCSI_ModeSense6_Cmd                      0x080074b5   Thumb Code    14  usb_scsi.o(i.SCSI_ModeSense6_Cmd)
    SCSI_Read10_Cmd                          0x080074c9   Thumb Code   110  usb_scsi.o(i.SCSI_Read10_Cmd)
    SCSI_ReadCapacity10_Cmd                  0x08007541   Thumb Code   138  usb_scsi.o(i.SCSI_ReadCapacity10_Cmd)
    SCSI_ReadFormatCapacity_Cmd              0x080075dd   Thumb Code   120  usb_scsi.o(i.SCSI_ReadFormatCapacity_Cmd)
    SCSI_RequestSense_Cmd                    0x08007665   Thumb Code    30  usb_scsi.o(i.SCSI_RequestSense_Cmd)
    SCSI_Start_Stop_Unit_Cmd                 0x0800768d   Thumb Code    14  usb_scsi.o(i.SCSI_Start_Stop_Unit_Cmd)
    SCSI_TestUnitReady_Cmd                   0x0800769d   Thumb Code    52  usb_scsi.o(i.SCSI_TestUnitReady_Cmd)
    SCSI_Verify10_Cmd                        0x080076d5   Thumb Code    58  usb_scsi.o(i.SCSI_Verify10_Cmd)
    SCSI_Write10_Cmd                         0x08007715   Thumb Code   110  usb_scsi.o(i.SCSI_Write10_Cmd)
    SPI2_Init                                0x0800778d   Thumb Code   140  spi.o(i.SPI2_Init)
    SPI2_ReadWriteByte                       0x08007821   Thumb Code    78  spi.o(i.SPI2_ReadWriteByte)
    SPI2_SetSpeed                            0x08007875   Thumb Code    36  spi.o(i.SPI2_SetSpeed)
    SPI_Cmd                                  0x0800789d   Thumb Code    24  stm32f10x_spi.o(i.SPI_Cmd)
    SPI_I2S_GetFlagStatus                    0x080078b5   Thumb Code    18  stm32f10x_spi.o(i.SPI_I2S_GetFlagStatus)
    SPI_I2S_ReceiveData                      0x080078c7   Thumb Code     6  stm32f10x_spi.o(i.SPI_I2S_ReceiveData)
    SPI_I2S_SendData                         0x080078cd   Thumb Code     4  stm32f10x_spi.o(i.SPI_I2S_SendData)
    SPI_Init                                 0x080078d1   Thumb Code    60  stm32f10x_spi.o(i.SPI_Init)
    SWD_Transfer                             0x0800790d   Thumb Code    32  sw_dp.o(i.SWD_Transfer)
    SWD_TransferFast                         0x08007931   Thumb Code   790  sw_dp.o(i.SWD_TransferFast)
    SWD_TransferSlow                         0x08007c4d   Thumb Code  2002  sw_dp.o(i.SWD_TransferSlow)
    SWJ_Sequence                             0x08008425   Thumb Code   158  sw_dp.o(i.SWJ_Sequence)
    SWO_Baudrate                             0x080084d1   Thumb Code    84  swo.o(i.SWO_Baudrate)
    SWO_Control                              0x0800852d   Thumb Code    86  swo.o(i.SWO_Control)
    SWO_Data                                 0x0800858d   Thumb Code   182  swo.o(i.SWO_Data)
    SWO_Mode                                 0x0800865d   Thumb Code   102  swo.o(i.SWO_Mode)
    SWO_Status                               0x080086cd   Thumb Code    70  swo.o(i.SWO_Status)
    SWO_Transport                            0x0800871d   Thumb Code    62  swo.o(i.SWO_Transport)
    Scan_Key                                 0x08008765   Thumb Code   110  main.o(i.Scan_Key)
    SetBTABLE                                0x080087e5   Thumb Code    12  usb_regs.o(i.SetBTABLE)
    SetDeviceAddress                         0x080087f5   Thumb Code    68  usb_core.o(i.SetDeviceAddress)
    SetEPRxAddr                              0x08008845   Thumb Code    26  usb_regs.o(i.SetEPRxAddr)
    SetEPRxCount                             0x08008869   Thumb Code    68  usb_regs.o(i.SetEPRxCount)
    SetEPRxStatus                            0x080088b5   Thumb Code    60  usb_regs.o(i.SetEPRxStatus)
    SetEPRxValid                             0x080088f5   Thumb Code    48  usb_regs.o(i.SetEPRxValid)
    SetEPTxAddr                              0x08008929   Thumb Code    24  usb_regs.o(i.SetEPTxAddr)
    SetEPTxCount                             0x08008949   Thumb Code    20  usb_regs.o(i.SetEPTxCount)
    SetEPTxStatus                            0x08008965   Thumb Code    60  usb_regs.o(i.SetEPTxStatus)
    SetEPTxValid                             0x080089a5   Thumb Code    48  usb_regs.o(i.SetEPTxValid)
    SetEPType                                0x080089d9   Thumb Code    32  usb_regs.o(i.SetEPType)
    Set_CSW                                  0x08008b01   Thumb Code    46  usb_bot.o(i.Set_CSW)
    Set_Scsi_Sense_Data                      0x08008b3d   Thumb Code     8  usb_scsi.o(i.Set_Scsi_Sense_Data)
    Set_System                               0x08008b49   Thumb Code    24  hw_config.o(i.Set_System)
    Set_USBClock                             0x08008b65   Thumb Code    18  hw_config.o(i.Set_USBClock)
    Setup0_Process                           0x08008b79   Thumb Code   170  usb_core.o(i.Setup0_Process)
    Standard_ClearFeature                    0x08008c31   Thumb Code   342  usb_core.o(i.Standard_ClearFeature)
    Standard_GetConfiguration                0x08008d9d   Thumb Code    34  usb_core.o(i.Standard_GetConfiguration)
    Standard_GetDescriptorData               0x08008dc9   Thumb Code    32  usb_core.o(i.Standard_GetDescriptorData)
    Standard_GetInterface                    0x08008ded   Thumb Code    34  usb_core.o(i.Standard_GetInterface)
    Standard_GetStatus                       0x08008e19   Thumb Code   238  usb_core.o(i.Standard_GetStatus)
    Standard_SetConfiguration                0x08008f19   Thumb Code    60  usb_core.o(i.Standard_SetConfiguration)
    Standard_SetDeviceFeature                0x08008f61   Thumb Code    30  usb_core.o(i.Standard_SetDeviceFeature)
    Standard_SetEndPointFeature              0x08008f89   Thumb Code   192  usb_core.o(i.Standard_SetEndPointFeature)
    Standard_SetInterface                    0x08009059   Thumb Code    96  usb_core.o(i.Standard_SetInterface)
    SysTick_CLKSourceConfig                  0x080090c5   Thumb Code    40  misc.o(i.SysTick_CLKSourceConfig)
    SysTick_Handler                          0x080090ed   Thumb Code   108  cmsis-dap.o(i.SysTick_Handler)
    SystemInit                               0x08009161   Thumb Code    78  system_stm32f10x.o(i.SystemInit)
    Transfer_Data_Request                    0x080091c1   Thumb Code    46  usb_bot.o(i.Transfer_Data_Request)
    UART_SWO_Baudrate                        0x0800925d   Thumb Code   174  swo.o(i.UART_SWO_Baudrate)
    UART_SWO_Capture                         0x08009329   Thumb Code    18  swo.o(i.UART_SWO_Capture)
    UART_SWO_Control                         0x08009341   Thumb Code   114  swo.o(i.UART_SWO_Control)
    UART_SWO_Mode                            0x080093c9   Thumb Code    78  swo.o(i.UART_SWO_Mode)
    UART_SWO_Update                          0x08009425   Thumb Code    14  swo.o(i.UART_SWO_Update)
    USART1_IRQHandler                        0x0800943d   Thumb Code    72  usart.o(i.USART1_IRQHandler)
    USART2_IRQHandler                        0x080094fd   Thumb Code    10  usart_stm32f10x.o(i.USART2_IRQHandler)
    USART_ClearITPendingBit                  0x08009619   Thumb Code    30  stm32f10x_usart.o(i.USART_ClearITPendingBit)
    USART_Cmd                                0x08009637   Thumb Code    24  stm32f10x_usart.o(i.USART_Cmd)
    USART_DMACmd                             0x08009e73   Thumb Code    18  stm32f10x_usart.o(i.USART_DMACmd)
    USART_GetITStatus                        0x08009e8b   Thumb Code    84  stm32f10x_usart.o(i.USART_GetITStatus)
    USART_IRQHandler                         0x0800a077   Thumb Code   624  usart_stm32f10x.o(i.USART_IRQHandler)
    USART_ITConfig                           0x0800a2e7   Thumb Code    74  stm32f10x_usart.o(i.USART_ITConfig)
    USART_Init                               0x0800a331   Thumb Code   210  stm32f10x_usart.o(i.USART_Init)
    USART_RX_DMA_Complete                    0x0800a7b9   Thumb Code   130  usart_stm32f10x.o(i.USART_RX_DMA_Complete)
    USART_ReceiveData                        0x0800a95d   Thumb Code    10  stm32f10x_usart.o(i.USART_ReceiveData)
    USART_TX_DMA_Complete                    0x0800aaf9   Thumb Code    74  usart_stm32f10x.o(i.USART_TX_DMA_Complete)
    USBD_CDC_ACM_ClearCommFeature            0x0800ac29   Thumb Code     4  usbd_cdc_acm.o(i.USBD_CDC_ACM_ClearCommFeature)
    USBD_CDC_ACM_DataRead                    0x0800ac2d   Thumb Code    46  usbd_cdc_acm.o(i.USBD_CDC_ACM_DataRead)
    USBD_CDC_ACM_DataReceived                0x0800ac61   Thumb Code    46  usbd_user_cdc_acm.o(i.USBD_CDC_ACM_DataReceived)
    USBD_CDC_ACM_EP_BULKIN_Event             0x0800ac99   Thumb Code    24  usbd_cdc_acm.o(i.USBD_CDC_ACM_EP_BULKIN_Event)
    USBD_CDC_ACM_EP_BULKOUT_Event            0x0800ad5d   Thumb Code    48  usbd_cdc_acm.o(i.USBD_CDC_ACM_EP_BULKOUT_Event)
    USBD_CDC_ACM_EP_BULK_Event               0x0800adf9   Thumb Code    30  usbd_cdc_acm.o(i.USBD_CDC_ACM_EP_BULK_Event)
    USBD_CDC_ACM_EP_INTIN_Event              0x0800ae17   Thumb Code     2  usbd_cdc_acm.o(i.USBD_CDC_ACM_EP_INTIN_Event)
    USBD_CDC_ACM_GetCommFeature              0x0800ae19   Thumb Code     4  usbd_cdc_acm.o(i.USBD_CDC_ACM_GetCommFeature)
    USBD_CDC_ACM_GetEncapsulatedResponse     0x0800ae1d   Thumb Code     4  usbd_cdc_acm.o(i.USBD_CDC_ACM_GetEncapsulatedResponse)
    USBD_CDC_ACM_GetLineCoding               0x0800ae21   Thumb Code    48  usbd_cdc_acm.o(i.USBD_CDC_ACM_GetLineCoding)
    USBD_CDC_ACM_Initialize                  0x0800ae59   Thumb Code     8  usbd_cdc_acm.o(i.USBD_CDC_ACM_Initialize)
    USBD_CDC_ACM_PortGetLineCoding           0x0800ae61   Thumb Code    20  usbd_user_cdc_acm.o(i.USBD_CDC_ACM_PortGetLineCoding)
    USBD_CDC_ACM_PortInitialize              0x0800ae79   Thumb Code    22  usbd_user_cdc_acm.o(i.USBD_CDC_ACM_PortInitialize)
    USBD_CDC_ACM_PortReset                   0x0800ae99   Thumb Code    26  usbd_user_cdc_acm.o(i.USBD_CDC_ACM_PortReset)
    USBD_CDC_ACM_PortSetControlLineState     0x0800aeb9   Thumb Code     6  usbd_user_cdc_acm.o(i.USBD_CDC_ACM_PortSetControlLineState)
    USBD_CDC_ACM_PortSetLineCoding           0x0800aec1   Thumb Code   258  usbd_user_cdc_acm.o(i.USBD_CDC_ACM_PortSetLineCoding)
    USBD_CDC_ACM_Reset                       0x0800afd9   Thumb Code    66  usbd_cdc_acm.o(i.USBD_CDC_ACM_Reset)
    USBD_CDC_ACM_Reset_Event                 0x0800b029   Thumb Code     8  usbd_cdc_acm.o(i.USBD_CDC_ACM_Reset_Event)
    USBD_CDC_ACM_SOF_Event                   0x0800b031   Thumb Code    96  usbd_cdc_acm.o(i.USBD_CDC_ACM_SOF_Event)
    USBD_CDC_ACM_SendBreak                   0x0800b099   Thumb Code     4  usbd_cdc_acm.o(i.USBD_CDC_ACM_SendBreak)
    USBD_CDC_ACM_SendEncapsulatedCommand     0x0800b09d   Thumb Code     4  usbd_cdc_acm.o(i.USBD_CDC_ACM_SendEncapsulatedCommand)
    USBD_CDC_ACM_SetCommFeature              0x0800b0a1   Thumb Code     4  usbd_cdc_acm.o(i.USBD_CDC_ACM_SetCommFeature)
    USBD_CDC_ACM_SetControlLineState         0x0800b0a5   Thumb Code    12  usbd_cdc_acm.o(i.USBD_CDC_ACM_SetControlLineState)
    USBD_CDC_ACM_SetLineCoding               0x0800b0b5   Thumb Code    36  usbd_cdc_acm.o(i.USBD_CDC_ACM_SetLineCoding)
    USBD_ClrStallEP                          0x0800b0e1   Thumb Code    22  usbd_stm32f103_1.o(i.USBD_ClrStallEP)
    USBD_ConfigEP                            0x0800b0f9   Thumb Code   186  usbd_stm32f103_1.o(i.USBD_ConfigEP)
    USBD_Configure                           0x0800b1c1   Thumb Code    18  usbd_stm32f103_1.o(i.USBD_Configure)
    USBD_Configure_Event                     0x0800b1d9   Thumb Code     4  usb_config_1.o(i.USBD_Configure_Event)
    USBD_Connect                             0x0800b1dd   Thumb Code    48  usbd_stm32f103_1.o(i.USBD_Connect)
    USBD_DataInStage                         0x0800b215   Thumb Code    48  usbd_core.o(i.USBD_DataInStage)
    USBD_DataOutStage                        0x0800b24d   Thumb Code    26  usbd_core.o(i.USBD_DataOutStage)
    USBD_DirCtrlEP                           0x0800b26d   Thumb Code     2  usbd_stm32f103_1.o(i.USBD_DirCtrlEP)
    USBD_DisableEP                           0x0800b26f   Thumb Code    14  usbd_stm32f103_1.o(i.USBD_DisableEP)
    USBD_EnableEP                            0x0800b27d   Thumb Code    16  usbd_stm32f103_1.o(i.USBD_EnableEP)
    USBD_EndPoint0                           0x0800b28d   Thumb Code   588  usbd_core.o(i.USBD_EndPoint0)
    USBD_EndPoint0_Out_ADC_ReqToEP           0x0800b4f1   Thumb Code     4  usb_config_1.o(i.USBD_EndPoint0_Out_ADC_ReqToEP)
    USBD_EndPoint0_Out_ADC_ReqToIF           0x0800b4f5   Thumb Code     4  usb_config_1.o(i.USBD_EndPoint0_Out_ADC_ReqToIF)
    USBD_EndPoint0_Out_CDC_ReqToIF           0x0800b4f9   Thumb Code    68  usbd_core_cdc.o(i.USBD_EndPoint0_Out_CDC_ReqToIF)
    USBD_EndPoint0_Out_CLS_ReqToDEV          0x0800b549   Thumb Code     4  usb_config_1.o(i.USBD_EndPoint0_Out_CLS_ReqToDEV)
    USBD_EndPoint0_Out_CLS_ReqToEP           0x0800b54d   Thumb Code     4  usb_config_1.o(i.USBD_EndPoint0_Out_CLS_ReqToEP)
    USBD_EndPoint0_Out_CLS_ReqToIF           0x0800b551   Thumb Code     4  usb_config_1.o(i.USBD_EndPoint0_Out_CLS_ReqToIF)
    USBD_EndPoint0_Out_HID_ReqToIF           0x0800b555   Thumb Code    38  usbd_core_hid.o(i.USBD_EndPoint0_Out_HID_ReqToIF)
    USBD_EndPoint0_Setup_ADC_ReqToEP         0x0800b585   Thumb Code     4  usb_config_1.o(i.USBD_EndPoint0_Setup_ADC_ReqToEP)
    USBD_EndPoint0_Setup_ADC_ReqToIF         0x0800b589   Thumb Code     4  usb_config_1.o(i.USBD_EndPoint0_Setup_ADC_ReqToIF)
    USBD_EndPoint0_Setup_CDC_ReqToIF         0x0800b58d   Thumb Code   140  usbd_core_cdc.o(i.USBD_EndPoint0_Setup_CDC_ReqToIF)
    USBD_EndPoint0_Setup_CLS_ReqToDEV        0x0800b62d   Thumb Code     4  usb_config_1.o(i.USBD_EndPoint0_Setup_CLS_ReqToDEV)
    USBD_EndPoint0_Setup_CLS_ReqToEP         0x0800b631   Thumb Code     4  usb_config_1.o(i.USBD_EndPoint0_Setup_CLS_ReqToEP)
    USBD_EndPoint0_Setup_CLS_ReqToIF         0x0800b635   Thumb Code     4  usb_config_1.o(i.USBD_EndPoint0_Setup_CLS_ReqToIF)
    USBD_EndPoint0_Setup_HID_ReqToIF         0x0800b639   Thumb Code   144  usbd_core_hid.o(i.USBD_EndPoint0_Setup_HID_ReqToIF)
    USBD_EndPoint0_Setup_MSC_ReqToIF         0x0800b6e5   Thumb Code     4  usb_config_1.o(i.USBD_EndPoint0_Setup_MSC_ReqToIF)
    USBD_HID_Configure_Event                 0x0800b6e9   Thumb Code    34  usbd_hid.o(i.USBD_HID_Configure_Event)
    USBD_HID_EP_INTIN_Event                  0x0800b711   Thumb Code   326  usbd_hid.o(i.USBD_HID_EP_INTIN_Event)
    USBD_HID_EP_INTOUT_Event                 0x0800b875   Thumb Code   102  usbd_hid.o(i.USBD_HID_EP_INTOUT_Event)
    USBD_HID_EP_INT_Event                    0x0800b8f9   Thumb Code    30  usbd_hid.o(i.USBD_HID_EP_INT_Event)
    USBD_HID_GetIdle                         0x0800b919   Thumb Code    16  usbd_hid.o(i.USBD_HID_GetIdle)
    USBD_HID_GetProtocol                     0x0800b935   Thumb Code    14  usbd_hid.o(i.USBD_HID_GetProtocol)
    USBD_HID_GetReport                       0x0800b949   Thumb Code    46  usbd_hid.o(i.USBD_HID_GetReport)
    USBD_HID_SOF_Event                       0x0800b985   Thumb Code   288  usbd_hid.o(i.USBD_HID_SOF_Event)
    USBD_HID_SetIdle                         0x0800bacd   Thumb Code    42  usbd_hid.o(i.USBD_HID_SetIdle)
    USBD_HID_SetProtocol                     0x0800bb09   Thumb Code    14  usbd_hid.o(i.USBD_HID_SetProtocol)
    USBD_HID_SetReport                       0x0800bb1d   Thumb Code    50  usbd_hid.o(i.USBD_HID_SetReport)
    USBD_Init                                0x0800bb5d   Thumb Code    24  usbd_stm32f103_1.o(i.USBD_Init)
    USBD_IntrEna                             0x0800bb79   Thumb Code    22  usbd_stm32f103_1.o(i.USBD_IntrEna)
    USBD_RTX_TaskInit                        0x0800bb8f   Thumb Code     2  usb_config_1.o(i.USBD_RTX_TaskInit)
    USBD_ReadEP                              0x0800bb91   Thumb Code    86  usbd_stm32f103_1.o(i.USBD_ReadEP)
    USBD_ReqClrFeature_MSC                   0x0800bbf1   Thumb Code     2  usb_config_1.o(i.USBD_ReqClrFeature_MSC)
    USBD_ReqGetDescriptor                    0x0800bbf5   Thumb Code   260  usbd_core.o(i.USBD_ReqGetDescriptor)
    USBD_ReqGetDescriptor_HID                0x0800bd25   Thumb Code    90  usbd_core_hid.o(i.USBD_ReqGetDescriptor_HID)
    USBD_ReqGetStatus                        0x0800bda9   Thumb Code   116  usbd_core.o(i.USBD_ReqGetStatus)
    USBD_ReqSetClrFeature                    0x0800be25   Thumb Code   168  usbd_core.o(i.USBD_ReqSetClrFeature)
    USBD_ReqSetConfiguration                 0x0800bed1   Thumb Code   376  usbd_core.o(i.USBD_ReqSetConfiguration)
    USBD_ReqSetInterface                     0x0800c061   Thumb Code   280  usbd_core.o(i.USBD_ReqSetInterface)
    USBD_Reset                               0x0800c18d   Thumb Code   160  usbd_stm32f103_1.o(i.USBD_Reset)
    USBD_ResetEP                             0x0800c241   Thumb Code    12  usbd_stm32f103_1.o(i.USBD_ResetEP)
    USBD_Reset_Event                         0x0800c24d   Thumb Code     4  usb_config_1.o(i.USBD_Reset_Event)
    USBD_SOF_Event                           0x0800c251   Thumb Code    14  usb_config_1.o(i.USBD_SOF_Event)
    USBD_SetAddress                          0x0800c261   Thumb Code    16  usbd_stm32f103_1.o(i.USBD_SetAddress)
    USBD_SetStallEP                          0x0800c275   Thumb Code    16  usbd_stm32f103_1.o(i.USBD_SetStallEP)
    USBD_SetupStage                          0x0800c285   Thumb Code     8  usbd_core.o(i.USBD_SetupStage)
    USBD_StatusInStage                       0x0800c291   Thumb Code    10  usbd_core.o(i.USBD_StatusInStage)
    USBD_StatusOutStage                      0x0800c29d   Thumb Code     8  usbd_core.o(i.USBD_StatusOutStage)
    USBD_Suspend                             0x0800c2a9   Thumb Code    24  usbd_stm32f103_1.o(i.USBD_Suspend)
    USBD_WakeUp                              0x0800c2c5   Thumb Code    14  usbd_stm32f103_1.o(i.USBD_WakeUp)
    USBD_WakeUpCfg                           0x0800c2d9   Thumb Code     2  usbd_stm32f103_1.o(i.USBD_WakeUpCfg)
    USBD_WriteEP                             0x0800c2dd   Thumb Code   104  usbd_stm32f103_1.o(i.USBD_WriteEP)
    USBWakeUp_IRQHandler                     0x0800c351   Thumb Code    12  hw_config.o(i.USBWakeUp_IRQHandler)
    USB_Cable_Config                         0x0800c35d   Thumb Code     2  hw_config.o(i.USB_Cable_Config)
    USB_HP_CAN1_TX_IRQHandler                0x0800c35f   Thumb Code     8  hw_config.o(i.USB_HP_CAN1_TX_IRQHandler)
    USB_Init                                 0x0800c369   Thumb Code    36  usb_init.o(i.USB_Init)
    USB_Interrupts_Config                    0x0800c3a5   Thumb Code    94  hw_config.o(i.USB_Interrupts_Config)
    USB_Istr                                 0x0800c405   Thumb Code    62  usb_istr.o(i.USB_Istr)
    USB_LP_CAN1_RX0_IRQHandler               0x0800c455   Thumb Code   326  usbd_stm32f103_1.o(i.USB_LP_CAN1_RX0_IRQHandler)
    USB_SIL_Init                             0x0800c5bd   Thumb Code    28  usb_sil.o(i.USB_SIL_Init)
    USB_SIL_Read                             0x0800c5e1   Thumb Code    46  usb_sil.o(i.USB_SIL_Read)
    USB_SIL_Write                            0x0800c60f   Thumb Code    46  usb_sil.o(i.USB_SIL_Write)
    UserAppAbort                             0x0800c63d   Thumb Code     8  cmsis-dap.o(i.UserAppAbort)
    UserAppInit                              0x0800c649   Thumb Code    14  cmsis-dap.o(i.UserAppInit)
    UserToPMABufferCopy                      0x0800c65d   Thumb Code    52  usb_mem.o(i.UserToPMABufferCopy)
    Virtual_Com_Port_GetLineCoding           0x0800c695   Thumb Code    20  usb_prop.o(i.Virtual_Com_Port_GetLineCoding)
    Virtual_Com_Port_SetLineCoding           0x0800c6b1   Thumb Code    20  usb_prop.o(i.Virtual_Com_Port_SetLineCoding)
    W25QXX_Erase_Sector                      0x0800c6cd   Thumb Code    70  w25qxx.o(i.W25QXX_Erase_Sector)
    W25QXX_Init                              0x0800c725   Thumb Code    70  w25qxx.o(i.W25QXX_Init)
    W25QXX_Read                              0x0800c779   Thumb Code    74  w25qxx.o(i.W25QXX_Read)
    W25QXX_ReadID                            0x0800c7c9   Thumb Code    64  w25qxx.o(i.W25QXX_ReadID)
    W25QXX_ReadSR                            0x0800c811   Thumb Code    36  w25qxx.o(i.W25QXX_ReadSR)
    W25QXX_Wait_Busy                         0x0800c83d   Thumb Code    18  w25qxx.o(i.W25QXX_Wait_Busy)
    W25QXX_Write                             0x0800c851   Thumb Code   180  w25qxx.o(i.W25QXX_Write)
    W25QXX_Write_Enable                      0x0800c909   Thumb Code    24  w25qxx.o(i.W25QXX_Write_Enable)
    W25QXX_Write_NoCheck                     0x0800c929   Thumb Code    70  w25qxx.o(i.W25QXX_Write_NoCheck)
    W25QXX_Write_Page                        0x0800c971   Thumb Code    80  w25qxx.o(i.W25QXX_Write_Page)
    Write_Memory                             0x0800c9c5   Thumb Code   252  memory.o(i.Write_Memory)
    _sys_exit                                0x0800caed   Thumb Code     4  usart.o(i._sys_exit)
    clust2sect                               0x0800cf29   Thumb Code    26  ff.o(i.clust2sect)
    delay_init                               0x0800d165   Thumb Code    50  delay.o(i.delay_init)
    delay_ms                                 0x0800d1a9   Thumb Code    72  delay.o(i.delay_ms)
    delaymS                                  0x0800d1f5   Thumb Code    32  swd_host.o(i.delaymS)
    disk_initialize                          0x0800d519   Thumb Code     6  diskio.o(i.disk_initialize)
    disk_ioctl                               0x0800d51f   Thumb Code     6  diskio.o(i.disk_ioctl)
    disk_read                                0x0800d525   Thumb Code    76  diskio.o(i.disk_read)
    disk_status                              0x0800d571   Thumb Code     6  diskio.o(i.disk_status)
    disk_write                               0x0800d577   Thumb Code    76  diskio.o(i.disk_write)
    f_close                                  0x0800d5c3   Thumb Code    22  ff.o(i.f_close)
    f_gets                                   0x0800d5d9   Thumb Code    78  ff.o(i.f_gets)
    f_lseek                                  0x0800d627   Thumb Code   432  ff.o(i.f_lseek)
    f_mount                                  0x0800d7d9   Thumb Code    38  ff.o(i.f_mount)
    f_open                                   0x0800d805   Thumb Code   364  ff.o(i.f_open)
    f_opendir                                0x0800d971   Thumb Code   110  ff.o(i.f_opendir)
    f_putc                                   0x0800d9df   Thumb Code    38  ff.o(i.f_putc)
    f_read                                   0x0800da05   Thumb Code   462  ff.o(i.f_read)
    f_readdir                                0x0800dbd3   Thumb Code    88  ff.o(i.f_readdir)
    f_sync                                   0x0800dc2b   Thumb Code   184  ff.o(i.f_sync)
    f_unlink                                 0x0800dce3   Thumb Code   178  ff.o(i.f_unlink)
    f_write                                  0x0800dd95   Thumb Code   526  ff.o(i.f_write)
    fputc                                    0x0800e041   Thumb Code    24  usart.o(i.fputc)
    get_fat                                  0x0800e05d   Thumb Code   228  ff.o(i.get_fat)
    get_fattime                              0x0800e141   Thumb Code     4  diskio.o(i.get_fattime)
    main                                     0x0800e1f9   Thumb Code    16  main.o(i.main)
    put_fat                                  0x0800e2cf   Thumb Code   310  ff.o(i.put_fat)
    swd_flash_syscall_exec                   0x0800e46d   Thumb Code   110  swd_host.o(i.swd_flash_syscall_exec)
    swd_init                                 0x0800e4db   Thumb Code    14  swd_host.o(i.swd_init)
    swd_init_debug                           0x0800e4e9   Thumb Code   156  swd_host.o(i.swd_init_debug)
    swd_off                                  0x0800e58d   Thumb Code    10  swd_host.o(i.swd_off)
    swd_read_dp                              0x0800e685   Thumb Code    92  swd_host.o(i.swd_read_dp)
    swd_set_target_reset                     0x0800e775   Thumb Code    28  swd_host.o(i.swd_set_target_reset)
    swd_set_target_state_hw                  0x0800e799   Thumb Code   388  swd_host.o(i.swd_set_target_state_hw)
    swd_write_ap                             0x0800e9a1   Thumb Code   114  swd_host.o(i.swd_write_ap)
    swd_write_dp                             0x0800ec11   Thumb Code    66  swd_host.o(i.swd_write_dp)
    swd_write_memory                         0x0800ec59   Thumb Code   126  swd_host.o(i.swd_write_memory)
    target_flash_erase_chip                  0x0800edd5   Thumb Code    34  swd_flash.o(i.target_flash_erase_chip)
    target_flash_init                        0x0800edfd   Thumb Code    64  swd_flash.o(i.target_flash_init)
    target_flash_program_page                0x0800ee41   Thumb Code    96  swd_flash.o(i.target_flash_program_page)
    target_flash_uninit                      0x0800eea5   Thumb Code    16  swd_flash.o(i.target_flash_uninit)
    target_opt_erase_chip                    0x0800eeb5   Thumb Code    34  swd_opt.o(i.target_opt_erase_chip)
    target_opt_init                          0x0800eedd   Thumb Code    62  swd_opt.o(i.target_opt_init)
    target_opt_uninit                        0x0800ef21   Thumb Code    32  swd_opt.o(i.target_opt_uninit)
    uart1_dma_enable                         0x0800ef45   Thumb Code    30  usart.o(i.uart1_dma_enable)
    uart_init                                0x0800ef65   Thumb Code   334  usart.o(i.uart_init)
    usart_receive_parse                      0x0800f0c9   Thumb Code   108  usart.o(i.usart_receive_parse)
    usart_sendCommand                        0x0800f155   Thumb Code    50  usart.o(i.usart_sendCommand)
    usbd_class_init                          0x0800f191   Thumb Code    14  usb_config_1.o(i.usbd_class_init)
    usbd_configured                          0x0800f1a1   Thumb Code    12  usbd_core.o(i.usbd_configured)
    usbd_connect                             0x0800f1b1   Thumb Code     4  usbd_core.o(i.usbd_connect)
    usbd_hid_get_protocol                    0x0800f1b5   Thumb Code     4  usbd_hid.o(i.usbd_hid_get_protocol)
    usbd_hid_get_report                      0x0800f1b9   Thumb Code   140  usbd_user_hid_1.o(i.usbd_hid_get_report)
    usbd_hid_get_report_trigger              0x0800f259   Thumb Code   132  usbd_hid.o(i.usbd_hid_get_report_trigger)
    usbd_hid_init                            0x0800f2f5   Thumb Code    36  usbd_user_hid_1.o(i.usbd_hid_init)
    usbd_hid_process                         0x0800f335   Thumb Code   150  usbd_user_hid_1.o(i.usbd_hid_process)
    usbd_hid_set_protocol                    0x0800f3f1   Thumb Code     2  usbd_hid.o(i.usbd_hid_set_protocol)
    usbd_hid_set_report                      0x0800f3f5   Thumb Code   138  usbd_user_hid_1.o(i.usbd_hid_set_report)
    usbd_init                                0x0800f495   Thumb Code    24  usbd_core.o(i.usbd_init)
    usbd_os_evt_set                          0x0800f4b1   Thumb Code     2  usb_config_1.o(i.usbd_os_evt_set)
    usbd_reset_core                          0x0800f4b5   Thumb Code    26  usbd_core.o(i.usbd_reset_core)
    vResetTarget                             0x0800f4d9   Thumb Code   142  cmsis-dap.o(i.vResetTarget)
    __aeabi_ddiv                             0x0800f5a1   Thumb Code     0  ddiv.o(x$fpl$ddiv)
    _ddiv                                    0x0800f5a1   Thumb Code   552  ddiv.o(x$fpl$ddiv)
    __aeabi_d2uiz                            0x0800f851   Thumb Code     0  dfixu.o(x$fpl$dfixu)
    _dfixu                                   0x0800f851   Thumb Code    90  dfixu.o(x$fpl$dfixu)
    __aeabi_ui2d                             0x0800f8ab   Thumb Code     0  dflt_clz.o(x$fpl$dfltu)
    _dfltu                                   0x0800f8ab   Thumb Code    38  dflt_clz.o(x$fpl$dfltu)
    __aeabi_dmul                             0x0800f8d1   Thumb Code     0  dmul.o(x$fpl$dmul)
    _dmul                                    0x0800f8d1   Thumb Code   332  dmul.o(x$fpl$dmul)
    __fpl_dnaninf                            0x0800fa25   Thumb Code   156  dnaninf.o(x$fpl$dnaninf)
    __fpl_dretinf                            0x0800fac1   Thumb Code    12  dretinf.o(x$fpl$dretinf)
    INIT_LED_CONNECTED                       0x0800facc   Data           4  cmsis-dap.o(.constdata)
    __I$use$fp                               0x0800facc   Number         0  usenofp.o(x$fpl$usenofp)
    INIT_LED_RUNNING                         0x0800fad0   Data           4  cmsis-dap.o(.constdata)
    CoreDescriptor                           0x0800fad4   Data           8  cmsis-dap.o(.constdata)
    UserAppDescriptor                        0x0800fadc   Data          12  cmsis-dap.o(.constdata)
    INIT_PIN_USB_CONNECT                     0x0800fae8   Data           4  cmsis-dap.o(.constdata)
    INIT_SWD_TDI                             0x0800faec   Data           4  cmsis-dap.o(.constdata)
    INIT_SWD_TDO                             0x0800faf0   Data           4  cmsis-dap.o(.constdata)
    INIT_SWD_SWCLK_SWDIO                     0x0800faf4   Data           4  cmsis-dap.o(.constdata)
    INIT_JTAG_TDO                            0x0800faf8   Data           4  cmsis-dap.o(.constdata)
    INIT_JTAG_TCK_TMS                        0x0800fafc   Data           4  cmsis-dap.o(.constdata)
    INIT_JTAG_TDI                            0x0800fb00   Data           4  cmsis-dap.o(.constdata)
    INIT_OFF_TDI                             0x0800fb04   Data           4  cmsis-dap.o(.constdata)
    INIT_OFF_TCK_TMS                         0x0800fb08   Data           4  cmsis-dap.o(.constdata)
    INIT_OFF_TDO                             0x0800fb0c   Data           4  cmsis-dap.o(.constdata)
    INIT_OFF_nRESET                          0x0800fb10   Data           4  cmsis-dap.o(.constdata)
    INIT_PINS_A                              0x0800fb14   Data           4  cmsis-dap.o(.constdata)
    INIT_PINS_B                              0x0800fb18   Data           4  cmsis-dap.o(.constdata)
    INIT_PINS_C                              0x0800fb1c   Data           4  cmsis-dap.o(.constdata)
    MASS_DeviceDescriptor                    0x0800fb20   Data          18  usb_desc.o(.constdata)
    MASS_ConfigDescriptor                    0x0800fb32   Data          81  usb_desc.o(.constdata)
    MASS_StringLangID                        0x0800fb83   Data           4  usb_desc.o(.constdata)
    MASS_StringVendor                        0x0800fb87   Data          38  usb_desc.o(.constdata)
    MASS_StringProduct                       0x0800fbad   Data          38  usb_desc.o(.constdata)
    MASS_StringInterface                     0x0800fbd3   Data          16  usb_desc.o(.constdata)
    DAP_FW_Ver                               0x0800fbe3   Data           5  dap.o(.constdata)
    usbd_power                               0x0800fbe8   Data           1  usb_config_1.o(.constdata)
    usbd_hs_enable                           0x0800fbe9   Data           1  usb_config_1.o(.constdata)
    usbd_if_num                              0x0800fbea   Data           2  usb_config_1.o(.constdata)
    usbd_ep_num                              0x0800fbec   Data           1  usb_config_1.o(.constdata)
    usbd_max_packet0                         0x0800fbed   Data           1  usb_config_1.o(.constdata)
    usbd_hid_if_num                          0x0800fbee   Data           1  usb_config_1.o(.constdata)
    usbd_hid_ep_intin                        0x0800fbef   Data           1  usb_config_1.o(.constdata)
    usbd_hid_ep_intout                       0x0800fbf0   Data           1  usb_config_1.o(.constdata)
    usbd_hid_interval                        0x0800fbf2   Data           4  usb_config_1.o(.constdata)
    usbd_hid_maxpacketsize                   0x0800fbf6   Data           4  usb_config_1.o(.constdata)
    usbd_hid_inreport_num                    0x0800fbfa   Data           1  usb_config_1.o(.constdata)
    usbd_hid_outreport_num                   0x0800fbfb   Data           1  usb_config_1.o(.constdata)
    usbd_hid_inreport_max_sz                 0x0800fbfc   Data           2  usb_config_1.o(.constdata)
    usbd_hid_outreport_max_sz                0x0800fbfe   Data           2  usb_config_1.o(.constdata)
    usbd_hid_featreport_max_sz               0x0800fc00   Data           2  usb_config_1.o(.constdata)
    usbd_cdc_acm_cif_num                     0x0800fc02   Data           1  usb_config_1.o(.constdata)
    usbd_cdc_acm_dif_num                     0x0800fc03   Data           1  usb_config_1.o(.constdata)
    usbd_cdc_acm_ep_intin                    0x0800fc04   Data           1  usb_config_1.o(.constdata)
    usbd_cdc_acm_ep_bulkin                   0x0800fc05   Data           1  usb_config_1.o(.constdata)
    usbd_cdc_acm_ep_bulkout                  0x0800fc06   Data           1  usb_config_1.o(.constdata)
    usbd_cdc_acm_sendbuf_sz                  0x0800fc08   Data           2  usb_config_1.o(.constdata)
    usbd_cdc_acm_receivebuf_sz               0x0800fc0a   Data           2  usb_config_1.o(.constdata)
    usbd_cdc_acm_maxpacketsize               0x0800fc0c   Data           4  usb_config_1.o(.constdata)
    usbd_cdc_acm_maxpacketsize1              0x0800fc10   Data           4  usb_config_1.o(.constdata)
    USBD_P_Power_Event                       0x0800fc14   Data           4  usb_config_1.o(.constdata)
    USBD_P_Reset_Event                       0x0800fc18   Data           4  usb_config_1.o(.constdata)
    USBD_P_Suspend_Event                     0x0800fc1c   Data           4  usb_config_1.o(.constdata)
    USBD_P_Resume_Event                      0x0800fc20   Data           4  usb_config_1.o(.constdata)
    USBD_P_WakeUp_Event                      0x0800fc24   Data           4  usb_config_1.o(.constdata)
    USBD_P_SOF_Event                         0x0800fc28   Data           4  usb_config_1.o(.constdata)
    USBD_P_Error_Event                       0x0800fc2c   Data           4  usb_config_1.o(.constdata)
    USBD_P_EP                                0x0800fc30   Data          64  usb_config_1.o(.constdata)
    USBD_P_Configure_Event                   0x0800fc70   Data           4  usb_config_1.o(.constdata)
    USBD_P_Interface_Event                   0x0800fc74   Data           4  usb_config_1.o(.constdata)
    USBD_P_Feature_Event                     0x0800fc78   Data           4  usb_config_1.o(.constdata)
    __rtx                                    0x0800fc7c   Data           4  usb_config_1.o(.constdata)
    USBD_HID_ReportDescriptor                0x0800fc80   Data          33  usb_config_1.o(.constdata)
    USBD_HID_ReportDescriptorSize            0x0800fca2   Data           2  usb_config_1.o(.constdata)
    USBD_HID_DescriptorOffset                0x0800fca4   Data           2  usb_config_1.o(.constdata)
    USBD_DeviceDescriptor                    0x0800fca6   Data          18  usb_config_1.o(.constdata)
    USBD_DeviceQualifier                     0x0800fcb8   Data           1  usb_config_1.o(.constdata)
    USBD_DeviceQualifier_HS                  0x0800fcb9   Data           1  usb_config_1.o(.constdata)
    USBD_ConfigDescriptor                    0x0800fcba   Data         108  usb_config_1.o(.constdata)
    USBD_ConfigDescriptor_HS                 0x0800fd26   Data           1  usb_config_1.o(.constdata)
    USBD_OtherSpeedConfigDescriptor          0x0800fd27   Data           1  usb_config_1.o(.constdata)
    USBD_OtherSpeedConfigDescriptor_HS       0x0800fd28   Data           1  usb_config_1.o(.constdata)
    USBD_StringDescriptor                    0x0800fd2a   Data         146  usb_config_1.o(.constdata)
    Driver_USART2                            0x0800fe18   Data          56  usart_stm32f10x.o(.constdata)
    flash_algo                               0x0800ff9c   Data          52  stm32f10x_128.o(.constdata)
    flash_opt                                0x08010188   Data          52  stm32f10x_opt.o(.constdata)
    F6x8                                     0x080101bc   Data         552  oled.o(.constdata)
    F8X16                                    0x080103e4   Data        1520  oled.o(.constdata)
    Region$$Table$$Base                      0x080109fc   Number         0  anon$$obj.o(Region$$Table)
    Region$$Table$$Limit                     0x08010a1c   Number         0  anon$$obj.o(Region$$Table)
    USBLogo                                  0x20000000   Data         170  main.o(.data)
    FlashLogo                                0x200000aa   Data         165  main.o(.data)
    DebugLogo                                0x2000014f   Data         128  main.o(.data)
    Flash_Page_Size                          0x200001d0   Data           4  main.o(.data)
    Res                                      0x200001d4   Data           1  main.o(.data)
    br                                       0x200001d8   Data           4  main.o(.data)
    bw                                       0x200001dc   Data           4  main.o(.data)
    readflag                                 0x200001e0   Data           1  main.o(.data)
    addr                                     0x200001e4   Data           4  main.o(.data)
    i                                        0x200001e8   Data           4  main.o(.data)
    select                                   0x200001ec   Data           4  main.o(.data)
    breakDebug                               0x200001f0   Data           1  main.o(.data)
    debugMode                                0x200001f1   Data           1  main.o(.data)
    bytesread                                0x200001f2   Data           2  main.o(.data)
    Logo                                     0x200001f4   Data           8  main.o(.data)
    u8SysTick_Counter                        0x200001fc   Data           1  cmsis-dap.o(.data)
    u8LedMode                                0x200001fd   Data           1  cmsis-dap.o(.data)
    pCoreDescriptor                          0x20000200   Data           4  cmsis-dap.o(.data)
    pUserAppDescriptor                       0x20000204   Data           4  cmsis-dap.o(.data)
    __stdout                                 0x20000208   Data           4  usart.o(.data)
    USART_RX_STA                             0x2000020c   Data           2  usart.o(.data)
    uart1_rev_len                            0x2000020e   Data           1  usart.o(.data)
    SystemCoreClock                          0x20000214   Data           4  system_stm32f10x.o(.data)
    AHBPrescTable                            0x20000218   Data          16  system_stm32f10x.o(.data)
    Mass_Memory_Size                         0x20000244   Data           4  mass_mal.o(.data)
    Mass_Block_Size                          0x20000248   Data           4  mass_mal.o(.data)
    Mass_Block_Count                         0x2000024c   Data           4  mass_mal.o(.data)
    Status                                   0x20000250   Data           4  mass_mal.o(.data)
    Block_Read_count                         0x20000254   Data           4  memory.o(.data)
    Block_offset                             0x20000258   Data           4  memory.o(.data)
    Counter                                  0x2000025c   Data           4  memory.o(.data)
    Idx                                      0x20000260   Data           4  memory.o(.data)
    TransferState                            0x20000264   Data           1  memory.o(.data)
    Page00_Inquiry_Data                      0x20000278   Data           5  scsi_data.o(.data)
    Standard_Inquiry_Data                    0x2000027d   Data          22  scsi_data.o(.data)
    Standard_Inquiry_Data2                   0x20000293   Data          36  scsi_data.o(.data)
    Mode_Sense6_data                         0x200002b7   Data           4  scsi_data.o(.data)
    Mode_Sense10_data                        0x200002bb   Data           8  scsi_data.o(.data)
    Scsi_Sense_Data                          0x200002c3   Data          18  scsi_data.o(.data)
    ReadCapacity10_Data                      0x200002d5   Data           8  scsi_data.o(.data)
    ReadFormatCapacity_Data                  0x200002dd   Data          12  scsi_data.o(.data)
    Bot_State                                0x200002ec   Data           1  usb_bot.o(.data)
    Data_Len                                 0x200002ee   Data           2  usb_bot.o(.data)
    SCSI_LBA                                 0x200002f0   Data           4  usb_bot.o(.data)
    SCSI_BlkLen                              0x200002f4   Data           4  usb_bot.o(.data)
    MASS_StringSerial                        0x200002f8   Data          26  usb_desc.o(.data)
    count_out                                0x20000314   Data           4  usb_endp.o(.data)
    count_in                                 0x20000318   Data           4  usb_endp.o(.data)
    temp_cnt                                 0x2000031c   Data           1  usb_endp.o(.data)
    wIstr                                    0x20000320   Data           2  usb_istr.o(.data)
    bIntPackSOF                              0x20000322   Data           1  usb_istr.o(.data)
    pEpInt_IN                                0x20000324   Data          28  usb_istr.o(.data)
    pEpInt_OUT                               0x20000340   Data          28  usb_istr.o(.data)
    Max_Lun                                  0x2000035c   Data           4  usb_prop.o(.data)
    Request                                  0x20000360   Data           1  usb_prop.o(.data)
    linecoding                               0x20000364   Data           8  usb_prop.o(.data)
    Device_Table                             0x2000036c   Data           2  usb_prop.o(.data)
    Device_Property                          0x20000370   Data          48  usb_prop.o(.data)
    User_Standard_Requests                   0x200003a0   Data          36  usb_prop.o(.data)
    Device_Descriptor                        0x200003c4   Data           8  usb_prop.o(.data)
    Config_Descriptor                        0x200003cc   Data           8  usb_prop.o(.data)
    String_Descriptor                        0x200003d4   Data          40  usb_prop.o(.data)
    bDeviceState                             0x200003fc   Data           4  usb_pwr.o(.data)
    fSuspendEnabled                          0x20000400   Data           1  usb_pwr.o(.data)
    ResumeS                                  0x20000401   Data           2  usb_pwr.o(.data)
    StatusInfo                               0x20000404   Data           2  usb_core.o(.data)
    Data_Mul_MaxPacketSize                   0x20000406   Data           1  usb_core.o(.data)
    EPindex                                  0x20000408   Data           1  usb_init.o(.data)
    pInformation                             0x2000040c   Data           4  usb_init.o(.data)
    pProperty                                0x20000410   Data           4  usb_init.o(.data)
    SaveState                                0x20000414   Data           2  usb_init.o(.data)
    wInterrupt_Mask                          0x20000416   Data           2  usb_init.o(.data)
    pUser_Standard_Requests                  0x20000418   Data           4  usb_init.o(.data)
    SaveRState                               0x2000041c   Data           2  usb_int.o(.data)
    SaveTState                               0x2000041e   Data           2  usb_int.o(.data)
    DAP_TransferAbort                        0x20000420   Data           1  dap.o(.data)
    USBD_AltSetting                          0x20000438   Data           3  usb_config_1.o(.data)
    USBD_HID_PollingCnt                      0x2000043c   Data           2  usb_config_1.o(.data)
    USBD_HID_IdleCnt                         0x2000043e   Data           1  usb_config_1.o(.data)
    USBD_HID_IdleReload                      0x2000043f   Data           1  usb_config_1.o(.data)
    USBD_HID_IdleSet                         0x20000440   Data           1  usb_config_1.o(.data)
    USBD_HID_FeatReport                      0x20000441   Data           2  usb_config_1.o(.data)
    pBUF_DSCR                                0x20000444   Data           4  usbd_stm32f103_1.o(.data)
    FreeBufAddr                              0x20000448   Data           2  usbd_stm32f103_1.o(.data)
    W25QXX_TYPE                              0x20000480   Data           2  w25qxx.o(.data)
    USBD_DeviceAddress                       0x20000484   Data           1  usbd_core.o(.data)
    USBD_Configuration                       0x20000485   Data           1  usbd_core.o(.data)
    USBD_NumInterfaces                       0x20000486   Data           1  usbd_core.o(.data)
    USBD_HighSpeed                           0x20000487   Data           1  usbd_core.o(.data)
    USBD_ZLP                                 0x20000488   Data           1  usbd_core.o(.data)
    USBD_DeviceStatus                        0x2000048a   Data           2  usbd_core.o(.data)
    USBD_EndPointMask                        0x2000048c   Data           4  usbd_core.o(.data)
    USBD_EndPointHalt                        0x20000490   Data           4  usbd_core.o(.data)
    USBD_EndPointNoHaltClr                   0x20000494   Data           4  usbd_core.o(.data)
    USBD_RTX_CoreTask                        0x20000498   Data           4  usbd_core.o(.data)
    USBD_EP0Data                             0x2000049c   Data           8  usbd_core.o(.data)
    USBD_SetupPacket                         0x200004a4   Data           8  usbd_core.o(.data)
    control_line_state                       0x200004ac   Data           2  usbd_cdc_acm.o(.data)
    data_send_access                         0x200004b0   Data           4  usbd_cdc_acm.o(.data)
    data_send_active                         0x200004b4   Data           4  usbd_cdc_acm.o(.data)
    data_send_zlp                            0x200004b8   Data           4  usbd_cdc_acm.o(.data)
    data_to_send_wr                          0x200004bc   Data           4  usbd_cdc_acm.o(.data)
    data_to_send_rd                          0x200004c0   Data           4  usbd_cdc_acm.o(.data)
    ptr_data_to_send                         0x200004c4   Data           4  usbd_cdc_acm.o(.data)
    ptr_data_sent                            0x200004c8   Data           4  usbd_cdc_acm.o(.data)
    data_read_access                         0x200004cc   Data           4  usbd_cdc_acm.o(.data)
    data_receive_int_access                  0x200004d0   Data           4  usbd_cdc_acm.o(.data)
    data_received_pending_pckts              0x200004d4   Data           4  usbd_cdc_acm.o(.data)
    data_no_space_for_receive                0x200004d8   Data           4  usbd_cdc_acm.o(.data)
    ptr_data_received                        0x200004dc   Data           4  usbd_cdc_acm.o(.data)
    ptr_data_read                            0x200004e0   Data           4  usbd_cdc_acm.o(.data)
    line_coding                              0x200004e4   Data           7  usbd_cdc_acm.o(.data)
    USBD_HID_Protocol                        0x200004ed   Data           1  usbd_hid.o(.data)
    DataOutToSendLen                         0x200004ee   Data           2  usbd_hid.o(.data)
    DataOutSentLen                           0x200004f0   Data           2  usbd_hid.o(.data)
    DataInReceLen                            0x200004f2   Data           2  usbd_hid.o(.data)
    DataFeatReceLen                          0x200004f4   Data           2  usbd_hid.o(.data)
    DataOutAsyncReq                          0x200004f8   Data           4  usbd_hid.o(.data)
    DataOutUpdateReqMask                     0x200004fc   Data           4  usbd_hid.o(.data)
    DataOutProcessing                        0x20000500   Data           4  usbd_hid.o(.data)
    DataOutProcessPending                    0x20000504   Data           4  usbd_hid.o(.data)
    ptrDataOut                               0x20000508   Data           4  usbd_hid.o(.data)
    DataOutEndWithShortPacket                0x2000050c   Data           4  usbd_hid.o(.data)
    DataOutInProgress                        0x20000510   Data           4  usbd_hid.o(.data)
    ptrDataIn                                0x20000514   Data           4  usbd_hid.o(.data)
    ptrDataFeat                              0x20000518   Data           4  usbd_hid.o(.data)
    fnew                                     0x2000051c   Data         548  main.o(.bss)
    FileInfo                                 0x20000740   Data          24  main.o(.bss)
    DirInfo                                  0x20000758   Data          28  main.o(.bss)
    fs                                       0x20000774   Data         560  main.o(.bss)
    rData                                    0x200009a4   Data        1024  main.o(.bss)
    USART_RX_BUF                             0x20000da4   Data         200  usart.o(.bss)
    USART_TX_BUF                             0x20000e6c   Data         200  usart.o(.bss)
    usart_rx_data                            0x20000f34   Data          60  usart.o(.bss)
    Data_Buffer                              0x20000f70   Data         512  memory.o(.bss)
    Bulk_Data_Buff                           0x20001170   Data          64  usb_bot.o(.bss)
    CBW                                      0x200011b0   Data          32  usb_bot.o(.bss)
    CSW                                      0x200011d0   Data          16  usb_bot.o(.bss)
    buffer_out                               0x200011e0   Data          64  usb_endp.o(.bss)
    temp                                     0x20001220   Data          60  usb_endp.o(.bss)
    Device_Info                              0x2000125c   Data          28  usb_init.o(.bss)
    DAP_Data                                 0x20001278   Data          64  dap.o(.bss)
    USBD_EP0Buf                              0x200022b8   Data          64  usb_config_1.o(.bss)
    USBD_HID_InReport                        0x200022f8   Data          65  usb_config_1.o(.bss)
    USBD_HID_OutReport                       0x20002339   Data          65  usb_config_1.o(.bss)
    USBD_CDC_ACM_SendBuf                     0x2000237a   Data          64  usb_config_1.o(.bss)
    USBD_CDC_ACM_ReceiveBuf                  0x200023ba   Data          64  usb_config_1.o(.bss)
    USBD_CDC_ACM_NotifyBuf                   0x200023fa   Data          10  usb_config_1.o(.bss)
    W25QXX_BUFFER                            0x20004c3c   Data        4096  w25qxx.o(.bss)
    __libspace_start                         0x20005c3c   Data          96  libspace.o(.bss)
    __temporary_stack_top$libspace           0x20005c9c   Data           0  libspace.o(.bss)



==============================================================================

Memory Map of the image

